:1000000071C100008CC100008AC100000C9467140B
:1000100086C1000084C1000082C100000C94561407
:100020007EC100007CC100007AC1000078C10000E0
:1000300076C1000074C1000072C1000070C10000F0
:100040006EC100006CC100006AC1000068C1000000
:100050000C940C1464C1000062C1000060C1000077
:100060005EC100005CC100005AC1000058C1000020
:1000700056C1000054C1000052C100003036323376
:100080002E302E6362666331613100FF3FEE1F8FB9
:100090001E5D38233506320E2F402C9C292127A2C5
:1000A000280E26AE237F21A721991FB51D701DB5EF
:1000B0001B1C1AA31847170416D914C413C212D252
:1000C00011F1101F10590F310E8C0D900C050C2ED4
:1000D0000BB80AFF095609BA082B08A8072E07BF54
:1000E000065706F8059F054D050005B90477043944
:1000F000040004CA03970368033C0313030203DCF0
:1001000002CC02AA029C028E0270026302650258AF
:10011000024B024B023E023D023B02390236023FD5
:10012000023F023F023F023F023F023F023F023FC7
:10013000023F023F023F023F023F023F023F023FB7
:10014000023F023F023F023F023F023F023F023FA7
:10015000023F023F023F023F023F023F023F023F97
:10016000023F023F023F023F023F023F023F023F87
:10017000023F023F023F023F023F023F023F023F77
:10018000023F023F023F023F023F023F023F023F67
:10019000023F023F023F023F023F023F023F023F57
:1001A000023F023F023F023F023F023F023F023F47
:1001B000023F023F023F020100010002000400056D
:1001C0000006000700080009000A000C000D000EE0
:1001D000000F001100120013001500160017001880
:1001E0000019001A001B001C001D001E001F00202B
:1001F00000210021002200220023002300240024EB
:1002000000240024002400240024002400240024CE
:1002100000240024002400240024002400240024BE
:1002200000240024002400240025002500260026A8
:100230000027002800280029002B002C002D002F6B
:1002400000300032003400360038003B003E0040F1
:10025000004300450048004B004E00510054005739
:10026000005A005E006100650068006C0070007458
:100270000078007C008000850089008E0093009744
:10028000009C00A100A700AC00B100B700BD00C2F7
:1002900000C800CE00D500DB00E200E800EF00F669
:1002A00000FD0004010C0113011B0123012B01338C
:1002B000013C0144014D0156015F01690172017C5D
:1002C00001860190019A01A401AF01BA01C501D0D4
:1002D00001DC01E701F301FF010B021802250232E4
:1002E000023F020011241FBECFEFCDBFDFE3DEBF10
:1002F00018E3A0E0B8E3EDE5F0E302C005900D924D
:10030000A234B107D9F728E3A2E4B8E301C01D92F3
:10031000A73DB207E1F70E9477140C94151870CE30
:10032000F89498ED94BF809361008091630080FD04
:10033000FCCF78940895E0E0F6E0828581608287C2
:100340008085816080870895E4EAF8E320E030E06A
:100350009081992339F02F5F3F4F3396203131053B
:10036000B9F70BC0F901EE0FFF1F2E0F3F1FF90168
:10037000EC55F74C80836183728308950F931F932C
:10038000CF93DF93D091A438DD2351F10091A538AC
:100390001091A638C0918138C150C7FD0DC0EC2F17
:1003A000EE0FFF0BEE57F74C0190F081E02DB801F6
:1003B0008D2F09958111F0CFE4EAF8E383818083E2
:1003C0008481958181839283339688E3E13DF807A8
:1003D000A9F71092D1381092D2381092D338D2CFD8
:1003E000DF91CF911F910F910895BC018091D63874
:1003F000ABCF1092D6381092D4381092D53881E015
:100400008093733808950F931F93CF93C82F0CECEC
:1004100018E0CC2349F085E083DFC8010197F1F7AC
:1004200081E07EDFC150F5CFCF911F910F910895EC
:10043000E0E0F6E083E88083838180628383A0EA42
:10044000B0E08C918F7880648C938DE1868382E01C
:10045000818383E582831092A0381092A1386BCFFC
:1004600082B185FB882780F991E0892780937A38CB
:100470000895AF92BF92CF92DF92EF92FF920F93C7
:10048000CF93DF935C016B01EA017901202F30E00B
:10049000DA010E94DB1761587F4F8F4F9F4F2FEF7C
:1004A00030E040E050E00E94B917C901BE01621B74
:1004B000730BE216F30630F48E199F09680F791F4B
:1004C000C70109C0E616F70630F4C9018E199F0965
:1004D000860F971FB701F50160837183F601808352
:1004E0009183DF91CF910F91FF90EF90DF90CF90AC
:1004F000BF90AF900895E0910738F0910838319699
:10050000FB70F460E0930738F093083880917638F8
:100510008B5A80937638E491809176388E0F0895C7
:10052000882349F0813069F480E28093220488E0D6
:1005300080933504089580E28093210480932604FB
:10054000089580E280932104809325040895CF9339
:10055000C82F8091793881110AC091E0C11101C082
:1005600090E081E0CC3408F480E0890FD9DFC1113C
:1005700011C01092380A1092390A10923A0A109259
:100580003B0A10923C0A10923D0A1092200A1092E7
:10059000210A0EC0E0910C3885E0E89FF00111249B
:1005A000EC5BFF440190F081E02D8FEF8C0F0995FB
:1005B000C0937838C0937738C53010F485E005C013
:1005C000CC3010F483E001C081E0CF91A9CE90E05F
:1005D000880F991FFC01E954FE4F25913491209317
:1005E0003C0A30933D0AFC01E557FF4F85919491F9
:1005F0008093360A9093370A80917838811104C02D
:100600001092200A1092210A0895EF92FF920F9300
:10061000CF93DF9300D000D0CDB7DEB790E0880F46
:10062000991FFC01E954FE4F45915491FC01E55797
:10063000FF4FE590F490E0910C38F0E0E25FF74C6A
:1006400005899701BE016F5F7F4FCE01039611DFD1
:100650008B819C818093380A9093390A89819A8191
:1006600080933A0A90933B0AE092360AF092370A56
:1006700080917838811104C01092200A1092210ACA
:100680002496CDBFDEBFDF91CF910F91FF90EF9009
:100690000895CF92DF92EF92FF920F93CF93DF9363
:1006A00000D000D0CDB7DEB7282F30E0220F331FA7
:1006B000F901E954FE4FE590F490F901E557FF4F39
:1006C000C590D4902FEF829FC001112466E970E09D
:1006D0000E949217062F9601A701BE016F5F7F4F00
:1006E000CE010396C6DE8B819C818093380A90935D
:1006F000390A89819A8180933A0A90933B0AC09281
:10070000360AD092370A80917838811104C010924D
:10071000200A1092210A2496CDBFDEBFDF91CF912F
:100720000F91FF90EF90DF90CF900895CF93C82F57
:1007300010920C386ADF84E080930C38EC2FF0E0E4
:10074000EE0FFF1FE954FE4FA591B4912091273879
:1007500030E00E94DB1761587F4F8F4F9F4F2FEF84
:1007600030E040E050E00E94B91720933C0A3093FB
:100770003D0A80917838811104C01092200A1092AD
:10078000210ACF91089520913C0A30913D0A281703
:10079000390738F420913C0A30913D0A2F5F3F4FD2
:1007A0000DC020913C0A30913D0A8217930750F406
:1007B00020913C0A30913D0A2150310920933C0A96
:1007C00030933D0A2091380A3091390A26173707AD
:1007D00038F42091380A3091390A2F5F3F4F0DC00D
:1007E0002091380A3091390A6217730750F420912A
:1007F000380A3091390A215031092093380A309350
:10080000390A20913A0A30913B0A2417350738F407
:1008100020913A0A30913B0A2F5F3F4F0DC0209143
:100820003A0A30913B0A4217530750F420913A0A92
:1008300030913B0A2150310920933A0A30933B0A08
:1008400020913C0A30913D0A8217930779F48091F8
:10085000380A9091390A6817790741F420913A0AC9
:1008600030913B0A81E04217530709F080E0089578
:10087000E82FF0E0EE0FFF1FE954FE4F85919491B1
:1008800040E050E060E070E07ECF0F93CF93DF93C5
:1008900000D000D0CDB7DEB790E0880F991FFC01E3
:1008A000E954FE4F45915491FC01E557FF4F2591C6
:1008B0003491E0910C38F0E0E25FF74C0589BE011D
:1008C0006F5F7F4FCE010396D4DD49815A816B81E2
:1008D0007C8180E090E057DF2496CDBFDEBFDF91C2
:1008E000CF910F910895EF92FF920F93CF93DF93E3
:1008F00000D000D0CDB7DEB7282F30E0220F331F55
:10090000F901E954FE4FE590F490F901E557FF4FE6
:10091000259134914FEF849FC001112466E970E066
:100920000E949217062FA701BE016F5F7F4FCE0175
:1009300003969FDD49815A816B817C8180E090E044
:1009400022DF2496CDBFDEBFDF91CF910F91FF90C4
:10095000EF900895BF92CF92DF92EF92FF920F93A4
:100960001F93CF93DF9300D000D0CDB7DEB790E0D8
:10097000880F991FFC01E954FE4FE590F490FC01AB
:10098000E557FF4F25913491E0910C38F0E0E25F9C
:10099000F74CB58800912338A701BE016F5F7F4FE8
:1009A000CE01039666DDC980DA800B811C812B2D78
:1009B00030E0D7010E94DB1761587F4F8F4F9F4F68
:1009C0002FEF30E040E050E00E94B917DA01C90192
:1009D000A601B801D8DE2496CDBFDEBFDF91CF914E
:1009E0001F910F91FF90EF90DF90CF90BF900895EF
:1009F000CF93DF93CDB7DEB72697CDBFDEBF909103
:100A00000E38209192383091933822503F4009F4AB
:100A100092E0843019F460931A381FC06623E9F01D
:100A2000823019F427E9261B622F26E0EEE2F0EB74
:100A3000DE01119601900D922A95E1F79E012F5F3C
:100A40003F4F280F311D280F311DF90132970190BA
:100A5000F081E02DE90FF11D60832696CDBFDEBF4A
:100A6000DF91CF910895813011F460932D3808956E
:100A7000BF92CF92DF92EF92FF920F931F93CF938B
:100A8000DF93EC0140910E3890911938992311F0C1
:100A9000E2E001C0E42FF0E0E25FF74C2281209316
:100AA0000A38858180930938E92FF0E0E25FF74C3E
:100AB0003185622F70E0442349F0313039F49B01D5
:100AC000280F311DC9019595879538C0C617D707DE
:100AD000A4F1682F70E06C177D0784F1411102C00A
:100AE0008C2F2CC0821B032F10E001501109E82E1F
:100AF000F12CC701B8010E94A61760937038669563
:100B0000E62FF0E0822FC12CD12CB12CB316B1F01E
:100B1000C601B8010E949217822F860FCE0CDF1CEF
:100B2000AE01481B510957FF03C05195419551092A
:100B3000E417F5071CF4B394E9CF822FDF91CF912E
:100B40001F910F91FF90EF90DF90CF90BF9008958D
:100B500080911C3880930B388091213880931E3807
:100B600080930C38E3E2F8E38581819388E3E832EF
:100B7000F807D1F7089580916D38882351F090914E
:100B8000783890936F3880936C3810926A3810924E
:100B90006B380895CF93C091783889E18C0F8739ED
:100BA00008F080E0D4DC82E02EDC8C2FCF91CFCC1B
:100BB000CF93C091783880E0CADC83E024DC8C2FAE
:100BC000CF91C5CC81E00895611160933A380895C2
:100BD000662389F0813061F48091943890913C389B
:100BE000891B681B60933C3882E080930D3803C0FA
:100BF000635E60933B3880913B38873418F086E41D
:100C000080933B38089560933E380895E82FF0E0D4
:100C1000E25FF74C60AB08957FEF780F40911F388B
:100C200050912038662359F021E030E002C0220FB5
:100C3000331F7A95E2F7CA01822B932B0AC081E019
:100C400090E002C0880F991F7A95E2F7809584237F
:100C5000952380931F38909320380895809371389E
:100C600090917838981718F4282F291B02C0292F43
:100C7000281B30916438311106C030912E3833234F
:100C800069F0223058F08093653884E080936338AF
:100C900081E08093643890936638089558CCCF9360
:100CA000DF938EE098E38093743890937538F894CE
:100CB000C0E0D0E0E0917438F0917538EC0FFD1F82
:100CC00060812196CE010E94F817C433D10591F7B7
:100CD00065EA80E090E00E94F8177894DF91CF9168
:100CE0000895CF931092A238809110069091763893
:100CF000890F8093763880919738882309F44BC107
:100D0000109297389091A03880917938882349F0D3
:100D1000809100068E7F809300061092A338109277
:100D2000A038911165C080910D38882329F0209159
:100D30009C3830919D381AC020917938809198382C
:100D4000909199382223B9F020919C3830919D38A8
:100D500063E0369527956A95E1F7280F391F73E010
:100D6000969587957A95E1F7281B390B209398384B
:100D70003093993801C09C01C0913A38CC0F54E0AF
:100D8000369527955A95E1F740E050E060E070EC29
:100D900083E090E00E94B9172C0F20939638809141
:100DA0006138882311F0815007C0243738F460E09F
:100DB00070E084E0C9DA85E0809361388091793809
:100DC0008111E0C08091A0008F7880618093A000A5
:100DD0008EE18093060682E08093010683E480938F
:100DE000020681E08093A0381092A138A4DACAC02C
:100DF000913009F0C7C080910D38882341F080916F
:100E00009E3890919F3880939A3890939B38209188
:100E1000201180912111A0919A38B0919B3830E433
:100E20008302A019B109112430E00E94DB17DC0114
:100E3000CB01905EAF4FBF4F892F9A2FAB2FBB27AF
:100E400020913C38FC0136E0F695E7953A95E1F7BC
:100E5000022E000C330BA901435151404E0F5F1F6E
:100E60004093943850939538BC0145E0769567954A
:100E70004A95E1F780910D3881112AC08091503850
:100E8000E82FF0E0EE0FFF1FEF5AF74C4081518141
:100E9000DB01A41BB50BAD01608371838F5F87708D
:100EA0008093503880913B3890E08D5E9E4F821B3E
:100EB000930B880F991F9B01281B390BC9019D01BA
:100EC000220F331F220F331F820F931F23E00EC008
:100ED000E1E5F8E36193719388E3E136F807D1F730
:100EE000CDCF009709F00196215029F01816190668
:100EF000C4F70197F9CF18161906E4F457FD39C065
:100F000020914F3812160CF1880F991FBC016350C5
:100F1000710977FF02C06F5F7F4F75956795161651
:100F2000170614F061E070E088E1861B80934F386B
:100F300085E026C08C3FAFEF9A07DCF457FF19C05D
:100F400020914F3827FF05C02450281B20934F388D
:100F500018C024EE281B20934F382091963826374E
:100F600080F06CEF7FEF681B790B7595679586E0D5
:100F700007C080919638853720F060E070E087E008
:100F8000E3D956DA80910D38882329F080910D3805
:100F9000815080930D38CF910895CF93DF93909136
:100FA0000C38981759F0C82FD091783880E0CFDAF4
:100FB000C0930C388D2FDF91CF91C9CADF91CF91AB
:100FC0000895813019F410921C380895823019F474
:100FD00060931D380895833019F460931B38089589
:100FE000843019F460930F380895853011F46093BC
:100FF0002E38089590919638943710F480E011C0FF
:10100000943828F466956170635086230AC0982F3F
:101010009F70933030F06F70E62FF0E0EC5CFF448F
:1010200080817ECACF93C0911938C1114FC08830DA
:1010300039F410926D3810926A3810926B3847C0AC
:10104000813B81F480916D388150833008F03EC03F
:1010500083E080936D3880936C3810926A381092D8
:101060006B3834C0853BB1F4CB016EE370E00E9475
:101070009217892B61F580916D388A3F40F58B5F1F
:1010800080936D3880936C3810926A3810926B3868
:1010900081DD1DC08130D1F480916A3890916B3828
:1010A000019688382EE0920728F480936A3890934E
:1010B0006B380DC010926A3810926B3880916D3881
:1010C000882329F0815080936D3801C0C1E08C2FB6
:1010D000CF910895FF920F931F93CF93DF938C01CD
:1010E000EB01F42E8091923890919338892B31F056
:1010F000E0919238F091933889E009950093923805
:1011000010939338012B39F0E0919238F091933895
:10111000BE018F2D099581E080937338DF91CF91C7
:101120001F910F91FF900895CF93DF93E091813845
:10113000EE2359F0E150E0938138F0E0EE0FFF1F0D
:10114000EE57F74CC081D18102C0C0E0D0E0E09101
:101150008138EE2341F0F0E0EE0FFF1FE058F74C2E
:101160008081918102C080E090E04AE060E070E020
:10117000B1DFCE01DF91CF910895CF93DF93EB01E3
:10118000883029F4109262381092493815C08130A5
:1011900029F590914938911107C060327105A8F185
:1011A0008093493826D931C09130B1F46B3B710539
:1011B00028F082E08093493880E026C0209729F10A
:1011C00080910C38833011F083E0E7DE8C2F827041
:1011D000880F880F8E5E18C0A7DF17C0813811F006
:1011E000813E99F491E090934938813E21F48091B9
:1011F0006238865F03C0809162388F5F8093623867
:10120000F8D880E0CADE8BE4A2D980E0DF91CF91EC
:1012100008959C0190918138983088F4E92FF0E08E
:10122000EE0FFF1FEE57F74C208331839F5F9093A3
:10123000813848E0C9014EDF8091813808958FEFF1
:1012400008950F931F93CF93DF93EC018B016CDF15
:10125000B801CE01DF91CF911F910F91DACF813C80
:1012600029F460E070E08BE39FE006C0823C39F433
:1012700060E070E080E09CE0E4DF80E0089581E0E1
:101280000895843011F5809192389091933821E13E
:101290008339920729F469E170E08AEA99E013C082
:1012A0008A5A994061F490917838923040F0892FB1
:1012B000869596959695890FD1DC80E0089560E03B
:1012C00070E08BE39FE0BDDFF8CF81E00895813CC3
:1012D00029F460E070E08BE39FE006C0823C31F4CB
:1012E00060E070E08FE299E0ACDF16C0813B49F42A
:1012F000CB016EE370E00E949217892B69F44ADCFF
:101300000BC0813E59F4CB016EE370E00E9492174E
:101310006F5F60933938C3DC80E0089581E0089501
:10132000813C29F460E070E08BE39FE006C0823CE2
:1013300031F460E070E087E699E083DF07C0873B27
:1013400039F460E070E082E19FE063DF80E00895BF
:1013500081E00895BF92CF92DF92EF92FF920F93B8
:101360001F93CF93DF93C82F8B0180911E388093FA
:101370000C38D0900A38F090093880910E388823C4
:1013800019F0B090703802C0BB24B394C0900F38ED
:10139000809119388111C0901A38CC2051F031E079
:1013A000C31621F080910B388F1518F0F6E9EF2E57
:1013B00001C0EF2CD0916D38B8018C2F33DE209115
:1013C0006D38222339F0D1110CC080917838809388
:1013D0006F3807C0DD2329F060E070E08BE39FE009
:1013E00036C08C2F8D7F8830D9F410926938CA307E
:1013F00019F400910B3810E08D2D90E080179107C3
:1014000038F48F2D90E00817190710F400930B386B
:10141000C8012EDB23DC81E080930638D0E0E5C1F3
:10142000C13CD1F2C23C59F4809178388E1510F449
:101430008E2D02C080910B3811DC9DDBEFCFC43CB8
:1014400041F480E084D860E070E08FE09DE0F9DE58
:10145000E5CF8FE48C0F823008F062C080910E38A7
:10146000882341F0C80168E170E00E949217892B3F
:1014700031F0D4CF6091163870E0C801F6CFD0912A
:101480006438D111CBCF809178380115110561F402
:10149000C23B11F48FEF05C08F15E0F7D81648F165
:1014A00081E08093063825C02091163830E066E34D
:1014B00071E0269FA001279F500D369F500D1124EB
:1014C0004017510710F48F1528F76CE672E0269F3D
:1014D000A001279F500D369F500D11244017510732
:1014E00040F4D81630F056DB60E070E08FE09DE00D
:1014F000A8DEC0917838209106383B2D2303C00127
:1015000011248C0F911DB4DA80930B38C81719F091
:10151000F81201C04DDB80910B38A0DB2CDB65C1DC
:101520008FE18C0F823020F480910638819574CF42
:10153000C13009F086C00932110511F4C093063894
:10154000222371F1C0916F38C29F90011124E09164
:101550006C38F0E0C901BF010E94A617462FC901EF
:101560008C1B9109BF010E94A617242F261B809176
:101570006A3890916B386EE370E00E949217269F54
:10158000C001279F900D11246CE370E00E94921718
:10159000461B642F09F461E06093773860937138DB
:1015A000C0917738209178388C2F90E0821B910978
:1015B00060914C3870914D386F5F7F4F60934C381D
:1015C00070934D38009709F429CF97FF05C029374C
:1015D00030F040E450E005C040E052E002C040E09E
:1015E00051E05695479597FD0196959587950097FB
:1015F000C1F74617570708F011CFC21710F4CFEF05
:1016000003C02C1710F4C1E0C20FE0910C3885E044
:10161000E89FF0011124EC5BFF440280F381E02D90
:101620008FEF8C0F0995882339F0D09177388C2F64
:101630000E94A702D093773810924C3810924D3800
:10164000EDCEC530A1F4809178388C3408F4E6CE24
:1016500090E0801B910B8B34910534F08739910514
:101660006CF186E990E02AC08BE490E027C0C63098
:10167000B9F49091783880917138981708F0CECEEF
:10168000090F111D90E08017910734F00B341105FC
:1016900024F40BE410E001C08C0100937738BECE37
:1016A000C73079F49091773880917838891710F4A1
:1016B0008F5F04C0981708F0B1CE815080937738BF
:1016C000ADCEC33C19F0C63C41F517C060911F3840
:1016D0007091203880E090E020E0AB01082E02C03D
:1016E000569547950A94E2F74170240F019685308C
:1016F000910599F7223008F077C081E090910E387B
:10170000911180E080930E38CADA52DA80917838ED
:1017100090E0AED980930B388FCED0911938D1118B
:1017200063C08DE48C0F8230B0F4C33B59F4E09178
:101730000C3835E0E39FF0011124EC5BFF44848119
:10174000811152C0012B09F069CECC2011F086E93D
:10175000E82E8E2D13C08DE18C0F823088F4C33EAD
:1017600059F4E0910C3885E0E89FF0011124EC5B1E
:10177000FF448481811138C080910B386FDA35C005
:10178000C53C69F48091783880930B3880E00E94E2
:10179000A70260E070E083E493E153DD26C0C73B1D
:1017A00029F460E070E08EEF9EE01CC0CA3CA1F41A
:1017B0008091783880931C3880910C388093213840
:1017C000E3E2F8E388E298E3219124838E179F07F0
:1017D000D9F765DADFD909C0CA3B31F460E070E0BF
:1017E00086E09FE016DD01C0D1E08D2FDF91CF9123
:1017F0001F910F91FF90EF90DF90CF90BF900895D1
:10180000CF93C0911938C11125C0813C29F460E003
:1018100070E08BE39FE006C0823C31F460E070E052
:1018200080E999E00EDD17C0833C61F48091223895
:1018300090E0019665E070E00E94A6178093223840
:101840002EDA09C0873B31F460E070E08EE09FE063
:10185000E0DC01C0C1E08C2FCF910895EF92FF92A0
:101860000F931F93CF93DF93E0910C38833CE1F407
:1018700000911F38109120388E2F25E0C5E0D0E070
:1018800090E00196BE010E94A617A801082E02C092
:10189000569547950A94E2F740FF03C0E81319C034
:1018A00016C0215069F7FACFF0E0E25FF74CC58926
:1018B000833B09F086C06115710529F481E08093AE
:1018C00048381092473880914838811109C0C1E0EA
:1018D0009EC063DB80910C3880931E38E0D996C09F
:1018E0002091053812161CF4CF3F39F44FC0222343
:1018F00009F44CC0CC2309F449C040912D3844234D
:10190000A1F0CB0168E170E00E949217892B09F0E9
:101910007DC0423008F447C0642F70E06150710907
:101920008EEF90E00E94A61701C061E026039001AF
:1019300011242C0F311D37FD38C02F3F310509F020
:10194000B4F5411102C0C22F33C0E42EF12C81E066
:10195000E81AF1088FEF90E0B7010E94A61766958C
:10196000E62FF0E000E010E0C801B7010E949217F6
:10197000C62FC901861B9109E817F907CCF401505D
:101980001F4F802F8195841778F312C080914638BD
:10199000C8130EC080914738811101C009D981E078
:1019A0008093473805C0CFE703C0C0E001C0CFEF48
:1019B000C0934638E0910C38F0E0E25FF74CC58BFD
:1019C00013C0833EB1F410924838C11102C081E0C7
:1019D00005C0CF3F31F0809105388195809305385F
:1019E00002C0C09305385BD9809178380E94A70265
:1019F0000DC0C0911938C1116ACF893B09F067CF7A
:101A000060E070E08EE19FE004DC01C0C0E08C2F5C
:101A1000DF91CF911F910F91FF90EF9008950F9359
:101A20001F93CF93DF93C82F8B0180798039B9F44E
:101A300020911038909111388C2F8F70813021F4C3
:101A4000822F921748F407C080911C38811104C07E
:101A5000822F291708F4892F0E94A70214C080380A
:101A600021F480E00E94A70205C0C83019F410924A
:101A7000723859C0C13039F40931110508F470C009
:101A8000C09379386DC0C330F9F4809172388F3FBC
:101A900019F08F5F8093723880911C38882369F029
:101AA00040911D3822EC31E0429FC001439F900DD0
:101AB00011240817190708F04BD880913D38602F82
:101AC0008695869597DA4CC0C33C31F463D860E0C4
:101AD00070E08BE39FE014C0C43C21F460910B38AC
:101AE00070E00CC0C43B31F463D81092D63861E08A
:101AF00070E004C0C53C31F466E970E08AEA99E020
:101B0000A0DB2EC0C33B79F4C8016EE370E00E94F5
:101B10009217892B41F460E070E083ECDF91CF9164
:101B20001F910F919BCED0911938D1111BC0C73C8A
:101B300079F490913D38892F869586958F5F8370D3
:101B4000880F880F9370890F80933D38A8D80BC0F9
:101B5000CA3B41F460E070E086E19FE05ADB03C0DD
:101B6000D0E001C0D1E08D2FDF91CF911F910F9177
:101B700008954F925F926F927F92AF92BF92DF92E1
:101B8000EF92FF920F931F93CF93DF937C018B0112
:101B9000EA01E22FF0E0EE0FFF1FE954FE4FA5909F
:101BA000B4903FEF239FC001112466E970E00E94CA
:101BB0009217D62EAFEFB0E0A61BB10995010E9497
:101BC000EA1761587F4F8F4F9F4F2FEF30E040E073
:101BD00050E00E94B917F701208331832D2D220F89
:101BE000D7FC209530E0D5010E94DB1761587F4F6C
:101BF0008F4F9F4F412C512C32014A94A3019201E7
:101C00000E94B917F801208331832D2D30E0D501D2
:101C10000E94DB1761587F4F8F4F9F4FA3019201A6
:101C20000E94B91728833983DF91CF911F910F91BB
:101C3000FF90EF90DF90BF90AF907F906F905F909C
:101C40004F9008951F93CF93DF93CDB7DEB72697BC
:101C5000CDBFDEBF182F282FAE014F5F5F4FBE01F3
:101C60006D5F7F4FCE01059684DFE12FF0E0EE0F30
:101C7000FF1FE557FF4F859194912D813E81209361
:101C80003C0A30933D0A2B813C812093380A3093E3
:101C9000390A29813A8120933A0A30933B0A80938A
:101CA000360A9093370A80917838811104C01092D7
:101CB000200A1092210A2696CDBFDEBFDF91CF9178
:101CC0001F910895CF93DF93CDB7DEB72697CDBF91
:101CD000DEBF282FAE014F5F5F4FBE016D5F7F4FAC
:101CE000CE01059646DF49815A816B817C818D81C9
:101CF0009E810E94C3032696CDBFDEBFDF91CF91A8
:101D00000895882331F080910C38681711F0862FE0
:101D100044C908950F931F93CF938B01C42F88302C
:101D200099F480910C3880934B3810924A3880E0B7
:101D30000E94A70280917A3881115BC080914A3855
:101D40008F5F80934A383EC0982F907F903B79F503
:101D500060914A38461738F16150653018F4809127
:101D60006E38CFDFC8016DE570E00E9492170697CC
:101D700089F480914A388F5F80934A38C81708F4F5
:101D800038C081E090916E38911180E060E0B9DF59
:101D900088E30AC081E090916E38911180E063E0A1
:101DA000B0DF82E101C080E00E94A70222C0903E25
:101DB00079F480914A388823A9F0481798F08091E7
:101DC0004B38EBD860E070E08DEB98E022DA11C080
:101DD0008A3051F46091623880914A38F90109954E
:101DE0000E944F06A1D905C0893019F480914B3863
:101DF000D4D880E0CF911F910F91089528EF34E05F
:101E000043E088CF28EF34E044E084CF21EE37E090
:101E100045E080CF23E335E041E07CCF24EE35E0A0
:101E200041E078CF28EE35E042E074CF23E036E0A1
:101E300041E070CF26E036E043E06CCF91E0909334
:101E40006E382CE036E045E065DF10926E3808957C
:101E500090912E38992369F08093653888E08093BB
:101E6000633881E080936438809178388093663855
:101E700008950C94A7020F931F93CF938B01883082
:101E8000A1F480E0E5DF80916438082B109272386D
:101E900080911E3880930C3810926D38012B09F018
:101EA0005FC081E0809379385BC0813059F469313B
:101EB000710508F455C0C0916438C11151C08093B8
:101EC0007938EBC0833069F5809172388F3F19F013
:101ED0008F5F8093723880911C38882371F0409115
:101EE0001D3822EC31E0429FC001439F900D112428
:101EF0000817190710F00E94A80580913D38602F3F
:101F0000837078D880913E38882351F142EC51E0BB
:101F1000849F9001859F300D11242017310700F513
:101F200054C0813B99F481E090E00E94380590DF35
:101F300080911B38811114C080910E38811103C02B
:101F40000831110568F061E070E02AC0813ED9F3E4
:101F5000813841F480910B3890E00E94380578DF99
:101F6000C0E09BC0813C21F460910B3870E018C048
:101F7000823B81F41092723880910F389091193819
:101F8000911180911A38811103C086E990E0E5CF64
:101F900086E9E5CF823E59F0823C29F466E970E09B
:101FA0008AEA99E00CC0833921F41092643880E009
:101FB000D6CF833C31F460E070E080E09CE041D912
:101FC000CFCF843C39F40E94CA0560E070E08FE016
:101FD0009DE0F5CF8D3B49F4F89491E088ED84BF06
:101FE000909300017894A895FFCF8F3C29F460E08E
:101FF00070E082EE95E0E3CFC09119388A3B81F41E
:10200000672B71F4CC2339F00E94CA05109219385D
:102010000E944F06A5CF60E070E082E09FE03AC0EA
:10202000C1113AC0833B29F460E070E083E991E19B
:1020300027C0873C51F490913D3881E0890F9C7F07
:102040008370892B80933D3807C08A3C41F40E94FD
:10205000CA0581E0809319380E944F061EC0853C56
:1020600039F40E94CA0560E070E083E493E108C09F
:10207000863C41F40E94CA0560E070E08BE893E181
:10208000E0D80BC0893B41F4012B31F460E070E0F3
:102090008AE09FE0BED801C0C1E08C2FCF911F9194
:1020A0000F9108950F931F93CF9310927C388091D6
:1020B000D4389091D5389C012F5F3F4F8827907876
:1020C000822B932B8093D4389093D538C0917A3853
:1020D0000E943002C81731F11092793880937A3813
:1020E0009091D638882359F0892F80699F709F304E
:1020F00009F08F5F8093D63880E090E00DC0892F83
:102100008F7E95FD02C0806801C0806C8093D638B8
:102110008091D4389091D5380E94F5011092D4382E
:102120001092D5380091D4381091D53880917938F3
:102130008823B1F0B80183E00E94A4010E94BE018F
:102140000134110528F00F701127012B09F047C049
:1021500010924E3881E08093A3380E94180232C05A
:10216000C091D6388C2F807F803B19F460E070E0FE
:1021700001C0B80181E00E94A401C4FF13C0C5FFE3
:1021800002C0C8010CC008311105E0F01092D4382B
:102190001092D538C062C093D63880E090E00E949B
:1021A000F50110C0CC2371F0C5FD0AC00231110544
:1021B00048F0C064C093D63880E090E00E94F501FA
:1021C0000E94F901C0914E38C11105C00E949B01C7
:1021D00081E080939738CF5FCF71C0934E38CF9115
:1021E0001F910F9108958091A23881110E9471066C
:1021F00080917C38811156CF0895EF92FF920F9312
:102200001F93CF93DF93EC0102E418E080E1E82E06
:1022100082E0F82E2097D9F080917338811119C08F
:1022200080917838853028F485E00E949001C701BC
:1022300004C081E00E949001C8010197F1F781E09C
:102240000E949001D0DF0E94BE012197E3CF81E080
:1022500001C080E0DF91CF911F910F91FF90EF902F
:1022600008950F931F93CF93DF93C82F882311F006
:1022700006EA02C00AE0C1E0D0910C3810E080917B
:1022800022380E94CD0789E10E94A702D0930C3822
:10229000C801B3DF809122380E94CD0780E00E9400
:1022A000A702D0930C388AEF90E0A7DFC15039F72E
:1022B0008D2F0E94CD078AE992E0DF91CF911F9187
:1022C0000F919BCFCF93DF9364E620D6282F892FE1
:1022D0006AE01CD6EC01222341F0822FC2DF8C2F52
:1022E000C0DF8D2FDF91CF91BCCFC111F8CFF9CFD7
:1022F000CF93DF93D82FC3E080910B380E94A702C1
:1023000088EC90E07ADFDD2319F080E991E075DF59
:1023100080E00E94A70288EC90E06FDFC15061F777
:10232000DF91CF910895FF920F931F93CF93DF9387
:10233000D82F8B01C091673881E080936938C43011
:1023400009F0EEC0F0906D388D2F0E941208FF202A
:1023500059F080916D38811107C060E070E08BE327
:102360009FE00E942109DCC0D83021F481E08093F5
:102370000338D8C0D23C19F410926D38E6C0D13B76
:10238000C1F490910238012B49F49F3510F08FEF82
:1023900003C0923018F481E08093033880910338B1
:1023A000890F11F481E051C1803608F44EC18FE5E8
:1023B0004CC1D13E31F4809103388195809303382C
:1023C00018C1D23B61F481E08093033880910238D8
:1023D000823008F416C181508093023812C1D13086
:1023E00009F0B7C00932110511F4D0930338909168
:1023F0004538892F880F97FD80952CE0829FC0017A
:10240000112430914438232F220F37FD20958091DD
:102410000138289F90011124232F290F90914338D0
:10242000892F880F97FD809590910038899FC00172
:102430001124822F890F6091023870E0680F711D9E
:1024400080916D388130B9F480916A3890916B3801
:1024500025E0969587952A95E1F724E730E0A901D4
:10246000481B590B469FC001479F900D569F900DEA
:102470001124B90157D5862F0E94A70200FD08C07C
:102480000E947B02817090914538890F8093453876
:102490009091443880914238890F809344380E944B
:1024A0007B0265E233D580914338980F909343388F
:1024B0000E947B028F7331F40E947B026DE026D56F
:1024C00090934238C0910138CC2339F00E947B02AE
:1024D0008F7319F4C150C09301380E947B0281119F
:1024E00008C00E947B0262E111D5909301381092DE
:1024F0004438C0910038C33038F00E947B028F719D
:1025000019F4C150C09300380E947B028F7709F004
:10251000A8C00E947B026AE0F9D490930038A1C061
:10252000D83041F480912F388093673881E08093D0
:1025300004388DC0D13C39F460E070E08BE39FE05B
:102540000E94210984C0D23C31F48C2F90E0019686
:102550001AC0D13C89F3D33C89F480910C3890E0C7
:10256000019665E070E0F2D40E94CD07EC2FF0E018
:10257000E25FF74C80910C3882A356C0D43C59F4EA
:102580008C2F90E0059666E070E0E0D480932F38C1
:102590008093673849C0D13B51F5C23090F400FDBB
:1025A00056C0EC2FF0E0E25FF74C80A59091043824
:1025B000891B883020F08F3F99F58EEF31C088E07D
:1025C0002FC0C53009F043C090913838809104384D
:1025D000890F823010F482E003C0893708F088E761
:1025E00080933838809138380E94A70230C0D13E9D
:1025F00031F48091043881958093043815C0D23B22
:1026000089F481E080930438C23018F500FD1FC0C2
:10261000EC2FF0E0E25FF74C80A58F3FC1F08F5FB9
:1026200080A715C0D23E19F40E944F0610C0D53CB9
:1026300041F460E070E083E493E10E94210980E0CE
:10264000D3CFD13071F081E018C08093023880E0A0
:1026500014C0C530E1F780913838833018F28150CA
:10266000BFCF0932110519F481E0809304388091BD
:102670007638080F00937638EACFDF91CF911F911B
:102680000F91FF9008950F931F93CF93DF93D82F4F
:102690008B01883031F480916938882311F088E00B
:1026A00042DE8D2F8079803961F481E08093683833
:1026B000C0916938C1110CC080910B380E94A702EB
:1026C00024C0803839F41092683880E00E94A70254
:1026D000C0E01BC0D130C1F4C0916838CC2359F0A0
:1026E000809169388823A1F3B80181E0DF91CF910F
:1026F0001F910F9118CE80E00E9490020733114085
:1027000038F3D093793801C0C1E08C2FDF91CF919D
:102710001F910F910895FF920F931F93CF93DF9313
:10272000D82F8B01F0900B388079803951F5ED2F3F
:10273000EF70E43020F010926838C0E036C091E0CD
:1027400090936838F0E0E25FF74C80A92FEF280FF4
:10275000263948F480930B381092693880911E38DE
:1027600080930C380CC0909369388739D0F090E092
:102770008759910966E070E0E9D380936738C0E03B
:102780000BC0803841F41092683880E00E94A702A4
:1027900081E080937338C1E080916838882329F004
:1027A00001C0C0E0B8018D2F6EDFF0920B38D83039
:1027B00021F4B80188E033D928C0D13039F48091B0
:1027C0006838811120C0B80181E004C0D33041F4E1
:1027D000B80183E0DF91CF911F910F91FF901FC946
:1027E000D63C49F40E94CA0560E070E08BE39FE0AC
:1027F0000E94210908C0D73B41F460E070E08AE103
:102800009FE00E94090980E001C08C2FDF91CF91E9
:102810001F910F91FF9008951F920F920FB60F9284
:1028200011242F933F938F939F93AF93BF93EF9375
:10283000FF9381E080930B068091A138882331F1CA
:10284000E091A038809110069091110624E0880F45
:10285000991F2A95E1F7F0E0EE0FFF1FDF01A45664
:10286000B74C8D939C93E856F74C20813181281703
:10287000390710F42F5F3F4F8217930710F4215050
:1028800031092083318381E08093A23881E08093F5
:10289000A138FF91EF91BF91AF919F918F913F919F
:1028A0002F910F900FBE0F901F9018951F920F92AF
:1028B0000FB60F9211248F9381E080935301809380
:1028C0007C388F910F900FBE0F901F9018951F921C
:1028D0000F920FB60F9211248F931D9A81E080936F
:1028E0007B388F910F900FBE0F901F901895F89422
:1028F00080914000877F8093400088EDA89584BF39
:1029000090910001907F9093000121E030E084BF1E
:102910002093610087E284B988E08093100480935B
:10292000110480931204809313048093140499E09B
:1029300090931504809316048093170480933304B6
:102940008093340480935004809351048093520404
:102950008093530487E78093010A8FEF91E080937F
:10296000360A9093370A91E09093000A80911204FE
:1029700081608093120490935201809151018111E2
:10298000FCCF81E4809350010E941802789481E08A
:102990000E94030260E070E081E499E00E9409096E
:1029A000109273380E94CA050E943002811114C02F
:1029B0008EE098E38093743890937538F89480E0B3
:1029C00090E00ED3853A09F04DC000917438109113
:1029D0007538C1E0D0E03DC083E00E94CD07C0E083
:1029E0008C2F0E94A70283E190E007DC8C2F869554
:1029F0000E94A70283E190E000DC0E94300288235D
:102A0000E9F0CF5FC03461F782E00E94CD076091AA
:102A1000943880913C38681B81E00E94E8050E9450
:102A20004F0680E00E94CD07C6E98C2F0E94A702C6
:102A300084E090E0E2DBC150C1F7BACFCC2309F4C7
:102A4000B7CF8C2F0E94A7028DE090E0D6DBC1505B
:102A5000F5CFCE01C5D2F80181938F012196C53300
:102A6000D105B9F7789480911C3881110E94A8058E
:102A700060E070E08EE29CE00E94090961E070E095
:102A80008BE39FE00E9409097724739441E4242E8C
:102A9000332433945CEFA52E53E0B52E67E0462E29
:102AA00075E0572EEDE06E2EF8EE8F2EF3E09F2EA0
:102AB000ABE3CA2EAFE0DA2E0E94BE0180917F38D0
:102AC00090918038009751F060917D3870917E38F8
:102AD0000E94210910927F381092803880917938B5
:102AE000882309F465C080E00E94A7027092520119
:102AF000809151018111FCCFF9E5F0935001809153
:102B000000068E7F809300060E9430028111FCCF68
:102B10000E94F90180911204816080931204109246
:102B2000A23810927C3810927B38809179388823B3
:102B300069F18091A338882329F080915000897F22
:102B4000826004C080915000897F8460809350002F
:102B50008091500081608093500088958091500052
:102B60008E7F8093500080917B388111109279384C
:102B70008091A238882321F0309297380E94710604
:102B800080917C38882389F28DDACFCF22E02093A0
:102B90000D3880911204887F809312040E941802DD
:102BA00070925201809151018111FCCF209250010D
:102BB0001ADB109273388091923890919338E5E047
:102BC000823E9E0719F5CCE7D0E0FE018491805348
:102BD000803110F446DB11C010E0812F81708295A6
:102BE000880F807E0E94A70280E190E006DB1F5FD5
:102BF000193199F78AE992E000DB8CE291E0FDDA85
:102C00002196F0E0CA38DF0701F7FDC021E18339E2
:102C1000920799F0E3E183349E0729F0F3E18B38C2
:102C20009F0709F0D8C020916938213009F0D3C03E
:102C300020916838222309F4CEC0C0916738EC2F68
:102C4000F0E0E25FF74C82A180930C38C23009F1CA
:102C500038F0C33009F43DC0C53009F49FC02CCF13
:102C6000D0A586E90E94A702C11109C0DA3220F47A
:102C7000C5010197F1F707C081E090E003C08D2FF7
:102C8000869590E0BADA80E00E94A7028D2F90E04E
:102C90002AC1D0910B38C0E0C11102C083E003C04B
:102CA000C53019F480E00E94CD078D2F0E94A70245
:102CB00081E290E0A2DA80E00E94A70282E490E044
:102CC0009CDACF5FCA3041F780911E3880930C3870
:102CD000F3CE0E947B028F73E82EF12C0E947B02C0
:102CE000642D14D1C1E0D0E08E0102C0000F111F8D
:102CF0009A95E2F70E947B02652D08D102C0CC0FA5
:102D0000DD1F9A95E2F70C0F1D1F0E947B0290E0D9
:102D1000B8011CD1E801C80FD91FC739D10514F07B
:102D2000C6E9D0E08C2F0E94A702C70166DA8E01A7
:102D300033E0159507953A95E1F7011101C001E0DF
:102D400010E0C7015ADAC01BD10BD7FF02C0C0E0A8
:102D5000D0E08C2F0E94A7020E947B02837039F47E
:102D6000C7014BDACE01959587950E94A702C23024
:102D7000D1053CF70E947B02662DC8D0C1E0D0E0AF
:102D800002C0CC0FDD1F9A95E2F70E947B0290E013
:102D9000BE01C8D0C80FD91F80E0A2C0C09138388A
:102DA000CC0FC73908F0C6E9D4E08C2F0E94A702E7
:102DB00085E090E022DA809138380E94A70281E411
:102DC00090E01BDAD15089F780ED92E016DA80E0CE
:102DD0000E94A70271CE2CE080309207E9F488EEC1
:102DE00093E00BDA80919638869586956BDA909110
:102DF00096389370892F880F9695890F63DA8091A2
:102E00001938882381F0C0927F38D0928038109290
:102E10007D3810927E3850CEE9E080399E0731F43B
:102E2000809194384FDA88EE93E05DC0F9E0873600
:102E30009F07C1F480917A3881113ECE80910B3882
:102E40000E94A70284E690E0D8D980E00E94A70201
:102E500020913938289DC001299D900D1124845658
:102E6000910941C08F52994049F480E041DA81E0F4
:102E70003FDA80E03DDA80ED97E035C080912E3872
:102E8000882399F180916438882379F120917838EA
:102E900090916538291306C0822F0E94A7021092D4
:102EA00064380ACE60916338291760F4892F821B39
:102EB0002DD0811101C081E0820F0E94A7028AE01B
:102EC00090E011C08EE1689FA001112460916638E6
:102ED000691B70E0CA013AD0EB0121968FEF820F97
:102EE0000E94A702CE0189D9E7CD80915000897F49
:102EF00080935000809150008160809350008895AD
:102F0000809150008E7F80935000D6CD991B79E040
:102F100004C0991F961708F0961B881F7A95C9F769
:102F200080950895AA1BBB1B51E107C0AA1FBB1FB8
:102F3000A617B70710F0A61BB70B881F991F5A9545
:102F4000A9F780959095BC01CD01089597FB072EB8
:102F500016F4009406D077FD08D0E4DF07FC05D016
:102F60003EF4909581959F4F0895709561957F4FA0
:102F70000895A1E21A2EAA1BBB1BFD010DC0AA1FBA
:102F8000BB1FEE1FFF1FA217B307E407F50720F0D2
:102F9000A21BB30BE40BF50B661F771F881F991F4D
:102FA0001A9469F760957095809590959B01AC0196
:102FB000BD01CF010895A29FB001B39FC001A39F9F
:102FC000700D811D1124911DB29F700D811D112462
:102FD000911D0895F0DFB7FF0895821B930B0895AC
:102FE00003D0808199270895FC01E050FC4E08959C
:102FF000262FFADF0080021611F004D00197019706
:103000000895262FAF93BF93E0E0F0E1328131FDC8
:10301000FDCFDC01A050BC4E2C933DE934BF23E032
:0E30200020830196BF91AF910895F894FFCFE1
:10302E0010381338163800010201000000000000AD
:10303E00010000000000050345040149037304006C
:0F304E00220E620E00E7023804009603AA040166
:10305D000A121801010101000496014B020201013F
:10306D000101019696960107070100000000021F5D
:10307D0000020380000000FF80000000FF0001043B
:10308D00000000000000294332020732000D0078D5
:02309D001E997A
:00000001FF
