:100000006FC100008AC100000C94631486C1000017
:1000100084C100000C94541480C100007EC1000013
:100020007CC100007AC1000078C1000076C10000E8
:1000300074C1000072C100000C9416146EC100005F
:100040006CC100006AC1000068C1000066C1000008
:1000500064C1000062C1000060C100005EC1000018
:100060005CC100005AC1000058C1000056C1000028
:10007000303236322E302E636266633161310000D9
:1000800001050414101115FF3F5235DB291C3C7E7D
:100090002E0320E3316A26E22F6F34B82BAB2EFCFF
:1000A0002F4B30EF2F202FFF2DA42C1F2BCD2CDD1D
:1000B0002A7C2B632969294627F3266926B725A2BE
:1000C00023DB220022192128200420FC1EF41DF02D
:1000D0001CF01BF51A001A11192A1849170F16449B
:1000E000152B1423132D1246116E10650F710E8EF1
:1000F0000D8A0C9B0B930AA209C508B007B506D15F
:1001000005E304ED03F402FF01FF01FF01FF01FF1E
:1001100001FF01FF01FF01FF01FF01FF01FF01FFDF
:1001200001FF01FF01FF01FF01FF01FF01FF01FFCF
:1001300001FF01FF01FF01FF01FF01FF01FF01FFBF
:1001400001FF01FF01FF01FF01FF01FF01FF01FFAF
:1001500001FF01FF01FF01FF01FF01FF01FF01FF9F
:1001600001FF01FF01FF01FF01FF01FF01FF01FF8F
:1001700001FF01FF01FF01FF01FF01FF01FF01FF7F
:1001800001FF01FF01FF01FF01FF01FF01FF01FF6F
:1001900001FF01FF01FF01FF01FF01FF01FF01FF5F
:1001A00001FF01FF01FF01FF01FF01FF01FF01FF4F
:1001B00001FF010100010001000200020002000332
:1001C0000003000400050005000600070008000900
:1001D000000A000B000C000D000F001000120013AD
:1001E000001500160018001A001C001D001F002139
:1001F000002300250028002A002C002E00300032A9
:10020000003400360038003A003B003D003E003F1D
:1002100000400041004200420042004200410040D4
:10022000003E003C003A00360032002E0029002338
:10023000001C00140015001600180019001A001BFD
:10024000001D001E0020002100230025002600289C
:10025000002A002C002E0030003200350037003913
:10026000003C003F004100440047004A004D005060
:1002700000530057005A005E00620066006A006E7C
:1002800000720076007B008000840089008E00945C
:100290000099009F00A400AA00B000B700BD00C4F0
:1002A00000CA00D100D800E000E700EF00F700FF2F
:1002B0000007011001190122012B0135013E0148FF
:1002C0000153015D01680173017E018A019601A25B
:1002D00001AE01BB01C801D501E301F101FF01003D
:1002E00011241FBECFEFD4E0DEBFCDBF11E0A0E0F0
:1002F000B1E0E8E9FFE202C005900D92AE3BB10724
:10030000D9F722E0AEEBB1E001C01D92A735B207EC
:10031000E1F70E9472140C94CA1772CEF89498ED0B
:100320009FBD83BF78940895482F9B01E4E2F2E0DB
:1003300080E090E05081552331F001963396803172
:100340009105C1F70AC063E070E00E943117FC011B
:10035000EC5DFD4F40833283218308950F931F93FB
:10036000CF93DF93D0912402DD2351F10091250238
:1003700010912602C0910102C150C7FD0DC0EC2FA3
:10038000EE0FFF0BEE5FFD4F0190F081E02DB80105
:100390008D2F09958111F0CFE4E2F2E08381808313
:1003A0008481958192838183339682E0E135F807D9
:1003B000A9F7109251021092530210925202D2CF1A
:1003C000DF91CF911F910F910895BC01809156024A
:1003D000ABCF10925602109255021092540281E057
:1003E0008093F20108950F931F93CF93C82F08EACB
:1003F00017E0CC2349F082E091DFC8010197F1F7C3
:1004000080E08CDFC150F5CFCF911F910F910895FF
:1004100086E884B9E1E6F0E080818260808388E04C
:1004200082B910922002109221028FEE83B90895B2
:10043000AF92BF92CF92DF92EF92FF920F93CF9342
:10044000DF935C016B01EA017901BA0180E090E081
:10045000202F30E040E050E00E94421761587F4F6B
:100460008F4F9F4F2FEF30E040E050E00E948E17FB
:10047000C901BE01621B730BE216F30630F48E193C
:100480009F09680F791FC70109C0E616F70630F407
:10049000C9018E199F09860F971FB701F501718356
:1004A0006083F60191838083DF91CF910F91FF905C
:1004B000EF90DF90CF90BF90AF900895E09107014B
:1004C000F09108013196FB70F460F0930801E0931D
:1004D00007018091F5018B5A8093F501E491809199
:1004E000F5018E0F08950F931F93CF93DF9300D0E4
:1004F0001F92CDB7DEB72091530130915401409146
:10050000550129833A834B83FE01319640E050E048
:1005100090E061E070E0B1919A01220F331F8C01ED
:1005200002C0159507952A95E2F79801237061F0AE
:100530002130D1F4A0B39B0101C0220FBA95EAF794
:10054000322F30953A2318C0A0B39B0101C0220F6F
:10055000BA95EAF720953A2F322330BB32B33223D3
:1005600032BB31B323230EC0A0B39B0101C0220FC5
:10057000BA95EAF73A2F322B30BB32B3322B32BB6B
:1005800031B3232B21BB4F5F5F4F4330510519F629
:100590000F900F900F90DF91CF911F910F910895C1
:1005A000811182E0A0CF81118AE09DCF811188E086
:1005B0009ACF811188E297CF811180E294CF811187
:1005C00082E291CF81118AE28ECF81E008959C0171
:1005D000A0916C00B0916D00E0916A00F0916B0009
:1005E000892BC1F461157105A9F410926D00109268
:1005F0006C0010926B0010926A008FEF91E0909364
:1006000069008093680010926F0010926E008898C5
:10061000899808952115310511F0889A01C08898AC
:100620006115710511F0899A01C0899881E0AB2BA1
:1006300009F480E091E0EF2B09F490E0982B3093DF
:100640006D0020936C0070936B0060936A00992397
:1006500051F09A012052310960916E0070916F0043
:1006600026173707C8F3509369004093680091112B
:1006700004C010926F0010926E000895282F30E091
:10068000220F331FF901ED54FE4F85919491F9012A
:10069000E957FF4F4591549160E070E098CF90E0AA
:1006A000880F991FFC01ED54FE4F65917491FC0178
:1006B000E957FF4F4591549180E090E088CF282F73
:1006C00030E0220F331FF901ED54FE4F85919491D4
:1006D000F901E957FF4F45915491BC0178CFEF9252
:1006E000FF920F93CF93DF9300D000D0CDB7DEB74A
:1006F00090E0880F991FFC01ED54FE4F45915491F5
:10070000FC01E957FF4FE590F490E0910C01F0E017
:10071000E25FFE4F05899701BE016F5F7F4FCE01FB
:10072000039686DE69817A81A7018B819C814FDFE8
:100730000F900F900F900F90DF91CF910F91FF903E
:10074000EF900895CF92DF92EF92FF920F93CF93A5
:10075000DF9300D000D0CDB7DEB790E09C01220F30
:10076000331FF901ED54FE4FE590F490F901E9577C
:10077000FF4FC590D4906FEF70E00E94311766E98B
:1007800070E00E946717062FE0910C01F0E0E25F35
:10079000FE4F858986FD00959601A701BE016F5F1A
:1007A0007F4FCE01039644DE69817A81A6018B8159
:1007B0009C810DDF0F900F900F900F90DF91CF91E4
:1007C0000F91FF90EF90DF90CF90089520916C00F3
:1007D00030916D002817390738F420916C00309162
:1007E0006D002F5F3F4F0DC020916C0030916D0068
:1007F0008217930750F420916C0030916D002150C6
:10080000310930936D0020936C0020916A00309183
:100810006B002617370738F420916A0030916B007F
:100820002F5F3F4F0DC020916A0030916B0062171F
:10083000730750F420916A0030916B002150310908
:1008400030936B0020936A0020916C0030916D0012
:100850008217930741F420916A0030916B0081E088
:100860006217730709F080E00895E82FF0E0EE0FBB
:10087000FF1FED54FE4F8591949160E070E0A6CF8C
:10088000E82FF0E0EE0FFF1FED54FE4F65917491DD
:1008900080E090E09BCFE82FF0E0EE0FFF1FED54DB
:1008A000FE4F85919491BC0191CF0F93CF93DF932D
:1008B00000D000D0CDB7DEB790E0880F991FFC01C3
:1008C000ED54FE4F45915491FC01E957FF4F25919E
:1008D0003491E0910C01F0E0E25FFE4F0589BE012A
:1008E0006F5F7F4FCE010396A3DD69817A818B8193
:1008F0009C816CDF0F900F900F900F90DF91CF9144
:100900000F910895EF92FF920F93CF93DF9300D052
:1009100000D0CDB7DEB790E09C01220F331FF90164
:10092000ED54FE4FE590F490F901E957FF4F259102
:1009300034916FEF70E00E94311766E970E00E9419
:100940006717062FE0910C01F0E0E25FFE4F85890A
:1009500086FD0095A701BE016F5F7F4FCE01039614
:1009600067DD69817A818B819C8130DF0F900F90E8
:100970000F900F90DF91CF910F91FF90EF9008951E
:10098000CF93DF9300D000D000D0CDB7DEB79091E9
:100990000E012091120230911302265F3C4009F4AF
:1009A00092E0843019F460931A0121C06623F9F0B3
:1009B000823019F427E9261B622F26E0E6E5F1E0F4
:1009C000DE01119601900D922A95E1F7E82FF0E0F3
:1009D0003197EE0FFF1F21E030E02C0F3D1FE20F9B
:1009E000F31F0190F081E02DE90FF11D6083269641
:1009F0000FB6F894DEBF0FBECDBFDF91CF91089543
:100A0000813019F460933B010895823011F46093B2
:100A100052010895BF92CF92DF92EF92FF920F930F
:100A20001F93CF93DF93EC0140910E019091190138
:100A3000992311F0E2E001C0E42FF0E0E25FFE4F05
:100A4000228120930A01858180930901E92FF0E03A
:100A5000E25FFE4F3185622F70E0442349F0313070
:100A600039F49B01280F311DC9019595879538C030
:100A7000C617D707A4F1682F70E06C177D0784F1C3
:100A8000411102C08C2F2CC0821B032F10E001509B
:100A90001109E82EF12CC701B8010E947B17609361
:100AA000EF016695E62FF0E0822FC12CD12CB12CFE
:100AB000B316B1F0C601B8010E946717822F860FE6
:100AC000CE0CDF1CAE01481B510957FF03C05195E6
:100AD00041955109E417F5071CF4B394E9CF822F2F
:100AE000DF91CF911F910F91FF90EF90DF90CF900A
:100AF000BF90089580911C0180930B01809121018A
:100B000080931E0180930C01E3E2F1E084858193E0
:100B100081E0EF32F807D1F708958091EB01882347
:100B200051F09091F8019093EE018093EA011092B8
:100B3000E9011092E801089581E00895823019F4E6
:100B400060934D01089561116093480108956623F3
:100B500089F0813061F48091140290914A01891BDF
:100B6000681B60934A0182E080930D0103C0635EBD
:100B70006093490180914901873418F086E480939D
:100B80004901089560934E010895E82FF0E0E25B7B
:100B9000FE4F608308957FEF780F40911F015091C1
:100BA0002001662359F021E030E002C0220F331FFC
:100BB0007A95E2F7CA01822B932B0AC081E090E07C
:100BC00002C0880F991F7A95E2F7809584239523B8
:100BD0009093200180931F010895CF93DF938EE0BF
:100BE00091E09093F4018093F301F894C0E0D0E099
:100BF000E091F301F091F401EC0FFD1F608121966B
:100C0000CE010E94B817C534D10591F765EA80E09E
:100C100090E00E94B8177894DF91CF9108951092D8
:100C2000220280B191B12091F50182958695869539
:100C30008370990F990F890F820F8093F50180912E
:100C40001702882309F41AC110921702809120021A
:100C50009091F901992329F01F9810922302109284
:100C60002002811151C080910D01882329F08091CB
:100C70001C0290911D021AC08091F9012091180266
:100C8000309119028823B9F080911C0290911D02C5
:100C900043E0969587954A95E1F7820F931F53E0BD
:100CA000369527955A95E1F7821B930B909319027D
:100CB0008093180201C0C901209148012750220FDA
:100CC00060E671E00E946717260F2093160280915C
:100CD000DF01882311F0815007C0243738F460E029
:100CE00070E084E021DB85E08093DF018091F901F1
:100CF0008111BBC08EE884B981E0809320021092FC
:100D000021028FEE83B9B1C0813009F0AEC080916D
:100D10000D01882341F080911E0290911F02909353
:100D20001B0280931A0280911A0290911B0260911B
:100D30004A019C01A6E036952795AA95E1F7062E73
:100D4000000C770B260F371F2E50314030931502C1
:100D500020931402B5E096958795BA95E1F7209116
:100D60000D01211128C02091CE01E22FF0E0EE0FFD
:100D7000FF1FE153FE4F40815181DC01A41BB50BE5
:100D8000AD01918380832F5F27702093CE019D0159
:100D9000220F331F220F331F820F931F209149010F
:100DA00030E0261B370B225F3E4F220F331F821B82
:100DB000930B23E00EC0EFECF1E081939193B1E04F
:100DC000EF3DFB07D1F7CFCF009709F001962150F7
:100DD00029F018161906C4F70197F9CF1816190645
:100DE000E4F457FD39C02091CD0112160CF1880FA3
:100DF000991FBC016350710977FF02C06F5F7F4F7D
:100E0000759567951616170614F061E070E088E195
:100E1000861B8093CD0185E026C08C3F2FEF920783
:100E2000DCF457FF19C02091CD0127FF05C02450E5
:100E3000281B2093CD0118C024EE281B2093CD0140
:100E400020911602263780F06CEF7FEF681B790B3C
:100E50007595679586E007C080911602853720F06A
:100E600060E070E087E060DAD3DA80910D018823DA
:100E700029F080910D01815080930D010895882300
:100E800021F0813031F4829805C0829892988A9836
:100E90000895829A929A8A9A0895CF93C82F809142
:100EA000F801811109C0CC2339F080915201C81793
:100EB00018F4F3DF82E097DA8091F90181110BC019
:100EC00012DB91E0C11101C090E081E0C73408F469
:100ED00080E0890FD4DFC11108C04FEF51E060E01E
:100EE00070E080E090E073DB0FC080910C0190E037
:100EF00065E070E00E9431178F579E4FDC01ED9145
:100F0000FC918FEF8C0F09958091F801C8138093A5
:100F1000F701C093F801C093F601C23010F482E0EB
:100F200005C0CA3010F481E001C080E0CF91F6C95D
:100F3000CF93C091F80188E28C0F873908F080E0E8
:100F4000ACDF83E050DA8C2FCF91A7CFCF93C09145
:100F5000F80180E0A2DF83E046DA8C2FCF919DCFAD
:100F60008093F0019091F801981718F4282F291B0D
:100F700002C0292F281B3091E201311106C03091A7
:100F80003C01332369F0223058F08093E30184E080
:100F90008093E10181E08093E2019093E401089560
:100FA0007CCF0F931F93CF93909116022FEF290FB1
:100FB000233720F480E097DA80E09EC0E82FEF70BE
:100FC0002091EC01211125C0C82FC295CF7020912E
:100FD0004D0130E043E0220F331F4A95E1F76217DD
:100FE0007307C0F48091F101482F50E04217530776
:100FF0008CF4882379F021E08091F7018F3008F498
:1010000020E081E0C23009F080E0822BC1E0C80F0F
:1010100036C0C2E0E73088F1E730A9F40091C6019C
:1010200010E00F5F1F4F4ADA65E00E945B179801DE
:10103000290F311DC90166E070E00E947B17809383
:10104000C601FC013AC0E830D1F48091F90188234F
:1010500011F02FE001C023E030E062237323672BFF
:1010600051F48091C60190E0019666E070E00E9424
:101070007B178093C601E091C601F0E01EC080910D
:10108000F901882381F080E0E82FF0E0E159FE4F7C
:101090002081921710F08E5FF7CF3197E081F0E05A
:1010A000E158FF4F0CC0CB019695879563E070E047
:1010B0000E946717FC01EE0FFF1FE058FF4FE491FD
:1010C000C33071F48091C50190E0019663E170E056
:1010D0000E9467178093C501DC01A45ABE4FCC91D2
:1010E000CC2329F0C13029F0EE0FC2E002C0C0E0ED
:1010F000E0E08E2FF8D98C2FCF911F910F91BFCEAA
:10110000CF93DF9390910C01981759F0C82FD0918D
:10111000F80180E0C2DEC0930C018D2FDF91CF91EA
:10112000BCCEDF91CF910895813019F410921C014B
:101130000895823019F460931D010895833019F4E5
:1011400060931B010895843019F460930F01089592
:10115000853011F460933C010895883039F4109281
:10116000EB011092E9011092E80145C0813B81F446
:101170008091EB018150833008F03FC083E0809381
:10118000EB018093EA011092E9011092E80135C069
:10119000853BB1F4CB016EE370E00E946717892BA9
:1011A00051F58091EB018A3F30F58B5F8093EB0125
:1011B0008093EA011092E9011092E801B9DE1BC0A8
:1011C0008130D9F48091E8019091E9010196883845
:1011D0002EE0920728F49093E9018093E8010BC078
:1011E0001092E9011092E8018091EB01882319F037
:1011F00081508093EB0180E0089581E00895FF9293
:101200000F931F93CF93DF938C01EB01F42E80910A
:10121000120290911302892B31F0E0911202F091A9
:10122000130289E009951093130200931202012B17
:1012300039F0E0911202F0911302BE018F2D099551
:1012400081E08093F201DF91CF911F910F91FF9088
:101250000895CF93DF93E0910102EE2359F0E1501E
:10126000E0930102F0E0EE0FFF1FEE5FFD4FC08143
:10127000D18102C0C0E0D0E0E0910102EE2341F054
:10128000F0E0EE0FFF1FE050FE4F8081918102C021
:1012900080E090E04AE060E070E0B1DFCE01DF91F5
:1012A000CF910895883029F41092E0011092C7017F
:1012B00015C0813001F59091C701911107C06032CE
:1012C000710570F18093C70184D82AC0913089F4E8
:1012D0006B3B710528F082E08093C70180E01FC05E
:1012E00061157105E9F06270862F880F880F8E5E98
:1012F00016C0AFDF15C0813811F0813E89F491E04E
:101300009093C701813E21F48091E001865F03C084
:101310008091E0018F5F8093E0015BD88BE4BDDDBD
:1013200080E008959C0190910102983088F4E92FA3
:10133000F0E0EE0FFF1FEE5FFD4F318320839F5FD4
:101340009093010248E0C9015ADF8091010208959B
:101350008FEF08950F931F93CF93DF93EC018B01D1
:1013600078DFB801CE01DF91CF911F910F91DACFD5
:10137000813C29F460E070E08AE19FE006C0823C95
:1013800039F460E070E08CE19DE0E4DF80E00895F6
:1013900081E00895843011F580911202909113023A
:1013A00021E1813A920729F469E170E083E39AE050
:1013B00013C083539A4061F49091F801923040F049
:1013C000892F869596959695890FCADD80E00895B8
:1013D00060E070E08AE19FE0BDDFF8CF81E0089532
:1013E000813C29F460E070E08AE19FE006C0823C25
:1013F00031F460E070E088EB99E0ACDF16C0813B2F
:1014000049F4CB016EE370E00E946717892B69F401
:101410008FDD0BC0813E59F4CB016EE370E00E947A
:1014200067176F5F60934701D8DB80E0089581E024
:101430000895813C29F460E070E08AE19FE006C0F5
:10144000823C31F460E070E080EF99E083DF07C018
:10145000873B39F460E070E086E09DE063DF80E088
:10146000089581E00895BF92CF92DF92EF92FF92AC
:101470000F931F93CF93DF93C82F8B0180911E0191
:1014800080930C01D0900A01F090090180910E0127
:10149000882319F0B090EF0102C0BB24B394C09030
:1014A0000F01809119018111C0901A01CC2051F0D7
:1014B00081E0C81621F080910B018F1518F0F6E934
:1014C000EF2E01C0EF2CD091EB01B8018C2F45DE3F
:1014D0008091EB01882339F0D1110CC09091F80173
:1014E0009093EE0107C0DD2329F060E070E08AE10F
:1014F0009FE036C09C2F9D7F9830D9F41092E70171
:10150000CA3019F400910B0110E08D2D90E0801786
:10151000910738F48F2D90E00817190710F4009305
:101520000B01C80177DA1CDD81E080930601D0E071
:10153000E7C1C13CD1F2C23C59F48091F8018E154B
:1015400010F48E2D02C080910B010ADDE6DAEFCF98
:10155000C43C41F480E0A1DC60E070E085E39EE003
:10156000F9DEE5CF9FE49C0F923008F05DC08091DA
:101570000E01882341F0C80168E170E00E946717FE
:10158000892B31F0D4CF6091160170E0C801F6CFFD
:10159000D091E201D111CBCF2091F80101151105B5
:1015A00061F4C23B11F48FEF05C02F15E0F7D2169E
:1015B00008F181E0809306011DC0E0911601F0E082
:1015C000CF0166E371E00E9431178017910710F494
:1015D0002F1548F7CF016CE672E00E943117801793
:1015E000910740F4D21630F0A3DC60E070E085E3B0
:1015F0009EE0B0DEC091F801809106016B2D70E095
:10160000082E000C990B0E9431178C0F911D02DAE5
:1016100080930B01C81719F0F81201C097DC809174
:101620000B019EDC7ADA6CC19FE19C0F923020F4B2
:1016300080910601819579CFC13009F089C00932C6
:10164000110511F4C0930601882379F10091EE0190
:1016500010E090E0B8010E943117EC01E091EA013E
:10166000F0E0BF010E947B17262FCE01801B910B5B
:10167000BF010E947B17322F361B8091E8019091A9
:10168000E9016EE370E00E946717832F90E00E94EB
:1016900031176CE370E00E946717261B622F09F474
:1016A00061E06093F6016093F001C091F601209132
:1016B000F8018C2F90E0821B91096091CA01709112
:1016C000CB016F5F7F4F7093CB016093CA0100978E
:1016D00009F42DCF97FF05C0233830F040E450E0E7
:1016E00005C040E052E002C040E051E05695479509
:1016F00097FD0196959587950097C1F7461757076F
:1017000008F015CFC21710F4CFEF03C02C1710F458
:10171000C1E0C20F80910C0190E065E070E00E9492
:1017200031178F579E4FDC011296ED91FC91139764
:101730008FEF8C0F0995882331F0D091F6018C2F13
:10174000ACDBD093F6011092CB011092CA01EFCE20
:10175000C530A1F48091F801823408F4E8CE90E01D
:10176000801B910B8134910534F0873991056CF120
:1017700086E990E02AC081E490E027C0C630B9F441
:101780009091F8018091F001981708F0D0CE090FE0
:10179000111D90E08017910734F00134110524F4F5
:1017A00001E410E001C08C010093F601C0CEC73007
:1017B00079F49091F6018091F801891710F48F5F08
:1017C00004C0981708F0B3CE81508093F601AFCED5
:1017D000C33C19F0C63C41F517C060911F017091E0
:1017E000200180E090E020E0AB01082E02C0569579
:1017F00047950A94E2F74170240F01968C309105C9
:1018000099F7223008F07BC081E090910E01911190
:1018100080E080930E01E1D999DB8091F80190E09E
:10182000F9D880930B0191CED0911901D11167C0E5
:101830008DE48C0F8230C0F4C33B69F480910C01BD
:1018400090E065E070E00E9431178F579E4FFC01D9
:101850008481811154C0012B09F069CECC2011F094
:1018600086E9E82E8E2D16C08DE18C0F8230A0F413
:10187000C33E71F480910C0190E065E070E00E943D
:1018800031178F579E4FDC0114968C91811137C010
:1018900080910B0165DB34C0C53C61F48091F80197
:1018A00080930B0180E0F9DA60E070E08AE493E174
:1018B00051DD26C0C73B29F460E070E082EF9CE078
:1018C0001CC0CA3CA1F48091F80180931C01809156
:1018D0000C0180932101E3E2F1E08FE291E021919C
:1018E00023878E179F07D9F778D922DB09C0CA3B17
:1018F00031F460E070E08AEF9CE014DD01C0D1E0DB
:101900008D2FDF91CF911F910F91FF90EF90DF907E
:10191000CF90BF9008950F931F93CF938B01C42F47
:10192000883091F480910C018093C9011092C80114
:1019300080E0B3DA8091FA0181114FC08091C80133
:101940008F5F8093C80133C0982F907F903B21F523
:101950008091C8014817E8F081508C3040F4909194
:10196000ED01992321F090910C018913C9DBC80185
:101970006DE570E00E946717069749F48091C801F1
:101980008F5F8093C801C81740F188E303C082E1EC
:1019900001C080E082DA21C0903E79F48091C801D4
:1019A0008823A1F0481790F08091C901A9DB60E07D
:1019B00070E082E599E0B6DC10C08A3049F46091AD
:1019C000E0018091C801F901099507D942DC05C001
:1019D000893019F48091C90193DB80E0CF911F9188
:1019E0000F91089520EC34E043E095CF20EC34E0F3
:1019F00044E091CF24E938E045E08DCF20E035E0A8
:101A000042E089CF2EE935E042E085CF27EA35E094
:101A100042E081CF22EC35E041E07DCF25EC35E09E
:101A200043E079CF91E09093ED012BEC35E04CE071
:101A300072DF1092ED010895CF93C0911901C11189
:101A400025C0813C29F460E070E08AE19FE006C097
:101A5000823C31F460E070E089E19AE07BDC17C001
:101A6000833C61F48091220190E001966CE070E08B
:101A70000E947B1780932201B0D809C0873B31F4C4
:101A800060E070E082E09DE04DDC01C0C1E08C2FA1
:101A9000CF910895CF92DF92EF92FF920F931F9311
:101AA000CF93DF93E0910C01833CE1F400911F019F
:101AB000109120018E2F2CE0CCE0D0E090E0019638
:101AC000BE010E947B17A801082E02C056954795BB
:101AD0000A94E2F740FF03C0E81319C016C0215072
:101AE00069F7FACFF0E0E25FFE4FC589833B09F06A
:101AF0008CC06115710529F481E08093C4011092B6
:101B0000C3018091C401811109C0C1E0A4C0F8DA09
:101B100080910C0180931E0160D89CC0309105011A
:101B200013161CF4CF3F39F455C0332309F452C0C7
:101B3000CC2309F44FC020913B012223A9F0CB0113
:101B400068E170E00E946717892B09F083C022309A
:101B500008F44DC0622F70E0615071098EEF90E083
:101B60000E947B17862F01C081E0632F330F770B14
:101B700090E00E9431177C01EC0EF11CF7FC39C09B
:101B80008FEFE816F10409F0B4F5211102C0CE2D53
:101B900033C0C22ED12C81E0C81AD1088FEF90E05B
:101BA000B6010E947B176695E62FF0E000E010E09A
:101BB000C801B6010E946717C62FC701861B91098D
:101BC000E817F907CCF401501F4F802F8195821739
:101BD00078F312C08091C201C8130EC08091C30176
:101BE000811101C0B3D981E08093C30105C0CFE763
:101BF00003C0C0E001C0CFEFC093C201E0910C016F
:101C0000F0E0E25FFE4FC58B14C0833EB1F410924A
:101C1000C401C11102C081E005C0CF3F31F0809105
:101C2000050181958093050102C0C09305010E94C2
:101C3000ED058091F80131D90DC0C0911901C11194
:101C400064CF893B09F061CF60E070E082E19DE004
:101C500069DB01C0C0E08C2FDF91CF911F910F9104
:101C6000FF90EF90DF90CF9008950F931F93CF9345
:101C7000DF93C82F8B01873BC9F480E00ED981E048
:101C80008093EC01C8018F739927892B09F09FC0BD
:101C900090914C01892F8F708F5F292F207F6BE0EF
:101CA0000E945B17922B90934C0191C080798039F0
:101CB000B1F420911001909111018C2F8F7081301F
:101CC00021F4822F921748F407C080911C018111E2
:101CD00004C0822F291708F4892FDFD80EC080385E
:101CE00011F480E0DAD8C83041F41092F10160E0DC
:101CF00070E080914C0155D976C0C13039F409317A
:101D0000110508F47CC0C093F90161C0C330D1F45F
:101D10008091F1018F3F19F08F5F8093F1018091E5
:101D20001C01882309F453C080911D0190E062ECEE
:101D300071E00E9431170817190708F448C00E9483
:101D40007A0545C0C33C31F4F3D860E070E08AE125
:101D50009FE014C0C43C21F460910B0170E00CC002
:101D6000C43B31F4F3D81092560261E070E004C035
:101D7000C53C31F466E970E083E39AE0EBDA3FC0FA
:101D8000C33B79F4C8016EE370E00E946717892BAA
:101D900051F560E070E083ECDF91CF911F910F91DE
:101DA00079CEC73CC9F490914C01892F82958F70F0
:101DB0008F5F83708295807F9F70892B80934C0109
:101DC00060E070E0EED80E94ED05B2D818C0B8010E
:101DD00080914C01E6D813C0C73E29F41092EC0163
:101DE0000E94ED050CC0D0911901D1110AC0CA3B67
:101DF00041F460E070E08AE09DE094DA03C0D0E056
:101E000001C0D1E08D2FDF91CF911F910F910895E7
:101E100090913C01992369F08093E30188E08093DD
:101E2000E10181E08093E2018091F8018093E40177
:101E3000089533C80F931F93CF938B018830A1F47B
:101E400080E0E6DF8091E201082B1092F1018091A1
:101E50001E0180930C011092EB01012B09F058C078
:101E600081E08093F90154C0813059F469317105E2
:101E700008F44EC0C091E201C1114AC08093F9013B
:101E800013C1833031F58091F1018F3F19F08F5FDD
:101E90008093F10180911C01882359F080911D01EC
:101EA00090E062EC71E0DDD70817190710F00E948E
:101EB0007A05B80180914B0174D880914E01882336
:101EC00039F190E062EC71E0CCD78017910700F512
:101ED00054C0813B99F481E090E00E940A0598DFAC
:101EE00080911B01811114C080910E01811103C0EA
:101EF0000831110568F061E070E02AC0813ED9F335
:101F0000813841F480910B0190E00E940A0580DF46
:101F1000C0E0CAC0813C21F460910B0170E018C0A0
:101F2000823B81F41092F10180910F01909119018F
:101F3000911180911A01811103C086E990E0E5CFEB
:101F400086E9E5CF823E59F0823C29F466E970E0EB
:101F500083E39AE00CC0833921F41092E20180E01F
:101F6000D6CF833C31F460E070E08CE19DE0F2D9A3
:101F7000CFCF843C39F40E94980760E070E085E39D
:101F80009EE0F5CF8D3B41F4F89488ED8FBD88E855
:101F900080BF7894A895FFCF8F3C29F460E070E073
:101FA0008CE995E0E4CF8A3B89F4672B09F050C0B7
:101FB000C0911901CC2329F00E94980710921901B1
:101FC00044C060E070E086EF9CE06BC0833B29F486
:101FD00060E070E081EA91E1CACF873CB1F4909172
:101FE0004B01892F82958F708F5F83708295807FE0
:101FF0009F70892B80934B0160E070E00E94D107B5
:102000000E94ED050E94980783CF873BD1F481E0C1
:102010008093EC01CB018F739927892B61F4909108
:102020004B01892F8F708F5F292F207F6BE043D763
:10203000922B90934B01B80180914B010E94D107E4
:1020400067CF873E29F41092EC010E94ED0560CF26
:10205000C0911901C11127C08A3C41F40E94980720
:1020600081E0809319010E94ED051EC0853C39F482
:102070000E94980760E070E08AE493E108C0863C23
:1020800041F40E94980760E070E085E993E162D92D
:102090000BC0893B41F4012B31F460E070E08EEF1E
:1020A0009CE040D901C0C1E08C2FCF911F910F91CE
:1020B00008950F931F93CF931092FC0180915402C7
:1020C000909155029C012F5F3F4F88279078822B7B
:1020D000932B90935502809354029091FA012FB163
:1020E000822F8095881F8827881F8093FA01981770
:1020F00029F11092F9018093FA0190915602892FEB
:1021000027FD0AC080699F709F3009F08F5F809320
:10211000560280E090E00CC08F7E95FD02C0806882
:1021200001C0806C809356028091540290915502B8
:102130000E94E5011092550210925402009154023F
:10214000109155028091F9018823B1F0B80183E024
:102150000E9494010E94AE010134110528F00F7015
:102160001127012B09F049C01092CC0181E0809326
:1021700023020E94080232C0C09156028C2F807F39
:10218000803B19F460E070E001C0B80181E00E947A
:102190009401C4FF13C0C5FF02C0C8010CC00831C0
:1021A0001105E0F01092550210925402C062C093E3
:1021B000560280E090E00E94E50110C0CC2371F04F
:1021C000C5FD0AC00231110548F0C064C093560233
:1021D00080E090E00E94E5010E94E9018091CC013D
:1021E000811105C08FEE83B981E080931702809141
:1021F000CC018F5F8F718093CC01CF911F910F9194
:1022000008958091220281110E940F068091FC01A5
:1022100081114FCF0895EF92FF920F931F93CF93A9
:10222000DF93EC0100E317E08CECE82EFF24F3943D
:102230002097D9F08091F201811119C08091F801A5
:10224000823028F482E00E948E01C70104C080E041
:102250000E948E01C8010197F1F780E00E948E0173
:10226000D0DF0E94AE012197E3CF81E001C080E082
:10227000DF91CF911F910F91FF90EF9008950F93F1
:102280001F93CF93DF93C82F882311F006EA02C073
:102290000CE0C1E0D0910C0110E0809122010E947D
:1022A000800888E20E944D07D0930C01C801B3DF7B
:1022B000809122010E94800880E00E944D07D09307
:1022C0000C018AEF90E0A7DFC15039F78D2F0E94F3
:1022D00080088AE992E0DF91CF911F910F919BCF07
:1022E000CF93DF9364E6E7D5282F892F6AE0E3D503
:1022F000EC01222341F0822FC2DF8C2FC0DF8D2F13
:10230000DF91CF91BCCFC111F8CFF9CFCF93DF933D
:10231000D82FC3E080910B010E944D0788EC90E01C
:102320007ADFDD2319F080E991E075DF80E00E941B
:102330004D0788EC90E06FDFC15061F7DF91CF91DE
:102340000895FF920F931F93CF93DF93D82F8B01A4
:10235000C091E50181E08093E701C43009F0E7C056
:10236000F090EB018D2F0E94AD08FF2059F0809175
:10237000EB01811107C060E070E08AE19FE00E94FC
:10238000AA09D5C0D83021F481E080930301D1C0DF
:10239000D23C19F41092EB01DFC0D13BC1F4909113
:1023A0000201012B49F4963610F08FEF03C09230F2
:1023B00018F481E08093030180910301890F11F4E7
:1023C00081E04AC1873608F447C186E645C1D13E5F
:1023D00031F48091030181958093030111C1D23BB7
:1023E00061F481E08093030180910201823008F45E
:1023F0000FC18150809302010BC1D13009F0B0C0F0
:102400000932110511F4D09303019091C101892F74
:10241000880F97FD809590E069E070E022D5292F24
:102420008091C001682F660F87FD60958091010142
:1024300070E090E016D5290F8091BF01682F660FDC
:1024400087FD60958091000170E090E00AD5920FC1
:102450006091020170E0690F711D8091EB01813084
:1024600091F48091E8019091E90125E09695879596
:102470002A95E1F724E730E0A901481B590BCA016E
:10248000F0D4B90124D5862F0E944D0700FD08C065
:102490000E945E0281709091C101890F8093C101F9
:1024A0009091C0018091BE01890F8093C0010E946C
:1024B0005E0265E200D58091BF01980F9093BF0145
:1024C0000E945E028F7331F40E945E026DE0F3D4CD
:1024D0009093BE01C0910101CC2339F00E945E02AD
:1024E0008F7319F4C150C09301010E945E028111E3
:1024F00008C00E945E026EE0DED49093010110924B
:10250000C001C0910001C33038F00E945E028F719B
:1025100019F4C150C09300010E945E028F7709F048
:10252000A7C00E945E02877080930001A1C0D830CE
:1025300041F480913D018093E50181E080930401A5
:102540008DC0D13C39F460E070E08AE19FE00E94E8
:10255000AA0984C0D23C31F48C2F90E001961AC0B5
:10256000D13C89F3D33C89F480910C0190E0019631
:102570006CE070E0C0D40E948008EC2FF0E0E25FD5
:10258000FE4F80910C0180AB56C0D43C59F48C2F87
:1025900090E0059666E070E0AED480933D018093B4
:1025A000E50149C0D13B51F5C23090F400FD56C061
:1025B000EC2FF0E0E25FFE4F86A990910401891BA9
:1025C000883020F08F3F99F58EEF31C088E02FC022
:1025D000C53009F043C09091460180910401890FF4
:1025E000823010F482E003C0893708F088E78093D6
:1025F0004601809146010E944D0730C0D13E31F422
:102600008091040181958093040115C0D23B89F427
:1026100081E080930401C23018F500FD1FC0EC2F4B
:10262000F0E0E25FFE4F86A98F3FC1F08F5F86AB7F
:1026300015C0D23E19F40E94ED0510C0D53C41F4FE
:1026400060E070E08AE493E10E94AA0980E0D3CFC1
:10265000D13071F081E018C08093020180E014C095
:10266000C530E1F780914601833018F28150BFCF29
:102670000932110519F481E0809304018091F5017C
:10268000080F0093F501EACFDF91CF911F910F91D1
:10269000FF9008950F931F93CF93DF93D82F8B0153
:1026A000883031F48091E701882311F088E049DE19
:1026B0008D2F8079803961F481E08093E601C091AB
:1026C000E701C1110CC080910B010E944D0727C08A
:1026D000803839F41092E60180E00E944D07C0E096
:1026E0001EC0D130D9F4C091E601CC2359F08091BD
:1026F000E7018823A1F3B80181E0DF91CF911F9119
:102700000F911FCE80E00E94730280E00E943F077D
:102710000733114020F3D093F90101C0C1E08C2FA1
:10272000DF91CF911F910F910895FF920F931F9307
:10273000CF93DF93D82F8B01F0900B0180798039F4
:1027400051F5ED2FEF70E43020F01092E601C0E07B
:1027500036C091E09093E601F0E0E25BFE4F8081AD
:102760002FEF280F263948F480930B011092E701D0
:1027700080911E0180930C010CC09093E701873972
:10278000D0F090E08759910966E070E0B4D380936F
:10279000E501C0E00BC0803841F41092E60180E012
:1027A0000E944D0781E08093F201C1E08091E60133
:1027B000882329F001C0C0E0B8018D2F6BDFF092B3
:1027C0000B01D83021F4B80188E04FDA28C0D130AD
:1027D00039F48091E601811120C0B80181E004C084
:1027E000D33041F4B80183E0DF91CF911F910F9175
:1027F000FF903BCAD63C49F40E94980760E070E025
:102800008AE19FE00E94AA0908C0D73B41F460E03A
:1028100070E08EE09DE00E94920980E001C08C2F64
:10282000DF91CF911F910F91FF9008951F920F920A
:102830000FB60F9211242F933F938F939F93AF93D3
:10284000BF93EF93FF93809121028823E9F0E091F9
:10285000200220B131B1F0E0EE0FFF1FDF01A45ED6
:10286000BD4F2D933C93E85EFD4F8081918182178F
:10287000930708F401962817390708F40197918304
:10288000808381E08093220281E080932102FF9186
:10289000EF91BF91AF919F918F913F912F910F90A9
:1028A0000FBE0F901F9018951F920F920FB60F92A8
:1028B00011248F9381E08093FC018F910F900FBEC4
:1028C0000F901F9018951F920F920FB60F92112420
:1028D0008F9381E08093FB018F910F900FBE0F903B
:1028E0001F901895F89485B7877F85BF88ED90E095
:1028F0000FB6F894A8958FBD90B7977F90BF0FBE85
:1029000088E08CB98FE780BB82EA8093720081E116
:10291000809371008FEF91E090936900809368003D
:1029200080E882BB87BD8CB788608CBFA89580E4A7
:1029300080BF0E940802789481E00E94F30160E069
:1029400070E08AEC99E00E9492091092F2010E94D4
:1029500098079FB1892F8095881F8827881F8093AB
:10296000FA0197FF14C08EE091E09093F4018093F8
:10297000F301F89480E090E0F3D2853A09F046C084
:102980000091F3011091F401C1E0D0E036C0C0E045
:102990008C2F0E944D0783E190E03DDC8C2F8695C3
:1029A0000E944D0783E190E036DC9FB1892F80952E
:1029B000881F8827881F8093FA0197FD13C0CF5F77
:1029C000C03431F765E181E00E94A7050E94ED0562
:1029D000C6E98C2F0E944D0784E090E01CDCC150BA
:1029E000C1F7C1CFCC2309F4BECF8C2F0E944D0775
:1029F0008DE090E010DCC150F5CFCE01B1D2F801EE
:102A000081938F012196C634D105B9F778948091CE
:102A10001C0181110E947A0560E070E08AE49DE06B
:102A20000E94920961E070E08AE19FE00E949209B1
:102A300043E4442E52E0552E60E4962E882483947D
:102A400077E0772ECC24C394D12CF5E06F2EAAE149
:102A5000AA2EAFE0BA2E0E94AE018091FF019091A4
:102A60000002009751F06091FD017091FE010E94FB
:102A7000AA09109200021092FF018091F9018823A7
:102A800009F44EC080E00E944D07A89540BE1F98F3
:102A90009FB1892F8095881F8827881F8093FA010E
:102AA00097FFF6CF0E94E9018CB788608CBF109227
:102AB00022021092FC011092FB018091F9018823FF
:102AC00031F180912302882321F086B78F798062CB
:102AD00003C086B78F79806486BF86B7806186BF62
:102AE000889586B78F7E86BF8091FB0181111092F9
:102AF000F90180912202882321F0809217020E941E
:102B00000F068091FC018823C1F2D3DAD6CF509210
:102B10000D018CB7877F8CBF0E940802A89590BEDC
:102B200070DB1092F2018091120290911302F5E095
:102B30008C399F0719F5C0E7D0E0FE0184918053DE
:102B4000803110F49CDB11C010E0812F81708295E0
:102B5000880F807E0E944D0780E190E05CDB1F5F64
:102B6000193199F78AE992E056DB8CE291E053DB68
:102B70002196F0E0CE37DF0701F7F3C021E1813A7B
:102B8000920799F033E18A34930729F0E3E185391C
:102B90009E0709F0CEC02091E701213009F0C9C09D
:102BA0002091E601222309F4C4C0C091E501EC2F75
:102BB000F0E0E25FFE4F80A980930C01C230D1F0BB
:102BC00030F0C330B9F1C53009F496C044CFD6A96E
:102BD00086E90E944D07C11103C082E090E003C066
:102BE0008D2F869590E017DB80E00E944D078D2F9A
:102BF00090E02AC1D0910B01C0E0C11102C080E079
:102C000003C0C53019F481E00E9480088D2F0E9416
:102C10004D0781E290E0FFDA80E00E944D0782E4F8
:102C200090E0F9DACF5FCA3041F780911E018093BE
:102C30000C0111CF0E945E028F73E82EF12C0E94CE
:102C40005E02672D38D1E60102C0CC0FDD1F9A95D8
:102C5000E2F70E945E02662D2ED1960102C0220F7D
:102C6000331F9A95E2F7C20FD31F0E945E0290E0D5
:102C7000BE0141D1C80FD91FC739D10514F0C6E92B
:102C8000D0E08C2F0E944D07C701C5DA8E0133E0DA
:102C9000159507953A95E1F7011101C001E010E0A3
:102CA000C701B9DAC01BD10BD7FF02C0C0E0D0E02A
:102CB0008C2F0E944D070E945E02837039F4C70179
:102CC000AADACE01959587950E944D07C230D105AD
:102CD0003CF70E945E026DE0EED0E60102C0CC0F30
:102CE000DD1F9A95E2F70E945E0290E0BE01EFD0F0
:102CF000C80FD91F80E0A5C0C0914601CC0FC739CD
:102D000008F0C6E9D4E08C2F0E944D0785E090E0E2
:102D100082DA809146010E944D0781E490E07BDADF
:102D2000D15089F780ED92E076DA80E00E944D077D
:102D300092CE3DE08C319307E9F488EE93E06BDAB4
:102D40008091160286958695CBDA90911602937043
:102D5000892F880F9695890FC3DA809119018823EE
:102D600081F0B0920002A092FF011092FE01109239
:102D7000FD0171CEEAE089319E0731F480911402A1
:102D8000AFDA88EE93E060C0F9E0803F9F07B9F4C6
:102D90008091FA0181115FCE80910B010E944D0755
:102DA00084E690E038DA80E00E944D078091470188
:102DB00090E068EE73E055D08456910945C0885B79
:102DC000994049F480E0A2DA81E0A0DA80E09EDA5E
:102DD00080ED97E039C080913C018823B9F1809162
:102DE000E201882399F12091F8013091E301231346
:102DF0000AC0822F0E944D071092E2018091E401E7
:102E00008093F70128CE6091E101231760F4832FAE
:102E1000821B51D0811101C081E0820F0E944D07B9
:102E20008AE090E011C0862F90E06EE170E019D04A
:102E30006091E401631B70E05ED0EB0121968FEF9F
:102E4000820F0E944D07CE01E6D905CE86B78F7955
:102E500086BF86B7806186BF889586B78F7E86BF1E
:102E6000FACD0024552704C0080E591F880F991F5A
:102E7000009729F076956795B8F37105B9F7802D1D
:102E8000952F0895EE27FF27AA27BB2708C0A20F7A
:102E9000B31FE41FF51F220F331F441F551F9695C4
:102EA00087957795679598F37040A9F7009799F7FC
:102EB000BD01CF010895991B79E004C0991F9617B1
:102EC00008F0961B881F7A95C9F780950895AA1B6C
:102ED000BB1B51E107C0AA1FBB1FA617B70710F005
:102EE000A61BB70B881F991F5A95A9F78095909537
:102EF000BC01CD01089597FB072E16F4009406D06F
:102F000077FD08D0E4DF07FC05D03EF4909581956D
:102F10009F4F0895709561957F4F0895A1E21A2EF5
:102F2000AA1BBB1BFD010DC0AA1FBB1FEE1FFF1F6D
:102F3000A217B307E407F50720F0A21BB30BE40BBD
:102F4000F50B661F771F881F991F1A9469F7609504
:102F50007095809590959B01AC01BD01CF010895BE
:102F6000E199FECF1FBA8EBBE09A99278DB30895E1
:102F7000262FE199FECF1FBA8EBBE09A81500DB289
:102F8000021639F01CBA2DBB0FB6F894E29AE19AFA
:082F90000FBE0895F894FFCF75
:102F9800080E18010101010004820A46030200011B
:102FA8000A0A0A8282820107050100000000031F45
:102FB8000003030000008000000000000000000083
:102FC8000000800000000000000000000104000074
:102FD8000000000029433202072D0018390400823E
:102FE8001E991505040310011301160102010000C2
:102FF80000000000000100000000000000000100C7
:1030080000740184028C0394049C05A406B007FF95
:10301800073E033504004F034004005F034B0400E0
:103028006F03550401A203820401D002E50200D314
:1030380002E50200D602E50200D902E50200DC0240
:0E304800E50200DF02E50200E202E502000000
:00000001FF
