:1000000075C1000090C100008EC100000C94201248
:100010008AC1000088C1000086C100000C940F1244
:1000200082C1000080C100007EC100007CC10000D0
:100030007AC1000078C1000076C1000074C10000E0
:1000400072C1000070C100006EC100006CC10000F0
:100050000C94C51168C1000066C1000064C10000B5
:1000600062C1000060C100005EC100005CC1000010
:100070005AC1000058C1000056C100003037313667
:100080002E302E6362666331613100000105041475
:10009000101115FF0F8D0A800C020ED609DA0A1214
:1000A0000BEB0A910A1B0A9709160A6C09C708D0BC
:1000B000082B080E08730744070A07C906450606F9
:1000C00006C505840543050405C6048A0451041ABF
:1000D00004E503B203820355032A030003DA02B5E1
:1000E0000292027102520234021802F701E501CEB7
:1000F00001B701A2018E0180016E01610154014727
:10010000013F0133012A0124011C01180111010DD5
:10011000010A0107010401020100010001FF00FFC3
:1001200000FF00FF00FF00FF00FF00FF00FF00FFD7
:1001300000FF00FF00FF00FF00FF00FF00FF00FFC7
:1001400000FF00FF00FF00FF00FF00FF00FF00FFB7
:1001500000FF00FF00FF00FF00FF00FF00FF00FFA7
:1001600000FF00FF00FF00FF00FF00FF00FF00FF97
:1001700000FF00FF00FF00FF00FF00FF00FF00FF87
:1001800000FF00FF00FF00FF00FF00FF00FF00FF77
:1001900000FF00FF00FF00FF00FF00FF00FF00FF67
:1001A00000FF00FF00FF00FF00FF00FF00FF00FF57
:1001B00000FF00FF00FF00FF00FF00FF00FF000046
:1001C000000000000000000000000000000000002F
:1001D000000000000000000000000000000000001F
:1001E000000000000000000000000000000000000F
:1001F00000000000000000000000000000000000FF
:1002000000000000000000000000010203040607D7
:10021000080A0B0D0E1011131516181A1C1E202299
:100220002527292C2E303336383B3E4144474A4D52
:100230005154575B5E62666A6E72767A7E82878BF5
:100240009094999EA3A8ADB2B8BDC3C8CED4DAE04D
:10025000E6ECF2F8FF0101020303040506070809B2
:100260000B0C0D0F10121315171A1B1C1E20222425
:1002700026282A2C2E30323436383A3C3E4042442E
:1002800046474A4C4E505255575A5D6064676B70F2
:10029000747A7F858C939AA3ABB6C0CBD7E4F1FF79
:1002A000FFFFFFFFFFFFFFFFFFFFFFFFFFFFFFFF5E
:1002B000FFFFFFFFFFFFFFFFFFFFFFFFFFFFFFFF4E
:1002C000FFFFFFFFFFFFFFFFFFFFFFFFFFFFFFFF3E
:1002D000FFFFFFFFFFFFFFFFFFFFFFFFFFFFFFFF2E
:1002E000FFFFFFFFFFFFFFFFFFFF000011241FBE06
:1002F000CFEFCDBFDFE3DEBF18E3A0E0B8E3E2EF6E
:10030000FBE202C005900D92A833B107D9F728E3AC
:10031000A8E3B8E301C01D92AF3CB207E1F70E9429
:1003200030120C94D0156CCEF89498ED94BF809355
:1003300061008091630080FDFCCF78940895E0E037
:10034000F6E082858160828780858160808708955C
:10035000ECE9F8E320E030E09081992339F02F5F59
:100360003F4F339620313105B9F70BC0F901EE0F3D
:10037000FF1F2E0F3F1FF901E456F74C8083618366
:10038000728308950F931F93CF93DF93D0919C387E
:10039000DD2351F100919D3810919E38C09179383C
:1003A000C150C7FD0DC0EC2FEE0FFF0BE658F74C08
:1003B0000190F081E02DB8018D2F09958111F0CFCA
:1003C000ECE9F8E383818083848195818183928342
:1003D000339688E3E93CF807A9F71092C9381092E0
:1003E000CA381092CB38D2CFDF91CF911F910F91A5
:1003F0000895BC018091CE38ABCF1092CE381092C8
:10040000CC381092CD3881E08093693808950F93ED
:100410001F93CF93C82F0CEC18E0CC2349F085E054
:1004200083DFC8010197F1F781E07EDFC150F5CF8E
:10043000CF911F910F910895E0E0F6E083E880836B
:10044000838180628383A0EAB0E08C918F7880649E
:100450008C938DE1868382E0818383E58283109291
:100460009838109299386BCF82B185FB882780F934
:1004700091E08927809372380895E0910638F091D1
:1004800007383196FB70F460E0930638F093073834
:1004900080916C388B5A80936C38E49180916C38E1
:1004A0008E0F0895FF920F931F93CF93DF9300D089
:1004B0001F92CDB7DEB72091A4AB3091A5AB409190
:1004C000A6AB29833A834B838E010F5F1F4F20E039
:1004D00030E0682F70E0E1E0F0E098E0F92ED8011C
:1004E0009D918D01A901440F551FDB0102C0B595F7
:1004F000A7954A95E2F7AD01437081F04130C9F408
:10050000A92FB0E0AF0102C0440F551F9A95E2F742
:1005100040934204A05BBB4FFC9215C0AF0102C0E8
:10052000440F551F9A95E2F74093410440934604C7
:100530000AC0DF0102C0AA0FBB1F9A95E2F7A09381
:100540004104A09345042F5F3F4F2330310539F616
:100550002396CDBFDEBFDF91CF911F910F91FF900A
:100560000895811182E09ECF81118AE09BCF811195
:1005700088E098CF811188E295CF811180E292CFF7
:10058000811182E28FCF81118AE28CCF81E00895C0
:1005900090E0FC01EB5AFD4FE4914E2F50E0FC013E
:1005A000E154FE4FE4912E2F30E0FC01EE0FFF1FCF
:1005B000ED56FF4F8591949140933A0A50933B0A30
:1005C0002093380A3093390A8093360A9093370A79
:1005D00080916F38811104C01092200A1092210A74
:1005E000089590E0FC01EB5AFD4FE4912E2F30E08E
:1005F000FC01E154FE4FE491F0E080913A0A9091C1
:100600003B0A892B19F42F3F310551F080913A0AAA
:1006100090913B0A8F3F910541F42115310529F452
:1006200020933A0A30933B0A1DC080913A0A909178
:100630003B0A8217930730F480913A0A90913B0A63
:1006400001960CC080913A0A90913B0A281739070D
:1006500048F480913A0A90913B0A019780933A0AB4
:1006600090933B0A8091380A9091390A8E179F0720
:1006700030F48091380A9091390A01960CC080912B
:10068000380A9091390AE817F90748F48091380A36
:100690009091390A01978093380A9093390A809192
:1006A0003A0A90913B0A2817390741F42091380AF9
:1006B0003091390A81E0E217F30709F080E00895EC
:1006C000CF93DF93CDB7DEB72697CDBFDEBF909136
:1006D0000C3820918A3830918B3826563B4009F4EB
:1006E00092E0843019F4609318381FC06623E9F053
:1006F000823019F427E9261B622F26E0E7EAFBEA9D
:10070000DE01119601900D922A95E1F79E012F5F6F
:100710003F4F280F311D280F311DF90132970190ED
:10072000F081E02DE90FF11D60832696CDBFDEBF7D
:10073000DF91CF910895BF92CF92DF92EF92FF9217
:100740000F931F93CF93DF93EC0140910C3890915E
:100750001738992311F0E2E001C0E42FF0E0E45FE4
:10076000F74C228120930938858180930838E92F3E
:10077000F0E0E45FF74C3185622F70E0442349F0EC
:10078000313039F49B01280F311DC90195958795AA
:1007900038C0C617D707A4F1682F70E06C177D0723
:1007A00084F1411102C08C2F2CC0821B032F10E05A
:1007B00001501109E82EF12CC701B8010E946715FC
:1007C000609365386695E62FF0E0822FC12CD12C1E
:1007D000B12CB316B1F0C601B8010E945315822F97
:1007E000860FCE0CDF1CAE01481B510957FF03C01A
:1007F000519541955109E417F5071CF4B394E9CFDD
:10080000822FDF91CF911F910F91FF90EF90DF909A
:10081000CF90BF900895ECE0F8E3868580930A3886
:100820008389808B80937038089580916238882303
:1008300051F090916F3890936438809361381092A2
:100840005F3810926038089520918E3880E0E82F4C
:10085000F0E0E054F4459081291710F08E5FF7CF57
:100860003197E081F0E0E557FF4F849108950F93B1
:100870001F93CF9390918E389150933710F480E06E
:100880008BC0C82FE82FEF7080916838811122C08B
:10089000C295CF708091323828E0829FC001112428
:1008A00068177907C0F420916738422F50E0481745
:1008B00059078CF4222379F091E080916E388F30C3
:1008C00008F490E081E0C23009F080E0C92FC82B25
:1008D000CF5F36C0C2E0E73088F1E730A9F400917D
:1008E0003D3810E00F5F1F4FC8DD65E00E944715DF
:1008F0009801290F311DC90166E070E00E9467155B
:1009000080933D38FC012DC0E830D1F480917138DE
:10091000882311F08FE001C083E090E06823792301
:10092000672B51F480913D3890E0019666E070E0CD
:100930000E94671580933D38E0913D38F0E011C08A
:1009400080917138882319F07FDFE82F0DC0CB012B
:100950009695879563E070E00E945315FC01EE0FB9
:10096000FF1FE457FF4FE491C33071F480913C388E
:1009700090E0019663E170E00E94531580933C384B
:10098000DC01A355B445CC91CC2321F0C13019F042
:10099000EE0F01C0E0E08E2FCF911F910F9182CD1D
:1009A000CF93C82F809171388091713881110BC01D
:1009B000CC2331F049DFC53108F0880F73DD12C058
:1009C00080E070DD02C0C1110DC010923A0A109291
:1009D0003B0A1092380A1092390A1092200A10929B
:1009E000210A0EC0E091703884E0E89FF0011124E4
:1009F000EE52F4450190F081E02D8FEF8C0F0995B8
:100A000080916F38C81380936E38C0936F38C0934D
:100A10006D38C53010F485E005C0C43110F483E0B2
:100A200001C081E0CF9180CCCF93C0916F3889E134
:100A30008C0F873908F080E0B3DF82E0E8DC8C2F90
:100A4000CF91AECFCF93C0916F3880E0A9DF83E024
:100A5000DEDC8C2FCF91A4CF81E00895823019F491
:100A6000609332380895611160932D38089566239C
:100A700089F0813061F480918C3890912F38891BF6
:100A8000681B60932F3882E080930B3803C0635E4D
:100A900060932E3880912E38873418F086E4809346
:100AA0002E380895609333380895E82FF0E0E45F1E
:100AB000F74C67A308957FEF780F40911D38509150
:100AC0001E38662359F021E030E002C0220F331FA8
:100AD0007A95E2F7CA01822B932B0AC081E090E05D
:100AE00002C0880F991F7A95E2F780958423952399
:100AF00080931D3890931E380895809366389091A6
:100B00006F38981718F4282F291B02C0292F281B8B
:100B100030915938311106C030912138332369F0B2
:100B2000223058F080935A3884E08093583881E01E
:100B30008093593890935B38089532CFCF93DF93E9
:100B40008CE098E380936A3890936B38F894C0E017
:100B5000D0E0E0916A38F0916B38EC0FFD1F6081B6
:100B60002196CE010E94B315CB32D10591F765EAEB
:100B700080E090E00E94B3157894DF91CF910895C2
:100B8000CF9310929A388091100690916C38890F0B
:100B900080936C3880918F38882309F44CC110926F
:100BA0008F389091983880917138882349F08091DE
:100BB00000068E7F8093000610929B381092983822
:100BC000911166C080910B38882329F020919438C8
:100BD000309195381AC02091713880919038909159
:100BE00091382223B9F0209194383091953863E000
:100BF000369527956A95E1F7280F391F73E096958A
:100C000087957A95E1F7281B390B2093903830931C
:100C1000913801C09C01C0912D38CC0FC45054E0D4
:100C2000369527955A95E1F740E050E060E070EC8A
:100C300083E090E00E947A15C20FC0938E388091B5
:100C40005638882311F0815007C0C43738F460E06B
:100C500070E084E07DDB85E08093563880917138C8
:100C60008111E0C08091A0008F7880618093A00006
:100C70008EE18093060682E08093010683E48093F0
:100C8000020681E0809398381092993858DBCAC0E8
:100C9000913009F0C7C080910B38882341F08091D2
:100CA000963890919738809392389093933820910A
:100CB000201180912111A0919238B091933830E4A5
:100CC0008302A019B109112430E00E949C15DC01B7
:100CD000CB01905EAF4FBF4F892F9A2FAB2FBB2711
:100CE00020912F38FC0136E0F695E7953A95E1F72B
:100CF000022E000C330BA901435151404E0F5F1FD0
:100D000040938C3850938D38BC0145E076956795BB
:100D10004A95E1F780910B3881112AC080914538BE
:100D2000E82FF0E0EE0FFF1FEA5BF74C40815181A6
:100D3000DB01A41BB50BAD01608371838F5F8770EE
:100D40008093453880912E3890E08D5E9E4F821BB7
:100D5000930B880F991F9B01281B390BC9019D011B
:100D6000220F331F220F331F820F931F23E00EC069
:100D7000E6E4F8E36193719388E3E635F807D1F789
:100D8000CDCF009709F00196215029F018161906C9
:100D9000C4F70197F9CF18161906E4F457FD39C0C6
:100DA0002091443812160CF1880F991FBC01635032
:100DB000710977FF02C06F5F7F4F759567951616B3
:100DC000170614F061E070E088E1861B80934438D8
:100DD00085E026C08C3FAFEF9A07DCF457FF19C0BF
:100DE0002091443827FF05C02450281B2093443805
:100DF00018C024EE281B2093443820918E382637C3
:100E000080F06CEF7FEF681B790B7595679586E036
:100E100007C080918E38853720F060E070E087E071
:100E200097DA0ADB80910B38882329F080910B3800
:100E3000815080930B38CF910895813019F410922E
:100E40001A380895823019F460931B38089583305E
:100E500019F4609319380895843019F460930D38AB
:100E60000895853011F4609321380895CF93DF936E
:100E700090917038981759F0C82FD0916F3880E052
:100E80008FDDC09370388D2FDF91CF9189CDDF91A9
:100E9000CF910895883039F41092623810925F38FB
:100EA0001092603845C0813B81F480916238815056
:100EB000833008F03FC083E08093623880936138CC
:100EC00010925F381092603835C0853BB1F4CB0189
:100ED0006EE370E00E945315892B51F580916238C2
:100EE0008A3F30F58B5F809362388093613810922F
:100EF0005F381092603898DD1BC08130D9F4809142
:100F00005F3890916038019688382EE0920728F477
:100F100080935F38909360380BC010925F381092C6
:100F2000603880916238882319F08150809362384C
:100F300080E0089581E00895FF920F931F93CF936F
:100F4000DF938C01EB01F42E80918A3890918B38DD
:100F5000892B31F0E0918A38F0918B3889E009953E
:100F600000938A3810938B38012B39F0E0918A383E
:100F7000F0918B38BE018F2D099581E080936938FF
:100F8000DF91CF911F910F91FF900895CF93DF9341
:100F9000E0917938EE2359F0E150E0937938F0E0B0
:100FA000EE0FFF1FE658F74CC081D18102C0C0E0B0
:100FB000D0E0E0917938EE2341F0F0E0EE0FFF1F32
:100FC000E858F74C8081918102C080E090E04AE0CF
:100FD00060E070E0B1DFCE01DF91CF9108958830FD
:100FE00029F41092573810923E3815C0813001F51F
:100FF00090913E38911107C06032710570F1809375
:101000003E38FBD92AC0913089F46B3B710528F03A
:1010100082E080933E3880E01FC061157105E9F0E1
:101020006270862F880F880F8E5E16C0AFDF15C0E6
:10103000813811F0813E89F491E090933E38813EF1
:1010400021F480915738865F03C0809157388F5FB5
:1010500080935738D2D98BE4A3DC80E008959C01BB
:1010600090917938983088F4E92FF0E0EE0FFF1F67
:10107000E658F74C208331839F5F9093793848E09E
:10108000C9015ADF8091793808958FEF08950F9341
:101090001F93CF93DF93EC018B0178DFB801CE0172
:1010A000DF91CF911F910F91DACF813C29F460E05D
:1010B00070E085ED9CE006C0823C39F460E070E0B1
:1010C00088E89BE0E4DF80E0089581E008958430C3
:1010D00011F580918A3890918B382FE080359207F6
:1010E00029F469E170E080ED98E013C0805D9840DC
:1010F00061F490916F38923040F0892F86959695E3
:101100009695890FFADC80E0089560E070E085ED47
:101110009CE0BDDFF8CF81E00895813C29F460E0D8
:1011200070E085ED9CE006C0823C31F460E070E048
:1011300085E598E0ACDF16C0813B49F4CB016EE356
:1011400070E00E945315892B69F46EDC0BC0813E60
:1011500059F4CB016EE370E00E9453156F5F60930A
:101160002C38ECDC80E0089581E00895813C29F47E
:1011700060E070E085ED9CE006C0823C31F460E008
:1011800070E08DE898E083DF07C0873B39F460E0CA
:1011900070E082E79BE063DF80E0089581E00895DE
:1011A000BF92CF92DF92EF92FF920F931F93CF9354
:1011B000DF93182FEB0180911C3880937038D0900A
:1011C0000938F090083880910C38882319F0B090D5
:1011D000653802C0BB24B394C0900D388091173895
:1011E0008111C0901838CC2051F031E0C31621F0A5
:1011F00080910A388F1518F0F6E9EF2E01C0EF2C18
:1012000000916238BE01812F45DE20916238222391
:1012100039F001110CC080916F388093643807C099
:10122000002329F060E070E085ED9CE036C0812F5E
:101230008D7F8830D9F410925E381A3019F4C0913D
:101240000A38D0E08D2D90E08C179D0738F48F2D53
:1012500090E0C817D90710F4C0930A38CE016BDAB2
:101260004CDC81E08093053800E0BAC1113CD1F23A
:10127000123C59F480916F388E1510F48E2D02C0F7
:1012800080910A383ADCD1DAEFCF143C41F480E0A7
:1012900087DB60E070E08BEE9BE0F9DEE5CF8FE46A
:1012A000810F823008F061C080910C38882341F0B2
:1012B000CE0168E170E00E945315892B31F0D4CF44
:1012C0006091143870E0CE01F6CF009159380111C9
:1012D000CBCF80916F38209761F4123B11F48FEFE0
:1012E00005C08F15E0F7D81648F181E080930538E6
:1012F00025C02091143830E066E371E0269FA001FC
:10130000279F500D369F500D11244C175D0710F488
:101310008F1528F76CE672E0269FA001279F500DDD
:10132000369F500D11244C175D0740F4D81630F04D
:101330007BDB60E070E08BEE9BE0A9DEC0916F3854
:10134000209105383B2D2303C00111248C0F911DE2
:10135000F2D980930A38C81719F0F81201C072DB6D
:1013600080910A38CADB61DA3BC18FE1810F82309C
:1013700020F480910538819575CF113009F084C033
:10138000A99711F410930538222371F1C0916438A4
:10139000C29F90011124E0916138F0E0C901BF01C2
:1013A0000E946715462FC9018C1B9109BF010E943D
:1013B0006715242F261B80915F38909160386EE36B
:1013C00070E00E945315269FC001279F900D1124A5
:1013D0006CE370E00E945315461B642F09F461E032
:1013E00060936D3860936638C0916D3820916F3886
:1013F0008C2F90E0821B91096091413870914238A6
:101400006F5F7F4F6093413870934238009709F4C3
:101410002BCF97FF05C0293730F040E450E005C0DE
:1014200040E052E002C040E051E05695479597FDFC
:101430000196959587950097C1F74617570708F0CD
:1014400013CFC21710F4CFEF03C02C1710F4C1E074
:10145000C20FE091703884E0E89FF0011124EE5251
:10146000F4450280F381E02D8FEF8C0F09958823DE
:1014700031F0D0916D388C2F93DAD0936D38109273
:10148000413810924238F0CE1530A1F480916F3877
:101490008D3308F4E9CE90E08C1B9D0B8C339105C5
:1014A00034F0873991056CF186E990E02AC08CE32D
:1014B00090E027C01630B9F490916F38809166386B
:1014C000981708F0D1CEC90FD11D90E08C179D0759
:1014D00034F0CC33D10524F4CCE3D0E001C0EC01EE
:1014E000C0936D38C1CE173079F490916D388091EA
:1014F0006F38891710F48F5F04C0981708F0B4CEC6
:10150000815080936D38B0CE133C19F0163C41F5F4
:1015100017C060911D3870911E3880E090E020E087
:10152000AB01082E02C0569547950A94E2F7417028
:10153000240F01968830910599F7223008F04FC0AA
:1015400081E090910C38911180E080930C38F6DAAC
:1015500079DA80916F3890E0EED880930A3892CE95
:101560000091173801113BC0133B49F4CD2B09F012
:101570007BCECC2011F086E9E82E8E2D04C0133EE0
:1015800021F480910A38B9DA2BC0153C61F48091BE
:101590006F3880930A3880E003DA60E070E08CEF07
:1015A00090E175DD1DC0173B29F460E070E082E634
:1015B0009BE013C01A3C59F480916F3880931A381D
:1015C0008091703880931F38B9DA2EDA09C01A3B3F
:1015D00031F460E070E08AE69BE041DD01C001E0AB
:1015E000802FDF91CF911F910F91FF90EF90DF90AF
:1015F000CF90BF9008950F931F93CF938B01C42F6B
:10160000883091F4809170388093403810923F3840
:1016100080E0C6D98091723881114FC080913F38E7
:101620008F5F80933F3833C0982F907F903B21F598
:1016300080913F384817E8F08150883040F490910D
:101640006338992321F09091703889130FDCC80119
:101650006DE570E00E945315069749F480913F387C
:101660008F5F80933F38C81740F188E303C082E161
:1016700001C080E095D921C0903E79F480913F3837
:101680008823A1F0481790F080914038EFDB60E0AC
:1016900070E08FEE97E0E3DC10C08A3049F460918F
:1016A000573880913F38F901099548DA6FDC05C059
:1016B000893019F480914038D9DB80E0CF911F91B7
:1016C0000F91089520E633E043E095CF20E633E024
:1016D00044E091CF2DE137E045E08DCF2EE235E0BB
:1016E00042E089CF27E335E042E085CF22E535E0CF
:1016F00041E081CF25E535E043E07DCF91E0909357
:1017000063382BE535E048E076DF109263380895C2
:10171000CF93C0911738C11123C0813C29F460E0F8
:1017200070E085ED9CE006C0823C31F460E070E042
:1017300086EB98E0ACDC15C0833C51F480912038F6
:1017400090E001968770992780932038F7D909C0D7
:10175000873B31F460E070E08EE69BE080DC01C006
:10176000C1E08C2FCF910895CF93833C21F5409118
:10177000703860911D3870911E38842F98E0282FA2
:1017800030E02F5F3F4F27703327822FFB0102C0CD
:10179000F695E7952A95E2F7E0FF0AC04817B9F0F9
:1017A00065DB8091703880931C38C8D9C0E010C0C8
:1017B000915029F7F3CFC0911738C11108C0893B68
:1017C00031F460E070E08EE79BE049DC01C0C1E0ED
:1017D0008C2FCF9108950F931F93CF93DF93C82F32
:1017E0008B01873BC9F480E0DBD881E080936838C7
:1017F000C8018F739927892B09F0A3C090913138C4
:10180000892F8F708F5F292F207F6BE00E944715F3
:10181000922B9093313895C080798039B1F4209122
:101820000E3890910F388C2F8F70813021F4822FD9
:10183000921748F407C080911A38811104C0822F92
:10184000291708F4892FACD80EC0803811F480E035
:10185000A7D8C83041F41092673860E070E08091FA
:10186000313805D87AC0C13039F40931110508F48E
:1018700080C0C093713865C0C330E1F4809167388F
:101880008F3F19F08F5F8093673880911A388823D3
:1018900009F457C040911B3822EC31E0429FC0014F
:1018A000439F900D11240817190708F44AC00E949D
:1018B0000B0447C0C33C31F4B7D860E070E085ED5D
:1018C0009CE014C0C43C21F460910A3870E00CC064
:1018D000C43B31F4B7D81092CE3861E070E004C058
:1018E000C53C31F466E970E080ED98E0D0DB41C0A2
:1018F000C33B79F4C8016EE370E00E945315892B55
:1019000061F560E070E083ECDF91CF911F910F9162
:101910002BCFC73CE1F480913138982F92959F707E
:101920009F5F937040E1949F900111248F70822BF0
:101930008093313860E070E00E943704FFD874D89B
:1019400018C0B801809131380E94370412C0C73ED8
:1019500021F410926838F2D80CC0D0911738D11108
:101960000AC0CA3B41F460E070E086E79BE077DBA9
:1019700003C0D0E001C0D1E08D2FDF91CF911F9146
:101980000F91089590912138992369F080935A38E6
:1019900088E08093583881E08093593880916F387F
:1019A00080935B3808950C94D004CF93DF93EB01C0
:1019B0008830A1F480E0E6DF80915938C82B10927E
:1019C000673880911C388093703810926238CD2B24
:1019D00009F05EC081E0809371385AC0813059F4BB
:1019E0006931710508F454C0C0915938C11150C013
:1019F0008093713813C1833069F5809167388F3FC8
:101A000019F08F5F8093673880911A38882371F0BE
:101A100040911B3822EC31E0429FC001439F900D62
:101A20001124C817D90710F00E940B04BE01809141
:101A300030380E94370480913338882349F142ECD2
:101A400051E0849F9001859F300D11242C173D0794
:101A5000F8F453C0813B91F481E090E00E949B0335
:101A600091DF80911938811113C080910C38811158
:101A700002C0689768F061E070E02AC0813ED9F347
:101A8000813841F480910A3890E00E949B037ADF0C
:101A9000C0E0C4C0813C21F460910A3870E018C0F5
:101AA000823B81F41092673880910D3890911738FD
:101AB000911180911838811103C086E990E0E5CF3B
:101AC00086E9E5CF823E59F0823C29F466E970E070
:101AD00080ED98E00CC0833921F41092593880E0F1
:101AE000D6CF833C31F460E070E088E89BE0CFDA49
:101AF000CFCF843C39F40E94140560E070E08BEE97
:101B00009BE0F5CF8D3B49F4F89491E088ED84BFDC
:101B1000909300017894A895FFCF8F3C29F460E062
:101B200070E08CE295E0E3CF8A3B91F4CD2B09F095
:101B300053C0C0911738CC2329F00E94140510928D
:101B4000173847C060E070E086E69BE088DA66C040
:101B5000833B29F460E070E080E59FE0C8CF873CDC
:101B6000C1F480913038982F92959F709F5F937049
:101B700040E1949F900111248F70822B8093303824
:101B800060E070E00E9437040E949E050E941405E8
:101B90007FCF873BD1F481E080936838CB018F738E
:101BA0009927892B61F490913038892F8F708F5F3E
:101BB000292F207F6BE06BD7922B90933038BE019A
:101BC000809130380E94370463CF873E29F4109209
:101BD00068380E949E055CCFC0911738C1111DC0A6
:101BE0008A3C41F40E94140581E0809317380E94DA
:101BF0009E0514C0853C39F40E94140560E070E035
:101C00008CEF90E108C0863C41F40E94140560E02E
:101C100070E084E491E13BDA01C0C1E08C2FDF91F8
:101C2000CF9108950F931F93CF93109274388091A2
:101C3000CC389091CD389C012F5F3F4F882790780A
:101C4000822B932B8093CC389093CD38C0917238EF
:101C50000E943402C81731F11092713880937238A3
:101C60009091CE38882359F0892F80699F709F30DA
:101C700009F08F5F8093CE3880E090E00DC0892F0F
:101C80008F7E95FD02C0806801C0806C8093CE3845
:101C90008091CC389091CD380E94F9011092CC38C7
:101CA0001092CD380091CC381091CD388091713898
:101CB0008823B1F0B80183E00E94A8010E94C2010C
:101CC0000134110528F00F701127012B09F047C0CE
:101CD0001092433881E080939B380E941C0232C0EE
:101CE000C091CE388C2F807F803B19F460E070E08B
:101CF00001C0B80181E00E94A801C4FF13C0C5FF64
:101D000002C0C8010CC008311105E0F01092CC38B7
:101D10001092CD38C062C093CE3880E090E00E942F
:101D2000F90110C0CC2371F0C5FD0AC002311105C4
:101D300048F0C064C093CE3880E090E00E94F90182
:101D40000E94FD01C0914338C11105C00E949F014E
:101D500081E080938F38CF5FCF71C0934338CF91AC
:101D60001F910F91089580919A3881110E94C005AA
:101D700080917438811156CF0895EF92FF920F939E
:101D80001F93CF93DF93EC0102E418E080E1E82E8B
:101D900082E0F82E2097D9F080916938811119C01E
:101DA00080916F38853028F485E00E949401C70146
:101DB00004C081E00E949401C8010197F1F781E01D
:101DC0000E949401D0DF0E94C2012197E3CF81E0FD
:101DD00001C080E0DF91CF911F910F91FF90EF90B4
:101DE00008950F931F93CF93DF93C82F882311F08B
:101DF00006EA02C00AE0C1E0D091703810E080919C
:101E0000203834D889E10E94D004D0937038C801BA
:101E1000B4DF809120382AD880E00E94D004D0938B
:101E200070388AEF90E0A9DFC15049F78D2F1ED896
:101E30008AE992E0DF91CF911F910F919ECFCF93CE
:101E4000DF9364E624D6282F892F6AE020D6EC01A0
:101E5000222341F0822FC5DF8C2FC3DF8D2FDF912E
:101E6000CF91BFCFC111F8CFF9CFCF93DF93D82F48
:101E7000C3E080910A380E94D00488EC90E07DDFB6
:101E8000DD2319F080E991E078DF80E00E94D00442
:101E900088EC90E072DFC15061F7DF91CF91089537
:101EA000FF920F931F93CF93DF93D82F8B01C09195
:101EB0005C3881E080935E38C43009F0EDC0F0906A
:101EC00062388D2F0E944A07FF2051F080916238BE
:101ED000811106C060E070E085ED9CE0D8D8DCC0E0
:101EE000D83021F481E080930338D8C0D23C19F473
:101EF00010926238E6C0D13BC1F490910238012BB8
:101F000049F49E3610F08FEF03C0923018F481E050
:101F10008093033880910338890F11F481E04EC11A
:101F20008F3608F44BC18EE649C1D13E31F4809121
:101F3000033881958093033815C1D23B61F481E069
:101F40008093033880910238823008F413C18150A5
:101F5000809302380FC1D13009F0B7C009321105A2
:101F600011F4D093033890913B38892F880F97FD57
:101F7000809527E0829FC001112430913A38232FA9
:101F8000220F37FD209580910138289F9001112460
:101F9000232F290F90913938892F880F97FD80952D
:101FA00090910038899FC0011124822F890F609180
:101FB000023870E0680F711D809162388130B9F489
:101FC00080915F389091603825E0969587952A95A5
:101FD000E1F724E730E0A901481B590B469FC001F7
:101FE000479F900D569F900D1124B9015CD5862F07
:101FF0000E94D00400FD08C00E943D0281709091B3
:102000003B38890F80933B3890913A38809138382B
:10201000890F80933A380E943D0265E238D580915D
:102020003938980F909339380E943D028F7331F4FC
:102030000E943D026DE02BD590933838C091013855
:10204000CC2339F00E943D028F7319F4C150C09324
:1020500001380E943D02811108C00E943D026BE0E0
:1020600016D59093013810923A38C0910038C33099
:1020700038F00E943D028F7119F4C150C0930038AE
:102080000E943D028F7709F0A5C00E943D0266E0E4
:10209000FED4909300389EC0D83041F4809122380D
:1020A00080935C3881E0809304388AC0D13C39F455
:1020B00060E070E085ED9CE00E94470881C0D23C62
:1020C00031F48C2F90E0019617C0D13C89F3D33CBA
:1020D00071F4809170388F5F87700E943607EC2F03
:1020E000F0E0E45FF74C80917038878B56C0D43CA9
:1020F00059F48C2F90E0059666E070E0E8D4809368
:10210000223880935C3849C0D13B51F5C23090F4FD
:1021100000FD56C0EC2FF0E0E45FF74C858D909108
:102120000438891B883020F08F3F99F58EEF31C03D
:1021300088E02FC0C53009F043C090912B388091C2
:102140000438890F823010F482E003C0893708F028
:1021500088E780932B3880912B380E94D00430C0C0
:10216000D13E31F48091043881958093043815C0B4
:10217000D23B89F481E080930438C23018F500FD29
:102180001FC0EC2FF0E0E45FF74C858D8F3FC1F06E
:102190008F5F858F15C0D23E19F40E949E0510C036
:1021A000D53C41F460E070E08CEF90E10E9447087C
:1021B00080E0D3CFD13071F081E018C08093023835
:1021C00080E014C0C530E1F780912B38833018F2DD
:1021D0008150BFCF0932110519F481E08093043892
:1021E00080916C38080F00936C38EACFDF91CF9163
:1021F0001F910F91FF9008950F931F93CF93DF933B
:10220000D82F8B01883031F480915E38882311F00B
:1022100088E046DE8D2F8079803961F481E08093FB
:102220005D38C0915E38C1110CC080910A380E949F
:10223000D00424C0803839F410925D3880E00E94C8
:10224000D004C0E01BC0D130C1F4C0915D38CC23B4
:1022500059F080915E388823A1F3B80181E0DF91C5
:10226000CF911F910F911CCE80E00E945202073344
:10227000114038F3D093713801C0C1E08C2FDF9149
:10228000CF911F910F910895FF920F931F93CF93BA
:10229000DF93D82F8B01F0900A388079803951F57F
:1022A000ED2FEF70E43020F010925D38C0E036C0C2
:1022B00091E090935D38F0E0E45FF74C87A12FEF59
:1022C000280F263948F480930A3810925E3880919E
:1022D0001C38809370380CC090935E388739D0F0EA
:1022E00090E08759910966E070E0F1D380935C3803
:1022F000C0E00BC0803841F410925D3880E00E944D
:10230000D00481E080936938C1E080915D388823F2
:1023100029F001C0C0E0B8018D2F6EDFF0920A38BD
:10232000D83021F4B80188E056DA28C0D13039F429
:1023300080915D38811120C0B80181E004C0D330A4
:1023400041F4B80183E0DF91CF911F910F91FF908D
:1023500042CAD63C49F40E94140560E070E085ED65
:102360009CE00E94470808C0D73B41F460E070E061
:102370008AE79BE00E942F0880E001C08C2FDF914C
:10238000CF911F910F91FF9008951F920F920FB65A
:102390000F9211242F933F938F939F93AF93BF93EB
:1023A000EF93FF9381E080930B0680919938882307
:1023B00031F1E0919838809110069091110624E057
:1023C000880F991F2A95E1F7F0E0EE0FFF1FDF015C
:1023D000AC56B74C8D939C93E057F74C20813181DC
:1023E0002817390710F42F5F3F4F8217930710F417
:1023F000215031092083318381E080939A3881E034
:1024000080939938FF91EF91BF91AF919F918F91F8
:102410003F912F910F900FBE0F901F9018951F9214
:102420000F920FB60F9211248F9381E08093530186
:10243000809374388F910F900FBE0F901F90189556
:102440001F920F920FB60F9211248F931D9A81E065
:10245000809373388F910F900FBE0F901F90189537
:10246000F89480914000877F8093400088EDA89584
:1024700084BF90910001907F9093000121E030E0B3
:1024800084BF2093610083E084B98EE088B988E03E
:10249000809310048093110480931204809313049A
:1024A0008093140499E0909315048093160480930C
:1024B0001704809332048093330480933404809310
:1024C00035048093500487E38093010A91E0909350
:1024D000000A2FEF30E02093360A3093370A8091BC
:1024E00012048160809312049093520180915101F3
:1024F0008111FCCF81E4809350010E941C027894EA
:1025000081E00E94070260E070E087E698E00E94A8
:102510002F08109269380E9414050E94340281111C
:1025200014C08CE098E380936A3890936B38F894E9
:1025300080E090E010D3853A09F044C000916A38F9
:1025400010916B38C1E0D0E034C0C0E08C2F0E9405
:10255000D00483E190E011DC8C2F86950E94D0049A
:1025600083E190E00ADC0E9434028823B9F0CF5F57
:10257000C03461F760918C3880912F38681B81E0FE
:102580000E9437050E949E05C6E98C2F0E94D00448
:1025900084E090E0F2DBC150C1F7C3CFCC2309F453
:1025A000C0CF8C2F0E94D0048DE090E0E6DBC150BC
:1025B000F5CFCE01D0D2F80181938F012196CC3294
:1025C000D105B9F7789480911A3881110E940B04D3
:1025D00060E070E084EB9BE00E942F0861E070E017
:1025E00085ED9CE00E942F087724739442E0242E0E
:1025F00051E4352E442443946CEFA62E63E0B62EAE
:1026000077E0572EEDE06E2EF8EE8F2EF3E09F2E42
:10261000A5EDCA2EACE0DA2E0E94C2018091773877
:1026200090917838009751F06091753870917638B4
:102630000E9447081092773810927838809171384C
:10264000882309F464C080E00E94D0047092520193
:10265000809151018111FCCFF9E5F09350018091F7
:1026600000068E7F809300060E9434028111FCCF09
:102670000E94FD01809112048160809312041092E7
:102680009A38109274381092733880917138882378
:1026900069F180919B38882329F080915000897FCF
:1026A000826004C080915000897F846080935000D4
:1026B00080915000816080935000889580915000F7
:1026C0008E7F809350008091733881111092713801
:1026D00080919A38882321F040928F380E94C0055B
:1026E00080917438882389F29DDACFCF20920B38FD
:1026F00080911204887F809312040E941C027092C1
:102700005201809151018111FCCF309250012BDB9D
:102710001092693880918A3890918B3828E0803DFA
:10272000920751F4C0916F380E942404C53108F01B
:10273000880F0E9452025FC1E5E08C329E0719F5B6
:10274000CCE7D0E0FE0184918053803110F449DB66
:1027500011C010E0812F81708295880F807E0E94C9
:10276000D00480E190E009DB1F5F193199F78AE915
:1027700092E003DB8CE291E000DB2196F0E0CA38C6
:10278000DF0701F7FDC02FE08035920799F0E0E107
:102790008C3F9E0729F0F1E184349F0709F0D8C0EF
:1027A00020915E38213009F0D3C020915D3822237A
:1027B00009F4CEC0C0915C38EC2FF0E0E45FF74C38
:1027C000878980937038C23009F138F0C33009F43A
:1027D0003DC0C53009F49FC01FCFD58D86E90E944A
:1027E000D004C11109C0DA3220F4C5010197F1F714
:1027F00007C081E090E003C08D2F869590E0BDDAA0
:1028000080E00E94D0048D2F90E02EC1D0910A3834
:10281000C0E0C11102C081E003C0C53019F485E0F9
:102820000E9436078D2F0E94D00481E290E0A5DA45
:1028300080E00E94D00482E490E09FDACF5FCA304B
:1028400041F780911C3880937038E6CE0E943D029B
:102850008F73E82EF12C0E943D02652D18D1C1E046
:10286000D0E08E0102C0000F111F9A95E2F70E947E
:102870003D0265E00CD102C0CC0FDD1F9A95E2F756
:102880000C0F1D1F0E943D0290E0B80120D1E8010D
:10289000C80FD91FC739D10514F0C6E9D0E08C2F75
:1028A0000E94D004C70169DA8E0133E015950795BF
:1028B0003A95E1F7011101C001E010E0C7015DDACE
:1028C000C01BD10BD7FF02C0C0E0D0E08C2F0E940C
:1028D000D0040E943D02837039F4C7014EDACE0164
:1028E000959587950E94D004C230D1053CF70E948F
:1028F0003D02662DCCD0C1E0D0E002C0CC0FDD1F80
:102900009A95E2F70E943D0290E0BE01CCD0C80F3C
:10291000D91F80E0A6C0C0912B38CC0FC73908F072
:10292000C6E9D4E08C2F0E94D00485E090E025DA3F
:1029300080912B380E94D00481E490E01EDAD150BF
:1029400089F780ED92E019DA80E00E94D00464CE2D
:102950002BE088389207E9F488EE93E00EDA809154
:102960008E38869586956BDA90918E389370892F84
:10297000880F9695890F63DA80911738882381F044
:10298000C0927738D0927838109275381092763895
:1029900043CEE8E0863B9E0731F480918C384FDAD5
:1029A00088EE93E061C0F8E08D389F07C1F4809114
:1029B0007238811131CE80910A380E94D00484E6A9
:1029C00090E0DBD980E00E94D00420912C38289D33
:1029D000C001299D900D11248456910945C085554B
:1029E000984049F480E041DA81E03FDA80E03DDA66
:1029F00080ED97E039C0809121388823B9F180912A
:102A00005938882399F120916F3890915A382913B9
:102A10000AC0822F0E94D0041092593880915B38EE
:102A200080936E38F9CD60915838291760F4892F5A
:102A3000821B2DD0811101C081E0820F0E94D00441
:102A40008AE090E011C08EE1689FA001112460919E
:102A50005B38691B70E0CA013AD0EB0121968FEF19
:102A6000820F0E94D004CE0188D9D6CD809150002B
:102A7000897F809350008091500081608093500046
:102A80008895809150008E7F80935000C5CD991B12
:102A900079E004C0991F961708F0961B881F7A9555
:102AA000C9F780950895AA1BBB1B51E107C0AA1F57
:102AB000BB1FA617B70710F0A61BB70B881F991FDF
:102AC0005A95A9F780959095BC01CD01089597FB83
:102AD000072E16F4009406D077FD08D0E4DF07FC3B
:102AE00005D03EF4909581959F4F0895709561951E
:102AF0007F4F0895A1E21A2EAA1BBB1BFD010DC03A
:102B0000AA1FBB1FEE1FFF1FA217B307E407F5079D
:102B100020F0A21BB30BE40BF50B661F771F881F79
:102B2000991F1A9469F760957095809590959B010F
:102B3000AC01BD01CF010895A29FB001B39FC001B8
:102B4000A39F700D811D1124911DB29F700D811DD9
:102B50001124911D089503D0808199270895FC01C7
:102B6000E050FC4E0895262FFADF0080021611F087
:102B700004D0019701970895262FAF93BF93E0E00B
:102B8000F0E1328131FDFDCFDC01A050BC4E2C9331
:102B90003DE934BF23E020830196BF91AF910895B2
:042BA000F894FFCFD7
:102BA4000203010E3811381438020100000000003D
:102BB400000001000000000000000001000074019A
:102BC40084028C0394049C05A406B007FF07C80282
:102BD400F102B102C602B402C602B702C602BA02C8
:0E2BE400C602BD02C602C002C602C302C6027D
:102BF200060B1801010100049601320200010114C2
:102C02001996827D01070501000000000001000005
:102C120000010400000000000029433202073200D4
:082C220019390400781E980026
:00000001FF
