:10000000BAC10000D5C100000C942512D1C1000076
:10001000CFC100000C941612CBC10000C9C1000072
:10002000C7C100000C943412C3C10000C1C100005C
:10003000BFC10000BDC100000C94D811B9C10000BF
:10004000B7C10000B5C10000B3C10000B1C10000DC
:10005000AFC10000ADC10000ABC10000A9C10000EC
:10006000A7C10000A5C10000A3C10000A1C10000FC
:10007000303133372E302E636266633161310000D8
:10008000010504141011150000000000000000001C
:100090000000000000000000000000000000000060
:1000A0000000000000000000000000000000000050
:1000B0000000000000000000000000000000000040
:1000C0000000000000000000000000000000000030
:1000D0000000000000000000000000000000000020
:1000E0000000000000000000000000000000000010
:1000F0000000000000000000000000000000000000
:100100000000000000000000000A141F2A35414CC6
:100110005865717E8B98A6B4C2D1E0EFFF00000253
:100120000003000500070009000B000E0011001479
:100130000018001C00210026002C0032003900406D
:1001400000480051005B00650070007D008A009847
:1001500000A700B800C900DC00F10007011E01374C
:100160000151016D018B01AB01CD01F10117023F7E
:10017000026A029702C702F9022E036603A103E096
:100180000321046604AE04FA0449059D05F40550F4
:1001900006B00614077D07EB075D08D5085209D4A1
:1001A000095C0AEA0A7D0B170CB70C5E0D0B0EBF3B
:1001B0000E7A0F3C100611D811B11293137D146FF3
:1001C000156A166F177C189419B51ADF1B151D5484
:1001D0001E9F1FF5205622C2233B25BF265128EF24
:1001E000299A2B522D182FEC30CE32BF34BF36CE89
:1001F00038ED3A1B3D5A3FAA410B447D46004996D3
:100200004B3F4EFA50C853AA56A059AA5CC95FFE8C
:10021000624866A8691F6DAC7051740D78E27B80EE
:100220007F807F807F807F807F807F807F807F80D6
:100230007F807F807F807F807F807F807F807F80C6
:100240007F807F807F807F0000000001000200032C
:1002500000040005000600070009000A000C000E5B
:100260000011001300160019001C002000240029B2
:10027000002D00320038003E0045004C0054005C68
:100280000065006E00790084008F009C00A900B812
:1002900000C700D700E800FB000E01230139015020
:1002A00001680182019E01BA01D901F9011B023ED8
:1002B0000264028B02B502E0020E033D037003A448
:1002C00003DB03150451049004D10416055E05A94F
:1002D00005F70548069D06F5065107B10714087C89
:1002E00008E7085709CB09440AC10A430BCA0B5651
:1002F0000CE70C7E0D190EBB0E620F0F10C1107BA8
:10030000113A120013CC13A0147A155C1645173558
:10031000182D192D1A351B451C5E1D801EAA1FDDC8
:10032000201A226023B02409266D27DB28532AD700
:100330002B652DFF2EA43054321134DA35AF3791AE
:1003400039803B7D3D863F9E41C343F74539488A0E
:100350004AEB4C5A4FDA5169540957B9597A5C4DF6
:100360005F316227652F68496B776EB7710B7573C4
:1003700078EF7B807F0011241FBECFEFD4E0DEBF7B
:10038000CDBF11E0A0E0B1E0E2E1FBE202C00590E8
:100390000D92A638B107D9F722E0A6E8B1E001C076
:1003A0001D92A032B207E1F70E9465120C948715E6
:1003B00027CEF89498ED9FBD83BF78940895482F79
:1003C0009B01E9EEF1E080E090E05081552331F0AF
:1003D0000196339680319105C1F70AC063E070E061
:1003E0000E942915FC01E751FE4F4083328321838F
:1003F00008950F931F93CF93DF93D091E901DD23ED
:1004000051F10091EA011091EB01C091C601C15078
:10041000C7FD0DC0EC2FEE0FFF0BE953FE4F01900F
:10042000F081E02DB8018D2F09958111F0CFE9EE13
:10043000F1E08381808384819581928381833396E7
:1004400082E0E631F807A9F710921602109218021E
:1004500010921702D2CFDF91CF911F910F91089583
:10046000BC0180911B02ABCF10921B0210921A02AA
:100470001092190281E08093B70108950F931F93A2
:10048000CF93C82F08EA17E0CC2349F082E091DF30
:10049000C8010197F1F780E08CDFC150F5CFCF9113
:1004A0001F910F91089586E884B9E1E6F0E080811C
:1004B0008260808388E082B91092E5011092E601A3
:1004C0008FEE83B90895E0910601F091070131960E
:1004D000FB70F460F0930701E09306018091BA018C
:1004E0008B5A8093BA01E4918091BA018E0F0895DE
:1004F0000F931F93CF93DF9300D01F92CDB7DEB73A
:1005000020913301309134014091350129833A83A0
:100510004B83FE01319640E050E090E061E070E0F6
:10052000B1919A01220F331F8C0102C015950795D6
:100530002A95E2F79801237061F02130D1F4A0B33D
:100540009B0101C0220FBA95EAF7322F30953A236A
:1005500018C0A0B39B0101C0220FBA95EAF72095FD
:100560003A2F322330BB32B3322332BB31B3232391
:100570000EC0A0B39B0101C0220FBA95EAF73A2F33
:10058000322B30BB32B3322B32BB31B3232B21BBE6
:100590004F5F5F4F4330510519F60F900F900F904A
:1005A000DF91CF911F910F910895811182E0A0CF2B
:1005B00081118AE09DCF811188E09ACF811188E274
:1005C00097CF811180E294CF811182E291CF811186
:1005D0008AE28ECF81E00895889A90931F028093DB
:1005E0001E02880F892F881F990B919580931D02F9
:1005F000992790936D0080936C0068BB8AB78068E0
:100600008ABF8091BC01811104C010926F001092CA
:100610006E000895E82FF0E0EE0FFF1FE75BFD4F3F
:100620008591949160E0D8CF682F70E0FB01EE0FC8
:10063000FF1FE35EFE4F85919491FB01E957FF4F49
:100640006491CACFAC0180911E0290911F02803844
:100650002FE7920721F44115510539F00AC04038BF
:100660002FE7520731F4892B21F450931F02409356
:100670001E0284E098B3961718F498B39F5F05C0E4
:1006800098B3691718F498B3915098BB815091F7BB
:1006900020911E0230911F02732F769590E024174F
:1006A000350718F42F5F3F4F05C04217530710F46A
:1006B000215031099F5F791790F730931F022093E3
:1006C0001E024217530721F498B381E0691380E0BA
:1006D0000895E82FF0E0EE0FFF1FE75BFD4F8591D7
:1006E000949160E0AFCF682F70E0FB01EE0FFF1F29
:1006F000E35EFE4F85919491FB01E957FF4F6491B2
:10070000A1CFCF93DF9300D000D000D0CDB7DEB71C
:1007100090910D012091D7013091D80127583B408D
:1007200009F492E0843019F46093190121C0662322
:10073000F9F0823019F427E9261B622F26E0E6E360
:10074000F1E0DE01119601900D922A95E1F7E82F74
:10075000F0E03197EE0FFF1F21E030E02C0F3D1F3E
:10076000E20FF31F0190F081E02DE90FF11D60838E
:1007700026960FB6F894DEBF0FBECDBFDF91CF91A6
:100780000895813011F4609332010895BF92CF92A1
:10079000DF92EF92FF920F931F93CF93DF93EC01C1
:1007A00040910D0190911801992311F0E2E001C0F0
:1007B000E42FF0E0E35FFE4F228120930901858161
:1007C00080930801E92FF0E0E35FFE4F3185622F4F
:1007D00070E0442349F0313039F49B01280F311D7A
:1007E000C9019595879538C0C617D707A4F1682F1A
:1007F00070E06C177D0784F1411102C08C2F2CC072
:10080000821B032F10E001501109E82EF12CC701C3
:10081000B8010E945A156093B4016695E62FF0E086
:10082000822FC12CD12CB12CB316B1F0C601B80166
:100830000E944615822F860FCE0CDF1CAE01481B8E
:10084000510957FF03C0519541955109E417F50728
:100850001CF4B394E9CF822FDF91CF911F910F91B8
:10086000FF90EF90DF90CF90BF900895EDE0F1E022
:10087000868580930A018389808B80930B0108957C
:100880008091B001882351F09091BD019093B30104
:100890008093AF011092AE011092AD01089581E0F6
:1008A0000895823019F460932D01089561116093C9
:1008B00028010895662389F0813061F48091D9017F
:1008C00090912A01891B681B60932A0182E0809322
:1008D0000C0103C0635E6093290180912901873474
:1008E00018F086E480932901089560932E010895FD
:1008F000E82FF0E0E35FFE4F61A308957FEF780FEC
:1009000040911E0150911F01662359F021E030E013
:1009100002C0220F331F7A95E2F7CA01822B932B74
:100920000AC081E090E002C0880F991F7A95E2F733
:1009300080958423952390931F0180931E01089531
:10094000CF93DF938DE091E09093B9018093B8014C
:10095000F894C0E0D0E0E091B801F091B901EC0F5B
:10096000FD1F60812196CE010E947515C632D1050A
:1009700091F765EA80E090E00E9475157894DF9128
:10098000CF9108951092E70180B191B12091BA0101
:100990008295869586958370990F990F890F820F9E
:1009A0008093BA018091DC01882309F41AC1109266
:1009B000DC018091E5019091BE01992329F01F98F7
:1009C0001092E8011092E501811151C080910C0153
:1009D000882329F08091E1019091E2011AC0809171
:1009E000BE012091DD013091DE018823B9F08091B4
:1009F000E1019091E20143E0969587954A95E1F7F0
:100A0000820F931F53E0369527955A95E1F7821B85
:100A1000930B9093DE018093DD0101C0C901209109
:100A200028012750220F60E671E00E944615260F2C
:100A30002093DB018091A401882311F0815007C02D
:100A4000243738F460E070E084E0B9DC85E080931E
:100A5000A4018091BE018111BBC08EE884B981E000
:100A60008093E5011092E6018FEE83B9B1C0813029
:100A700009F0AEC080910C01882341F08091E30120
:100A80009091E4019093E0018093DF018091DF0178
:100A90009091E00160912A019C01A6E0369527958E
:100AA000AA95E1F7062E000C770B260F371F2E5064
:100AB00031403093DA012093D901B5E096958795BE
:100AC000BA95E1F720910C01211128C020919301E2
:100AD000E22FF0E0EE0FFF1FEC56FE4F40815181F8
:100AE000DC01A41BB50BAD01918380832F5F2770C0
:100AF000209393019D01220F331F220F331F820F7A
:100B0000931F2091290130E0261B370B225F3E4FB7
:100B1000220F331F821B930B23E00EC0E4E9F1E0A8
:100B200081939193B1E0E43AFB07D1F7CFCF0097DF
:100B300009F00196215029F018161906C4F70197FB
:100B4000F9CF18161906E4F457FD39C02091920127
:100B500012160CF1880F991FBC016350710977FFC1
:100B600002C06F5F7F4F759567951616170614F0D4
:100B700061E070E088E1861B8093920185E026C0E9
:100B80008C3F2FEF9207DCF457FF19C020919201A0
:100B900027FF05C02450281B2093920118C024EE83
:100BA000281B209392012091DB01263780F06CEF07
:100BB0007FEF681B790B7595679586E007C080917C
:100BC000DB01853720F060E070E087E0F8DB6BDC6C
:100BD00080910C01882329F080910C018150809331
:100BE0000C010895882321F0813031F4829805C0EA
:100BF000829892988A980895829A929A8A9A0895E9
:100C0000CF93C82F8091BD01811109C0CC2339F049
:100C100080913201C81718F4F3DF82E02FDC809155
:100C2000BE0181110BC064DC91E0C11101C090E0F4
:100C300081E0C73408F480E0890FD4DFC11117C008
:100C40008AB78F778ABF10921F0210921E021092ED
:100C50006D0010926C0010926B0010926A0018BA2E
:100C600010926F0010926E00889889980FC0E091E2
:100C70000B01F0E0EE0FFF1FEE0FFF1FEF59FE4FCD
:100C80000190F081E02D8FEF8C0F09958091BD01CF
:100C9000C8138093BC01C093BD01C093BB01CA308F
:100CA00010F482E005C0C43110F481E001C080E09E
:100CB000CF917FCBCF93C091BD018DE28C0F87394F
:100CC00008F080E09DDF83E0D9DB8C2FCF9198CFB7
:100CD000CF93C091BD0180E093DF83E0CFDB8C2F09
:100CE000CF918ECF8093B5019091BD01981718F4E4
:100CF000282F291B02C0292F281B3091A701311151
:100D000006C030912201332369F0223058F08093DD
:100D1000A80184E08093A60181E08093A7019093CD
:100D2000A90108956DCF0F931F93CF939091DB018D
:100D30002FEF290F233720F480E0DADB80E09EC01C
:100D4000E82FEF702091B101211125C0C82FC29565
:100D5000CF7020912D0130E043E0220F331F4A95E0
:100D6000E1F762177307C0F48091B601482F50E095
:100D7000421753078CF4882379F021E08091BC015D
:100D80008F3008F420E081E0C23009F080E0822B4F
:100D9000C1E0C80F36C0C2E0E73088F1E730A9F4FF
:100DA00000918B0110E00F5F1F4F8DDB65E00E940B
:100DB0003A159801290F311DC90166E070E00E94C3
:100DC0005A1580938B01FC013AC0E830D1F4809130
:100DD000BE01882311F02FE001C023E030E0622340
:100DE0007323672B51F480918B0190E0019666E0AC
:100DF00070E00E945A1580938B01E0918B01F0E026
:100E00001EC08091BE01882381F080E0E82FF0E0D1
:100E1000E15BFE4F2081921710F08E5FF7CF319784
:100E2000E081F0E0E158FF4F0CC0CB01969587952B
:100E300063E070E00E944615FC01EE0FFF1FE058D2
:100E4000FF4FE491C33071F480918A0190E00196E4
:100E500063E170E00E94461580938A01DC01A45C86
:100E6000BE4FCC91CC2329F0C13029F0EE0FC2E067
:100E700002C0C0E0E0E08E2F3BDB8C2FCF911F91B2
:100E80000F91B0CECF93DF9390910B01981759F04B
:100E9000C82FD091BD0180E0B3DEC0930B018D2F30
:100EA000DF91CF91ADCEDF91CF910895813019F4CC
:100EB00010921B010895823019F460931C0108956B
:100EC000833019F460931A010895843019F4609303
:100ED0000E010895853011F4609322010895883041
:100EE00039F41092B0011092AE011092AD0145C0DC
:100EF000813B81F48091B0018150833008F03FC084
:100F000083E08093B0018093AF011092AE01109204
:100F1000AD0135C0853BB1F4CB016EE370E00E94BA
:100F20004615892B51F58091B0018A3F30F58B5FD2
:100F30008093B0018093AF011092AE011092AD0189
:100F4000B9DE1BC08130D9F48091AD019091AE0122
:100F5000019688382EE0920728F49093AE01809392
:100F6000AD010BC01092AE011092AD018091B001A5
:100F7000882319F081508093B00180E0089581E0CA
:100F80000895FF920F931F93CF93DF938C01EB0192
:100F9000F42E8091D7019091D801892B31F0E09106
:100FA000D701F091D80189E009951093D8010093F9
:100FB000D701012B39F0E091D701F091D801BE01A2
:100FC0008F2D099581E08093B701DF91CF911F911B
:100FD0000F91FF900895CF93DF93E091C601EE2328
:100FE00059F0E150E093C601F0E0EE0FFF1FE95326
:100FF000FE4FC081D18102C0C0E0D0E0E091C601C7
:10100000EE2341F0F0E0EE0FFF1FEB53FE4F808127
:10101000918102C080E090E04AE060E070E0B1DFE2
:10102000CE01DF91CF910895883029F41092A50167
:1010300010928C0115C0813001F590918C019111B5
:1010400007C06032710570F180938C010DDA2AC0FF
:10105000913089F46B3B710528F082E080938C011C
:1010600080E01FC061157105E9F06270862F880F5E
:10107000880F8E5E16C0AFDF15C0813811F0813E3B
:1010800089F491E090938C01813E21F48091A50137
:10109000865F03C08091A5018F5F8093A501E4D98D
:1010A0008BE4AEDD80E008959C019091C6019830FC
:1010B00088F4E92FF0E0EE0FFF1FE953FE4F318374
:1010C00020839F5F9093C60148E0C9015ADF809159
:1010D000C60108958FEF08950F931F93CF93DF9369
:1010E000EC018B0178DFB801CE01DF91CF911F9128
:1010F0000F91DACF813C29F460E070E08AEF9CE048
:1011000006C0823C39F460E070E08DEA9BE0E4DFE9
:1011100080E0089581E00895843011F58091D70131
:101120009091D8012FE08637920729F469E170E0A9
:1011300085EF98E013C0855F984061F49091BD0100
:10114000923040F0892F869596959695890FCADD45
:1011500080E0089560E070E08AEF9CE0BDDFF8CFAA
:1011600081E00895813C29F460E070E08AEF9CE022
:1011700006C0823C31F460E070E08AE798E0ACDFC2
:1011800016C0813B49F4CB016EE370E00E94461526
:10119000892B69F48FDD0BC0813E59F4CB016EE3DE
:1011A00070E00E9446156F5F60932701C9DB80E005
:1011B000089581E00895813C29F460E070E08AEFB1
:1011C0009CE006C0823C31F460E070E082EB98E085
:1011D00083DF07C0873B39F460E070E087E99BE07C
:1011E00063DF80E0089581E00895BF92CF92DF929F
:1011F000EF92FF920F931F93CF93DF93182FEB0182
:1012000080911D0180930B01D0900901F09008019D
:1012100080910D01882319F0B090B40102C0BB2465
:10122000B394C0900E01809118018111C0901901F2
:10123000CC2051F081E0C81621F080910A018F1571
:1012400018F0F6E9EF2E01C0EF2C0091B001BE01BD
:10125000812F45DE8091B001882339F001110CC047
:101260009091BD019093B30107C0002329F060E085
:1012700070E08AEF9CE036C0912F9D7F9830D9F4C2
:101280001092AC011A3019F4C0910A01D0E08D2DF2
:1012900090E08C179D0738F48F2D90E0C817D90780
:1012A00010F4C0930A01CE0171DA1CDD81E0809355
:1012B000050100E0B6C1113CD1F2123C59F4809115
:1012C000BD018E1510F48E2D02C080910A010ADD39
:1012D000D7DAEFCF143C41F480E092DC60E070E0BC
:1012E00085E19CE0F9DEE5CF9FE4910F923008F0B4
:1012F0005CC080910D01882341F0CE0168E170E06F
:101300000E944615892B31F0D4CF6091150170E011
:10131000CE01F6CF0091A7010111CBCF2091BD01E5
:10132000209761F4123B11F48FEF05C02F15E0F701
:10133000D21608F181E0809305011DC0E0911501EE
:10134000F0E0CF0166E371E00E9429158C179D073C
:1013500010F42F1548F7CF016CE672E00E942915B2
:101360008C179D0740F4D21630F0A4DC60E070E0EA
:1013700085E19CE0B1DEC091BD01809105016B2D3E
:1013800070E0082E000C990B0E9429158C0F911DFE
:10139000FDD980930A01C81719F0F81201C098DC32
:1013A00080910A019FDC6CDA3CC19FE1910F923081
:1013B00020F48091050181957ACF113009F086C023
:1013C000A99711F410930501882379F10091B301D5
:1013D00010E090E0B8010E942915EC01E091AF0106
:1013E000F0E0BF010E945A15262FCE01801B910B01
:1013F000BF010E945A15322F361B8091AD0190918A
:10140000AE016EE370E00E944615832F90E00E94CB
:1014100029156CE370E00E944615261B622F09F423
:1014200061E06093BB016093B501C091BB01209165
:10143000BD018C2F90E0821B910960918F0170910A
:1014400090016F5F7F4F7093900160938F010097C1
:1014500009F42FCF97FF05C0233830F040E450E067
:1014600005C040E052E002C040E051E0569547958B
:1014700097FD0196959587950097C1F746175707F1
:1014800008F017CFC21710F4CFEF03C02C1710F4D9
:10149000C1E0C20FE0910B01F0E0EE0FFF1FEE0F75
:1014A000FF1FEF59FE4F0280F381E02D8FEF8C0F6D
:1014B0000995882331F0D091BB018C2FA1DBD0930B
:1014C000BB011092900110928F01F3CE1530A1F460
:1014D0008091BD01833308F4ECCE90E08C1B9D0B12
:1014E0008233910534F08739910564F186E990E003
:1014F00029C082E390E026C01630B1F49091BD017E
:101500008091B501981708F0D4CEC90FD11D90E095
:101510008C179D0734F0C233D10524F4C2E3D0E028
:1015200001C0EC018C2F0EC0173079F49091BB01F3
:101530008091BD01891710F48F5F04C0981708F0DF
:10154000B8CE81508093BB01B4CE133C19F0163C49
:1015500041F517C060911E0170911F0180E090E07D
:1015600020E0AB01082E02C0569547950A94E2F799
:101570004170240F01968930910599F7223008F0C7
:101580004FC081E090910D01911180E080930D0199
:10159000D7D99EDB8091BD0190E0F8D880930A01F5
:1015A00096CE0091180101113BC0133B49F4CD2B9D
:1015B00009F07FCECC2011F086E9E82E8E2D04C0F4
:1015C000133E21F480910A018DDB2BC0153C61F4A0
:1015D0008091BD0180930A0180E012DB60E070E041
:1015E0008CE091E179DD1DC0173B29F460E070E0EB
:1015F00083E89BE013C01A3C59F48091BD018093AD
:101600001B0180910B01809320019AD953DB09C003
:101610001A3B31F460E070E08BE89BE045DD01C0EF
:1016200001E0802FDF91CF911F910F91FF90EF90FC
:10163000DF90CF90BF9008950F931F93CF938B01AE
:10164000C42F883091F480910B0180938E01109209
:101650008D0180E0D5DA8091BF0181114FC080916A
:101660008D018F5F80938D0133C0982F907F903BC9
:1016700021F580918D014817E8F08150893040F4C0
:101680009091B201992321F090910B018913FADB1B
:10169000C8016DE570E00E944615069749F48091F7
:1016A0008D018F5F80938D01C81740F188E303C0DF
:1016B00082E101C080E0A4DA21C0903E79F48091FB
:1016C0008D018823A1F0481790F080918E01DADB1C
:1016D00060E070E084E198E0E7DC10C08A3049F413
:1016E0006091A50180918D01F901099529D973DCDB
:1016F00005C0893019F480918E01C4DB80E0CF9160
:101700001F910F91089521E833E043E095CF21E840
:1017100033E044E091CF26E537E045E08DCF21EC82
:1017200033E041E089CF21E534E042E085CF2AE58E
:1017300034E042E081CF25E734E041E07DCF28E787
:1017400034E043E079CF91E09093B2012EE734E0AA
:1017500049E072DF1092B2010895CF93C091180151
:10176000C11125C0813C29F460E070E08AEF9CE063
:1017700006C0823C31F460E070E08BED98E0ACDCB8
:1017800017C0833C61F48091210190E0019669E0EB
:1017900070E00E945A1580932101D2D809C0873B7E
:1017A00031F460E070E083E99BE07EDC01C0C1E0E1
:1017B0008C2FCF910895CF93DF93833C29F53091FF
:1017C0000B01E0911E01F0911F01832F29E0C9E078
:1017D000D0E090E00196BE010E945A15AF01082E9C
:1017E00002C0569547950A94E2F740FF0AC03817A1
:1017F000B9F048DB80910B0180931D01A1D8C0E0B6
:1018000010C0215031F7F3CFC0911801C11108C0A9
:10181000893B31F460E070E083EA9BE045DC01C085
:10182000C1E08C2FDF91CF9108950F931F93CF9339
:10183000DF93C82F8B01873BC9F480E0E1D981E0B9
:101840008093B101C8018F739927892B09F09FC03C
:1018500090912C01892F8F708F5F292F207F6BE053
:101860000E943A15922B90932C0191C08079803977
:10187000B1F420910F01909110018C2F8F70813065
:1018800021F4822F921748F407C080911B01811127
:1018900004C0822F291708F4892FB2D90EC08038CE
:1018A00011F480E0ADD9C83041F41092B60160E087
:1018B00070E080912C0137DA76C0C13039F40931FB
:1018C000110508F47CC0C093BE0161C0C330D1F4DF
:1018D0008091B6018F3F19F08F5F8093B6018091A0
:1018E0001B01882309F453C080911C0190E062EC35
:1018F00071E00E9429150817190708F448C00E94D2
:10190000360445C0C33C31F4D5D960E070E08AEFBD
:101910009CE014C0C43C21F460910A0170E00CC04A
:10192000C43B31F4D5D910921B0261E070E004C0D1
:10193000C53C31F466E970E085EF98E0CDDB3FC04F
:10194000C33B79F4C8016EE370E00E944615892B11
:1019500051F560E070E083ECDF91CF911F910F9122
:101960002ACFC73CC9F490912C01892F82958F70A2
:101970008F5F83708295807F9F70892B80932C016D
:1019800060E070E0D0D90E94A00494D918C0B801DA
:1019900080912C01C8D913C0C73E29F41092B1011F
:1019A0000E94A0040CC0D0911801D1110AC0CA3BFA
:1019B00041F460E070E08BE99BE076DB03C0D0E0AF
:1019C00001C0D1E08D2FDF91CF911F910F9108952C
:1019D00090912201992369F08093A80188E0809377
:1019E000A60181E08093A7018091BD018093A901A8
:1019F000089506C90F931F93CF938B018830A1F4EC
:101A000080E0E6DF8091A701082B1092B60180915B
:101A10001D0180930B011092B001012B09F058C0F9
:101A200081E08093BE0154C0813059F46931710561
:101A300008F44EC0C091A701C1114AC08093BE01F5
:101A40000BC1833031F58091B6018F3F19F08F5F64
:101A50008093B60180911B01882359F080911C016D
:101A600090E062EC71E0F5D70817190710F00E94BA
:101A70003604B80180912B0156D980912E0188231C
:101A800039F190E062EC71E0E4D78017910700F53E
:101A900053C0813B99F481E090E00E94C60398DF37
:101AA00080911A01811114C080910D01811103C030
:101AB0000831110568F061E070E02AC0813ED9F379
:101AC000813841F480910A0190E00E94C60380DFD2
:101AD000C0E0C2C0813C21F460910A0170E018C0EE
:101AE000823B81F41092B60180910E019091180111
:101AF000911180911901811103C086E990E0E5CF31
:101B000086E9E5CF823E59F0823C29F466E970E02F
:101B100085EF98E00CC0833921F41092A70180E092
:101B2000D6CF833C31F460E070E08DEA9BE0D4DAFC
:101B3000CFCF843C31F4BED860E070E085E19CE01A
:101B4000F6CF8D3B41F4F89488ED8FBD88E880BFD7
:101B50007894A895FFCF8F3C29F460E070E08FE483
:101B600094E0E5CF8A3B81F4672B09F04CC0C0912B
:101B70001801CC2321F09ED81092180141C060E0DA
:101B800070E087E89BE065C0833B29F460E070E08B
:101B900086E79FE0CCCF873CA1F490912B01892F61
:101BA00082958F708F5F83708295807F9F70892B65
:101BB00080932B0160E070E0B6D80E94A0047AD830
:101BC00087CF873BC9F481E08093B101CB018F734C
:101BD0009927892B61F490912B01892F8F708F5F4A
:101BE000292F207F6BE046D7922B90932B01B801D1
:101BF00080912B0198D86CCF873E29F41092B101C7
:101C00000E94A00465CFC0911801C11124C08A3C74
:101C100039F450D881E0809318010E94A0041CC0C0
:101C2000853C31F447D860E070E08CE091E107C07A
:101C3000863C39F43FD860E070E087E591E14CDA0A
:101C40000BC0893B41F4012B31F460E070E08FE878
:101C50009BE02ADA01C0C1E08C2FCF911F910F9138
:101C600008950F931F93CF931092C1018091190291
:101C700090911A029C012F5F3F4F88279078822B0A
:101C8000932B90931A02809319029091BF012FB168
:101C9000822F8095881F8827881F8093BF019817FF
:101CA00029F11092BE018093BF0190911B02892FF0
:101CB00027FD0AC080699F709F3009F08F5F809375
:101CC0001B0280E090E00CC08F7E95FD02C0806812
:101CD00001C0806C80931B028091190290911A02BE
:101CE0000E94300210921A021092190200911902F9
:101CF00010911A028091BE018823B1F0B80183E0EF
:101D00000E94DF010E94F9010134110528F00F70D3
:101D10001127012B09F049C01092910181E08093B5
:101D2000E8010E94530232C0C0911B028C2F807FB9
:101D3000803B19F460E070E001C0B80181E00E94CE
:101D4000DF01C4FF13C0C5FF02C0C8010CC00831C9
:101D50001105E0F010921A0210921902C062C093AD
:101D60001B0280E090E00E94300210C0CC2371F092
:101D7000C5FD0AC00231110548F0C064C0931B02C2
:101D800080E090E00E9430020E9434028091910134
:101D9000811105C08FEE83B981E08093DC018091D1
:101DA00091018F5F8F7180939101CF911F910F915E
:101DB00008958091E70181110E94C2048091C101C0
:101DC00081114FCF0895EF92FF920F931F93CF93FE
:101DD000DF93EC0108E017E082ECE82EFF24F39497
:101DE0002097D9F08091B701811119C08091BD0170
:101DF0008A3028F482E00E94D901C70104C080E043
:101E00000E94D901C8010197F1F780E00E94D90131
:101E1000D0DF0E94F9012197E3CF81E001C080E08B
:101E2000DF91CF911F910F91FF90EF9008950F9345
:101E30001F93CF93DF93C82F882311F006EA02C0C7
:101E40000CE0C1E0D0910B0110E0809121011AD883
:101E50008DE20E940006D0930B01C801B4DF80918F
:101E6000210110D880E00E940006D0930B018AEF78
:101E700090E0A9DFC15049F78D2F04D88AE992E09C
:101E8000DF91CF911F910F919ECFCF93DF9364E6A7
:101E9000F1D5282F892F6AE0EDD5EC01222341F0FE
:101EA000822FC5DF8C2FC3DF8D2FDF91CF91BFCF66
:101EB000C111F8CFF9CFCF93DF93D82FC3E0809132
:101EC0000A010E94000688EC90E07DDFDD2319F016
:101ED00080E991E078DF80E00E94000688EC90E0E5
:101EE00072DFC15061F7DF91CF910895FF920F9398
:101EF0001F93CF93DF93D82F8B01C091AA0181E06C
:101F00008093AC01C43009F0E6C0F090B0018D2F91
:101F10000E946F07FF2051F08091B001811106C02F
:101F200060E070E08AEF9CE0D7D8D5C0D83021F4CB
:101F300081E080930301D1C0D23C19F41092B0012A
:101F4000DFC0D13BC1F490910201012B49F49636D8
:101F500010F08FEF03C0923018F481E080930301FA
:101F600080910301890F11F481E037C1873608F4AD
:101F700034C186E632C1D13E31F4809103018195AE
:101F800080930301FEC0D23B61F481E080930301A2
:101F900080910201823008F4FCC0815080930201DC
:101FA000F8C0D13009F0B0C00932110511F4D09356
:101FB000030190918901892F880F97FD809590E00A
:101FC00069E070E046D5292F80918801682F660F5F
:101FD00087FD60958091010170E090E03AD5290F6E
:101FE00080918701682F660F87FD609580910001C1
:101FF00070E090E02ED5920F6091020170E0690FC1
:10200000711D8091B001813091F48091AD0190916A
:10201000AE0125E0969587952A95E1F724E730E013
:10202000A901481B590BCA0114D5B9012FD5862F18
:102030000E94000600FD08C00E946302817090911A
:102040008901890F8093890190918801809186018F
:10205000890F809388010E94630265E20BD580910D
:102060008701980F909387010E9463028F7331F468
:102070000E9463026DE0FED490938601C09101013D
:10208000CC2339F00E9463028F7319F4C150C093BE
:1020900001010E946302811108C00E9463026EE088
:1020A000E9D49093010110928801C0910001C330DE
:1020B00038F00E9463028F7119F4C150C09300017F
:1020C0000E9463028F7709F08CC00E9463028770C0
:1020D0008093000186C0D83041F480912301809321
:1020E000AA0181E0809304017AC0D13C39F460E018
:1020F00070E08AEF9CE00E946C0871C0D23C31F421
:102100008C2F90E0019607C0D13C89F3D43C59F460
:102110008C2F90E0059666E070E0CCD4809323018C
:102120008093AA0149C0D13B51F5C23090F400FD23
:1021300056C0EC2FF0E0E35FFE4F878990910401D9
:10214000891B883020F08F3F99F58EEF31C088E0F1
:102150002FC0C53009F043C0909126018091040141
:10216000890F823010F482E003C0893708F088E7D5
:1021700080932601809126010E94000630C0D13E46
:1021800031F48091040181958093040115C0D23B04
:1021900089F481E080930401C23078F500FD1FC00E
:1021A000EC2FF0E0E35FFE4F87898F3FC1F08F5F38
:1021B000878B15C0D23E19F40E94A00410C0D53CF4
:1021C00041F460E070E08CE091E10E946C0880E0F6
:1021D000D3CFD13031F081E019C08093020180E08B
:1021E00015C00932110519F481E080930401809132
:1021F000BA01080F0093BA01F2CFC53081F7809180
:102200002601833008F4B6CF8150B2CFDF91CF9151
:102210001F910F91FF9008950F931F93CF93DF931A
:10222000D82F8B01883031F48091AC01882311F0D4
:1022300088E05CDE8D2F8079803961F481E08093C5
:10224000AB01C091AC01C1110CC080910A010E9488
:10225000000627C0803839F41092AB0180E00E945C
:102260000006C0E01EC0D130D9F4C091AB01CC2330
:1022700059F08091AC018823A1F3B80181E0DF918E
:10228000CF911F910F9132CE80E00E94780280E0C2
:102290000E94F2050733114020F3D093BE0101C024
:1022A000C1E08C2FDF91CF911F910F910895FF9284
:1022B0000F931F93CF93DF93D82F8B01F0900A01D8
:1022C0008079803951F5ED2FEF70E43020F01092D5
:1022D000AB01C0E036C091E09093AB01F0E0E35F6A
:1022E000FE4F81A12FEF280F263948F480930A0171
:1022F0001092AC0180911D0180930B010CC0909352
:10230000AC018739D0F090E08759910966E070E020
:10231000D1D38093AA01C0E00BC0803841F4109261
:10232000AB0180E00E94000681E08093B701C1E02C
:102330008091AB01882329F001C0C0E0B8018D2F46
:102340006BDFF0920A01D83021F4B80188E06DDA31
:1023500028C0D13039F48091AB01811120C0B8017F
:1023600081E004C0D33041F4B80183E0DF91CF9124
:102370001F910F91FF9059CAD63C49F40E945A060A
:1023800060E070E08AEF9CE00E946C0808C0D73BD8
:1023900041F460E070E08FE99BE00E94540880E027
:1023A00001C08C2FDF91CF911F910F91FF90089565
:1023B0001F920F920FB60F9211242F933F938F937A
:1023C0009F93AF93BF93EF93FF938091E601882390
:1023D000E9F0E091E50120B131B1F0E0EE0FFF1F2F
:1023E000DF01AF51BE4F2D933C93E352FE4F8081EE
:1023F00091818217930708F401962817390708F48A
:1024000001979183808381E08093E70181E080934D
:10241000E601FF91EF91BF91AF919F918F913F9115
:102420002F910F900FBE0F901F9018951F920F9233
:102430000FB60F9211248F9381E08093C1018F9189
:102440000F900FBE0F901F9018951F920F920FB60E
:102450000F9211248F9381E08093C0018F910F9090
:102460000FBE0F901F9018951F920F920FB60F92EC
:1024700011242F933F938F939F9380911D0290E09F
:1024800090936D0080936C0020911E0230911F028A
:10249000922F9F7780911C02890F220F232F221FDA
:1024A000330B3195982F991F9927991F290F209346
:1024B0001D028F7780931C029F918F913F912F91E6
:1024C0000F900FBE0F901F901895F89485B7877FD7
:1024D00085BF88ED90E00FB6F894A8958FBD90B7B2
:1024E000977F90BF0FBE81E088B998E09CB99FE7C5
:1024F00090BB92EA9093720091E19093710091E801
:102500009BBB8ABB8FEF90E090936900809368003B
:1025100080E882BB87BD8CB788608CBFA89580E4BB
:1025200080BF0E945302789481E00E943E0260E0E6
:1025300070E08CE898E00E9454081092B7010E9465
:102540005A069FB1892F8095881F8827881F8093FE
:10255000BF0197FF14C08DE091E09093B901809383
:10256000B801F89480E090E0B8D2853A09F046C00E
:102570000091B8011091B901C1E0D0E036C0C0E0CF
:102580008C2F0E94000683E190E01DDC8C2F869545
:102590000E94000683E190E016DC9FB1892F8095B0
:1025A000881F8827881F8093BF0197FD13C0CF5FC6
:1025B000C03431F765E181E00E945A040E94A00412
:1025C000C6E98C2F0E94000684E090E0FCDBC1503D
:1025D000C1F7C1CFCC2309F4BECF8C2F0E940006D7
:1025E0008DE090E0F0DBC150F5CFCE0176D2F8015E
:1025F00081938F012196C732D105B9F778948091E4
:102600001B0181110E94360460E070E08BED9BE0BD
:102610000E94540861E070E08AEF9CE00E94540838
:1026200043E4342E52E0452E60E4B62EAA24A3944F
:1026300077E0772EE5E06E2EFDE05F2EAAEFCA2E42
:10264000ACE0DA2E0E94F9018091C4019091C5019D
:10265000009751F06091C2017091C3010E946C0813
:102660001092C5011092C4018091BE01882309F423
:102670004EC080E00E940006A89530BE1F989FB112
:10268000892F8095881F8827881F8093BF0197FF17
:10269000F6CF0E9434028CB788608CBF1092E7019D
:1026A0001092C1011092C0018091BE01882331F1C6
:1026B0008091E801882321F086B78F79806203C07A
:1026C00086B78F79806486BF86B7806186BF88951C
:1026D00086B78F7E86BF8091C00181111092BE01A6
:1026E0008091E701882321F0A092DC010E94C204BE
:1026F0008091C1018823C1F2B4DAD6CF40920C0197
:102700008CB7877F8CBF0E945302A895B0BE51DB67
:102710001092B7018091D7019091D801F4E08F34E5
:102720009F0719F5C0E7D0E0FE0184918053803106
:1027300010F47DDB11C010E0812F81708295880F2D
:10274000807E0E94000680E190E03DDB1F5F193132
:1027500099F78AE992E037DB8CE291E034DB21964D
:10276000F0E0CE37DF0701F7F4C02FE0863792079D
:1027700099F0E1E18C309E0729F0F1E187359F0760
:1027800009F0CFC02091AC01213009F0CAC02091DE
:10279000AB01222309F4C5C0C091AA01C230F1F0F7
:1027A00030F0C330D9F1C53009F49EC04BCFEC2FC7
:1027B000F0E0E35FFE4FD78986E90E940006C11171
:1027C00003C081E090E003C08D2F869590E0FBDA96
:1027D00080E00E9400068D2F90E02EC1D0910A016A
:1027E000C0E0C11102C082E003C0C53019F486E028
:1027F0000E9442078D2F0E94000681E290E0E3DAFA
:1028000080E00E94000682E490E0DDDACF5FCA300B
:1028100041F780911D0180930B0114CF0E94630248
:102820008F73E82EF12C0E946302672D23D101E003
:1028300010E0480102C0880C991C9A95E2F70E94AA
:102840006302662D17D1E80102C0CC0FDD1F9A95F7
:10285000E2F78C0E9D1E0E94630290E0B4012AD123
:10286000E401C80FD91FC739D10514F0C6E9D0E07B
:102870008C2F0E940006C701A6DA8E0133E0159561
:1028800007953A95E1F7011101C001E010E0C70199
:102890009ADAC01BD10BD7FF02C0C0E0D0E08C2F6A
:1028A0000E9400060E946302837039F4C7018BDA2C
:1028B000CE01959587950E940006C230D1053CF760
:1028C0000E946302652DD6D0C1E0D0E002C0CC0FDB
:1028D000DD1F9A95E2F70E94630290E0BE01D6D018
:1028E000C80FD91F80E0A5C0C0912601CC0FC73901
:1028F00008F0C6E9D4E08C2F0E94000685E090E045
:1029000062DA809126010E94000681E490E05BDAA1
:10291000D15089F780ED92E056DA80E00E940006FF
:1029200091CE2BE08D3A9207E9F488EE93E04BDAF2
:102930008091DB0186958695A8DA9091DB019370F2
:10294000892F880F9695890FA0DA80911801882326
:1029500081F0D092C501C092C4011092C3011092BF
:10296000C20170CEE8E08B3D9E0731F48091D90121
:102970008CDA88EE93E060C0F8E0823B9F07B9F400
:102980008091BF0181115ECE80910A010E940006F4
:1029900084E690E018DA80E00E940006809127012A
:1029A00090E068EE73E055D08456910945C08A578F
:1029B000984049F480E07FDA81E07DDA80E07BDADC
:1029C00080ED97E039C0809122018823B9F1809190
:1029D000A701882399F12091BD013091A80123130B
:1029E0000AC0822F0E9400061092A7018091A901BF
:1029F0008093BC0127CE6091A601231760F4832F3A
:102A0000821B38D0811101C081E0820F0E94000634
:102A10008AE090E011C0862F90E06EE170E019D05E
:102A20006091A901631B70E045D0EB0121968FEF07
:102A3000820F0E940006CE01C6D904CE86B78F79D8
:102A400086BF86B7806186BF889586B78F7E86BF32
:102A5000F9CD0024552704C0080E591F880F991F6F
:102A6000009729F076956795B8F37105B9F7802D31
:102A7000952F0895991B79E004C0991F961708F0C7
:102A8000961B881F7A95C9F780950895AA1BBB1BD2
:102A900051E107C0AA1FBB1FA617B70710F0A61B5E
:102AA000B70B881F991F5A95A9F780959095BC017F
:102AB000CD01089597FB072E16F4009406D077FDFC
:102AC00008D0E4DF07FC05D03EF4909581959F4F38
:102AD0000895709561957F4F0895E199FECF1FBAD3
:102AE0008EBBE09A99278DB30895262FE199FECFEA
:102AF0001FBA8EBBE09A81500DB2021639F01CBA93
:102B00002DBB0FB6F894E29AE19A0FBE0895F8949F
:022B1000FFCFF5
:102B1200080E18010101000496014601020001019C
:102B22000A0A9682820107050100000000010200E4
:102B32000101010429433202072D001839040082E1
:102B42001E99160504030F0112011501020100006E
:102B52000000000000010000000000000000010071
:102B620000740184028C0394049C05A406B007FF40
:102B7200070A03690314037303D502EA02D802EABF
:102B820002DB02EA02DE02EA02E102EA02E402EA0D
:062B920002E702EA020066
:00000001FF
