:10000000ACC0C6C0E5CCC4C0C3C0C2C0C1C0C0C0C3
:1000100092CCBEC0BDC0BCC0CCCCBAC0B9C030311F
:1000200033312E302E63626663316131000000008F
:1000300000000000000000000000000000000000C0
:1000400000000000000000000000000000000000B0
:1000500000000000000000000000000000000000A0
:100060000000000000000000000000000000000090
:100070000000000000000000000000000000000080
:100080000103040507080A0B0D0E101213151719AA
:100090001B1D1F222426292B2E303336393C3F428C
:1000A00045484C4F53575B5F63676B7074797E8331
:1000B000888D92989EA3A9AFB6BCC3CAD1D8DFE7FA
:1000C000EFF7FF010102020303040405050606071A
:1000D0000808090A0A0B0C0D0E0F10111213151641
:1000E00017191A1B1D1F20222426282A2C2E3133D3
:1000F00036383B3E4144474A4E5155595D61656A29
:100100006E73787D82888D9399A0A6ADB4BBC3CA67
:10011000D2DBE3ECF5FFFFFFFFFFFFFFFFFFFFFF79
:10012000FFFFFFFFFFFFFFFFFFFFFFFFFFFFFFFFDF
:10013000FFFFFFFFFFFFFFFFFFFFFFFFFFFFFFFFCF
:10014000FFFFFFFFFFFFFFFFFFFFFFFFFFFFFFFFBF
:10015000FFFFFFFFFFFFFFFF000011241FBECFE5E1
:10016000D2E0DEBFCDBF10E0A0E6B0E0E4EFFEE1FC
:1001700002C005900D92AC39B107D9F721E0ACE986
:10018000B0E001C01D92A832B207E1F730DCB0CE7A
:1001900037CF482F9B01E5EFF0E080E090E0508101
:1001A000552331F00196339680319105C1F709C08E
:1001B00063E070E03FDEFC01EB50FF4F4083328391
:1001C000218308950F931F93CF93DF93D091F50070
:1001D000DD2351F10091F6001091F700C091D2009B
:1001E000C150C7FD0DC0EC2FEE0FFF0BED52FF4FBE
:1001F0000190F081E02DB8018D2F09958111F0CF8C
:10020000E5EFF0E08381808384819581928381830F
:10021000339681E0E232F807A9F71092220110929A
:10022000240110922301D2CFDF91CF911F910F9122
:100230000895BC0180912701ACCF10922701109244
:1002400026011092250181E08093C400089590E872
:1002500022E048EA57E030E0815070F00FB6F894A1
:1002600096BD26BD0FBEFA013197F1F70FB6F8948F
:1002700096BD36BD0FBEF0CF08958CE287B91092BF
:10028000F1001092F2008FEE86B9089586B383FBD9
:10029000882780F991E089278093CB000895E09129
:1002A0006600F09167003196FB70F460F093670090
:1002B000E09366008091C7008B5A8093C700E49159
:1002C0008091C7008E0F089590E0FC01ED53FF4F21
:1002D0002491FC01E35DFF4F849129BD88BD089501
:1002E00090E0FC01ED53FF4F2491FC01E35DFF4FD3
:1002F000949189B5811102C02F3F29F089B58F3FB4
:1003000021F4211102C029BD0CC089B5821718F44F
:1003100089B58F5F05C089B5281718F489B5815054
:1003200089BD88B5891718F488B58F5F05C088B571
:10033000981718F488B5815088BD89B5281303C073
:1003400028B581E0921380E00895CF93DF9300D029
:1003500000D000D0CDB7DEB790916C002091E300C3
:100360003091E400215F384009F492E0843019F4C0
:100370006093780021C06623F9F0823019F427E9F0
:10038000261B622F26E0E6E8F0E0DE0111960190E0
:100390000D922A95E1F7E82FF0E03197EE0FFF1F5D
:1003A00021E030E02C0F3D1FE20FF31F0190F081A0
:1003B000E02DE90FF11D608326960FB6F894DEBF9D
:1003C0000FBECDBFDF91CF910895BF92CF92DF9244
:1003D000EF92FF920F931F93CF93DF93EC01409125
:1003E0006C0090917700992311F0E2E001C0E42FB6
:1003F000F0E0E459FF4F22812093690085818093CA
:100400006800E92FF0E0E459FF4F3185622F70E07A
:10041000442349F0313039F49B01280F311DC901C3
:100420009595879536C0C617D70794F1682F70E069
:100430006C177D0774F1411102C08C2F2AC0821BFA
:10044000032F10E001501109E82EF12CC701B8016B
:1004500022DD6093C1006695E62FF0E0822FC12C6B
:10046000D12CB12CB316A9F0C601B80100DD822F42
:10047000860FCE0CDF1CAE01481B510957FF03C08D
:10048000519541955109E417F5071CF4B394EACF4F
:10049000822FDF91CF911F910F91FF90EF90DF900E
:1004A000CF90BF9008958091BF00882351F0909124
:1004B000C9009093C0008093BE001092BD001092BE
:1004C000BC0008956111609381000895662389F04E
:1004D000813061F48091E50090918300891B681B55
:1004E0006093830082E080936B0003C0635E60933F
:1004F000820080918200873418F086E48093820025
:10050000089560938500089581E00895CF93DF9367
:100510008CE690E09093C6008093C500F894C0E00C
:10052000D0E0E091C500F091C600EC0FFD1F6081A6
:100530002196CE01CBDCCA31D10599F765EA80E07E
:1005400090E0C4DC7894DF91CF9108951092F3008D
:1005500084B195B12091C700829586958695837068
:10056000990F990F890F820F8093C7008091E8003F
:10057000882309F406C11092E8008091F10090915F
:10058000CA00992329F037981092F4001092F100D4
:1005900081113DC080916B00882349F06091ED008E
:1005A0007091EE007093EA006093E90004C06091DE
:1005B000E9007091EA0020918100220F245096E01A
:1005C000769567959A95E1F780E090EB50DC260FE1
:1005D0002093E7008091B700882311F0815007C075
:1005E000243738F460E070E084E0D3DD85E0809368
:1005F000B7008091CA008111BBC08FEA87B981E042
:100600008093F1001092F2008FEE86B9B1C0813074
:1006100009F0AEC080916B00882341F08091EF001B
:100620009091F0009093EC008093EB008091EB00B0
:100630009091EC00A0918300AC01F6E056954795AF
:10064000FA95E1F70A2E000CBB0B4A0F5B1F4351D2
:1006500051405093E6004093E5009C0185E03695BB
:1006600027958A95E1F780916B00811127C08091D1
:10067000A600E82FF0E0EE0FFF1FE955FF4F408185
:100680005181B901641B750B318320838F5F8770A3
:100690008093A600CB01880F991F880F991F409166
:1006A000820050E04D5E5E4F4A1B5B0B440F551FAE
:1006B000841B950B820F931F23E00EC0E7EAF0E046
:1006C0002193319380E0E73BF807D1F7D0CF009733
:1006D00009F00196215029F018161906C4F7019760
:1006E000F9CF18161906E4F477FD39C02091A5005A
:1006F00012160CF1880F991FBC016350710977FF26
:1007000002C06F5F7F4F759567951616170614F038
:1007100061E070E088E1861B8093A50085E026C03B
:100720008C3F2FEF9207DCF477FF19C02091A500D2
:1007300027FF05C02450281B2093A50018C024EED5
:10074000281B2093A5002091E700263780F06CEF4E
:100750007FEF681B790B7595679586E007C08091E0
:10076000E700853720F060E070E087E012DD85DD8E
:1007700080916B00882329F080916B0081508093D9
:100780006B000895882321F0813029F4BC9804C0BF
:10079000BC98C4980895BC9AC49A0895CF93C82F62
:1007A0008091CA00811101C0EDDFC11103C019BCE5
:1007B00018BC03C08FEF8C0F87DDC093C900C093B6
:1007C000C800C63010F492E005C0CD3010F491E0BE
:1007D00001C090E080E80FB6F89486BD96BD0FBECC
:1007E000CF9108958093C200D9CFCF93C091C90013
:1007F00089E18C0F873908F080E0D0DF82E027DDC7
:100800008C2FCF91CBCFCF93C091C90080E0C6DFB2
:1008100083E01DDD8C2FCF91C1CF813019F4109270
:100820007A000895823019F460937B000895833034
:1008300019F4609379000895843011F460936D0089
:1008400008959091E700943710F480E011C0943837
:1008500028F466956170635086230AC0982F9F70B4
:10086000933030F06F70E62FF0E0E457FF4F808157
:1008700089CF883039F41092BF001092BD001092D9
:10088000BC0043C0813B79F48091BF00815083302C
:10089000F0F583E08093BF008093BE001092BD000E
:1008A0001092BC0034C0853BA9F4CB016EE370E02C
:1008B000DEDA892B51F58091BF008A3F30F58B5FDE
:1008C0008093BF008093BE001092BD001092BC00C8
:1008D0008CDF1BC08130D9F48091BC009091BD00A9
:1008E000019688382EE0920728F49093BD008093FB
:1008F000BC000BC01092BD001092BC008091BF00E4
:10090000882319F081508093BF0080E0089581E032
:100910000895FF920F931F93CF93DF938C01EB0108
:10092000F42E8091E3009091E400892B31F0E09166
:10093000E300F091E40089E009951093E40000934E
:10094000E300012B39F0E091E300F091E400BE01F7
:100950008F2D099581E08093C400DF91CF911F9185
:100960000F91FF900895CF93DF93E091D200EE2393
:1009700059F0E150E093D200F0E0EE0FFF1FED528E
:10098000FF4FC081D18102C0C0E0D0E0E091D20031
:10099000EE2341F0F0E0EE0FFF1FEF52FF4F80819A
:1009A000918102C080E090E04AE060E070E0B1DF59
:1009B000CE01DF91CF910895883029F41092B800CC
:1009C0001092A00015C0813001F59091A000911106
:1009D00007C06032710570F18093A0002EDC2AC040
:1009E000913089F46B3B710528F082E08093A00080
:1009F00080E01FC061157105E9F06270862F880FD5
:100A0000880F8E5E16C0AFDF15C0813811F0813EB1
:100A100089F491E09093A000813E21F48091B80088
:100A2000865F03C08091B8008F5F8093B80005DCBB
:100A30008BE4B4DE80E008959C019091D200983060
:100A400088F4E92FF0E0EE0FFF1FED52FF4F3183E6
:100A500020839F5F9093D20048E0C9015ADF8091C4
:100A6000D20008958FEF08950F931F93CF93DF93D4
:100A7000EC018B0178DFB801CE01DF91CF911F919E
:100A80000F91DACF813C29F460E070E08BED95E0C6
:100A900006C0823C39F460E070E081EA95E0E4DF72
:100AA00080E0089581E00895843011F58091E3009D
:100AB0009091E4002AE08A33920729F469E170E01A
:100AC0008EEB96E013C08E5B964061F49091C90066
:100AD000923040F0892F869596959695890F82DE03
:100AE00080E0089560E070E08BED95E0BDDFF8CF29
:100AF00081E00895813C29F460E070E08BED95E0A1
:100B000006C0823C31F460E070E082E495E0ACDF46
:100B100014C0813B41F4CB016EE370E0A8D9892B6E
:100B200061F463DE0AC0813E51F4CB016EE370E0F4
:100B30009ED96F5F60938000E9DC80E0089581E0DA
:100B40000895CF93C0917700C11117C0813C29F45B
:100B500060E070E08BED95E006C0823C31F460E02F
:100B600070E081EC95E080DF09C0873B31F460E004
:100B700070E089EF98E060DF01C0C1E08C2FCF9179
:100B80000895813C29F460E070E08BED95E006C0AB
:100B9000823C31F460E070E08AE795E065DF07C0F1
:100BA000873B39F460E070E08DEF98E045DF80E04E
:100BB000089581E00895CF93DF93EB01883069F4C5
:100BC00080E0ECDD1092C3001092BF00CD2B19F431
:100BD00081E08093CA00C0E0CDC0813021F469314A
:100BE0007105C8F3F6CF833039F58091C3008F3F8C
:100BF00019F08F5F8093C30020917A00222359F06F
:100C000080917B0090E062EC71E014D9C817D9079D
:100C100010F020936A00809184006C2F837011DEA5
:100C2000809185008823B9F290E062EC71E002D9EE
:100C30008C179D0780F64EC0813B91F481E090E0D7
:100C4000C4DBACDD809179008111C5CF80916C004F
:100C5000811103C0689708F4BECF61E070E02AC03C
:100C6000813ED9F3813821F480916A0090E015C06B
:100C7000813C21F460916A0070E01CC0823B89F4E1
:100C80001092C30080916D00909177009111809136
:100C90007800811104C086E990E097DB05C086E901
:100CA00003C0823E19F480E079DD95CF823C31F4B7
:100CB00066E970E08EEB96E0D7DE8DCF833999F34D
:100CC000833C29F460E070E081EA95E0F5CF843C54
:100CD00031F48BDD60E070E086E09CE0EDCF8D3B91
:100CE00031F4F89488ED81BD7894A895FFCF8F3CBE
:100CF00029F460E070E085E099E0DECF8A3B81F482
:100D0000CD2B11F5C0917700CC2321F06EDD109230
:100D1000770018C060E070E081EF98E08DDE2AC0B7
:100D2000833B29F460E070E08AE39AE0C5CF873C1A
:100D300059F49091840081E0890F9C7F8370892B06
:100D400080938400E3DB47CFC0917700C11111C0CD
:100D50008A3C31F44ADD81E080937700D7DB0AC01A
:100D6000853C39F442DD60E070E081EC9BE07CDEA4
:100D700001C0C1E08C2FDF91CF910895BF92CF9237
:100D8000DF92EF92FF920F931F93CF93DF93182F71
:100D9000EB01E09069000091680080916C0088236D
:100DA00019F0C090C10002C0CC24C394D0906D0053
:100DB000809177008111D0907800DD2051F081E0A2
:100DC000D81621F080916A00801718F0F6E9FF2EFE
:100DD00001C0F02EB090BF00BE01812F4ADD80918E
:100DE000BF00882339F0B1100CC09091C9009093D6
:100DF000C00007C0BB2029F060E070E08BED95E0FB
:100E00005DC0912F9D7F9830C9F41092BB001A30BD
:100E100019F4C0916A00D0E0F12CEC16FD0630F414
:100E200010E0C017D10710F4C0936A00CE01CDDAEC
:100E3000D9DC81E08093650000E080C1113CE1F2E3
:100E4000123CA1F58091C9008F1558F58F2D2BC04C
:100E50009FE4910F923008F061C080916C0088236C
:100E600079F1CE0168E170E002D8892B29F7209151
:100E7000C900209781F5123B41F58FEF8093650003
:100E8000C091C900809165006C2D70E0082E000CA7
:100E9000990BD0D78C0F911D98DA80936A00C813F4
:100EA00037C080916A009EDCFEDAC6CF143C81F622
:100EB00080E074DC60E070E086E09CE0D5DDBCCFD3
:100EC0006091740070E0CE01CFCF2017B0F6E2162B
:100ED000B8F281E0D3CFE0917400F0E0CF0166E397
:100EE00071E0A8D78C179D0710F4201730F6CF01BA
:100EF0006CE672E09FD78C179D0710F6E21608F497
:100F0000BFCF73DC60E070E086E09CE0ADDDB8CF81
:100F1000833511F00813C5CF76DCC3CF9FE1910F65
:100F2000923020F480916500819584CF113009F0D2
:100F300078C0A99711F410936500882349F10091B6
:100F4000C00010E090E0B80175D7EC01E091BE0060
:100F5000F0E0BF01A0D7262FCE01801B910BBF016F
:100F60009AD7322F361B8091BC009091BD006EE362
:100F700070E07DD7832F90E05DD76CE370E077D78A
:100F8000261B622F09F461E06093C8006093C200E1
:100F9000D091C8008091C9002D2F30E0281B310965
:100FA0006091A2007091A3006F5F7F4F7093A300C8
:100FB0006093A2002115310509F43ECF37FF05C02B
:100FC000833830F040E450E005C040E052E002C019
:100FD00040E051E05695479537FF02C02F5F3F4FE5
:100FE0003595279521153105A9F74617570708F0BC
:100FF00023CFD81710F4CFEF03C08D1718F4C1E03A
:10100000C80F01C0CD2F8FEF8C0F6AD9882321F034
:101010008C2FC4DBD093C8001092A3001092A200C2
:101020000BCF1530A1F48091C9008D3308F404CFA3
:1010300090E08C1B9D0B8C33910534F08739910522
:1010400064F186E990E029C08CE390E026C0163078
:10105000B1F49091C9008091C200981708F0ECCECD
:10106000C90FD11D90E08C179D0734F0CC33D1050A
:1010700024F4CCE3D0E001C0EC018C2F0EC017307B
:1010800079F49091C8008091C900891710F48F5F9E
:1010900004C0981708F0D0CE81508093C800CCCE01
:1010A000133C81F481E090916C00911180E0809379
:1010B0006C002CDAA8DB8091C90090E086D980937F
:1010C0006A00F1CE00917700011137C0133B49F45B
:1010D000CD2B09F0B1CEDD2011F086E9F82E8F2D51
:1010E00004C0133E21F480916A007CDB27C0153CCC
:1010F00061F48091C90080936A0080E04FDB60E07A
:1011000070E081EC9BE0B0DC19C0173B29F460E093
:1011100070E08DEE98E00FC01A3C39F48091C90060
:1011200080937A00F3D961DB09C01A3B31F460E0A7
:1011300070E085EF98E080DC01C001E0802FDF9156
:10114000CF911F910F91FF90EF90DF90CF90BF90C4
:101150000895883071F41092A10080E01FDB809127
:10116000CB00811138C08091A1008F5F8093A100D6
:1011700022C0982F907F903BB1F42091A10042179C
:1011800078F0CB016DE570E072D6069739F42F5FE9
:101190002093A1004217F8F088E303C082E101C068
:1011A00080E0FCDA18C0903E61F48091A1008823B1
:1011B00089F0481778F060E070E08CED94E03CDC5A
:1011C0000AC08A3041F46091B8008091A100F90111
:1011D00009959CD9C8DB80E0089525EA31E043E019
:1011E000B8CF25EA31E044E0B4CF2DE034E044E06C
:1011F000B0CF22E632E041E0ACCF26E632E042E07A
:10120000A8CF21E832E041E0A4CF81E008950F9318
:101210001F93CF931092CD008091250190912601CC
:101220009C012F5F3F4F88279078822B932B9093C0
:10123000260180932501C091CB0028D8C81729F139
:101240001092CA008093CB0090912701882359F017
:10125000892F80699F709F3009F08F5F80932701ED
:1012600080E090E00DC0892F8F7E95FD02C08068E0
:1012700001C0806C80932701809125019091260107
:10128000D8D71092260110922501009125011091C6
:1012900026018091CA00882399F0B80183E079D7AC
:1012A00091D70134110528F00F701127012B09F097
:1012B00044C01092A40081E08093F400DED72EC0D9
:1012C000C09127018C2F807F803B19F460E070E093
:1012D00001C0B80181E05DD7C4FF12C0C5FF02C0E4
:1012E000C8010CC008311105C8F0109226011092F7
:1012F0002501C062C093270180E090E09AD70EC01C
:10130000CC2361F0C5FD09C00231110538F0C0647D
:10131000C093270180E090E08CD78FD78091A40004
:10132000811105C08FEE86B981E08093E80080913D
:10133000A4008F5F8F718093A400CF911F910F91B4
:1013400008958091F300811101D98091CD00811120
:101350005ECF0895CF92DF92EF92FF920F931F938B
:10136000CF93DF93EC0110E800E080E3E82E87E004
:10137000F82E9CECC92EDD24D394209709F180919E
:10138000C40081111FC08091C900863040F482E002
:101390000FB6F89416BD86BD0FBEC60106C00FB6C7
:1013A000F89416BD06BD0FBEC7010197F1F70FB641
:1013B000F89416BD06BD0FBEC4DF04D72197DDCF5C
:1013C00081E001C080E0DF91CF911F910F91FF90EC
:1013D000EF90DF90CF900895CF93C82F882381F0AE
:1013E00089E1DCD986EA90E0B5DF80E0D7D98AEFE1
:1013F00090E0B0DFC150A1F78AE992E0CF91AACF87
:1014000089E1CCD98AE090E0A5DF80E0C7D98AEFF6
:1014100090E0A0DFF1CFCF93DF9364E61CD5282FB7
:10142000892F6AE018D5EC01222341F0822FD4DF06
:101430008C2FD2DF8D2FDF91CF91CECFC111F8CF7E
:10144000F9CFCF93DF93D82FC3E080916A00A6D95C
:1014500088EC90E07FDFDD2319F080E991E07ADF0E
:1014600080E09CD988EC90E075DFC15071F7DF9186
:10147000CF910895FF920F931F93CF93DF93D82FAF
:101480008B01C091B90081E08093BB00C33009F0AB
:10149000DBC0F090BF008D2FECD9FF2051F0809180
:1014A000BF00811106C060E070E08BED95E0DCDAF2
:1014B000CBC0D83021F481E080936300C7C0D23C18
:1014C00019F41092BF00D4C0D13BC1F490916200D6
:1014D000012B49F49E3610F08FEF03C0923018F4C0
:1014E00081E08093630080916300890F11F481E0B3
:1014F00029C18F3608F426C18EE624C1D13E31F4CD
:1015000080916300819580936300F2C0D23B61F4C7
:1015100081E08093630080916200823008F4F0C023
:10152000815080936200ECC0D13009F0A5C009322F
:10153000110511F4D093630090919F00892F880FBB
:1015400097FD809590E067E070E074D4292F80913A
:101550009E00682F660F87FD60958091610070E0A6
:1015600090E068D4290F80919D00682F660F87FD59
:1015700060958091600070E090E05CD4920F609183
:10158000620070E0690F711D8091BF00813091F49D
:101590008091BC009091BD0025E0969587952A9595
:1015A000E1F724E730E0A901481B590BCA0142D4F6
:1015B000B9015DD4862FF2D800FD07C070D68170C6
:1015C00090919F00890F80939F0090919E00809141
:1015D0009C00890F80939E0062D665E23CD4809186
:1015E0009D00980F90939D005AD68F7329F457D67B
:1015F0006DE031D490939C00C0916100CC2331F018
:101600004ED68F7319F4C150C093610048D6811132
:1016100007C045D66BE01FD49093610010929E00E6
:10162000C0916000C33030F03AD68F7119F4C150C8
:10163000C093600034D68F7709F088C030D666E05A
:101640000AD49093600082C0D83041F480917C002D
:101650008093B90081E08093640076C0D13C31F47E
:1016600060E070E08BED95E0FFD96EC0D23C31F4C4
:101670008C2F90E0019607C0D13C91F3D43C59F4F3
:101680008C2F90E0049665E070E005D480937C0098
:101690008093B90048C0D13B49F5C23090F400FDB9
:1016A00053C0EC2FF0E0E459FF4F81899091640022
:1016B000891B883020F08F3F91F58EEF30C088E095
:1016C0002EC0C43009F040C090917F00809164002A
:1016D000890F823010F482E003C0893708F088E770
:1016E00080937F0080917F0059D82EC0D13E31F485
:1016F0008091640081958093640015C0D23B89F489
:1017000081E080936400C23068F500FD1DC0EC2FBD
:10171000F0E0E459FF4F81898F3FB1F08F5F818BFB
:1017200013C0D23E11F4F2D60FC0D53C39F460E0BC
:1017300070E081EC9BE098D980E0D6CFD13031F0D9
:1017400081E019C08093620080E015C00932110564
:1017500019F481E0809364008091C700080F009322
:10176000C700F2CFC43081F780917F00833008F446
:10177000B9CF8150B5CFDF91CF911F910F91FF90DD
:1017800008950F931F93CF93DF93D82F8B01883049
:1017900031F48091BB00882311F088E06BDE8D2F3F
:1017A0008079803959F481E08093BA00C091BB0000
:1017B000C1110AC080916A00F1D722C0803831F48B
:1017C0001092BA0080E0EAD7C0E01AC0D130B9F474
:1017D000C091BA00CC2359F08091BB008823A1F3BB
:1017E000B80181E0DF91CF911F910F9143CE80E04E
:1017F000C9D70733114040F3D093CA0001C0C1E0FC
:101800008C2FDF91CF911F910F9108950F931F930C
:10181000CF93DF93D82F8B0180798039B1F4209159
:101820006E0090916F008D2F8F70813021F4822F88
:10183000921748F407C080917A00811104C0822F6A
:10184000291708F4892FAAD713C0803819F480E02B
:10185000A5D705C0D83019F41092C30057C0D130B5
:1018600039F40931110508F45DC0D093CA005AC09B
:10187000D330E9F48091C3008F3F19F08F5F8093DC
:10188000C30020917A00222359F080917B0090E0E0
:1018900062EC71E0CFD20817190710F020936A00AC
:1018A00080918400602F86958695CBD73BC0D33C32
:1018B00031F49BD760E070E08BED95E014C0D43C30
:1018C00021F460916A0070E00CC0D43B31F49BD7E6
:1018D0001092270161E070E004C0D53C31F466E964
:1018E00070E08EEB96E0C0D81DC0D73C79F49091A3
:1018F0008400892F869586958F5F8370880F880F67
:101900009370890F8093840001D60CC0C09177003A
:10191000C1110AC0DA3B41F460E070E081E099E077
:101920008BD803C0C0E001C0C1E08C2FDF91CF9104
:101930001F910F9108951F920F920FB60F921124CD
:101940002F933F938F939F93AF93BF93EF93FF9307
:101950008091F2008823E9F0E091F10024B135B1E3
:10196000F0E0EE0FFF1FDF01A351BF4F2D933C931B
:10197000E751FF4F808191818217930708F4019608
:101980002817390708F401979183808381E08093B9
:10199000F30081E08093F200FF91EF91BF91AF914E
:1019A0009F918F913F912F910F900FBE0F901F909D
:1019B00018951F920F920FB60F9211248F9381E00A
:1019C0008093CD008F910F900FBE0F901F901895B0
:1019D0001F920F920FB60F9211248F9381E0809384
:1019E000CC008F910F900FBE0F901F901895F89418
:1019F00084B7877F84BF0FB6F894A89581B58861B6
:101A000081BD11BC0FBE83E087BB81E083BF81EA4B
:101A10008ABD88E088BB85BB8BB780628BBFA895E9
:101A200081B5886181BD80E481BD27D4789481E04F
:101A30000ED460E070E084E595E0FED71092C4001B
:101A4000D4D624D4811113C08CE690E09093C600C4
:101A50008093C500F89480E090E030D2853AC1F5DB
:101A60000091C5001091C600C1E0D0E028C0C0E0E0
:101A70008C2F94D683E190E06DDC8C2F86958ED6EA
:101A800083E190E067DC02D4882381F0CF5FC0342B
:101A900079F765E181E01AD539D5C6E98C2F7ED674
:101AA00084E090E057DCC150C9F7CECFCC2361F27F
:101AB0008C2F74D68DE090E04DDCC150F7CFCE0175
:101AC000FDD1F80181938F012196CB31D105B9F772
:101AD000789480917A00811180936A0060E070E0D0
:101AE00084E892E0A9D761E070E08BED95E0A4D79F
:101AF00043E4242E52E0352E60E4462E55245394C0
:101B0000CC24C394D12CECEF6E2EE3E07E2EFBEDC3
:101B1000AF2EF5E0BF2EACE28A2EA0E09A2E52D373
:101B20008091D0009091D100009749F06091CE0053
:101B30007091CF0099D71092D1001092D00080916F
:101B4000CA00882309F44BC080E028D6A89581B547
:101B5000886181BD21BC379899D38111FDCF6DD3A8
:101B60008BB780628BBF1092F3001092CD00109261
:101B7000CC008091CA00882339F18091F400882339
:101B800021F085B7877E886003C085B7877E806136
:101B900085BF85B7806285BF889585B78F7D85BFF6
:101BA0008091CC0081111092CA008091F3008823AB
:101BB00029F050926B005092E800C8D48091CD007B
:101BC0008823B9F224DBD5CF30926B008BB78F7DA1
:101BD0008BBF53D3A89581B5886181BD41BCB1DB72
:101BE0001092C4008091E3009091E400F9E0853008
:101BF0009F0709F5CEE1D0E0FE018491805380314A
:101C000010F4EADB10C010E0812F81708295880FFC
:101C1000807EC4D580E190E09DDB1F5F1931A1F784
:101C20008AE992E097DB8CE291E094DB21968C16B6
:101C30009D0611F7BBC0FAE08A339F0779F02BE0CD
:101C4000813C920709F0A2C08091BB00813009F06D
:101C5000E6C08091BA00882309F4E1C0C091B900C0
:101C6000C23001F120F0C43009F476C058CFEC2F17
:101C7000F0E0E459FF4FD18986E990D5C11109C040
:101C8000DA3220F4C3010197F1F707C081E090E058
:101C900003C08D2F869590E05DDB80E07FD58D2F92
:101CA00090E0BBC0FCD28F73E82EF12CF8D267E035
:101CB000D2D0E60102C0CC0FDD1F9A95E2F7EFD239
:101CC00065E0C9D0F60102C0EE0FFF1F9A95E2F75A
:101CD000CE0FDF1FE4D290E0BE01DDD0C80FD91FC8
:101CE000C739D10514F0C6E9D0E08C2F57D5C7010C
:101CF00031DB8E0133E0159507953A95E1F7011137
:101D000001C001E010E0C70125DBC01BD10BD7FFEC
:101D100002C0C0E0D0E08C2F41D5C1D2837031F435
:101D2000C70118DBCE019595879538D5C230D1050E
:101D300054F7B5D26DE08FD0E60102C0CC0FDD1FA5
:101D40009A95E2F7ACD290E0BE0191D0C80FD91FAE
:101D500080E024D5CE0161C0C0917F00CC0FC7398F
:101D600008F0C6E9D4E08C2F19D585E090E0F2DACE
:101D700080917F0013D581E490E0ECDAD15099F79F
:101D800080ED92E0E7DA80E009D5C9CEF5E0813A4E
:101D90009F07A9F488EE93E0DDDA8091E70086954D
:101DA000869539DB80917700882381F0B092D1004D
:101DB000A092D0001092CF001092CE00B0CE25E0BD
:101DC000813C920731F48091E50025DB88EE93E0B9
:101DD00024C035E08A379307A9F48091CB008111A4
:101DE0009ECE80916A00DAD484E690E0B3DA80E097
:101DF000D5D48091800090E068EE73E01BD08456CB
:101E000091090BC08254954051F480E01ADB81E0C7
:101E100018DB80E016DB80ED97E09CDA80CE85B79A
:101E2000877E85BF85B7806285BF889585B78F7DA2
:101E300085BF75CE0024552704C0080E591F880F92
:101E4000991F009729F076956795B8F37105B9F752
:101E5000802D952F0895991B79E004C0991F96173E
:101E600008F0961B881F7A95C9F780950895AA1BDC
:101E7000BB1B51E107C0AA1FBB1FA617B70710F075
:101E8000A61BB70B881F991F5A95A9F780959095A7
:101E9000BC01CD01089597FB072E16F4009406D0DF
:101EA00077FD08D0E4DF07FC05D03EF490958195DE
:101EB0009F4F0895709561957F4F0895E199FECFEA
:101EC0009FBB8EBBE09A99278DB30895262FE19989
:101ED000FECF9FBB8EBBE09A01970DB2021639F080
:101EE0001CBA2DBB0FB6F894E29AE19A0FBE089582
:041EF000F894FFCF94
:101EF400060B180101010004780153020001010AD4
:101F04000A78786C010705010000000003294332B8
:101F140002072D000D006E00710074000001020123
:0C1F2400000000000000010000000000B0
:00000001FF
