:10000000ACC0C6C088CCC4C0C3C094CCC1C0C0C042
:1000100035CCBEC0BDC0BCC06FCCBAC0B9C03036D4
:1000200032312E302E63626663316131002000234D
:1000300000260029002D00320037003D0043004A11
:100040000052005B0064006E00790085009200A001
:1000500000AF00C000D100E300F7000C0123013A1B
:100060000154016E018B01A801C801E9010C0230A5
:100070000257027F02A902D6020403340367039CDD
:1000800003D3030C0448048604C60409054F0597EE
:1000900005E20530068006D3062A078307DF073FFF
:1000A00008A10807097009DC094C0ABF0A360BB021
:1000B0000B2E0CAF0C340DBE0D4B0EDB0E700F096A
:1000C00010A6104711ED1197124513F713AE146ADD
:1000D000152A16EF16B91787185B19331A101BF378
:1000E0001BDA1CC71DB91EB11FAD20B021B822C537
:1000F00023D824F125102734285F298F2AC62B0303
:100100002D462E8F2FDF3035329233F5345F36CFC8
:10011000374739C53A4A3CD63D693F0441A5424E6E
:1001200044FF45B64775493C4B0B4DE14EBF50A4CB
:10013000529254885686588C5A9A5CB15ED060F7B9
:100140006227656067A169EB6B3E6E9A70FF726C07
:1001500075E377647AED7C807F0011241FBECFE5C4
:10016000D2E0DEBFCDBF10E0A0E6B0E0E8E6FFE100
:1001700002C005900D92AC3BB107D9F721E0ACEB82
:10018000B0E001C01D92AD33B207E1F71BDCEACE4F
:1001900037CF482F9B01E2E0F1E080E090E0508112
:1001A000552331F00196339680319105C1F709C08E
:1001B00063E070E03EDEFC01EE5FFE4F4083328381
:1001C000218308950F931F93CF93DF93D091020162
:1001D000DD2351F10091030110910401C091E10070
:1001E000C150C7FD0DC0EC2FEE0FFF0BEE51FF4FBE
:1001F0000190F081E02DB8018D2F09958111F0CF8C
:10020000E2E0F1E083818083848195819283818320
:10021000339681E0EF32F807A9F710922F01109280
:10022000310110923001D2CFDF91CF911F910F9108
:100230000895BC0180913401ACCF1092340110922A
:1002400033011092320181E08093D400089528E1B7
:100250003FE1815020F0F9013197F1F7FACF08958D
:100260008CE287B91092FE001092FF008FEE86B9E3
:10027000089586B383FB882780F991E089278093CE
:10028000DA000895E0916700F09168003196FB7004
:10029000F460F0936800E09367008091D7008B5A78
:1002A0008093D700E4918091D7008E0F08959093AA
:1002B0003C0180933B017093380160933701880FB4
:1002C000892F881F990B919580933A0188BD660FFD
:1002D000672F661F770B71956093360169BD89B7EB
:1002E000826089BF0895E82FF0E0EE0FFF1FE35D05
:1002F000FF4F8591949160E070E0D9CFE82FF0E056
:10030000EE0FFF1FE35DFF4F6591749180E090E079
:10031000CECFE82FF0E0EE0FFF1FE35DFF4F85919A
:100320009491BC01C4CFCF93DF9300D000D000D014
:10033000CDB7DEB790916E002091F2003091F300BE
:100340002B53374009F492E06623F9F0823019F418
:1003500027E9261B622F26E0E7E9F0E0DE0111968F
:1003600001900D922A95E1F7E82FF0E03197EE0F1A
:10037000FF1F21E030E02C0F3D1FE20FF31F019023
:10038000F081E02DE90FF11D608326960FB6F894F9
:10039000DEBF0FBECDBFDF91CF910895813019F43C
:1003A000109279000895823019F460937A000895CC
:1003B000833011F460938A000895813011F46093C2
:1003C00089000895BF92CF92DF92EF92FF920F9330
:1003D0001F93CF93DF93EC0140916E0090917800D2
:1003E000992311F0E2E001C0E42FF0E0E259FF4F61
:1003F000218120936A00848180936900E92FF0E0D5
:10040000E259FF4F3085622F70E0442349F03130CC
:1004100039F49B01280F311DC9019595879536C088
:10042000C617D70794F1682F70E06C177D0774F139
:10043000411102C08C2F2AC0821B032F10E00150F3
:100440001109E82EF12CC701B8013DDD6093D200FF
:100450006695E62FF0E0822FC12CD12CB12CB3167B
:10046000A9F0C601B8011BDD822F860FCE0CDF1C60
:10047000AE01481B510957FF03C0519541955109E1
:10048000E417F5071CF4B394EACF822FDF91CF91E4
:100490001F910F91FF90EF90DF90CF90BF90089544
:1004A0008091790080936B0080917E0080937B0027
:1004B00080936C00EFE7F0E08581819380E0E43881
:1004C000F807D1F708958091D000882351F09091DA
:1004D000D8009093D1008093CF001092CE0010925C
:1004E000CD00089581E008956093960008957FEF10
:1004F000780F40917C0050917D00662359F021E0F7
:1005000030E002C0220F331F7A95E2F7CA01822B36
:10051000932B0AC081E090E002C0880F991F7A9562
:10052000E2F780958423952390937D0080937C004F
:100530000895CF93DF938EE690E09093D60080935A
:10054000D500F894C0E0D0E0E091D500F091D6005D
:10055000EC0FFD1F60812196CE01F2DCC932D1057E
:1005600099F765EA80E090E0EBDC7894DF91CF9139
:1005700008951092000184B195B12091D700829521
:10058000869586958370990F990F890F820F8093B6
:10059000D7008091F500882309F43FC01092F50040
:1005A0008091D900882329F0379810920101109288
:1005B000FE0080916D00882349F06091FA007091EF
:1005C000FB007093F7006093F60004C06091F600A2
:1005D0007091F70086E0769567958A95E1F780E05F
:1005E00090EB5DDC625F6093F4008091C60088232D
:1005F00011F0815007C0643738F460E070E084E0A7
:10060000C8DD8AE08093C60080916D00882329F0C0
:1006100080916D00815080936D000895882321F0B2
:10062000813029F4BC9804C0BC98C4980895BC9A41
:10063000C49A0895CF93C82F8091D90081110AC020
:1006400091E0C11101C090E081E0CC3408F480E079
:10065000890FE4DFC1110EC089B78D7F89BF109269
:100660003C0110923B01109238011092370118BCE6
:1006700019BC0EC080916C0090E063E070E0D9DBA3
:1006800083559F4FDC01ED91FC918FEF8C0F099505
:10069000C093D800CF910895CF93C091D80089E13D
:1006A0008C0F873908F080E0C5DF82E0D0DD8C2F29
:1006B000CF91C0CFCF93C091D80080E0BBDF83E063
:1006C000C6DD8C2FCF91B6CF9091D800981718F433
:1006D000282F291B02C0292F281B3091C900311156
:1006E00006C030918A00332369F0223058F080939D
:1006F000CA0084E08093C80081E08093C900909391
:10070000CB00089597CFCF93DF9390916C0098170B
:1007100059F0C82FD091D80080E08CDFC0936C00D6
:100720008D2FDF91CF9186CFDF91CF91089590915A
:10073000F400943710F480E011C0943828F46695E2
:100740006170635086230AC0982F9F70933030F0F9
:100750006F70E62FF0E0E356FF4F80815FCF883067
:1007600039F41092D0001092CE001092CD0043C008
:10077000813B79F48091D00081508330F0F583E0A3
:100780008093D0008093CF001092CE001092CD00C5
:1007900034C0853BA9F4CB016EE370E080DB892B8C
:1007A00051F58091D0008A3F30F58B5F8093D00067
:1007B0008093CF001092CE001092CD006DDF1BC051
:1007C0008130D9F48091CD009091CE000196883887
:1007D0002EE0920728F49093CE008093CD000BC0BA
:1007E0001092CE001092CD008091D000882319F095
:1007F00081508093D00080E0089581E00895CF93E8
:10080000DF9390E0FC01EE0FFF1FE35DFF4FC5910A
:10081000D491E0916C00E43069F46FEF70E009DB93
:1008200066E970E03CDB262F8091830086FF06C0DE
:10083000209504C0F0E0E259FF4F2189BE0180E01D
:1008400090E030E040E050E005DB61587F4F8F4F93
:100850009F4F2FEF30E040E050E048DBB901CE0180
:10086000821B930B2138EFE73E0738F020583F47B3
:10087000820F931F60E87FE70BC08138EFE79E0788
:1008800038F020583F47B901680F791F80E89FE78B
:10089000DF91CF910CCDFF920F931F93CF93DF93F6
:1008A0008C01EB01F42E8091F2009091F300892BE2
:1008B00031F0E091F200F091F30089E00995109396
:1008C000F3000093F200012B39F0E091F200F09177
:1008D000F300BE018F2D099581E08093D400DF9154
:1008E000CF911F910F91FF900895CF93DF93E091E7
:1008F000E100EE2359F0E150E093E100F0E0EE0F6B
:10090000FF1FEE51FF4FC081D18102C0C0E0D0E097
:10091000E091E100EE2341F0F0E0EE0FFF1FE05226
:10092000FF4F8081918102C080E090E04AE060E06A
:1009300070E0B1DFCE01DF91CF910895883029F4C6
:100940001092C7001092C30015C0813001F590913C
:10095000C300911107C06032710570F18093C3002C
:100960006CDC2AC0913089F46B3B710528F082E081
:100970008093C30080E01FC061157105E9F06270CB
:10098000862F880F880F8E5E16C0AFDF15C08138A6
:1009900011F0813E89F491E09093C300813E21F4EF
:1009A0008091C700865F03C08091C7008F5F8093EE
:1009B000C70043DC8BE43EDE80E008959C0190910B
:1009C000E100983088F4E92FF0E0EE0FFF1FEE51C0
:1009D000FF4F318320839F5F9093E10048E0C9017E
:1009E0005ADF8091E10008958FEF08950F931F93D0
:1009F000CF93DF93EC018B0178DFB801CE01DF915B
:100A0000CF911F910F91DACFCF93C0917800C11190
:100A10000FC0813C29F460E070E08BEE98E006C0E6
:100A2000823C31F460E070E082E495E0DFDF01C0F9
:100A3000C1E08C2FCF910895843011F58091F200A0
:100A40009091F3002AE0833B920729F469E170E07A
:100A500089E695E013C08956954061F49091D800DD
:100A6000923040F0892F869596959695890F2CDEC9
:100A700080E0089560E070E08BEE98E0B7DFF8CF9B
:100A800081E00895813C29F460E070E08BEE98E00D
:100A900006C0823C31F460E070E084E095E0A6DFBF
:100AA00014C0813B41F4CB016EE370E0F8D9892B8F
:100AB00061F4F2DD0AC0813E51F4CB016EE370E0D7
:100AC000EED96F5F6093940034DD80E0089581E09B
:100AD0000895CF92DF92EF92FF920F931F93CF93DF
:100AE000DF93C82F8B0180917B0080936C00D090A6
:100AF0006A00F090690080916E00882319F0C09020
:100B0000D20002C0CC24C39480916B008F1538F0C2
:100B100080917800811103C086E9E82E01C0EF2C96
:100B2000D091D000B8018C2F1ADE8091D00088239C
:100B300039F0D1110CC09091D8009093D10007C02A
:100B4000DD2329F060E070E08BEE98E02DC0C83026
:100B500029F0CA30A1F400916B0010E08D2D90E0D7
:100B60008017910738F48F2D90E00817190710F4BB
:100B700000936B00C80126DCA7DD81E075C0C13C95
:100B800009F3C23C49F48091D8008E1510F48E2DE3
:100B9000CAC080916B00C7C0C43C41F480E04ADD0C
:100BA00060E070E085E398E021DFBFC09FE49C0F28
:100BB000923008F052C080916E00882339F0C8014D
:100BC00068E170E06CD9892B31F0AFC0609175009D
:100BD00070E0C801F7CFD091C900D111A6C0209113
:100BE000D8000115110561F4C23B11F48FEF05C067
:100BF0002F15E0F7D216F8F081E0809366001BC055
:100C0000E0917500F0E0CF0166E371E012D9801742
:100C1000910710F42F1550F7CF016CE672E009D957
:100C20008017910740F4D21630F036DD60E070E0B6
:100C300085E398E0DBDE809166006C2D70E0082E85
:100C4000000C990BF6D82091D800820F911DBADBC9
:100C500080936B0039DD37DCC0C09FE19C0F923080
:100C600030F4809166008195809366005EC0C1304B
:100C700079F50932110511F4C0936600882309F44F
:100C800054C00091D10010E090E0B801D2D8EC013E
:100C9000E091CF00F0E0BF0116D9262FCE01801BD6
:100CA000910BBF0110D9322F361B8091CD0090914E
:100CB000CE006EE370E0F3D8832F90E0BAD86CE3F7
:100CC00070E0EDD8822F861B09F481E0FDDC2DC099
:100CD000C33C19F0C63C59F517C060917C00709177
:100CE0007D0080E090E020E0AB01082E02C0569528
:100CF00047950A94E2F74170240F019685309105DB
:100D000099F7223008F068C081E090916E0091114F
:100D100080E080936E000DDCCDDC8091D80090E007
:100D200051DB80936B00D0DCCEDBD0E056C0D0919D
:100D30007800D11151C08DE48C0F823090F4C33B08
:100D400061F480916C0090E063E070E072D88355AC
:100D50009F4FFC01828181113FC0012B31F78E2D05
:100D600014C08DE18C0F823090F4C33E61F4809109
:100D70006C0090E063E070E05CD883559F4FFC010D
:100D80008281811129C080916B009EDC26C0C73B07
:100D900029F460E070E08FE397E01CC0CA3CA1F446
:100DA0008091D8008093790080916C0080937E00C0
:100DB000EFE7F0E084E890E0219124838E179F070D
:100DC000D9F7B7DB69DC09C0CA3B31F460E070E0F9
:100DD00080E497E0F3DD01C0D1E08D2FDF91CF916A
:100DE0001F910F91FF90EF90DF90CF900895883082
:100DF00071F41092C40080E01DDC8091DA00811152
:100E000038C08091C4008F5F8093C40022C0982FA7
:100E1000907F903BB1F42091C400421778F0CB0151
:100E20006DE570E03CD8069739F42F5F2093C4003D
:100E30004217F8F088E303C082E101C080E0FADBEA
:100E400018C0903E61F48091C400882389F048174F
:100E500078F060E070E08EE994E0B0DD0AC08A309E
:100E600041F46091C7008091C400F901099561DBEC
:100E70003CDD80E0089523E931E043E0B8CFFBCFCB
:100E80002EEC31E043E0B3CF2DED31E041E0AFCFC8
:100E900024E732E041E0ABCF27E732E045E0A7CFDF
:100EA000CF92DF92EF92FF920F931F93CF93DF9336
:100EB000E0916C00833CD9F400917C0010917D009E
:100EC0008E2F25E0C5E0D0E090E00196BE01FBD773
:100ED000A801082E02C0569547950A94E2F740FFF4
:100EE00003C0E81319C016C0215071F7FACFF0E023
:100EF000E259FF4FC189833B09F088C06115710534
:100F000029F481E08093C2001092C1008091C20058
:100F1000811109C0C1E09FC0F6DB80916C00809315
:100F20007B0007DB97C03091650013161CF4CF3FA0
:100F300039F451C0332309F44EC0CC2309F44BC01B
:100F400020918900222399F0CB0168E170E0A7D7B6
:100F5000892B09F07FC0223008F44AC0622F70E06C
:100F6000615071098EEF90E0AED7862F01C081E00D
:100F7000632F330F770B90E05CD77C01EC0EF11CF4
:100F8000F7FC38C08FEFE816F10409F0ACF5211139
:100F900002C0CE2D32C0C22ED12C81E0C81AD10899
:100FA0008FEF90E0B6018FD76695E62FF0E000E076
:100FB00010E0C8016FEF70E03CD7B60170D7C62FC4
:100FC000C701861B9109E817F907BCF40F5F1F4F93
:100FD000021778F312C08091C000C8130EC0809130
:100FE000C100811101C066DB81E08093C10005C0B2
:100FF000CFE703C0C0E001C0CFEFC093C000E091D5
:101000006C00F0E0E259FF4FC18B13C0833EA9F49E
:101010001092C200C11102C081E005C0CF3F31F083
:101020008091650081958093650002C0C093650042
:1010300080DA8091D800FEDA0DC0C0917800C1112D
:1010400069CF893B09F066CF60E070E08CE497E0FF
:10105000B5DC01C0C0E08C2FDF91CF911F910F91C3
:10106000FF90EF90DF90CF9008950F931F93CF9351
:10107000DF93C82F8B0180798039B1F420916F0004
:10108000909170008C2F8F70813021F4822F9217F5
:1010900048F407C080917900811104C0822F29177C
:1010A00008F4892FC7DA13C0803819F480E0C2DA57
:1010B00005C0C83019F41092D30066C0C13039F4AD
:1010C0000931110508F46CC0C093D90069C0C33060
:1010D000E1F48091D3008F3F19F08F5F8093D300AC
:1010E00080917900882351F080917A0090E062EC41
:1010F00071E09FD60817190708F0D2D980919500A2
:10110000602F8695869513DB4BC0C33C31F4C4DA5F
:1011100060E070E08BEE98E014C0C43C21F4609174
:101120006B0070E00CC0C43B31F4C4DA109234019F
:1011300061E070E004C0C53C31F466E970E089E626
:1011400095E054DC2DC0C33B71F4C8016EE370E040
:10115000A6D6892BC9F460E070E083ECDF91CF91D3
:101160001F910F919DCEC73C79F490919500892FE6
:10117000869586958F5F8370880F880F9370890F8F
:1011800080939500D6D90CC0D0917800D1110AC0B7
:10119000CA3B41F460E070E088E497E00FDC03C0F4
:1011A000D0E001C0D1E08D2FDF91CF911F910F9141
:1011B000089590918A00992369F08093CA0088E08D
:1011C0008093C80081E08093C9008091D80080930B
:1011D000CB0008952FCA0F931F93CF938B018830B4
:1011E00099F480E0E6DF8091C900082B1092D300CB
:1011F00080917B0080936C001092D000012BE1F570
:1012000081E08093D90038C0813051F46931710593
:1012100098F1C091C900C1112FC08093D900C0C0FE
:10122000833061F58091D3008F3F19F08F5F8093F9
:10123000D30080917900882351F080917A0090E06A
:1012400062EC71E0F6D50817190708F029D98091EA
:101250009500602F83706BDA80919600882361F08F
:1012600090E062EC71E0E5D58017910728F460E02A
:1012700070E085E398E0BADBC0E092C0813B71F496
:1012800081E090E09FD895DF80916E00811103C0CE
:101290000831110588F361E070E022C0813ED9F386
:1012A000813821F480916B0090E010C0813C21F4E2
:1012B00060916B0070E014C0823B61F41092D30027
:1012C00080917800882321F086E990E07BD810C0D7
:1012D00086E90EC0823E59F0823C29F466E970E04E
:1012E00089E695E0C8CF833929F41092C90080E0DF
:1012F00060DFC2CF833C29F460E070E084E095E0D9
:10130000BACF843C11F4C8D9B2CF8D3B31F4F894F4
:1013100088ED81BD7894A895FFCF8F3C29F460E0DB
:1013200070E082E792E0A7CF8A3B79F4672B09F55A
:10133000C0917800CC2321F0AFD91092780017C06B
:1013400060E070E08BE397E028C0833B29F460E025
:1013500070E083EB9AE08FCF873C59F49091950031
:1013600081E0890F9C7F8370892B80939500E1D861
:1013700083CFC0917800C11112C08A3C31F48CD95E
:1013800081E080937800D5D80BC0893B41F4012BD4
:1013900031F460E070E084E497E010DB01C0C1E06C
:1013A0008C2FCF911F910F9108950F931F93CF937F
:1013B0001092DC0080913201909133019C012F5FEB
:1013C0003F4F88279078822B932B90933301809303
:1013D0003201C091DA004DD7C81729F11092D90017
:1013E0008093DA0090913401882359F0892F806925
:1013F0009F709F3009F08F5F8093340180E090E010
:101400000DC0892F8F7E95FD02C0806801C0806C61
:101410008093340180913201909133010AD7109268
:101420003301109232010091320110913301809109
:10143000D900882399F0B80183E0ABD6C3D6013434
:10144000110528F00F701127012B09F044C01092EC
:10145000C50081E08093010103D72EC0C091340103
:101460008C2F807F803B19F460E070E001C0B801F0
:1014700081E08FD6C4FF12C0C5FF02C0C8010CC0F6
:1014800008311105C8F01092330110923201C06288
:10149000C093340180E090E0CCD60EC0CC2361F044
:1014A000C5FD09C00231110538F0C064C093340194
:1014B00080E090E0BED6C1D68091C500811105C004
:1014C0008FEE86B981E08093F5008091C5008F5F33
:1014D0008F718093C500CF911F910F9108958091D6
:1014E0000001811146D88091DC0081115ECF089502
:1014F0000F931F93CF93DF93EC0108E017E0209741
:1015000059F08091D4002197811108C0C80101973A
:10151000F1F7E5DF57D6F3CF81E001C080E0DF913E
:10152000CF911F910F910895CF93C82F882381F0F9
:1015300089E180D886EA90E0DBDF80E07BD88AEF23
:1015400090E0D6DFC150A1F78AE992E0CF91D0CFE9
:1015500089E170D88AE090E0CBDF80E06BD88AEF39
:1015600090E0C6DFF1CFFF920F931F93CF93DF93ED
:10157000D82F8B01C091CC00C33009F0DAC0F090B5
:10158000D000EDD8FF2051F08091D000811106C02D
:1015900060E070E08BEE98E029DACBC0D83021F41F
:1015A00081E080936300C7C0D23C19F41092D00050
:1015B000D4C0D13BC1F490916200012B49F49F3516
:1015C00010F08FEF03C0923018F481E08093630035
:1015D00080916300890F11F481E03AC1803608F4EC
:1015E00037C18FE535C1D13E31F4809163008195DB
:1015F00080936300FFC0D23B61F481E0809363007D
:1016000080916200823008F4FDC0815080936200B6
:10161000F9C0D13009F0A5C00932110511F4D093F9
:1016200063009091BF00892F880F97FD809590E00F
:101630006CE070E0FED3292F8091BE00682F660F0A
:1016400087FD60958091610070E090E0F2D3290FF2
:101650008091BD00682F660F87FD609580916000C6
:1016600070E090E0E6D3920F6091620070E0690F45
:10167000711D8091D000813091F48091CD009091C6
:10168000CE0025E0969587952A95E1F724E730E08E
:10169000A901481B590BCA01CCD3B90100D4862F2C
:1016A000C9D700FD07C0EED581709091BF00890FAA
:1016B0008093BF009091BE008091BC00890F809301
:1016C000BE00E0D565E2DFD38091BD00980F909316
:1016D000BD00D8D58F7329F4D5D56DE0D4D39093C0
:1016E000BC00C0916100CC2331F0CCD58F7319F4CC
:1016F000C150C0936100C6D5811107C0C3D562E156
:10170000C2D3909361001092BE00C0916000C330BC
:1017100030F0B8D58F7119F4C150C0936000B2D5C4
:101720008F7709F099C0AED56AE0ADD39093600091
:1017300093C0D83041F480918B008093CC0081E03D
:101740008093640087C0D13C31F460E070E08BEEA0
:1017500098E04CD97FC0D23C31F48C2F90E00196B8
:1017600019C0D13C91F3D33C81F480916C0090E09E
:10177000019665E070E0A7D3C6D7EC2FF0E0E25900
:10178000FF4F80916C00868F5DC0D43C59F48C2F44
:1017900090E0049665E070E096D380938B00809390
:1017A000CC0050C0D13B21F5C23090F400FD52C0B6
:1017B000EC2FF0E0E259FF4F83A190916400891B68
:1017C000883020F08F3F69F58EEF2BC088E029C06C
:1017D000C43009F03FC09091930080916400890F5C
:1017E000823010F482E026C0893720F188E722C0D9
:1017F000D13E31F48091640081958093640022C0D1
:10180000D23BF1F481E080936400C23060F400FDCB
:1018100021C0EC2FF0E0E259FF4F83A18F3FD1F0C0
:101820008F5F83A317C0C430A9F4809193008330E5
:1018300018F081508093930080919300FBD60AC0EA
:10184000D23E11F476D606C0D13031F081E010C01E
:101850008093620080E00CC00932110519F481E028
:10186000809364008091D700080F0093D700F2CFD7
:10187000DF91CF911F910F91FF9008951F920F92CA
:101880000FB60F9211242F933F938F939F93AF9393
:10189000BF93EF93FF938091FF008823E9F0E091DD
:1018A000FE0024B135B1F0E0EE0FFF1FDF01A650BE
:1018B000BF4F2D933C93EA50FF4F80819181821757
:1018C000930708F401962817390708F401979183C4
:1018D000808381E08093000181E08093FF00FF918D
:1018E000EF91BF91AF919F918F913F912F910F9069
:1018F0000FBE0F901F9018951F920F920FB60F9268
:1019000011248F9381E08093DC008F910F900FBEA4
:101910000F901F9018951F920F920FB60F921124DF
:101920008F9381E08093DB008F910F900FBE0F901B
:101930001F9018951F920F920FB60F9211242F939C
:101940003F938F939F9380913A0188BD8091360198
:1019500089BD20913B0130913C01922F9F7780916E
:101960003901890F220F232F221F330B3195982F16
:10197000991F9927991F290F20933A018F778093F8
:1019800039012091370130913801922F9F77809152
:101990003501890F220F232F221F330B3195982FEA
:1019A000991F9927991F290F209336018F778093CC
:1019B00035019F918F913F912F910F900FBE0F9006
:1019C0001F901895F89484B7877F84BF0FB6F8945A
:1019D000A89581B5886181BD11BC0FBE83E087BB2E
:1019E00081E083BF81EA8ABD88E088BB85BB8BB775
:1019F00080628BBFA89581B5886181BD80E481BD7F
:101A00002FD4789481E023D460E070E08CE195E0FD
:101A1000D5D71092D40040D62CD4811113C08EE6B5
:101A200090E09093D6008093D500F89480E090E009
:101A30007FD2853AA9F50091D5001091D600C1E07A
:101A4000D0E025C0C0E08C2FF5D583E190E050DDDB
:101A50008C2F8695EFD583E190E04ADD0AD4882368
:101A600069F0CF5FC03479F764D5C6E98C2FE2D531
:101A700084E090E03DDDC150C9F7D1CFCC2379F2AD
:101A80008C2FD8D58DE090E033DDC150F7CFCE015B
:101A90004FD2F80181938F012196CA32D105B9F74F
:101AA0007894809179008111FBD460E070E080E54A
:101AB00097E084D761E070E08BEE98E07FD743E455
:101AC000242E52E0352E60E4462E552453947BEEAE
:101AD000A72E78E0B72ECC24C394D12CFCEF6F2E28
:101AE000F3E07F2EACE28A2EA0E09A2E6BD3809199
:101AF000DF009091E000009749F06091DD00709167
:101B0000DE0074D71092E0001092DF008091D900BF
:101B1000882309F44BC080E08DD5A89581B58861F4
:101B200081BD21BC3798A5D38111FDCF86D38BB75A
:101B300080628BBF109200011092DC001092DB00DB
:101B40008091D900882339F180910101882321F007
:101B500085B7877E886003C085B7877E806185BF33
:101B600085B7806285BF889585B78F7D85BF809159
:101B7000DB0081111092D90080910001882329F0A7
:101B800050926D005092F500F4D48091DC008823CF
:101B9000B9F20BDCD5CF30926D008BB78F7D8BBF48
:101BA0005FD3A89581B5886181BD41BC98DC109256
:101BB000D4008091F2009091F300F2E082379F0709
:101BC00009F5CEE1D0E0FE0184918053803110F41C
:101BD000ABDC10C010E0812F81708295880F807E71
:101BE00029D580E190E084DC1F5F1931A1F78AE9F3
:101BF00092E07EDC8CE291E07BDC21968C169D06E7
:101C000011F7B4C0FAE0833B9F0709F099C0C09177
:101C1000CC00EC2FF0E0E259FF4F868D80936C00F2
:101C2000C230E1F020F0C43009F470C05FCFD3A11E
:101C300086E900D5C11109C0DA3220F4C301019749
:101C4000F1F707C081E090E003C08D2F869590E00A
:101C50004FDC80E0EFD48D2F90E0DEC013D38F7384
:101C6000E82EF12C0FD367E00ED1E60102C0CC0FB5
:101C7000DD1F9A95E2F706D365E005D1960102C013
:101C8000220F331F9A95E2F7C20FD31FFBD290E0C9
:101C9000BE0119D1C80FD91FC739D10514F0C6E943
:101CA000D0E08C2FC7D4C70123DC8E0133E015951B
:101CB00007953A95E1F7011101C001E010E0C70175
:101CC00017DCC01BD10BD7FF02C0C0E0D0E08C2FC7
:101CD000B1D4D8D2837031F4C7010ADCCE01959516
:101CE0008795A8D4C230D10554F7CCD26DE0CBD0C3
:101CF000E60102C0CC0FDD1F9A95E2F7C3D290E057
:101D0000BE01CDD0C80FD91F80E084C0C091930020
:101D1000CC0FC73908F0C6E9D4E08C2F8BD485E00E
:101D200090E0E6DB8091930085D481E490E0E0DBF5
:101D3000D15099F780ED92E0DBDB80E07BD4D6CE0A
:101D400035E084309307F1F488EE93E0D1DB8091A5
:101D5000F400869586956AE096D0C92F8111E4DB60
:101D60008C2FE2DB80917800882349F0B092E0006C
:101D7000A092DF001092DE001092DD00B7CE88EE58
:101D800093E04AC082549540A9F48091DA00811111
:101D9000ADCE80916B004ED484E690E0A9DB80E06C
:101DA00049D48091940090E068EE73E042D084566C
:101DB000910932C080918A00882381F18091C90005
:101DC000882361F12091D8003091CA00231305C007
:101DD000822F30D41092C90089CE6091C800231799
:101DE00058F4832F821B4FD0811101C081E0820FF4
:101DF00021D48AE090E010C0862F90E06EE170E080
:101E000018D06091CB00631B70E05DD0EB01219690
:101E10008FEF820F0FD4CE016BDB68CE85B7877E44
:101E200085BF85B7806285BF889585B78F7D85BF63
:101E30005DCE0024552704C0080E591F880F991F36
:101E4000009729F076956795B8F37105B9F7802D5D
:101E5000952F0895EE27FF27AA27BB2708C0A20FBA
:101E6000B31FE41FF51F220F331F441F551F969504
:101E700087957795679598F37040A9F7009799F73C
:101E8000BD01CF010895991B79E004C0991F9617F1
:101E900008F0961B881F7A95C9F780950895AA1BAC
:101EA000BB1B51E107C0AA1FBB1FA617B70710F045
:101EB000A61BB70B881F991F5A95A9F78095909577
:101EC000BC01CD01089597FB072E16F4009406D0AF
:101ED00077FD08D0E4DF07FC05D03EF490958195AE
:101EE0009F4F0895709561957F4F0895A1E21A2E36
:101EF000AA1BBB1BFD010DC0AA1FBB1FEE1FFF1FAE
:101F0000A217B307E407F50720F0A21BB30BE40BFD
:101F1000F50B661F771F881F991F1A9469F7609544
:101F20007095809590959B01AC01BD01CF010895FE
:101F3000E199FECF9FBB8EBBE09A99278DB30895A0
:101F4000262FE199FECF9FBB8EBBE09A01970DB281
:101F5000021639F01CBA2DBB0FB6F894E29AE19A3A
:081F60000FBE0895F894FFCFB5
:101F68000A121801010101000496014B0402010143
:101F7800010A96969601070501000004180004005E
:101F88000000800000000080000001030202040439
:101F980004294332020D006F00720075000001022F
:101FA80001000000000000010000000000730100B3
:0C1FB8007E0100890100FF0301FF03010E
:00000001FF
