:10000000ACC0C6C0FDCCC4C0C3C0C2C0C1C0C0C0AB
:10001000AACCBEC0BDC0BCC0E4CCBAC0B9C03036EA
:1000200031322E302E636266633161310000000090
:1000300000000000000000000000000000000000C0
:1000400000000000000000000000000000000000B0
:1000500000000000000000000000000000000000A0
:10006000000000000000000000000000000000018F
:100070000304050708090B0C0E0F111314161819A9
:100080001B1D1F21232527292B2D30323437393BC7
:100090003E404346484B4E5154575A5D6063666933
:1000A0006D7073777A7E8185898D9094989CA0A5D8
:1000B000A9ADB1B6BABFC3C8CDD1D6DBE0E5EAEF92
:1000C000F4FAFF010102020303040405060708090C
:1000D0000A0C0D0E0F11131416181A1D1F222427B7
:1000E0002A2D3033373B3E42464B4F54595D6368AF
:1000F0006E73797F868C939AA1A8B0B8C0C8D1D905
:10010000E2ECF5FFFFFFFFFFFFFFFFFFFFFFFFFF39
:10011000FFFFFFFFFFFFFFFFFFFFFFFFFFFFFFFFEF
:10012000FFFFFFFFFFFFFFFFFFFFFFFFFFFFFFFFDF
:10013000FFFFFFFFFFFFFFFFFFFFFFFFFFFFFFFFCF
:10014000FFFFFFFFFFFFFFFFFFFFFFFFFFFFFFFFBF
:10015000FFFFFFFFFFFFFFFF000011241FBECFE5E1
:10016000D2E0DEBFCDBF10E0A0E6B0E0EAE6FFE1FE
:1001700002C005900D92AE39B107D9F721E0AEE982
:10018000B0E001C01D92AE32B207E1F748DCEBCE21
:1001900037CF482F9B01EBEFF0E080E090E05081FB
:1001A000552331F00196339680319105C1F709C08E
:1001B00063E070E07ADEFC01E550FF4F408332835C
:1001C000218308950F931F93CF93DF93D091FB006A
:1001D000DD2351F10091FC001091FD00C091D80089
:1001E000C150C7FD0DC0EC2FEE0FFF0BE752FF4FC4
:1001F0000190F081E02DB8018D2F09958111F0CF8C
:10020000EBEFF0E083818083848195819283818309
:10021000339681E0E832F807A9F71092280110928E
:100220002A0110922901D2CFDF91CF911F910F9116
:100230000895BC0180912D01ACCF10922D01109238
:100240002C0110922B0181E08093CA00089590E860
:1002500022E048EA57E030E0815070F00FB6F894A1
:1002600096BD26BD0FBEFA013197F1F70FB6F8948F
:1002700096BD36BD0FBEF0CF08958CE287B91092BF
:10028000F7001092F8008FEE86B9089586B383FBCD
:10029000882780F991E089278093D1000895E09123
:1002A0006600F09167003196FB70F460F093670090
:1002B000E09366008091CD008B5A8093CD00E4914D
:1002C0008091CD008E0F089590E0FC01ED53FF4F1B
:1002D0002491FC01E35DFF4F849129BD88BD089501
:1002E00090E0FC01ED53FF4F2491FC01E35DFF4FD3
:1002F000949189B5811102C02F3F29F089B58F3FB4
:1003000021F4211102C029BD0CC089B5821718F44F
:1003100089B58F5F05C089B5281718F489B5815054
:1003200089BD88B5891718F488B58F5F05C088B571
:10033000981718F488B5815088BD89B5281303C073
:1003400028B581E0921380E00895CF93DF9300D029
:1003500000D000D0CDB7DEB790916C002091E900BD
:100360003091EA002952384009F492E0843019F4BF
:100370006093780021C06623F9F0823019F427E9F0
:10038000261B622F26E0E7E8F0E0DE0111960190DF
:100390000D922A95E1F7E82FF0E03197EE0FFF1F5D
:1003A00021E030E02C0F3D1FE20FF31F0190F081A0
:1003B000E02DE90FF11D608326960FB6F894DEBF9D
:1003C0000FBECDBFDF91CF910895BF92CF92DF9244
:1003D000EF92FF920F931F93CF93DF93EC01409125
:1003E0006C0090917700992311F0E2E001C0E42FB6
:1003F000F0E0E459FF4F22812093690085818093CA
:100400006800E92FF0E0E459FF4F3185622F70E07A
:10041000442349F0313039F49B01280F311DC901C3
:100420009595879536C0C617D70794F1682F70E069
:100430006C177D0774F1411102C08C2F2AC0821BFA
:10044000032F10E001501109E82EF12CC701B8016B
:100450005DDD6093C7006695E62FF0E0822FC12C2A
:10046000D12CB12CB316A9F0C601B8013BDD822F07
:10047000860FCE0CDF1CAE01481B510957FF03C08D
:10048000519541955109E417F5071CF4B394EACF4F
:10049000822FDF91CF911F910F91FF90EF90DF900E
:1004A000CF90BF9008958091C500882351F090911E
:1004B000CF009093C6008093C4001092C3001092A6
:1004C000C20008956111609382000895662389F047
:1004D000813061F48091EB0090918400891B681B4E
:1004E0006093840082E080936B0003C0635E60933E
:1004F000830080918300873418F086E48093830022
:10050000089560938600089581E00895CF93DF9366
:100510008CE690E09093CC008093CB00F894C0E000
:10052000D0E0E091CB00F091CC00EC0FFD1F60819A
:100530002196CE0106DDCB31D10599F765EA80E041
:1005400090E0FFDC7894DF91CF9108951092F9004C
:1005500084B195B12091CD00829586958695837062
:10056000990F990F890F820F8093CD008091EE0033
:10057000882309F406C11092EE008091F700909153
:10058000D000992329F037981092FA001092F700C2
:1005900081113DC080916B00882349F06091F30088
:1005A0007091F4007093F0006093EF0004C06091CC
:1005B000EF007091F00020918200220F245096E00D
:1005C000769567959A95E1F780E090EB8BDC260FA6
:1005D0002093ED008091B900882311F0815007C06D
:1005E000243738F460E070E084E0D3DD85E0809368
:1005F000B9008091D0008111BBC08FEA87B981E03A
:100600008093F7001092F8008FEE86B9B1C0813068
:1006100009F0AEC080916B00882341F08091F50015
:100620009091F6009093F2008093F1008091F10098
:100630009091F200A0918400AC01F6E056954795A8
:10064000FA95E1F70A2E000CBB0B4A0F5B1F4351D2
:1006500051405093EC004093EB009C0185E03695AF
:1006600027958A95E1F780916B00811127C08091D1
:10067000A800E82FF0E0EE0FFF1FE755FF4F408185
:100680005181B901641B750B318320838F5F8770A3
:100690008093A800CB01880F991F880F991F409164
:1006A000830050E04D5E5E4F4A1B5B0B440F551FAD
:1006B000841B950B820F931F23E00EC0E9EAF0E044
:1006C0002193319380E0E93BF807D1F7D0CF009731
:1006D00009F00196215029F018161906C4F7019760
:1006E000F9CF18161906E4F477FD39C02091A70058
:1006F00012160CF1880F991FBC016350710977FF26
:1007000002C06F5F7F4F759567951616170614F038
:1007100061E070E088E1861B8093A70085E026C039
:100720008C3F2FEF9207DCF477FF19C02091A700D0
:1007300027FF05C02450281B2093A70018C024EED3
:10074000281B2093A7002091ED00263780F06CEF46
:100750007FEF681B790B7595679586E007C08091E0
:10076000ED00853720F060E070E087E012DD85DD88
:1007700080916B00882329F080916B0081508093D9
:100780006B000895882321F0813029F4BC9804C0BF
:10079000BC98C4980895BC9AC49A0895CF93C82F62
:1007A0008091D00081110AC091E0C11101C090E098
:1007B00081E0C23408F480E0890FE4DFC11103C096
:1007C00019BC18BC03C08FEF8C0F7EDDC093CF0027
:1007D000C093CE00C53010F492E005C0CE3010F4C6
:1007E00091E001C090E080E80FB6F89486BD96BD18
:1007F0000FBECF910895CF93C091CF0089E18C0FA8
:10080000873908F080E0CADF82E021DD8C2FCF91AC
:10081000C5CFCF93C091CF0080E0C0DF83E017DD6C
:100820008C2FCF91BBCF8093C8009091CF009817A9
:1008300018F4282F291B02C0292F281B3091BC0037
:10084000311106C030917C00332369F0223058F01A
:100850008093BD0084E08093BB0081E08093BC0066
:100860009093BE0008959ACF813019F410927A00C7
:100870000895823019F460937B000895833019F451
:10088000609379000895843019F460936D000895A1
:10089000853011F460937C0008959091ED009437B9
:1008A00010F480E011C0943828F4669561706350AC
:1008B00086230AC0982F9F70933030F06F70E62F18
:1008C000F0E0E357FF4F80815DCF883039F410921C
:1008D000C5001092C3001092C20043C0813B79F45E
:1008E0008091C50081508330F0F583E08093C5008E
:1008F0008093C4001092C3001092C20034C0853BA4
:10090000A9F4CB016EE370E0EDDA892B51F580910B
:10091000C5008A3F30F58B5F8093C5008093C4008B
:100920001092C3001092C20066DF1BC08130D9F460
:100930008091C2009091C300019688382EE0920702
:1009400028F49093C3008093C2000BC01092C300A0
:100950001092C2008091C500882319F081508093C5
:10096000C50080E0089581E00895FF920F931F93E2
:10097000CF93DF938C01EB01F42E8091E9009091ED
:10098000EA00892B31F0E091E900F091EA0089E07A
:1009900009951093EA000093E900012B39F0E091EA
:1009A000E900F091EA00BE018F2D099581E0809366
:1009B000CA00DF91CF911F910F91FF900895CF93BF
:1009C000DF93E091D800EE2359F0E150E093D80096
:1009D000F0E0EE0FFF1FE752FF4FC081D18102C050
:1009E000C0E0D0E0E091D800EE2341F0F0E0EE0F5F
:1009F000FF1FE952FF4F8081918102C080E090E0AB
:100A00004AE060E070E0B1DFCE01DF91CF91089560
:100A1000883029F41092BA001092A20015C08130DB
:100A200001F59091A200911107C06032710570F13B
:100A30008093A20002DC2AC0913089F46B3B7105DF
:100A400028F082E08093A20080E01FC0611571054C
:100A5000E9F06270862F880F880F8E5E16C0AFDFB8
:100A600015C0813811F0813E89F491E09093A20085
:100A7000813E21F48091BA00865F03C08091BA0064
:100A80008F5F8093BA00D9DB8BE488DE80E0089525
:100A90009C019091D800983088F4E92FF0E0EE0F97
:100AA000FF1FE752FF4F318320839F5F9093D80051
:100AB00048E0C9015ADF8091D80008958FEF08956A
:100AC0000F931F93CF93DF93EC018B0178DFB80175
:100AD000CE01DF91CF911F910F91DACF843011F5C4
:100AE0008091E9009091EA002AE08235920729F48A
:100AF00069E170E085EF95E013C0855F954061F492
:100B00009091CF00923040F0892F869596959695DA
:100B1000890F89DE80E0089560E070E081E598E06B
:100B2000CFDFF8CF81E00895813C29F460E070E0E8
:100B300081E598E006C0823C31F460E070E08BEB28
:100B400095E0BEDF14C0813B41F4CB016EE370E061
:100B5000C9D9892B61F44FDE0AC0813E51F4CB0123
:100B60006EE370E0BFD96F5F60938100CFDC80E0FF
:100B7000089581E00895CF93C0917700C11117C007
:100B8000813C29F460E070E081E598E006C0823C99
:100B900031F460E070E08BED95E092DF09C0873BB7
:100BA00031F460E070E081E398E072DF01C0C1E001
:100BB0008C2FCF910895813C29F460E070E081E5AD
:100BC00098E006C0823C31F460E070E084E995E092
:100BD00077DF07C0873B39F460E070E085E398E099
:100BE00057DF80E0089581E00895BF92CF92DF92B1
:100BF000EF92FF920F931F93CF93DF93182FEB0188
:100C0000D0906900F090680080916C00882319F002
:100C1000B090C70002C0BB24B394C0906D00809117
:100C200077008111C0907800CC2051F081E0C81687
:100C300021F080916A008F1518F0F6E9EF2E01C0BF
:100C4000EF2C0091C500BE01812F3FDE8091C500D1
:100C5000882339F001110CC09091CF009093C60009
:100C600007C0002329F060E070E081E598E036C01D
:100C7000912F9D7F9830D9F41092C1001A3019F449
:100C8000C0916A00D0E08D2D90E08C179D0738F45C
:100C90008F2D90E0C817D90710F4C0936A00CE01D9
:100CA00094DBC1DD81E08093650000E07FC1113CF1
:100CB000D1F2123C59F48091CF008E1510F48E2D94
:100CC00002C080916A00AFDDEEDBEFCF143C41F44F
:100CD00080E064DD60E070E08EE19CE0F1DEE5CF75
:100CE0009FE4910F923008F051C080916C008823EE
:100CF00039F0CE0168E170E0F5D8892B31F0D5CF1D
:100D00006091740070E0CE01F7CF0091BC0001113A
:100D1000CCCF2091CF00209761F4123B11F48FEFDC
:100D200005C02F15E0F7D216F8F081E0809365003A
:100D30001BC0E0917400F0E0CF0166E371E0B5D82C
:100D40008C179D0710F42F1550F7CF016CE672E059
:100D5000ACD88C179D0740F4D21630F04CDD60E023
:100D600070E08EE19CE0ACDE809165006B2D70E060
:100D7000082E000C990B99D82091CF00820F911D5D
:100D800024DB80936A004FDD8EDB10C19FE1910F61
:100D9000923020F480916500819585CF113009F063
:100DA00078C0A99711F410936500882349F1009148
:100DB000C60010E090E0B80178D8EC01E091C400E2
:100DC000F0E0BF01A3D8262FCE01801B910BBF01FD
:100DD0009DD8322F361B8091C2009091C3006EE3E4
:100DE00070E080D8832F90E060D86CE370E07AD810
:100DF000261B622F09F461E06093CE006093C80067
:100E0000D091CE008091CF002D2F30E0281B3109EA
:100E10006091A4007091A5006F5F7F4F7093A50053
:100E20006093A4002115310509F43FCF37FF05C0B9
:100E3000833830F040E450E005C040E052E002C0AA
:100E400040E051E05695479537FF02C02F5F3F4F76
:100E50003595279521153105A9F74617570708F04D
:100E600024CFD81710F4CFEF03C08D1718F4C1E0CA
:100E7000C80F01C0CD2F8FEF8C0F32DA882321F0FD
:100E80008C2F8CDCD093CE001092A5001092A40081
:100E90000CCF1530A1F48091CF00833308F405CF37
:100EA00090E08C1B9D0B8233910534F087399105BE
:100EB00064F186E990E029C082E390E026C0163014
:100EC000B1F49091CF008091C800981708F0EDCE52
:100ED000C90FD11D90E08C179D0734F0C233D105A6
:100EE00024F4C2E3D0E001C0EC018C2F0EC0173017
:100EF00079F49091CE008091CF00891710F48F5F24
:100F000004C0981708F0D1CE81508093CE00CDCE8A
:100F1000133C81F481E090916C00911180E080930A
:100F20006C00F4DA76DC8091CF0090E04EDA8093AA
:100F30006A00C9CE00917700011137C0133B49F414
:100F4000CD2B09F0B2CECC2011F086E9E82E8E2D03
:100F500004C0133E21F480916A0065DC27C0153C73
:100F600061F48091CF0080936A0080E017DC60E03C
:100F700070E089ED9BE0A4DD19C0173B29F460E027
:100F800070E085E298E00FC01A3C39F48091CF0000
:100F900080937A00BBDA2FDC09C01A3B31F460E0A1
:100FA00070E08DE298E074DD01C001E0802FDF91F8
:100FB000CF911F910F91FF90EF90DF90CF90BF9056
:100FC0000895883071F41092A30080E0E7DB8091EF
:100FD000D100811138C08091A3008F5F8093A3005E
:100FE00022C0982F907F903BB1F42091A30042172C
:100FF00078F0CB016DE570E075D7069739F42F5F77
:101000002093A3004217F8F088E303C082E101C0F7
:1010100080E0C4DB18C0903E61F48091A300882377
:1010200089F0481778F060E070E088E095E030DD06
:101030000AC08A3041F46091BA008091A300F9019E
:10104000099564DABCDC80E0089525EA31E043E0EC
:10105000B8CF25EA31E044E0B4CF24E334E045E002
:10106000B0CF22E632E041E0ACCF26E632E042E00B
:10107000A8CF21E832E041E0A4CF81E0089590912B
:101080007C00992369F08093BD0088E08093BB00C9
:1010900081E08093BC008091CF008093BE000895D2
:1010A0007DCBCF93DF93EB01883081F480E0E7DFE5
:1010B0008091BC00C82B1092C9001092C500CD2BA6
:1010C00009F056C081E08093D00052C0813059F4BD
:1010D0006931710508F44CC0C091BC00C11148C011
:1010E0008093D000C1C0833039F58091C9008F3F13
:1010F00019F08F5F8093C90020917A00222359F064
:1011000080917B0090E062EC71E0CFD6C817D907E0
:1011100010F020936A00809185006C2F8370BDDBF6
:1011200080918600882321F190E062EC71E0BDD6C9
:101130008C179D07E8F450C0813B89F481E090E072
:1011400044D99DDF80917900811112C080916C009B
:10115000811102C0689760F061E070E029C0813EB3
:10116000D9F3813839F480916A0090E02ED987DF75
:10117000C0E07AC0813C21F460916A0070E018C040
:10118000823B81F41092C90080916D0090917700AC
:10119000911180917800811103C086E990E0E6CF3B
:1011A00086E9E5CF823E59F0823C29F466E970E099
:1011B00085EF95E00CC0833921F41092BC0080E0EB
:1011C000D6CF833C31F460E070E08BEB95E078DCC7
:1011D000CFCF843C31F40FDB60E070E08EE19CE027
:1011E000F6CF8F3C29F460E070E08DE398E0EFCF1C
:1011F0008A3B81F4CD2B11F5C0917700CC2321F0EF
:10120000FADA1092770018C060E070E089E298E0A6
:101210003FDC2AC0833B29F460E070E082E59AE07D
:10122000D6CF873C59F49091850081E0890F9C7F4F
:101230008370892B8093850069D99ACFC0917700FC
:10124000C11111C08A3C31F4D6DA81E08093770075
:101250005DD90AC0853C39F4CEDA60E070E089EDF2
:101260009BE02EDC01C0C1E08C2FDF91CF9108956F
:101270000F931F93CF931092D30080912B019091E5
:101280002C019C012F5F3F4F88279078822B932B56
:1012900090932C0180932B01C091D100F7D7C817F0
:1012A00029F11092D0008093D10090912D018823D4
:1012B00059F0892F80699F709F3009F08F5F80936C
:1012C0002D0180E090E00DC0892F8F7E95FD02C03A
:1012D000806801C0806C80932D0180912B019091DA
:1012E0002C01A7D710922C0110922B0100912B01F9
:1012F00010912C018091D000882399F0B80183E0EF
:1013000048D760D70134110528F00F701127012B41
:1013100009F044C01092A60081E08093FA00ADD796
:101320002EC0C0912D018C2F807F803B19F460E08E
:1013300070E001C0B80181E02CD7C4FF12C0C5FF26
:1013400002C0C8010CC008311105C8F010922C0170
:1013500010922B01C062C0932D0180E090E069D70C
:101360000EC0CC2361F0C5FD09C00231110538F073
:10137000C064C0932D0180E090E05BD75ED7809180
:10138000A600811105C08FEE86B981E08093EE0042
:101390008091A6008F5F8F718093A600CF911F91DF
:1013A0000F9108958091F9008111D0D88091D300D8
:1013B00081115ECF0895CF92DF92EF92FF920F934B
:1013C0001F93CF93DF93EC0110E800E080E3E82E59
:1013D00087E0F82E9CECC92EDD24D394209709F1E8
:1013E0008091CA0081111FC08091CF00853040F4E8
:1013F00082E00FB6F89416BD86BD0FBEC60106C0CA
:101400000FB6F89416BD06BD0FBEC7010197F1F7E0
:101410000FB6F89416BD06BD0FBEC4DFD3D6219714
:10142000DDCF81E001C080E0DF91CF911F910F916E
:10143000FF90EF90DF90CF900895CF93C82F88232F
:1014400081F089E1ABD986EA90E0B5DF80E0A6D9EA
:101450008AEF90E0B0DFC150A1F78AE992E0CF9126
:10146000AACF89E19BD98AE090E0A5DF80E096D9F8
:101470008AEF90E0A0DFF1CFCF93DF9364E626D52B
:10148000282F892F6AE022D5EC01222341F0822FF8
:10149000D4DF8C2FD2DF8D2FDF91CF91CECFC11132
:1014A000F8CFF9CFFF920F931F93CF93DF93D82FED
:1014B0008B01C091BF0081E08093C100C33009F06F
:1014C000DBC0F090C5008D2F00DAFF2051F0809135
:1014D000C500811106C060E070E081E598E0F0DAB7
:1014E000CBC0D83021F481E080936300C7C0D23CE8
:1014F00019F41092C500D4C0D13BC1F490916200A0
:10150000012B49F49E3610F08FEF03C0923018F48F
:1015100081E08093630080916300890F11F481E082
:1015200029C18F3608F426C18EE624C1D13E31F49C
:1015300080916300819580936300F2C0D23B61F497
:1015400081E08093630080916200823008F4F0C0F3
:10155000815080936200ECC0D13009F0A5C00932FF
:10156000110511F4D09363009091A100892F880F89
:1015700097FD809590E067E070E097D4292F8091E7
:10158000A000682F660F87FD60958091610070E074
:1015900090E08BD4290F80919F00682F660F87FD04
:1015A00060958091600070E090E07FD4920F609130
:1015B000620070E0690F711D8091C500813091F467
:1015C0008091C2009091C30025E0969587952A9559
:1015D000E1F724E730E0A901481B590BCA0165D4A3
:1015E000B90180D4862FDAD800FD07C058D68170A3
:1015F0009091A100890F8093A1009091A00080910B
:101600009E00890F8093A0004AD665E25FD4809146
:101610009F00980F90939F0042D68F7329F43FD676
:101620006DE054D490939E00C0916100CC2331F0C2
:1016300036D68F7319F4C150C093610030D6811132
:1016400007C02DD66BE042D4909361001092A000A9
:10165000C0916000C33030F022D68F7119F4C150B0
:10166000C09360001CD68F7709F088C018D666E05A
:101670002DD49093600082C0D83041F480917D00D9
:101680008093BF0081E08093640076C0D13C31F448
:1016900060E070E081E598E013DA6EC0D23C31F48E
:1016A0008C2F90E0019607C0D13C91F3D43C59F4C3
:1016B0008C2F90E0049665E070E028D480937D0044
:1016C0008093BF0048C0D13B49F5C23090F400FD83
:1016D00053C0EC2FF0E0E459FF4F828990916400F1
:1016E000891B883020F08F3F91F58EEF30C088E065
:1016F0002EC0C43009F040C09091800080916400F9
:10170000890F823010F482E003C0893708F088E73F
:10171000809380008091800041D82EC0D13E31F46A
:101720008091640081958093640015C0D23B89F458
:1017300081E080936400C23068F500FD1DC0EC2F8D
:10174000F0E0E459FF4F82898F3FB1F08F5F828BC9
:1017500013C0D23E11F4DAD60FC0D53C39F460E0A4
:1017600070E089ED9BE0ACD980E0D6CFD13031F08C
:1017700081E019C08093620080E015C00932110534
:1017800019F481E0809364008091CD00080F0093EC
:10179000CD00F2CFC43081F780918000833008F40F
:1017A000B9CF8150B5CFDF91CF911F910F91FF90AD
:1017B00008950F931F93CF93DF93D82F8B01883019
:1017C00031F48091C100882311F088E06BDE8D2F09
:1017D0008079803959F481E08093C000C091C100C4
:1017E000C1110AC080916A00D9D722C0803831F473
:1017F0001092C00080E0D2D7C0E01AC0D130B9F456
:10180000C091C000CC2359F08091C1008823A1F37E
:10181000B80181E0DF91CF911F910F9143CE80E01D
:10182000B1D70733114040F3D093D00001C0C1E0DD
:101830008C2FDF91CF911F910F9108950F931F93DC
:10184000CF93DF93D82F8B0180798039B1F4209129
:101850006E0090916F008D2F8F70813021F4822F58
:10186000921748F407C080917A00811104C0822F3A
:10187000291708F4892F92D713C0803819F480E013
:101880008DD705C0D83019F41092C90057C0D13097
:1018900039F40931110508F45DC0D093D0005AC065
:1018A000D330E9F48091C9008F3F19F08F5F8093A6
:1018B000C90020917A00222359F080917B0090E0AA
:1018C00062EC71E0F2D20817190710F020936A0059
:1018D00080918500602F86958695DFD73BC0D33CED
:1018E00031F489D760E070E081E598E014C0D43C21
:1018F00021F460916A0070E00CC0D43B31F489D7C8
:1019000010922D0161E070E004C0D53C31F466E92D
:1019100070E085EF95E0D4D81DC0D73C79F4909164
:101920008500892F869586958F5F8370880F880F35
:101930009370890F80938500E9D50CC0C091770022
:10194000C1110AC0DA3B41F460E070E089E398E03D
:101950009FD803C0C0E001C0C1E08C2FDF91CF91C0
:101960001F910F9108951F920F920FB60F9211249D
:101970002F933F938F939F93AF93BF93EF93FF93D7
:101980008091F8008823E9F0E091F70024B135B1A7
:10199000F0E0EE0FFF1FDF01AD50BF4F2D933C93E2
:1019A000E151FF4F808191818217930708F40196DE
:1019B0002817390708F401979183808381E0809389
:1019C000F90081E08093F800FF91EF91BF91AF9112
:1019D0009F918F913F912F910F900FBE0F901F906D
:1019E00018951F920F920FB60F9211248F9381E0DA
:1019F0008093D3008F910F900FBE0F901F9018957A
:101A00001F920F920FB60F9211248F9381E0809353
:101A1000D2008F910F900FBE0F901F901895F894E1
:101A200084B7877F84BF0FB6F894A89581B5886185
:101A300081BD11BC0FBE83E087BB81E083BF81EA1B
:101A40008ABD88E088BB85BB8BB780628BBFA895B9
:101A500081B5886181BD80E481BD0FD4789481E037
:101A6000F6D360E070E08EE695E012D81092CA00DE
:101A7000C2D60CD4811113C08CE690E09093CC00B8
:101A80008093CB00F89480E090E053D2853AC1F582
:101A90000091CB001091CC00C1E0D0E028C0C0E0A4
:101AA0008C2F7CD683E190E086DC8C2F869576D6D1
:101AB00083E190E080DCEAD3882381F0CF5FC034FB
:101AC00079F765E181E002D521D5C6E98C2F66D68C
:101AD00084E090E070DCC150C9F7CECFCC2361F236
:101AE0008C2F5CD68DE090E066DCC150F7CFCE0144
:101AF00020D2F80181938F012196CC31D105B9F71D
:101B0000789480917A00811180936A0060E070E09F
:101B100084E892E0BDD761E070E081E598E0B8D755
:101B200043E4342E52E0452E60E4562E772473941D
:101B300077E0672ECC24C394D12CFCEF8F2EF3E0FA
:101B40009F2EA1E5AA2EA8E0BA2E3CD38091D60004
:101B50009091D700009749F06091D4007091D50022
:101B6000AFD71092D7001092D6008091D000882372
:101B700009F44BC080E012D6A89581B5886181BD7B
:101B800031BC379883D38111FDCF57D38BB7806297
:101B90008BBF1092F9001092D3001092D200809166
:101BA000D000882339F18091FA00882321F085B78D
:101BB000877E886003C085B7877E806185BF85B7D3
:101BC000806285BF889585B78F7D85BF8091D20063
:101BD00081111092D0008091F900882329F0709231
:101BE0006B007092EE00B2D48091D3008823B9F2DA
:101BF0003FDBD5CF40926B008BB78F7D8BBF3DD342
:101C0000A89581B5886181BD51BCCCDB1092CA001A
:101C10008091E9009091EA00F8E08D339F0711F57B
:101C2000CEE1D0E0FE0184918053803110F405DCD8
:101C300010C010E0812F81708295880F807EAED514
:101C400080E190E0B8DB1F5F1931A1F78AE992E0EB
:101C5000B2DB8CE291E0AFDB2196F0E0CC32DF0723
:101C600009F7B9C02AE08235920779F03BE0893D57
:101C7000930709F0A0C08091C100813009F0D6C05F
:101C80008091C000882309F4D1C0C091BF00C23048
:101C900001F120F0C43009F474C057CFEC2FF0E00C
:101CA000E459FF4FD28986E979D5C11109C0DA32EA
:101CB00020F4C4010197F1F707C081E090E003C070
:101CC0008D2F869590E077DB80E068D58D2F90E0B2
:101CD000DFC0E5D28F73E82EF12CE1D2662DF6D06D
:101CE000E60102C0CC0FDD1F9A95E2F7D8D265E07D
:101CF000EDD0F60102C0EE0FFF1F9A95E2F7CE0F6E
:101D0000DF1FCDD290E0BE0101D1C80FD91FC73966
:101D1000D10514F0C6E9D0E08C2F40D5C7014BDBCC
:101D20008E0133E0159507953A95E1F7011101C051
:101D300001E010E0C7013FDBC01BD10BD7FF02C0A1
:101D4000C0E0D0E08C2F2AD5AAD2837031F4C7012D
:101D500032DBCE019595879521D5C230D10554F758
:101D60009ED26DE0B3D0E60102C0CC0FDD1F9A9584
:101D7000E2F795D290E0BE01B5D0C80FD91F80E040
:101D800085C0C0918000CC0FC73908F0C6E9D4E007
:101D90008C2F04D585E090E00EDB80918000FED48E
:101DA00081E490E008DBD15099F780ED92E003DB0D
:101DB00080E0F4D4CACEF5E08B3B9F07A9F488EE0F
:101DC00093E0F9DA8091ED008695869555DB809158
:101DD0007700882381F0B092D700A092D6001092AD
:101DE000D5001092D400B1CE25E08B3D920731F49E
:101DF0008091EB0041DB88EE93E04AC08459954026
:101E0000A9F48091D1008111A0CE80916A00C6D43E
:101E100084E690E0D0DA80E0C1D48091810090E047
:101E200068EE73E042D08456910932C080917C0004
:101E3000882381F18091BC00882361F12091CF003B
:101E40003091BD00231305C0822FA8D41092BC008E
:101E50007CCE6091BB00231758F4832F821B36D0B1
:101E6000811101C081E0820F99D48AE090E010C016
:101E7000862F90E06EE170E018D06091BE00631B89
:101E800070E044D0EB0121968FEF820F87D4CE0112
:101E900092DA5BCE85B7877E85BF85B7806285BFC6
:101EA000889585B78F7D85BF50CE0024552704C007
:101EB000080E591F880F991F009729F0769567958E
:101EC000B8F37105B9F7802D952F0895991B79E026
:101ED00004C0991F961708F0961B881F7A95C9F7BA
:101EE00080950895AA1BBB1B51E107C0AA1FBB1F09
:101EF000A617B70710F0A61BB70B881F991F5A9596
:101F0000A9F780959095BC01CD01089597FB072E08
:101F100016F4009406D077FD08D0E4DF07FC05D066
:101F20003EF4909581959F4F0895709561957F4FF0
:101F30000895E199FECF9FBB8EBBE09A99278DB3A0
:101F40000895262FE199FECF9FBB8EBBE09A0197A3
:101F50000DB2021639F01CBA2DBB0FB6F894E29AF6
:0A1F6000E19A0FBE0895F894FFCF38
:101F6A00060B180101010004780141020001010A6F
:101F7A000A78789601070501000000000103294349
:101F8A003202072D000D006E00710074000001027C
:0E1F9A00010000000000000100000000000037
:00000001FF
