:1000000050C200006BC200000C94891567C200004A
:1000100065C200000C947A1561C200005FC2000046
:100020005DC200005BC2000059C2000057C2000060
:1000300055C2000053C200000C943C154FC2000092
:100040004DC200004BC2000049C2000047C2000080
:1000500045C2000043C2000041C200003FC2000090
:100060003DC200003BC2000039C2000037C20000A0
:10007000303236332E302E636266633161310000D8
:10008000010504141011150010610EAF0CEA0A18D6
:10009000094007790B59094407820AE1085307E927
:1000A00008A7077A0665076E06EE0621066505BAFB
:1000B000051D058E04C8045004E4030904AE035A68
:1000C0000372032A03EA02AF027A024A025C023197
:1000D000020A02E701C601A9018D01990181016AA5
:1000E00001550141012E013701270117011E010FA2
:1000F0000101010701FA00FF000201F600F900FF0B
:1001000000FF00FF00FF00FF00FF00FF00FF00FFF7
:1001100000FF00FF00FF00FF00FF00FF00FF00FFE7
:1001200000FF00FF00FF00FF00FF00FF00FF00FFD7
:1001300000FF00FF00FF00FF00FF00FF00FF00FFC7
:1001400000FF00FF00FF00FF00FF00FF00FF00FFB7
:1001500000FF00FF00FF00FF00FF00FF00FF00FFA7
:1001600000FF00FF00FF00FF00FF00FF00FF00FF97
:1001700000FF00FF00FF00FF00FF00FF00FF00FF87
:1001800000FF00FF00FF00FF00FF00FF00FF00FF77
:1001900000FF00FF00FF00FF00FF00FF00FF00FF67
:1001A00000FF00FF00FF00FF00FF00FF00FF00FF57
:1001B00000FF000101010101010202020303030427
:1001C00004040505060606070707080808090909C3
:1001D0000A0A0A0A0A0A0B0B0B0B0B0B0B0C0C0C72
:1001E0000C0C0C0D0D0D0E0E0E0F0F101111121325
:1001F0001415161718191A1B1C1D1E1F2122232542
:100200002627292A2C2D2F3032343537393B3D3FD4
:1002100041434547494B4D4F525456595B5E6163CC
:1002200066696B6E7174777A7D8084878A8D91940C
:10023000989C9FA3A7AAAEB2B6BABEC3C7CBD0D470
:10024000D9DDE2E6EBF0F5FAFF0010D60EB00D8E28
:100250000C6E0B550A400932082A072B063505009B
:1002600009E107D006CE05DA049604A406E1052BC1
:100270000583040D0413058B040E049B033303C78D
:10028000036A031503C802810241028F025602214C
:1002900002F101C5019D01C801A30182016301466C
:1002A00001600146012D011601280113011F010BF8
:1002B00001F90002010901F800FD000001F000FF52
:1002C00000FF00FF00FF00FF00FF00FF00FF00FF36
:1002D00000FF00FF00FF00FF00FF00FF00FF00FF26
:1002E00000FF00FF00FF00FF00FF00FF00FF00FF16
:1002F00000FF00FF00FF00FF00FF00FF00FF00FF06
:1003000000FF00FF00FF00FF00FF00FF00FF00FFF5
:1003100000FF00FF00FF00FF00FF00FF00FF00FFE5
:1003200000FF00FF00FF00FF00FF00FF00FF00FFD5
:1003300000FF00FF00FF00FF00FF00FF00FF00FFC5
:1003400000FF00FF00FF00FF00FF00FF00FF00FFB5
:1003500000FF00FF00FF00FF00FF00FF00FF00FFA5
:1003600000FF00FF00FF00FF00FF00FF00FF00FF95
:1003700000FF00FF0000000000000000000000007F
:10038000000000000000000000000000000000006D
:10039000000000000000000000000000000000005D
:1003A000000000000000000000000000000000004D
:1003B000000000000000000000000000000000003D
:1003C000000000000000000000000000000000002D
:1003D000000000000000000000000000000000001D
:1003E0000000000000000000000000000003070BF8
:1003F0000F13171B2025292E33383D42484E5359E1
:100400005F666C737980878F969DA501010101015C
:1004100001010101010102020202020203030303BE
:10042000030404040404050505050505060606067F
:10043000060607070707070808080809090A0A0A3D
:100440000B0C0C0D0E0E1011121314151618191A90
:100450001C1D1F21232426282A2D2F313436393CF8
:100460003F4245484C4F53575B5F63676C70757AEA
:100470007F858A90969CA2A9AFB6BDC5CCD4DCE599
:10048000EDF6FFFFFFFFFFFFFFFFFFFFFFFFFFFF97
:10049000FFFFFFFFFFFFFFFFFFFFFFFFFFFFFFFF6C
:1004A000FF0011241FBECFEFD4E0DEBFCDBF11E0AF
:1004B000A0E0B1E0E8E7F1E302C005900D92AE3BA9
:1004C000B107D9F722E0AEEBB1E001C01D92A7352C
:1004D000B207E1F70E9498150C94BA1891CDF894E0
:1004E00098ED9FBD83BF78940895482F9B01E4E267
:1004F000F2E080E090E05081552331F00196339690
:1005000080319105C1F70AC063E070E00E945C1879
:10051000FC01EC5DFD4F40833283218308950F93EE
:100520001F93CF93DF93D0912402DD2351F10091EB
:10053000250210912602C0910102C150C7FD0DC0D5
:10054000EC2FEE0FFF0BEE5FFD4F0190F081E02DE1
:10055000B8018D2F09958111F0CFE4E2F2E083819B
:1005600080838481958192838183339682E0E13513
:10057000F807A9F7109251021092530210925202FA
:10058000D2CFDF91CF911F910F910895BC0180913F
:100590005602ABCF1092560210925502109254029E
:1005A00081E08093F20108950F931F93CF93C82F9A
:1005B00008EA17E0CC2349F082E091DFC8010197F7
:1005C000F1F780E08CDFC150F5CFCF911F910F91F3
:1005D000089586E884B9E1E6F0E080818260808356
:1005E00088E082B910922002109221028FEE83B926
:1005F0000895EF92FF920F93CF93DF93EC01FB01ED
:100600007A01802F90E0BA010E945C1881589F4FB8
:100610006FEF70E00E947918A701461B570B261751
:10062000370730F4621B730B460F571FB90108C020
:100630002417350728F4621B730B640F751FA9017B
:100640005983488371836083DF91CF910F91FF902D
:10065000EF900895E0910701F09108013196FB7049
:10066000F460F0930801E09307018091F5018B5A43
:100670008093F501E4918091F5018E0F08950F9319
:100680001F93CF93DF9300D01F92CDB7DEB7209199
:100690005301309154014091550129833A834B8392
:1006A000FE01319640E050E090E061E070E0B191F1
:1006B0009A01220F331F8C0102C0159507952A95C8
:1006C000E2F79801237061F02130D1F4A0B39B01CF
:1006D00001C0220FBA95EAF7322F30953A2318C09D
:1006E000A0B39B0101C0220FBA95EAF720953A2FDB
:1006F000322330BB32B3322332BB31B323230EC09B
:10070000A0B39B0101C0220FBA95EAF73A2F322B12
:1007100030BB32B3322B32BB31B3232B21BB4F5F03
:100720005F4F4330510519F60F900F900F90DF91F6
:10073000CF911F910F910895811182E0A0CF811177
:100740008AE09DCF811188E09ACF811188E297CF0E
:10075000811180E294CF811182E291CF81118AE2EE
:100760008ECF81E00895CF93DF93D901E0916C00A3
:10077000F0916D00C0916A00D0916B0038B321E018
:10078000611101C020E091E0411101C090E0922B85
:10079000C1F4811116C010926D0010926C0010927D
:1007A0006B0010926A0018BA8FEF90E09093690086
:1007B0008093680010926F0010926E00889889985C
:1007C0003AC0882311F0889A01C08898662311F0F6
:1007D000899A01C0899821E0CD2B09F420E091E0AD
:1007E000311101C090E0922B31E0EF2B09F430E0A1
:1007F000932BE82FF0E0F0936D00E0936C0070E035
:1008000070936B0060936A0048BB992351F09D017F
:100810002052310940916E0050916F002417350726
:10082000C8F3B0936900A0936800911104C01092BE
:100830006F0010926E00DF91CF910895282F30E065
:10084000F901E55FFB4F8491F901EB58FC4F4491AE
:10085000F901EE0FFF1FE75BFD4F2591349160E03A
:1008600082CF90E0FC01ED54FE4F6491FC01EE0F4D
:10087000FF1FE957FF4F2591349140E080E073CF8F
:10088000282F30E0F901E55FFB4F8491F901EB5827
:10089000FC4F4491F901EE0FFF1FE75BFD4F2591DF
:1008A0003491682F60CFEF92FF920F931F93CF93F5
:1008B000DF9300D000D0CDB7DEB790E0FC01EB585D
:1008C000FC4F1491FC01E55FFB4F2491FC01EE0FFE
:1008D000FF1FE75BFD4FE590F490A0910C01B0E0A5
:1008E000A25FBE4F412F50E0420F511D55960C9113
:1008F0009701BE016F5F7F4FCE0103967ADE9701AD
:10090000412F69818B812FDF0F900F900F900F90F7
:10091000DF91CF911F910F91FF90EF900895EF928B
:10092000FF920F93CF93DF9300D000D0CDB7DEB707
:1009300090E0FC01ED54FE4F4491FC01EE0FFF1FCF
:10094000E957FF4FE590F4906FEF70E00E945C185C
:1009500066E970E00E947918062FA0910C01B0E0C2
:10096000A25FBE4F55968C9186FD009550E0970191
:10097000BE016F5F7F4FCE0103963BDE970140E0E3
:1009800069818B81F0DE0F900F900F900F90DF91B7
:10099000CF910F91FF90EF900895E0916C00F0914E
:1009A0006D00282F30E0EF2B11F48F3F49F0E091DC
:1009B0006C00F0916D00EF3FF10539F4811105C035
:1009C00030936D0020936C001DC080916C0090915D
:1009D0006D008217930730F480916C0090916D0048
:1009E00001960CC080916C0090916D00281739071A
:1009F00048F480916C0090916D00019790936D0088
:100A000080936C00E0916A00F0916B00862F90E07B
:100A1000EF2B11F46F3F49F0E0916A00F0916B0009
:100A2000EF3FF10539F4611105C090936B0080939D
:100A30006A001FC060916A0070916B0068177907A7
:100A400038F460916A0070916B006F5F7F4F0DC04A
:100A500060916A0070916B008617970750F460915F
:100A60006A0070916B006150710970936B00609324
:100A70006A0058B3541718F458B35F5F05C058B3F1
:100A8000451718F458B3515058BB60916C007091E1
:100A90006D002617370751F420916A0030916B00E2
:100AA0008217930719F498B381E0491380E0089501
:100AB000482F50E0FA01E55FFB4F8491FA01EB58B3
:100AC000FC4F449160E069CFE82FF0E0ED54FE4F19
:100AD000649140E080E061CF482F50E0FA01E55F8B
:100AE000FB4F8491FA01EB58FC4F4491682F55CF8E
:100AF0000F931F93CF93DF9300D000D0CDB7DEB715
:100B000090E0FC01EB58FC4F1491FC01E55FFB4FBA
:100B10003491FC01EE0FFF1FE75BFD4F859194912F
:100B2000A0910C01B0E0A25FBE4F412F50E0430FF7
:100B3000511D55960C919C01BE016F5F7F4FCE01F8
:100B4000039657DD412F69818B8127DF0F900F902E
:100B50000F900F90DF91CF911F910F9108950F93F8
:100B6000CF93DF9300D000D0CDB7DEB790E0FC018B
:100B7000ED54FE4F4491FC01EE0FFF1FE957FF4F6C
:100B8000259134916FEF70E00E945C1866E970E087
:100B90000E947918062FA0910C01B0E0A25FBE4F11
:100BA00055968C9186FD009550E0BE016F5F7F4F9A
:100BB000CE0103961EDD40E069818B81EEDE0F9051
:100BC0000F900F900F90DF91CF910F910895CF93D9
:100BD000DF9300D000D000D0CDB7DEB790910E01EA
:100BE00020911202309113022C513E4009F492E000
:100BF000843019F460931A0121C06623F9F0823021
:100C000019F427E9261B622F26E0E6E5F1E0DE0174
:100C1000119601900D922A95E1F7E82FF0E03197B7
:100C2000EE0FFF1F21E030E02C0F3D1FE20FF31FFE
:100C30000190F081E02DE90FF11D608326960FB63B
:100C4000F894DEBF0FBECDBFDF91CF910895813004
:100C500019F460933B010895823011F460935201BE
:100C60000895BF92CF92DF92EF92FF920F931F935E
:100C7000CF93DF93EC0140910E01909119019923DC
:100C800011F0E2E001C0E42FF0E0E25FFE4F2281CC
:100C900020930A01858180930901E92FF0E0E25F4A
:100CA000FE4F3185622F70E0442349F0313039F432
:100CB0009B01280F311DC9019595879538C0C6172E
:100CC000D707A4F1682F70E06C177D0784F14111FC
:100CD00002C08C2F2CC0821B032F10E00150110981
:100CE000E82EF12CC701B8010E948D186093EF0126
:100CF0006695E62FF0E0822FC12CD12CB12CB316D3
:100D0000B1F0C601B8010E947918822F860FCE0C6F
:100D1000DF1CAE01481B510957FF03C05195419597
:100D20005109E417F5071CF4B394E9CF822FDF9142
:100D3000CF911F910F91FF90EF90DF90CF90BF90D8
:100D4000089580911C0180930B0180912101809373
:100D50001E0180930C01E3E2F1E08485819381E040
:100D6000EF32F807D1F708958091EB01882351F015
:100D70009091F8019093EE018093EA011092E901BD
:100D80001092E801089581E00895823019F460938B
:100D90004D0108956111609348010895662389F01B
:100DA000813061F48091140290914A01891B681B83
:100DB00060934A0182E080930D0103C0635E6093FB
:100DC000490180914901873418F086E480934901F4
:100DD000089560934E010895E82FF0E0E25BFE4F26
:100DE000608308957FEF780F40911F01509120019B
:100DF000662359F021E030E002C0220F331F7A95BC
:100E0000E2F7CA01822B932B0AC081E090E002C076
:100E1000880F991F7A95E2F7809584239523909304
:100E2000200180931F010895CF93DF938EE091E01E
:100E30009093F4018093F301F894C0E0D0E0E09146
:100E4000F301F091F401EC0FFD1F60812196CE01BA
:100E50000E94A818C534D10591F765EA80E090E0BA
:100E60000E94A8187894DF91CF91089510922202E1
:100E700080B191B12091F501829586958695837018
:100E8000990F990F890F820F8093F50180911702B6
:100E9000882309F41AC110921702809120029091C0
:100EA000F901992329F01F98109223021092200231
:100EB000811151C080910D01882329F080911C027D
:100EC00090911D021AC08091F90120911802309171
:100ED00019028823B9F080911C0290911D0243E011
:100EE000969587954A95E1F7820F931F53E03695C3
:100EF00027955A95E1F7821B930B909319028093E3
:100F0000180201C0C901209148012750220F60E654
:100F100071E00E947918260F209316028091DF015C
:100F2000882311F0815007C0243738F460E070E066
:100F300084E0DBDA85E08093DF018091F9018111A3
:100F4000BBC08EE884B981E0809320021092210218
:100F50008FEE83B9B1C0813009F0AEC080910D0130
:100F6000882341F080911E0290911F0290931B02F2
:100F700080931A0280911A0290911B0260914A019B
:100F80009C01A6E036952795AA95E1F7062E000C60
:100F9000770B260F371F2E503140309315022093C8
:100FA0001402B5E096958795BA95E1F720910D0169
:100FB000211128C02091CE01E22FF0E0EE0FFF1F9B
:100FC000E153FE4F40815181DC01A41BB50BAD0103
:100FD000918380832F5F27702093CE019D01220F84
:100FE000331F220F331F820F931F2091490130E0DE
:100FF000261B370B225F3E4F220F331F821B930BA2
:1010000023E00EC0EFECF1E081939193B1E0EF3D6E
:10101000FB07D1F7CFCF009709F00196215029F0B7
:1010200018161906C4F70197F9CF18161906E4F433
:1010300057FD39C02091CD0112160CF1880F991F70
:10104000BC016350710977FF02C06F5F7F4F7595D8
:1010500067951616170614F061E070E088E1861BAC
:101060008093CD0185E026C08C3F2FEF9207DCF402
:1010700057FF19C02091CD0127FF05C02450281B20
:101080002093CD0118C024EE281B2093CD01209180
:101090001602263780F06CEF7FEF681B790B759591
:1010A000679586E007C080911602853720F060E0E2
:1010B00070E087E01ADA8DDA80910D01882329F03B
:1010C00080910D01815080930D010895882321F0B6
:1010D000813031F4829805C0829892988A98089558
:1010E000829A929A8A9A0895CF93C82F8091F80194
:1010F000811109C0CC2339F080915201C81718F42E
:10110000F3DF82E051DA8091F90181110BC0B7DA87
:1011100091E0C11101C090E081E0C23408F480E0A8
:10112000890FD4DFC11107C02FEF30E040E060E04D
:1011300080E019DB0FC080910C0190E065E070E069
:101140000E945C188F579E4FDC01ED91FC918FEF50
:101150008C0F09958091F801C8138093F701C09313
:10116000F801C093F601C83010F482E005C0C03128
:1011700010F481E001C080E0CF91B1C9CF93C0915C
:10118000F8018EE18C0F873908F080E0ADDF83E055
:101190000BDA8C2FCF91A8CFCF93C091F80180E0CC
:1011A000A3DF83E001DA8C2FCF919ECF8093F001F3
:1011B0009091F801981718F4282F291B02C0292FA5
:1011C000281B3091E201311106C030913C013323DC
:1011D00069F0223058F08093E30184E08093E101CC
:1011E00081E08093E2019093E40108957DCF0F9315
:1011F0001F93CF93909116022FEF290F233720F4DE
:1012000080E03DDA80E09EC0E82FEF702091EC0195
:10121000211125C0C82FC295CF7020914D0130E01B
:1012200043E0220F331F4A95E1F762177307C0F4BA
:101230008091F101482F50E0421753078CF4882326
:1012400079F021E08091F7018F3008F420E081E00F
:10125000C23009F080E0822BC1E0C80F36C0C2E086
:10126000E73088F1E730A9F40091C60110E00F5F84
:101270001F4FF0D965E00E946D189801290F311DAC
:10128000C90166E070E00E948D188093C601FC01E0
:101290003AC0E830D1F48091F901882311F02FE0B1
:1012A00001C023E030E062237323672B51F4809167
:1012B000C60190E0019666E070E00E948D18809370
:1012C000C601E091C601F0E01EC08091F9018823BB
:1012D00081F080E0E82FF0E0E159FE4F2081921785
:1012E00010F08E5FF7CF3197E081F0E0E158FF4FCB
:1012F0000CC0CB019695879563E070E00E94791849
:10130000FC01EE0FFF1FE058FF4FE491C33071F472
:101310008091C50190E0019663E170E00E94791828
:101320008093C501DC01A45ABE4FCC91CC2329F097
:10133000C13029F0EE0FC2E002C0C0E0E0E08E2F25
:101340009ED98C2FCF911F910F91C0CECF93DF9359
:1013500090910C01981759F0C82FD091F80180E0B6
:10136000C3DEC0930C018D2FDF91CF91BDCEDF91F5
:10137000CF910895813019F410921C0108958230A4
:1013800019F460931D010895833019F460931B01D3
:101390000895843019F460930F010895853011F495
:1013A00060933C010895883039F41092EB0110925B
:1013B000E9011092E80145C0813B81F48091EB0185
:1013C0008150833008F03FC083E08093EB0180932D
:1013D000EA011092E9011092E80135C0853BB1F4B1
:1013E000CB016EE370E00E947918892B51F5809152
:1013F000EB018A3F30F58B5F8093EB018093EA012C
:101400001092E9011092E801B9DE1BC08130D9F4D5
:101410008091E8019091E901019688382EE09207C9
:1014200028F49093E9018093E8010BC01092E90140
:101430001092E8018091EB01882319F0815080938C
:10144000EB0180E0089581E00895FF920F931F93D0
:10145000CF93DF938C01EB01F42E809112029091D7
:101460001302892B31F0E0911202F091130289E00E
:1014700009951093130200931202012B39F0E091A9
:101480001202F0911302BE018F2D099581E0809325
:10149000F201DF91CF911F910F91FF900895CF93AB
:1014A000DF93E0910102EE2359F0E150E093010255
:1014B000F0E0EE0FFF1FEE5FFD4FC081D18102C053
:1014C000C0E0D0E0E0910102EE2341F0F0E0EE0F49
:1014D000FF1FE050FE4F8081918102C080E090E0CC
:1014E0004AE060E070E0B1DFCE01DF91CF91089576
:1014F000883029F41092E0011092C70115C08130A4
:1015000001F59091C701911107C06032710570F12A
:101510008093C7013FD82AC0913089F46B3B710595
:1015200028F082E08093C70180E01FC0611571053B
:10153000E9F06270862F880F880F8E5E16C0AFDFCD
:1015400015C0813811F0813E89F491E09093C70174
:10155000813E21F48091E001865F03C08091E0012B
:101560008F5F8093E00116D88BE4BEDD80E00895A4
:101570009C0190910102983088F4E92FF0E0EE0F81
:10158000FF1FEE5FFD4F318320839F5F9093010229
:1015900048E0C9015ADF8091010208958FEF089554
:1015A0000F931F93CF93DF93EC018B0178DFB8018A
:1015B000CE01DF91CF911F910F91DACF813C29F4B9
:1015C00060E070E080E490E106C0823C39F460E0C5
:1015D00070E082E49EE0E4DF80E0089581E0089519
:1015E000843011F5809112029091130222E1873C20
:1015F000920729F469E170E089E59BE013C0895501
:101600009B4061F49091F801923040F0892F8695CB
:1016100096959695890FCADD80E0089560E070E0A8
:1016200080E490E1BDDFF8CF81E00895813C29F4AA
:1016300060E070E080E490E106C0823C31F460E05C
:1016400070E08EED9AE0ACDF16C0813B49F4CB012F
:101650006EE370E00E947918892B69F48FDD0BC06E
:10166000813E59F4CB016EE370E00E9479186F5F00
:1016700060934701D9DB80E0089581E00895813CC3
:1016800029F460E070E080E490E106C0823C31F42F
:1016900060E070E086E19BE083DF07C0873B39F4C0
:1016A00060E070E08CE29EE063DF80E0089581E01E
:1016B0000895BF92CF92DF92EF92FF920F931F9304
:1016C000CF93DF93C82F8B0180911E0180930C0173
:1016D000D0900A01F090090180910E01882319F041
:1016E000B090EF0102C0BB24B394C0900F01809171
:1016F00019018111C0901A01CC2051F081E0C81667
:1017000021F080910B018F1518F0F6E9EF2E01C042
:10171000EF2CD091EB01B8018C2F45DE8091EB01CD
:10172000882339F0D1110CC09091F8019093EE010B
:1017300007C0DD2329F060E070E080E490E136C06E
:101740009C2F9D7F9830D9F41092E701CA3019F48C
:1017500000910B0110E08D2D90E08017910738F477
:101760008F2D90E00817190710F400930B01C801A2
:1017700078DA1CDD81E080930601D0E0E7C1C13C4E
:10178000D1F2C23C59F48091F8018E1510F48E2DDF
:1017900002C080910B010ADDE7DAEFCFC43C41F4CF
:1017A00080E0A2DC60E070E08BE59FE0F9DEE5CF51
:1017B0009FE49C0F923008F05DC080910E01882359
:1017C00041F0C80168E170E00E947918892B31F07E
:1017D000D4CF6091160170E0C801F6CFD091E2013C
:1017E000D111CBCF2091F8010115110561F4C23B55
:1017F00011F48FEF05C02F15E0F7D21608F181E044
:10180000809306011DC0E0911601F0E0CF0166E370
:1018100071E00E945C188017910710F42F1548F7AB
:10182000CF016CE672E00E945C188017910740F4CB
:10183000D21630F0A3DC60E070E08BE59FE0B0DE14
:10184000C091F801809106016B2D70E0082E000C0C
:10185000990B0E945C188C0F911D03DA80930B0189
:10186000C81719F0F81201C097DC80910B019EDCBB
:101870007BDA6CC19FE19C0F923020F480910601CD
:10188000819579CFC13009F089C00932110511F471
:10189000C0930601882379F10091EE0110E090E0F9
:1018A000B8010E945C18EC01E091EA01F0E0BF0190
:1018B0000E948D18262FCE01801B910BBF010E9424
:1018C0008D18322F361B8091E8019091E9016EE36B
:1018D00070E00E947918832F90E00E945C186CE3FE
:1018E00070E00E947918261B622F09F461E0609372
:1018F000F6016093F001C091F6012091F8018C2F60
:1019000090E0821B91096091CA017091CB016F5FD9
:101910007F4F7093CB016093CA01009709F42DCFDC
:1019200097FF05C0253630F040E450E005C040E0A8
:1019300052E002C040E051E05695479597FD019670
:10194000959587950097C1F74617570708F015CF6B
:10195000C21710F4CFEF03C02C1710F4C1E0C20F70
:1019600080910C0190E065E070E00E945C188F5758
:101970009E4FDC011296ED91FC9113978FEF8C0F27
:101980000995882331F0D091F6018C2FADDBD093EF
:10199000F6011092CB011092CA01EFCEC530A1F42E
:1019A0008091F8018D3308F4E8CE90E0801B910B14
:1019B0008C33910534F0873991056CF186E990E01C
:1019C0002AC08CE390E027C0C630B9F49091F801AA
:1019D0008091F001981708F0D0CE090F111D90E00A
:1019E0008017910734F00C33110524F40CE310E058
:1019F00001C08C010093F601C0CEC73079F49091FC
:101A0000F6018091F801891710F48F5F04C09817D0
:101A100008F0B3CE81508093F601AFCEC33C19F0ED
:101A2000C63C41F517C060911F017091200180E014
:101A300090E020E0AB01082E02C0569547950A942D
:101A4000E2F74170240F01968C30910599F722300E
:101A500008F07BC081E090910E01911180E08093AD
:101A60000E01E2D999DB8091F80190E0FAD88093D9
:101A70000B0191CED0911901D11167C08DE48C0F6B
:101A80008230C0F4C33B69F480910C0190E065E0C2
:101A900070E00E945C188F579E4FFC018481811179
:101AA00054C0012B09F069CECC2011F086E9E82E54
:101AB0008E2D16C08DE18C0F8230A0F4C33E71F4E0
:101AC00080910C0190E065E070E00E945C188F57F7
:101AD0009E4FDC0114968C91811137C080910B01CF
:101AE00065DB34C0C53C61F48091F80180930B0143
:101AF00080E0FADA60E070E080E794E151DD26C032
:101B0000C73B29F460E070E088E19EE01CC0CA3C5D
:101B1000A1F48091F80180931C0180910C018093C5
:101B20002101E3E2F1E08FE291E0219123878E171A
:101B30009F07D9F779D922DB09C0CA3B31F460E0AD
:101B400070E080E29EE014DD01C0D1E08D2FDF91D6
:101B5000CF911F910F91FF90EF90DF90CF90BF90AA
:101B600008950F931F93CF938B01C42F883091F466
:101B700080910C018093C9011092C80180E0B4DA11
:101B80008091FA0181114FC08091C8018F5F8093CD
:101B9000C80133C0982F907F903B21F58091C801F8
:101BA0004817E8F081508C3040F49091ED01992372
:101BB00021F090910C018913C9DBC8016DE570E03B
:101BC0000E947918069749F48091C8018F5F80932D
:101BD000C801C81740F188E303C082E101C080E07A
:101BE00083DA21C0903E79F48091C8018823A1F066
:101BF000481790F08091C901A9DB60E070E088E7A8
:101C00009AE0B6DC10C08A3049F46091E00180911E
:101C1000C801F901099508D942DC05C0893019F4D9
:101C20008091C90193DB80E0CF911F910F910895BE
:101C300027EE35E043E095CF27EE35E044E091CF45
:101C40002AEB39E045E08DCF27E236E042E089CF4C
:101C500025EC36E042E085CF2EEC36E042E081CF45
:101C600029EE36E041E07DCF2CEE36E043E079CF3F
:101C700091E09093ED0122EF36E04CE072DF10929C
:101C8000ED010895CF93C0911901C11125C0813C88
:101C900029F460E070E080E490E106C0823C31F419
:101CA00060E070E08FE39BE07BDC17C0833C61F475
:101CB0008091220190E001966CE070E00E948D1806
:101CC00080932201B1D809C0873B31F460E070E015
:101CD00088E29EE04DDC01C0C1E08C2FCF910895D9
:101CE000CF92DF92EF92FF920F931F93CF93DF93E8
:101CF000E0910C01833CE1F400911F01109120015F
:101D00008E2F2CE0CCE0D0E090E00196BE010E9446
:101D10008D18A801082E02C0569547950A94E2F73F
:101D200040FF03C0E81319C016C0215069F7FACF6D
:101D3000F0E0E25FFE4FC589833B09F08CC061157E
:101D4000710529F481E08093C4011092C301809150
:101D5000C401811109C0C1E0A4C0F8DA80910C016E
:101D600080931E0161D89CC03091050113161CF4AC
:101D7000CF3F39F455C0332309F452C0CC2309F4C2
:101D80004FC020913B012223A9F0CB0168E170E014
:101D90000E947918892B09F083C0223008F44DC0C5
:101DA000622F70E0615071098EEF90E00E948D18F3
:101DB000862F01C081E0632F330F770B90E00E94E4
:101DC0005C187C01EC0EF11CF7FC39C08FEFE816B3
:101DD000F10409F0B4F5211102C0CE2D33C0C22E9A
:101DE000D12C81E0C81AD1088FEF90E0B6010E9493
:101DF0008D186695E62FF0E000E010E0C801B6010E
:101E00000E947918C62FC701861B9109E817F907A8
:101E1000CCF401501F4F802F8195821778F312C0A8
:101E20008091C201C8130EC08091C301811101C00D
:101E3000B3D981E08093C30105C0CFE703C0C0E000
:101E400001C0CFEFC093C201E0910C01F0E0E25F6E
:101E5000FE4FC58B14C0833EB1F41092C401C11172
:101E600002C081E005C0CF3F31F08091050181952E
:101E70008093050102C0C09305010E941407809160
:101E8000F80132D90DC0C0911901C11164CF893B4D
:101E900009F061CF60E070E088E39EE069DB01C09B
:101EA000C0E08C2FDF91CF911F910F91FF90EF90A9
:101EB000DF90CF9008950F931F93CF93DF93C82F98
:101EC0008B01873BC9F480E00FD981E08093EC015E
:101ED000C8018F739927892B09F09FC090914C01FD
:101EE000892F8F708F5F292F207F6BE00E946D18E4
:101EF000922B90934C0191C080798039B1F420915C
:101F00001001909111018C2F8F70813021F4822F5C
:101F1000921748F407C080911C01811104C0822FE0
:101F2000291708F4892FE0D80EC0803811F480E01A
:101F3000DBD8C83041F41092F10160E070E080918C
:101F40004C0155D976C0C13039F40931110508F476
:101F50007CC0C093F90161C0C330D1F48091F1011C
:101F60008F3F19F08F5F8093F10180911C018823CE
:101F700009F453C080911D0190E062EC71E00E9471
:101F80005C180817190708F448C00E94A10645C04C
:101F9000C33C31F4F3D860E070E080E490E114C019
:101FA000C43C21F460910B0170E00CC0C43B31F4DF
:101FB000F3D81092560261E070E004C0C53C31F4E1
:101FC00066E970E089E59BE0EBDA3FC0C33B79F45A
:101FD000C8016EE370E00E947918892B51F560E02A
:101FE00070E083ECDF91CF911F910F9179CEC73CC8
:101FF000C9F490914C01892F82958F708F5F837007
:102000008295807F9F70892B80934C0160E070E007
:10201000EED80E941407B2D818C0B80180914C01C4
:10202000E6D813C0C73E29F41092EC010E941407B1
:102030000CC0D0911901D1110AC0CA3B41F460E033
:1020400070E080E39EE094DA03C0D0E001C0D1E00C
:102050008D2FDF91CF911F910F91089590913C01A9
:10206000992369F08093E30188E08093E10181E0A6
:102070008093E2018091F8018093E401089534C8CF
:102080000F931F93CF938B018830A1F480E0E6DF9C
:102090008091E201082B1092F10180911E01809342
:1020A0000C011092EB01012B09F058C081E08093E4
:1020B000F90154C0813059F46931710508F44EC0FA
:1020C000C091E201C1114AC08093F90113C183306C
:1020D00031F58091F1018F3F19F08F5F8093F1010D
:1020E00080911C01882359F080911D0190E062ECE1
:1020F00071E0E2D70817190710F00E94A106B80195
:1021000080914B0174D880914E01882339F190E081
:1021100062EC71E0D1D78017910700F554C0813B84
:1021200099F481E090E00E94310698DF80911B01D4
:10213000811114C080910E01811103C00831110575
:1021400068F061E070E02AC0813ED9F3813841F443
:1021500080910B0190E00E94310680DFC0E0CAC090
:10216000813C21F460910B0170E018C0823B81F446
:102170001092F10180910F019091190191118091BC
:102180001A01811103C086E990E0E5CF86E9E5CF29
:10219000823E59F0823C29F466E970E089E59BE0D3
:1021A0000CC0833921F41092E20180E0D6CF833C49
:1021B00031F460E070E082E49EE0F2D9CFCF843C5D
:1021C00039F40E94BE0860E070E08BE59FE0F5CF37
:1021D0008D3B41F4F89488ED8FBD88E880BF7894FA
:1021E000A895FFCF8F3C29F460E070E083EC96E087
:1021F000E4CF8A3B89F4672B09F050C0C0911901E4
:10220000CC2329F00E94BE081092190144C060E05E
:1022100070E08CE19EE06BC0833B29F460E070E0ED
:1022200087EC92E1CACF873CB1F490914B01892FA2
:1022300082958F708F5F83708295807F9F70892BCE
:1022400080934B0160E070E00E94F7080E94140741
:102250000E94BE0883CF873BD1F481E08093EC01DC
:10226000CB018F739927892B61F490914B01892FB2
:102270008F708F5F292F207F6BE02FD7922B909349
:102280004B01B80180914B010E94F70867CF873E50
:1022900029F41092EC010E94140760CFC09119013B
:1022A000C11127C08A3C41F40E94BE0881E080939E
:1022B00019010E9414071EC0853C39F40E94BE0813
:1022C00060E070E080E794E108C0863C41F40E9441
:1022D000BE0860E070E08BEB94E162D90BC0893BF3
:1022E00041F4012B31F460E070E084E29EE040D9DB
:1022F00001C0C1E08C2FCF911F910F9108950F93D2
:102300001F93CF931092FC0180915402909155023B
:102310009C012F5F3F4F88279078822B932B9093BF
:102320005502809354029091FA012FB1822F80952B
:10233000881F8827881F8093FA01981729F1109227
:10234000F9018093FA0190915602892F27FD0AC066
:1023500080699F709F3009F08F5F8093560280E004
:1023600090E00CC08F7E95FD02C0806801C0806C3B
:102370008093560280915402909155020E94C602A9
:10238000109255021092540200915402109155027D
:102390008091F9018823B1F0B80183E00E947502B1
:1023A0000E948F020134110528F00F701127012BB4
:1023B00009F049C01092CC0181E0809323020E9471
:1023C000E90232C0C09156028C2F807F803B19F405
:1023D00060E070E001C0B80181E00E947502C4FFB6
:1023E00013C0C5FF02C0C8010CC008311105E0F0E0
:1023F0001092550210925402C062C093560280E0BF
:1024000090E00E94C60210C0CC2371F0C5FD0AC046
:102410000231110548F0C064C093560280E090E09C
:102420000E94C6020E94CA028091CC01811105C09F
:102430008FEE83B981E0809317028091CC018F5F8A
:102440008F718093CC01CF911F910F91089580914E
:10245000220281110E9436078091FC0181114FCF29
:102460000895EF92FF920F931F93CF93DF93EC01A8
:1024700000E317E08CECE82EFF24F3942097D9F0CA
:102480008091F201811119C08091F801883028F4FF
:1024900082E00E946F02C70104C080E00E946F02C8
:1024A000C8010197F1F780E00E946F02D0DF0E941F
:1024B0008F022197E3CF81E001C080E0DF91CF91CF
:1024C0001F910F91FF90EF9008950F931F93CF935B
:1024D000DF93C82F882311F006EA02C00CE0C1E0A8
:1024E000D0910C0110E0809122010E94A6098EE19A
:1024F0000E947408D0930C01C801B3DF80912201BF
:102500000E94A60980E00E947408D0930C018AEF13
:1025100090E0A7DFC15039F78D2F0E94A6098AE904
:1025200092E0DF91CF911F910F919BCFCF93DF93DB
:1025300064E6D3D5282F892F6AE0CFD5EC0122237A
:1025400041F0822FC2DF8C2FC0DF8D2FDF91CF9122
:10255000BCCFC111F8CFF9CFCF93DF93D82FC3E011
:1025600080910B010E94740888EC90E07ADFDD23F3
:1025700019F080E991E075DF80E00E94740888EC32
:1025800090E06FDFC15061F7DF91CF910895FF9226
:102590000F931F93CF93DF93D82F8B01C091E50149
:1025A00081E08093E701C43009F0E7C0F090EB01CF
:1025B0008D2F0E94D309FF2059F08091EB018111EA
:1025C00007C060E070E080E490E10E94D00AD5C0CE
:1025D000D83021F481E080930301D1C0D23C19F4BA
:1025E0001092EB01DFC0D13BC1F490910201012BAD
:1025F00049F4963610F08FEF03C0923018F481E062
:102600008093030180910301890F11F481E04AC195
:10261000873608F447C186E645C1D13E31F4809142
:10262000030181958093030111C1D23B61F481E0E4
:102630008093030180910201823008F40FC1815020
:10264000809302010BC1D13009F0B0C009321105ED
:1026500011F4D09303019091C101892F880F97FD48
:10266000809590E069E070E027D5292F8091C00126
:10267000682F660F87FD60958091010170E090E002
:102680001BD5290F8091BF01682F660F87FD6095CC
:102690008091000170E090E00FD5920F60910201EF
:1026A00070E0690F711D8091EB01813091F4809190
:1026B000E8019091E90125E0969587952A95E1F743
:1026C00024E730E0A901481B590BCA01F5D4B90130
:1026D00010D5862F0E94740800FD08C00E942A03AE
:1026E00081709091C101890F8093C1019091C001C7
:1026F0008091BE01890F8093C0010E942A0365E288
:10270000ECD48091BF01980F9093BF010E942A03DF
:102710008F7331F40E942A036DE0DFD49093BE01E1
:10272000C0910101CC2339F00E942A038F7319F460
:10273000C150C09301010E942A03811108C00E9468
:102740002A036EE0CAD4909301011092C001C09197
:102750000001C33038F00E942A038F7119F4C15070
:10276000C09300010E942A038F7709F0A7C00E943E
:102770002A03877080930001A1C0D83041F4809172
:102780003D018093E50181E0809304018DC0D13C3F
:1027900039F460E070E080E490E10E94D00A84C0E7
:1027A000D23C31F48C2F90E001961AC0D13C89F3D1
:1027B000D33C89F480910C0190E001966CE070E0CC
:1027C000ACD40E94A609EC2FF0E0E25FFE4F8091AE
:1027D0000C0180AB56C0D43C59F48C2F90E0059688
:1027E00066E070E09AD480933D018093E50149C092
:1027F000D13B51F5C23090F400FD56C0EC2FF0E013
:10280000E25FFE4F86A990910401891B883020F079
:102810008F3F99F58EEF31C088E02FC0C53009F0A9
:1028200043C09091460180910401890F823010F4D9
:1028300082E003C0893708F088E7809346018091E1
:1028400046010E94740830C0D13E31F480910401E9
:1028500081958093040115C0D23B89F481E0809377
:102860000401C23018F500FD1FC0EC2FF0E0E25F5C
:10287000FE4F86A98F3FC1F08F5F86AB15C0D23E59
:1028800019F40E94140710C0D53C41F460E070E0D8
:1028900080E794E10E94D00A80E0D3CFD13071F07C
:1028A00081E018C08093020180E014C0C530E1F7D8
:1028B00080914601833018F28150BFCF0932110553
:1028C00019F481E0809304018091F501080F0093D1
:1028D000F501EACFDF91CF911F910F91FF900895FD
:1028E0000F931F93CF93DF93D82F8B01883031F450
:1028F0008091E701882311F088E049DE8D2F8079EF
:10290000803961F481E08093E601C091E701C11153
:102910000CC080910B010E94740827C0803839F4E4
:102920001092E60180E00E947408C0E01EC0D13021
:10293000D9F4C091E601CC2359F08091E7018823B6
:10294000A1F3B80181E0DF91CF911F910F911FCECC
:1029500080E00E943F0380E00E9466080733114038
:1029600020F3D093F90101C0C1E08C2FDF91CF910A
:102970001F910F910895FF920F931F93CF93DF93B1
:10298000D82F8B01F0900B018079803951F5ED2F14
:10299000EF70E43020F01092E601C0E036C091E024
:1029A0009093E601F0E0E25BFE4F80812FEF280F6D
:1029B000263948F480930B011092E70180911E01A3
:1029C00080930C010CC09093E7018739D0F090E020
:1029D0008759910966E070E0A0D38093E501C0E0DB
:1029E0000BC0803841F41092E60180E00E94740828
:1029F00081E08093F201C1E08091E601882329F013
:102A000001C0C0E0B8018D2F6BDFF0920B01D83010
:102A100021F4B80188E04FDA28C0D13039F4809130
:102A2000E601811120C0B80181E004C0D33041F437
:102A3000B80183E0DF91CF911F910F91FF903BCAC6
:102A4000D63C49F40E94BE0860E070E080E490E16A
:102A50000E94D00A08C0D73B41F460E070E084E3F4
:102A60009EE00E94B80A80E001C08C2FDF91CF91D8
:102A70001F910F91FF9008951F920F920FB60F9222
:102A800011242F933F938F939F93AF93BF93EF9313
:102A9000FF93809121028823E9F0E091200220B188
:102AA00031B1F0E0EE0FFF1FDF01A45EBD4F2D93AB
:102AB0003C93E85EFD4F808191818217930708F473
:102AC00001962817390708F401979183808381E0E4
:102AD0008093220281E080932102FF91EF91BF91C8
:102AE000AF919F918F913F912F910F900FBE0F90BB
:102AF0001F9018951F920F920FB60F9211248F936B
:102B000081E08093FC018F910F900FBE0F901F907A
:102B100018951F920F920FB60F9211248F9381E098
:102B20008093FB018F910F900FBE0F901F9018950F
:102B3000F89485B7877F85BF88ED90E00FB6F8944D
:102B4000A8958FBD90B7977F90BF0FBE81E088B9E1
:102B500098E09CB99FE790BB92EA9093720091E154
:102B60009093710091E89BBB8ABB8FEF90E09093AC
:102B700069008093680080E882BB87BD8CB788605D
:102B80008CBFA89580E480BF0E94E902789481E020
:102B90000E94D40260E070E080EF9AE00E94B80AE0
:102BA0001092F2010E94BE089FB1892F8095881F64
:102BB0008827881F8093FA0197FF14C08EE091E068
:102BC0009093F4018093F301F89480E090E0B8D200
:102BD000853A09F046C00091F3011091F401C1E07B
:102BE000D0E036C0C0E08C2F0E94740883E190E0F2
:102BF00038DC8C2F86950E94740883E190E031DCEC
:102C00009FB1892F8095881F8827881F8093FA019C
:102C100097FD13C0CF5FC03431F765E181E00E94BA
:102C2000CE060E941407C6E98C2F0E94740884E027
:102C300090E017DCC150C1F7C1CFCC2309F4BECF5F
:102C40008C2F0E9474088DE090E00BDCC150F5CF12
:102C5000CE0176D2F80181938F012196C634D10539
:102C6000B9F7789480911C0181110E94A10660E05F
:102C700070E080E79EE00E94B80A61E070E080E4C6
:102C800090E10E94B80A43E4442E52E0552E60E4DD
:102C9000962E8824839477E0772ECC24C394D12C6D
:102CA000F5E06F2EA0E4AA2EA0E1BA2E0E948F02BA
:102CB0008091FF0190910002009751F06091FD0119
:102CC0007091FE010E94D00A109200021092FF0142
:102CD0008091F901882309F44EC080E00E947408B5
:102CE000A89540BE1F989FB1892F8095881F88277F
:102CF000881F8093FA0197FFF6CF0E94CA028CB713
:102D000088608CBF109222021092FC011092FB018D
:102D10008091F901882331F180912302882321F0E9
:102D200086B78F79806203C086B78F79806486BF4B
:102D300086B7806186BF889586B78F7E86BF809173
:102D4000FB0181111092F90180912202882321F068
:102D5000809217020E9436078091FC018823C1F2FD
:102D6000CEDAD6CF50920D018CB7877F8CBF0E94F0
:102D7000E902A89590BE6BDB1092F20180911202DD
:102D800090911302F6E0833C9F0719F5C0E7D0E06D
:102D9000FE0184918053803110F497DB11C010E064
:102DA000812F81708295880F807E0E94740880E157
:102DB00090E057DB1F5F193199F78AE992E051DB08
:102DC0008CE291E04EDB2196F0E0CE37DF0701F791
:102DD000F3C022E1873C920799F034E180379307F2
:102DE00029F0E4E18B3B9E0709F0CEC02091E7017A
:102DF000213009F0C9C02091E601222309F4C4C0A2
:102E0000C091E501EC2FF0E0E25FFE4F80A98093D6
:102E10000C01C230D1F030F0C330B9F1C53009F443
:102E200096C044CFD6A986E90E947408C11103C098
:102E300082E090E003C08D2F869590E012DB80E069
:102E40000E9474088D2F90E02AC1D0910B01C0E040
:102E5000C11102C080E003C0C53019F481E00E94B6
:102E6000A6098D2F0E94740881E290E0FADA80E0D2
:102E70000E94740882E490E0F4DACF5FCA3041F730
:102E800080911E0180930C0111CF0E942A038F7341
:102E9000E82EF12C0E942A03672D1FD1E60102C003
:102EA000CC0FDD1F9A95E2F70E942A03662D15D1FB
:102EB000960102C0220F331F9A95E2F7C20FD31F6B
:102EC0000E942A0390E0BE0128D1C80FD91FC7393C
:102ED000D10514F0C6E9D0E08C2F0E947408C70118
:102EE000C0DA8E0133E0159507953A95E1F70111A7
:102EF00001C001E010E0C701B4DAC01BD10BD7FF5D
:102F000002C0C0E0D0E08C2F0E9474080E942A0307
:102F1000837039F4C701A5DACE01959587950E9493
:102F20007408C230D1053CF70E942A036DE0D5D069
:102F3000E60102C0CC0FDD1F9A95E2F70E942A033A
:102F400090E0BE01D6D0C80FD91F80E0A5C0C091C7
:102F50004601CC0FC73908F0C6E9D4E08C2F0E9497
:102F6000740885E090E07DDA809146010E94740843
:102F700081E490E076DAD15089F780ED92E071DA61
:102F800080E00E94740892CE3EE082349307E9F418
:102F900088EE93E066DA8091160286958695C6DA09
:102FA000909116029370892F880F9695890FBEDA3B
:102FB00080911901882381F0B0920002A092FF0154
:102FC0001092FE011092FD0171CEEBE08F339E074F
:102FD00031F480911402AADA88EE93E060C0FBE03D
:102FE00086319F07B9F48091FA0181115FCE8091FB
:102FF0000B010E94740884E690E033DA80E00E94BE
:1030000074088091470190E068EE73E055D08456D3
:10301000910945C08E5D9A4049F480E09DDA81E0D7
:103020009BDA80E099DA80ED97E039C080913C012D
:103030008823B9F18091E201882399F12091F80168
:103040003091E30123130AC0822F0E94740810926A
:10305000E2018091E4018093F70128CE6091E101C3
:10306000231760F4832F821B38D0811101C081E0C7
:10307000820F0E9474088AE090E011C0862F90E0D1
:103080006EE170E019D06091E401631B70E045D0FF
:10309000EB0121968FEF820F0E947408CE01E1D9D7
:1030A00005CE86B78F7986BF86B7806186BF889543
:1030B00086B78F7E86BFFACD0024552704C0080E40
:1030C000591F880F991F009729F076956795B8F3D7
:1030D0007105B9F7802D952F0895991B79E004C0EB
:1030E000991F961708F0961B881F7A95C9F7809547
:1030F0000895AA1BBB1B51E107C0AA1FBB1FA6173F
:10310000B70710F0A61BB70B881F991F5A95A9F790
:1031100080959095BC01CD01089597FB072E16F47C
:10312000009406D077FD08D0E4DF07FC05D03EF41C
:10313000909581959F4F0895709561957F4F089563
:10314000E199FECF1FBA8EBBE09A99278DB30895FF
:10315000262FE199FECF1FBA8EBBE09A81500DB2A7
:10316000021639F01CBA2DBB0FB6F894E29AE19A18
:083170000FBE0895F894FFCF93
:10317800080E18010101010004780A410202000149
:103188000A0A0A7878780107050100000000021F82
:1031980000020200000080000000000000000000A3
:1031A8000000800000000000000000000104000092
:1031B8000000000029433202072D00183904007866
:1031C8001E992305040310011301160102010000D2
:1031D80000000000000100000000000000000100E5
:1031E80000740184028C0394049C05A406B007FFB4
:1031F800071E04580500310464050040046C0500EE
:1032080053047805018F04AF05019C03B103009FA7
:1032180003B10300A203B10300A503B10300A8038F
:0E322800B10300AB03B10300AE03B10300001D
:00000001FF
