:10000000F7C011C1F1CC0FC10EC10DC10CC10BC1A4
:100010009ECC09C108C107C1D8CC05C104C130318B
:1000200034312E302E63626663316131000000008E
:1000300000000000000000000000000000000000C0
:1000400000000000000000000000000000000000B0
:1000500000000000000000000000000000000000A0
:100060000000000000000000000000000000000090
:100070000000000000000000000000000000000080
:100080000000000000000000000000000000000070
:10009000000507090B0D0F121417191C1F22252824
:1000A0002C2F33363A3E42464B4F54595E63686EAE
:1000B00073797F868C939AA1A8B0B7BFC8D0D9E2D4
:1000C000EBF5FF0000000000000000000000000051
:1000D0000000000000000000000000000000000020
:1000E0000000000000000000000000000000000010
:1000F000000000000007080A0B0D0E101213151760
:100100001A1C1E212326292C2F33363A3E42464BF9
:100110004F545A5F656A70777E858C939BA4ACB50B
:10012000BEC8D2DDE8F3FFFFFFFFFFFFFFFFFFFFC9
:10013000FFFFFFFFFFFFFFFFFFFFFFFFFFFFFFFFCF
:10014000FFFFFFFFFFFFFFFFFFFFFFFFFFFFFFFFBF
:10015000FFFFFFFFFFFFFFFF000101020203040496
:1001600005060708090A0B0F10121416181A1C1E90
:100170002124272B2F33383D42484E555C636B7446
:100180007D87919CA8B4C2D0DEEEFFFFFFFFFFFF8A
:10019000FFFFFFFFFFFFFFFFFFFFFFFFFFFFFFFF6F
:1001A000FFFFFFFFFFFFFFFFFFFFFFFFFFFFFFFF5F
:1001B000FFFFFFFFFFFFFFFFFFFFFFFFFFFFFFFF4F
:1001C000FFFFFFFFFFFFFFFFFFFFFFFFFFFFFFFF3F
:1001D000FFFFFFFFFFFFFFFFFFFFFFFFFFFFFFFF2F
:1001E000FFFFFFFFFFFFFFFFFFFFFFFFFFFF00001D
:1001F00011241FBECFE5D2E0DEBFCDBF10E0A0E6E8
:10020000B0E0ECE5FFE102C005900D92AC38B1071B
:10021000D9F721E0ACE8B0E001C01D92AC31B207E3
:10022000E1F7F1DB99CEECCE482F9B01E9EEF0E04F
:1002300080E090E05081552331F001963396803173
:100240009105C1F709C063E070E028DEFC01E751C9
:10025000FF4F40833283218308950F931F93CF93E1
:10026000DF93D091E900DD2351F10091EA00109174
:10027000EB00C091C600C150C7FD0DC0EC2FEE0FC2
:10028000FF0BE953FF4F0190F081E02DB8018D2F56
:1002900009958111F0CFE9EEF0E0838180838481BC
:1002A000958192838183339681E0E631F807A9F73F
:1002B000109216011092180110921701D2CFDF91FF
:1002C000CF911F910F910895BC0180911B01ACCF7C
:1002D00010921B0110921A011092190181E0809373
:1002E000B800089590E822E048EA57E030E08150F5
:1002F00070F00FB6F89496BD26BD0FBEFA01319787
:10030000F1F70FB6F89496BD36BD0FBEF0CF089545
:100310008CE287B91092E5001092E6008FEE86B964
:10032000089586B383FB882780F991E0892780931D
:10033000BF000895E0916600F09167003196FB7070
:10034000F460F0936700E09366008091BB008B5AE5
:100350008093BB00E4918091BB008E0F0895CF93F2
:10036000C82F811104C019BC18BC1BBC03C08FEF7F
:100370008C0F15D0C093BD00C093BC00C63010F4E4
:1003800092E005C0CF3010F491E001C090E080E829
:100390000FB6F89486BD96BD0FBECF91089590E03C
:1003A000FC01E75AFE4F3491FC01ED53FF4F2491BD
:1003B000FC01E35DFF4F849139BD28BD8BBD0895DD
:1003C00090E0FC01E75AFE4F3491FC01ED53FF4FE2
:1003D0002491FC01E35DFF4F949189B5811102C026
:1003E0003F3F29F089B58F3F21F4311102C039BD5B
:1003F0000CC089B5831718F489B58F5F05C089B51E
:10040000381718F489B5815089BD88B5811102C0AB
:100410002F3F29F088B58F3F21F4211102C028BD5C
:100420000CC088B5821718F488B58F5F05C088B5F1
:10043000281718F488B5815088BD8BB5891718F432
:100440008BB58F5F05C08BB5981718F48BB58150AD
:100450008BBD89B5381306C088B5281303C02BB5EA
:1004600081E0921380E00895CF93DF9300D000D015
:1004700000D0CDB7DEB790916C002091D7003091BD
:10048000D800295C384009F492E0843019F4609374
:10049000780021C06623F9F0823019F427E9261B81
:1004A000622F26E0E6E8F0E0DE01119601900D9261
:1004B0002A95E1F7E82FF0E03197EE0FFF1F21E0DA
:1004C00030E02C0F3D1FE20FF31F0190F081E02D73
:1004D000E90FF11D608326960FB6F894DEBF0FBEBC
:1004E000CDBFDF91CF910895BF92CF92DF92EF926F
:1004F000FF920F931F93CF93DF93EC0140916C0019
:1005000090917700992311F0E2E001C0E42FF0E030
:10051000E459FF4F22812093690085818093680010
:10052000E92FF0E0E459FF4F3185622F70E044235A
:1005300049F0313039F49B01280F311DC9019595DF
:10054000879536C0C617D70794F1682F70E06C17EF
:100550007D0774F1411102C08C2F2AC0821B032F2A
:1005600010E001501109E82EF12CC701B801C7DCD9
:100570006093B5006695E62FF0E0822FC12CD12C58
:10058000B12CB316A9F0C601B801A5DC822F860FE5
:10059000CE0CDF1CAE01481B510957FF03C051951B
:1005A00041955109E417F5071CF4B394EACF822F63
:1005B000DF91CF911F910F91FF90EF90DF90CF903F
:1005C000BF9008958091B300882351F09091BD00B1
:1005D0009093B4008093B2001092B1001092B000DA
:1005E0000895CF93C091BD0089E18C0F873908F041
:1005F00080E0B5DE82E076DE8C2FCF91B0CECF9357
:10060000C091BD0080E0ABDE83E06CDE8C2FCF912B
:10061000A6CE6111609382000895662389F081302F
:1006200061F48091D90090918400891B681B6093CC
:10063000840082E080936B0003C0635E609383005C
:1006400080918300873418F086E4809383000895B6
:1006500060938500089581E008958093B60090919D
:10066000BD00981718F4282F291B02C0292F281B1A
:100670003091AA00311106C030917C00332369F01B
:10068000223058F08093AB0084E08093A90081E091
:100690008093AA009093AC00089561CECF93DF932E
:1006A0008CE690E09093BA008093B900F894C0E093
:1006B000D0E0E091B900F091BA00EC0FFD1F60812D
:1006C0002196CE0137DCCA31D10599F765EA80E081
:1006D00090E030DC7894DF91CF9108951092E7009C
:1006E00084B195B12091BB008295869586958370E3
:1006F000990F990F890F820F8093BB008091DC00C6
:10070000882309F4FDC01092DC008091E50081117E
:100710003DC080916B00882349F06091E1007091A9
:10072000E2007093DE006093DD0004C06091DD00A4
:100730007091DE0020918200220F245096E0769581
:1007400067959A95E1F780E090EBC5DB260F209343
:10075000DB008091A700882311F0815007C0243767
:1007600038F460E070E084E05FDD85E08093A7000E
:100770008091BE008111BBC08FEA87B981E0809370
:10078000E5001092E6008FEE86B9B1C0813009F025
:10079000AEC080916B00882341F08091E30090917E
:1007A000E4009093E0008093DF008091DF0090915F
:1007B000E000A0918400AC01F6E056954795FA95CB
:1007C000E1F70A2E000CBB0B4A0F5B1F435151404F
:1007D0005093DA004093D9009C0185E03695279527
:1007E0008A95E1F780916B00811127C08091960076
:1007F000E82FF0E0EE0FFF1FE956FF4F40815181D7
:10080000B901641B750B318320838F5F87708093E0
:100810009600CB01880F991F880F991F4091830084
:1008200050E04D5E5E4F4A1B5B0B440F551F841B0F
:10083000950B820F931F23E00EC0E7E9F0E02193B0
:10084000319380E0E73AF807D1F7D0CF009709F06D
:100850000196215029F018161906C4F70197F9CF0F
:1008600018161906E4F477FD39C020919500121688
:100870000CF1880F991FBC016350710977FF02C00A
:100880006F5F7F4F759567951616170614F061E038
:1008900070E088E1861B8093950085E026C08C3F40
:1008A0002FEF9207DCF477FF19C02091950027FF06
:1008B00005C02450281B2093950018C024EE281B47
:1008C000209395002091DB00263780F06CEF7FEFBE
:1008D000681B790B7595679586E007C08091DB00F2
:1008E000853720F060E070E087E09EDC11DD8091CC
:1008F0006B00882329F080916B00815080936B00FE
:100900000895813019F410927A000895823019F414
:1009100060937B000895833019F460937900089503
:10092000843019F460936D000895853011F460935C
:100930007C000895883039F41092B3001092B10011
:100940001092B00043C0813B79F48091B300815094
:100950008330F0F583E08093B3008093B20010926F
:10096000B1001092B00034C0853BA9F4CB016EE316
:1009700070E0B1DA892B51F58091B3008A3F30F5F0
:100980008B5F8093B3008093B2001092B1001092FD
:10099000B00027DE1BC08130D9F48091B000909167
:1009A000B100019688382EE0920728F49093B100A8
:1009B0008093B0000BC01092B1001092B0008091F3
:1009C000B300882319F081508093B30080E008952C
:1009D00081E00895FF920F931F93CF93DF938C01D3
:1009E000EB01F42E8091D7009091D800892B31F043
:1009F000E091D700F091D80089E009951093D800D4
:100A00000093D700012B39F0E091D700F091D80086
:100A1000BE018F2D099581E08093B800DF91CF91C1
:100A20001F910F91FF900895CF93DF93E091C6003F
:100A3000EE2359F0E150E093C600F0E0EE0FFF1F07
:100A4000E953FF4FC081D18102C0C0E0D0E0E09106
:100A5000C600EE2341F0F0E0EE0FFF1FEB53FF4F17
:100A60008081918102C080E090E04AE060E070E027
:100A7000B1DFCE01DF91CF910895883029F4109233
:100A8000A8001092900015C0813001F5909190005F
:100A9000911107C06032710570F18093900018DCED
:100AA0002AC0913089F46B3B710528F082E0809375
:100AB000900080E01FC061157105E9F06270862F1B
:100AC000880F880F8E5E16C0AFDF15C0813811F019
:100AD000813E89F491E090939000813E21F48091D1
:100AE000A800865F03C08091A8008F5F8093A80054
:100AF000EFDB8BE434DC80E008959C019091C6002C
:100B0000983088F4E92FF0E0EE0FFF1FE953FF4F14
:100B1000318320839F5F9093C60048E0C9015ADF6C
:100B20008091C60008958FEF08950F931F93CF9380
:100B3000DF93EC018B0178DFB801CE01DF91CF911B
:100B40001F910F91DACF843011F58091D7009091E9
:100B5000D8002AE08D3D920729F469E170E08EE823
:100B600096E013C08E58964061F49091BD0092308B
:100B700040F0892F869596959695890F6EDD80E0D9
:100B8000089560E070E081EF98E0CFDFF8CF81E07A
:100B90000895813C29F460E070E081EF98E006C0A0
:100BA000823C31F460E070E080EF95E0BEDF14C07D
:100BB000813B41F4CB016EE370E08DD9892B61F468
:100BC00010DD0AC0813E51F4CB016EE370E083D9A1
:100BD0006F5F6093810062DD80E0089581E0089599
:100BE000CF93C0917700C11117C0813C29F460E018
:100BF00070E081EF98E006C0823C31F460E070E084
:100C000080E196E092DF09C0873B31F460E070E05C
:100C100081ED98E072DF01C0C1E08C2FCF91089583
:100C2000813C29F460E070E081EF98E006C0823CEE
:100C300031F460E070E089EC95E077DF07C0873B36
:100C400039F460E070E085ED98E057DF80E00895CA
:100C500081E008950F931F93CF93DF93D82F8B01DB
:100C600080798039B1F420916E0090916F008D2FC2
:100C70008F70813021F4822F921748F407C0809141
:100C80007A00811104C0822F291708F4892F67DBAD
:100C900012C0803819F480E062DB05C0D83019F446
:100CA0001092B70026C0D13031F40931110568F136
:100CB000D093BE002AC0D33C31F493DC60E070E0F6
:100CC00081EF98E014C0D43C21F460916A0070E098
:100CD0000CC0D43B31F493DC10921B0161E070E056
:100CE00004C0D53C31F466E970E08EE896E01DDF83
:100CF0000CC0C0917700C1110AC0DA3B41F460E03A
:100D000070E089ED98E0F9DE03C0C0E001C0C1E009
:100D10008C2FDF91CF911F910F910895BF92CF92A9
:100D2000DF92EF92FF920F931F93CF93DF93182FD1
:100D3000EB01D0906900F090680080916C008823EE
:100D400019F0B090B50002C0BB24B394C0906D0000
:100D5000809177008111C0907800CC2051F081E023
:100D6000C81621F080916A008F1518F0F6E9EF2E71
:100D700001C0EF2C0091B300BE01812FDBDD80911B
:100D8000B300882339F001110CC09091BD009093FD
:100D9000B40007C0002329F060E070E081EF98E024
:100DA00036C0912F9D7F9830D9F41092AF001A3041
:100DB00019F4C0916A00D0E08D2D90E08C179D074A
:100DC00038F48F2D90E0C817D90710F4C0936A004B
:100DD000CE018ADB42DC81E08093650000E086C1C1
:100DE000113CD1F2123C59F48091BD008E1510F4E3
:100DF0008E2D02C080916A0030DCE4DBEFCF143C22
:100E000041F480E0ACDA60E070E08AE296E08DDEEA
:100E1000E5CF9FE4910F923008F058C080916C00AC
:100E2000882339F0CE0168E170E055D8892B31F084
:100E3000D5CF6091740070E0CE01F7CF0091AA0089
:100E40000111CCCF2091BD00209761F4123B11F429
:100E50008FEF05C02F15E0F7D216F8F081E08093F0
:100E600065001BC0E0917400F0E0CF0166E371E023
:100E700015D88C179D0710F42F1550F7CF016CE68D
:100E800072E00CD88C179D0740F4D21630F0A9DB25
:100E900060E070E08AE296E048DEC091BD0080919B
:100EA00065006B2D70E0082E000C990BF7D78C0FA6
:100EB000911D1ADB80936A00C81719F0F81201C05F
:100EC0009EDB80916A00C9DB7DDB10C19FE1910F41
:100ED000923020F48091650081957ECF113009F029
:100EE00078C0A99711F410936500882349F1009107
:100EF000B40010E090E0B801D1D7EC01E091B2006D
:100F0000F0E0BF01FCD7262FCE01801B910BBF0163
:100F1000F6D7322F361B8091B0009091B1006EE36E
:100F200070E0D9D7832F90E0B9D76CE370E0D3D7C6
:100F3000261B622F09F461E06093BC006093B60049
:100F4000D091BC008091BD002D2F30E0281B3109CD
:100F500060919200709193006F5F7F4F7093930048
:100F6000609392002115310509F438CF37FF05C091
:100F70008E3730F040E450E005C040E052E002C05F
:100F800040E051E05695479537FF02C02F5F3F4F35
:100F90003595279521153105A9F74617570708F00C
:100FA0001DCFD81710F4CFEF03C08D1718F4C1E090
:100FB000C80F01C0CD2F8FEF8C0F02DA882321F0EC
:100FC0008C2FCDD9D093BC00109293001092920038
:100FD00005CF1530A1F48091BD00833308F4FECE17
:100FE00090E08C1B9D0B8233910534F0873991057D
:100FF00064F186E990E029C082E390E026C01630D3
:10100000B1F49091BD008091B600981708F0E6CE3B
:10101000C90FD11D90E08C179D0734F0C233D10564
:1010200024F4C2E3D0E001C0EC018C2F0EC01730D5
:1010300079F49091BC008091BD00891710F48F5F06
:1010400004C0981708F0CACE81508093BC00C6CE69
:10105000133C81F481E090916C00911180E08093C9
:101060006C001CDBCCDA8091BD0090E03DDA80930F
:101070006A00C2CE00917700011137C0133B49F4DA
:10108000CD2B09F0ABCECC2011F086E9E82E8E2DC9
:1010900004C0133E21F480916A00DFDA27C0153CBA
:1010A00061F48091BD0080936A0080E058D960E0CF
:1010B00070E084E69CE039DD19C0173B29F460E05C
:1010C00070E085EC98E00FC01A3C39F48091BD00C7
:1010D00080937A00E3DA85DA09C01A3B31F460E0E4
:1010E00070E08DEC98E009DD01C001E0802FDF9118
:1010F000CF911F910F91FF90EF90DF90CF90BF9015
:101100000895883071F41092910080E028D9809180
:10111000BF00811138C0809191008F5F8093910052
:1011200022C0982F907F903BB1F4209191004217FC
:1011300078F0CB016DE570E0CED6069739F42F5FDD
:10114000209391004217F8F088E303C082E101C0C8
:1011500080E005D918C0903E61F480919100882309
:1011600089F0481778F060E070E08DE395E0C5DC29
:101170000AC08A3041F46091A80080919100F90181
:1011800009958CDA51DC80E0089524E332E043E0F5
:10119000B8CF24E332E044E0B4CF21E834E045E0C6
:1011A000B0CF29E033E041E0ACCF2DE033E042E0C6
:1011B000A8CF28E233E041E0A4CF81E008959091E8
:1011C0007C00992369F08093AB0088E08093A900AC
:1011D00081E08093AA008091BD008093AC000895C7
:1011E000BEC8CF93DF93EB01883081F480E0E7DF66
:1011F0008091AA00C82B1092B7001092B300CD2B9B
:1012000009F051C081E08093BE004DC0813059F497
:101210006931710508F447C0C091AA00C11143C0EB
:101220008093BE00B8C0833011F58091B7008F3F26
:1012300019F08F5F8093B70020917A00222359F034
:1012400080917B0090E062EC71E028D6C817D90746
:1012500010F020936A0080918500882321F190E0AE
:1012600062EC71E01BD68C179D07E8F450C0813BFF
:1012700089F481E090E038D9A2DF80917900811172
:1012800012C080916C00811102C0689760F061E02B
:1012900070E029C0813ED9F3813839F480916A0029
:1012A00090E022D98CDFC0E076C0813C21F46091CF
:1012B0006A0070E018C0823B81F41092B700809100
:1012C0006D0090917700911180917800811103C099
:1012D00086E990E0E6CF86E9E5CF823E59F0823C90
:1012E00029F466E970E08EE896E00CC0833921F4B9
:1012F0001092AA0080E0D6CF833C31F460E070E029
:1013000080EF95E012DCCFCF843C31F46AD960E005
:1013100070E08AE296E0F6CF8D3B31F4F89488EDE8
:1013200081BD7894A895FFCF8F3C29F460E070E0F0
:101330008DED98E0E7CF8A3B89F4CD2BB1F4C091D5
:101340007700CC2329F04DD910927700A7D9ABCFE5
:1013500060E070E089EC98E0D0DB1DC0833B29F4AD
:1013600060E070E08DED9AE0CDCFC0917700C111C3
:1013700011C08A3C31F435D981E0809377008ED951
:101380000AC0853C39F42DD960E070E084E69CE029
:10139000CCDB01C0C1E08C2FDF91CF9108950F937A
:1013A0001F93CF931092C1008091190190911A015F
:1013B0009C012F5F3F4F88279078822B932B90932F
:1013C0001A0180931901C091BF00ABD7C81729F14A
:1013D0001092BE008093BF0090911B01882359F0AA
:1013E000892F80699F709F3009F08F5F80931B0168
:1013F00080E090E00DC0892F8F7E95FD02C080684F
:1014000001C0806C80931B018091190190911A0199
:101410005BD710921A0110921901009119011091D5
:101420001A018091BE00882339F0B80183E0FCD610
:10143000CF911F910F9111C7C0911B018C2F807FFD
:10144000803B19F460E070E001C0B80181E0ECD6A7
:10145000C4FF12C0C5FF02C0C8010CC0083111058D
:10146000C8F010921A0110921901C062C0931B01BA
:1014700080E090E029D70EC0CC2361F0C5FD09C003
:101480000231110538F0C064C0931B0180E090E088
:101490001BD71ED780919400811105C08FEE86B9AD
:1014A00081E08093DC00809194008F5F8F71809346
:1014B0009400CF911F910F9108958091E7008111C1
:1014C0000DD98091C10081116ACF0895CF92DF922A
:1014D000EF92FF920F931F93CF93DF93EC0110E8ED
:1014E00000E080E3E82E87E0F82E9CECC92EDD2496
:1014F000D394209709F18091B80081111FC0809189
:10150000BD00863040F482E00FB6F89416BD86BD6B
:101510000FBEC60106C00FB6F89416BD06BD0FBEBD
:10152000C7010197F1F70FB6F89416BD06BD0FBEBF
:10153000C4DF93D62197DDCF81E001C080E0DF9149
:10154000CF911F910F91FF90EF90DF90CF90089572
:10155000CF93C82F882381F089E101D786EA90E0F4
:10156000B5DF80E0FCD68AEF90E0B0DFC150A1F794
:101570008AE992E0CF91AACF89E1F1D68AE090E0A2
:10158000A5DF80E0ECD68AEF90E0A0DFF1CFCF932B
:10159000DF9364E694D4282F892F6AE090D4EC017D
:1015A000222341F0822FD4DF8C2FD2DF8D2FDF91C9
:1015B000CF91CECFC111F8CFF9CFFF920F931F93E8
:1015C000CF93DF93D82F8B01C091AD0081E0809342
:1015D000AF00C33009F0DBC0F090B3008D2FAAD963
:1015E000FF2051F08091B300811106C060E070E0EF
:1015F00081EF98E09ADACBC0D83021F481E0809373
:101600006300C7C0D23C19F41092B300D4C0D13BE0
:10161000C1F490916200012B49F49E3610F08FEFD7
:1016200003C0923018F481E08093630080916300DE
:10163000890F11F481E029C18F3608F426C18EE6A6
:1016400024C1D13E31F48091630081958093630081
:10165000F2C0D23B61F481E080936300809162002C
:10166000823008F4F0C0815080936200ECC0D13029
:1016700009F0A5C00932110511F4D09363009091CF
:101680008F00892F880F97FD809590E067E070E0CC
:1016900005D4292F80918E00682F660F87FD6095F5
:1016A0008091610070E090E0F9D3290F80918D0066
:1016B000682F660F87FD60958091600070E090E074
:1016C000EDD3920F6091620070E0690F711D8091FF
:1016D000B300813091F48091B0009091B10025E089
:1016E000969587952A95E1F724E730E0A901481BF4
:1016F000590BCA01D3D3B901EED3862F30D600FDE2
:1017000007C018D6817090918F00890F80938F0049
:1017100090918E0080918C00890F80938E000AD664
:1017200065E2CDD380918D00980F90938D0002D605
:101730008F7329F4FFD56DE0C2D390938C00C091D4
:101740006100CC2331F0F6D58F7319F4C150C093EA
:101750006100F0D5811107C0EDD56BE0B0D3909357
:10176000610010928E00C0916000C33030F0E2D56D
:101770008F7119F4C150C0936000DCD58F7709F0E8
:1017800088C0D8D566E09BD39093600082C0D830E3
:1017900041F480917D008093AD0081E080936400EE
:1017A00076C0D13C31F460E070E081EF98E0BDD9C3
:1017B0006EC0D23C31F48C2F90E0019607C0D13C32
:1017C00091F3D43C59F48C2F90E0049665E070E0DE
:1017D00096D380937D008093AD0048C0D13B49F5FE
:1017E000C23090F400FD53C0EC2FF0E0E459FF4FFD
:1017F000828990916400891B883020F08F3F91F599
:101800008EEF30C088E02EC0C43009F040C0909107
:10181000800080916400890F823010F482E003C060
:10182000893708F088E7809380008091800097D501
:101830002EC0D13E31F48091640081958093640084
:1018400015C0D23B89F481E080936400C23068F512
:1018500000FD1DC0EC2FF0E0E459FF4F82898F3F5F
:10186000B1F08F5F828B13C0D23E11F417D70FC037
:10187000D53C39F460E070E084E69CE056D980E025
:10188000D6CFD13031F081E019C08093620080E082
:1018900015C00932110519F481E08093640080912C
:1018A000BB00080F0093BB00F2CFC43081F78091DA
:1018B0008000833008F4B9CF8150B5CFDF91CF914C
:1018C0001F910F91FF9008950F931F93CF93DF9374
:1018D000D82F8B01883031F48091AF00882311F02C
:1018E00088E06BDE8D2F8079803959F481E0809318
:1018F000AE00C091AF00C1110AC080916A002FD51F
:1019000020C0803831F41092AE0080E028D5C0E0CD
:1019100018C0D130A9F4C091AE00CC2359F0809109
:10192000AF008823A1F3B80181E0DF91CF911F912F
:101930000F9143CE0733114050F3D093BE0001C046
:10194000C1E08C2FDF91CF911F910F9108951F92CD
:101950000F920FB60F9211242F933F938F939F9363
:10196000AF93BF93EF93FF938091E6008823E9F054
:10197000E091E50024B135B1F0E0EE0FFF1FDF018B
:10198000AF51BF4F2D933C93E352FF4F8081918124
:101990008217930708F401962817390708F401976E
:1019A0009183808381E08093E70081E08093E6006B
:1019B000FF91EF91BF91AF919F918F913F912F91A7
:1019C0000F900FBE0F901F9018951F920F920FB699
:1019D0000F9211248F9381E08093C1008F910F901B
:1019E0000FBE0F901F9018951F920F920FB60F9277
:1019F00011248F9381E08093C0008F910F900FBED0
:101A00000F901F901895F89484B7877F84BF0FB606
:101A1000F894A89581B5886181BD11BC0FBE83E1A2
:101A200087BB81E083BF91EA9ABD80BF80E68CBD11
:101A30008FEF8DBD88E088BB85BB8BB780628BBF85
:101A4000A89581B5886181BD80E481BD61D4789419
:101A500081E048D460E070E083EA95E04ED81092CF
:101A6000B800BFD55ED4811113C08CE690E090938E
:101A7000BA008093B900F89480E090E053D2853AA0
:101A8000C1F50091B9001091BA00C1E0D0E028C0C2
:101A9000C0E08C2F64D483E190E018DD8C2F869514
:101AA0005ED483E190E012DD3CD4882381F0CF5FE7
:101AB000C03479F765E181E0B0D5F0D5C6E98C2F67
:101AC0004ED484E090E002DDC150C9F7CECFCC23E4
:101AD00061F28C2F44D48DE090E0F8DCC150F7CF58
:101AE000CE0120D2F80181938F012196CB31D1050F
:101AF000B9F7789480917A00811180936A0060E050
:101B000070E08BE293E0F9D761E070E081EF98E05C
:101B1000F4D743E4342E52E0452E60E4562E772469
:101B2000739477E0672ECC24C394D12CFCEF8F2ED6
:101B3000F3E09F2EA1EFAA2EA8E0BA2E8ED38091BB
:101B4000C4009091C500009749F06091C200709167
:101B5000C300EBD71092C5001092C4008091BE0064
:101B6000882309F44BC080E0FAD3A89581B5886139
:101B700081BD31BC3798D5D38111FDCFA9D38BB7A7
:101B800080628BBF1092E7001092C1001092C000DB
:101B90008091BE00882339F18091E800882321F0EC
:101BA00085B7877E886003C085B7877E806185BFE3
:101BB00085B7806285BF889585B78F7D85BF809109
:101BC000C00081111092BE008091E700882329F0A7
:101BD00070926B007092DC0081D58091C1008823E7
:101BE000B9F2DDDBD5CF40926B008BB78F7D8BBF19
:101BF0008FD3A89581B5886181BD51BC5EDC109200
:101C0000B8008091D7009091D800F8E08D3D9F07F3
:101C100011F5CEE1D0E0FE0184918053803110F4C3
:101C200097DC10C010E0812F81708295880F807E34
:101C300096D380E190E04ADC1F5F1931A1F78AE971
:101C400092E044DC8CE291E041DC2196F0E0CC3281
:101C5000DF0709F7B9C02AE08D3D920779F03CE033
:101C60008436930709F0A0C08091AF00813009F05D
:101C7000D6C08091AE00882309F4D1C0C091AD00D8
:101C8000C23001F120F0C43009F474C057CFEC2FFA
:101C9000F0E0E459FF4FD28984E661D3C11109C055
:101CA000DA3220F4C4010197F1F707C081E090E037
:101CB00003C08D2F869590E009DC80E050D38D2FF6
:101CC00090E0DFC037D38F73E82EF12C33D3662D2D
:101CD000F6D0E60102C0CC0FDD1F9A95E2F72AD3B9
:101CE00065E0EDD0F60102C0EE0FFF1F9A95E2F716
:101CF000CE0FDF1F1FD390E0BE0101D1C80FD91F47
:101D0000C739D10514F0C6E9D0E08C2F28D3C7011C
:101D1000DDDB8E0133E0159507953A95E1F701116A
:101D200001C001E010E0C701D1DBC01BD10BD7FF20
:101D300002C0C0E0D0E08C2F12D3FCD2837031F40B
:101D4000C701C4DBCE019595879509D3C230D10573
:101D500054F7F0D26DE0B3D0E60102C0CC0FDD1F26
:101D60009A95E2F7E7D290E0BE01B5D0C80FD91F2F
:101D700080E085C0C0918000CC0FC73908F0C6E96B
:101D8000D4E08C2FECD285E090E0A0DB8091800045
:101D9000E6D281E490E09ADBD15099F780ED92E0B1
:101DA00095DB80E0DCD2CACEF5E0803F9F07A9F446
:101DB00088EE93E08BDB8091DB0086958695E7DBF0
:101DC00080917700882381F0B092C500A092C40072
:101DD0001092C3001092C200B1CE26E0803192076B
:101DE00031F48091D900D3DB88EE93E04AC0895C5E
:101DF0009540A9F48091BF008111A0CE80916A0026
:101E0000AED284E690E062DB80E0A9D280918100CE
:101E100090E068EE73E042D08456910932C0809120
:101E20007C00882381F18091AA00882361F12091B0
:101E3000BD003091AB00231305C0822F90D21092C9
:101E4000AA007CCE6091A900231758F4832F821B2F
:101E500036D0811101C081E0820F81D28AE090E00A
:101E600010C0862F90E06EE170E018D06091AC0059
:101E7000631B70E044D0EB0121968FEF820F6FD28D
:101E8000CE0124DB5BCE85B7877E85BF85B78062B8
:101E900085BF889585B78F7D85BF50CE0024552797
:101EA00004C0080E591F880F991F009729F07695D6
:101EB0006795B8F37105B9F7802D952F0895991B93
:101EC00079E004C0991F961708F0961B881F7A9531
:101ED000C9F780950895AA1BBB1B51E107C0AA1F33
:101EE000BB1FA617B70710F0A61BB70B881F991FBB
:101EF0005A95A9F780959095BC01CD01089597FB5F
:101F0000072E16F4009406D077FD08D0E4DF07FC16
:101F100005D03EF4909581959F4F089570956195F9
:101F20007F4F0895E199FECF9FBB8EBBE09A992722
:101F30008DB30895262FE199FECF9FBB8EBBE09A0B
:101F400001970DB2021639F01CBA2DBB0FB6F894EA
:0C1F5000E29AE19A0FBE0895F894FFCFCA
:101F5C00060B180101010004750132020001011485
:101F6C001475756401070501000000000103294385
:0C1F7C003202072D00006E00710074009E
:00000001FF
