:1000000071C100008CC100008AC100000C94B310C3
:1000100086C1000084C1000082C100000C94A210BF
:100020007EC100007CC100007AC1000078C10000E0
:1000300076C1000074C1000072C1000070C10000F0
:100040006EC100006CC100006AC1000068C1000000
:100050000C94581064C1000062C1000060C100002F
:100060005EC100005CC100005AC1000058C1000020
:1000700056C1000054C1000052C100003036333276
:100080002E302E6362666331613100FF0F4D0B4DE0
:100090000FF60AB40C8F0A7C0A640A500A4209B8A7
:1000A0000B540B460AF509C6089108EE07A907612B
:1000B00007B4066A062106D90594050A05D00498F6
:1000C0000462042E04D003A4037A0351030B03E952
:1000D00002AD0290025D02430218020202DC01C975
:1000E00001A80197017B016C01540147013A012EDF
:1000F000012301180114010A0106010101FD00FD9F
:1001000000FF00FF00FF00FF00FF00FF00FF00FFF7
:1001100000FF00FF00FF00FF00FF00FF00FF00FFE7
:1001200000FF00FF00FF00FF00FF00FF00FF00FFD7
:1001300000FF00FF00FF00FF00FF00FF00FF00FFC7
:1001400000FF00FF00FF00FF00FF00FF00FF00FFB7
:1001500000FF00FF00FF00FF00FF00FF00FF00FFA7
:1001600000FF00FF00FF00FF00FF00FF00FF00FF97
:1001700000FF00FF00FF00FF00FF00FF00FF00FF87
:1001800000FF00FF00FF00FF00FF00FF00FF00FF77
:1001900000FF00FF00FF00FF00FF00FF00FF00FF67
:1001A00000FF00FF00FF00FF00FF00FF00FF00FF57
:1001B00000FF00FF00FF0000000000000000000042
:1001C000000000000000000000000000000000002F
:1001D000000000000000000000000000000000001F
:1001E000000000000000000000000000000000000F
:1001F00000000000000000000000000000000000FF
:1002000000000000000000000000000000000000EE
:10021000000002030507080A0C0E10121416181A23
:100220001D1F2225272A2D3033363A3D4144484CA4
:100230005054585D61666B70757A7F858B91979D80
:10024000A3AAB1B7BFC6CDD5DDE5EEF6FF01010229
:10025000020303040506060809090A0A0B0C0D0E21
:100260000F1011121313141516171718191A1A1B39
:100270001B1C1C1D1D1E1E1F1F202021212223248C
:10028000252628292B2D2F3235383C3F43474B4F0D
:1002900054595E63686E747A81888F969EA6AEB755
:1002A000C0CAD3DEE8F3FFFFFFFFFFFFFFFFFFFF42
:1002B000FFFFFFFFFFFFFFFFFFFFFFFFFFFFFFFF4E
:1002C000FFFFFFFFFFFFFFFFFFFFFFFFFFFFFFFF3E
:1002D000FFFFFFFFFFFFFFFFFFFFFFFFFFFFFFFF2E
:1002E000FFFF000011241FBECFEFCDBFDFE3DEBF55
:1002F00018E3A0E0B8E3EEE7F8E202C005900D9243
:10030000A433B107D9F728E3A4E3B8E301C01D92F1
:10031000A73CB207E1F70E94C3100C942E1470CED4
:10032000F89498ED94BF809361008091630080FD04
:10033000FCCF78940895E0E0F6E0828581608287C2
:100340008085816080870895E4E9F8E320E030E06B
:100350009081992339F02F5F3F4F3396203131053B
:10036000B9F70BC0F901EE0FFF1F2E0F3F1FF90168
:10037000EC56F74C80836183728308950F931F932B
:10038000CF93DF93D0919438DD2351F100919538CC
:1003900010919638C0917138C150C7FD0DC0EC2F37
:1003A000EE0FFF0BEE58F74C0190F081E02DB801F5
:1003B0008D2F09958111F0CFE4E9F8E383818083E3
:1003C0008481958181839283339688E3E13CF807A9
:1003D000A9F71092C1381092C2381092C338D2CF08
:1003E000DF91CF911F910F910895BC018091C63884
:1003F000ABCF1092C6381092C4381092C53881E045
:100400008093623808950F931F93CF93C82F0CECFD
:1004100018E0CC2349F085E083DFC8010197F1F7AC
:1004200081E07EDFC150F5CFCF911F910F910895EC
:10043000E0E0F6E083E88083838180628383A0EA42
:10044000B0E08C918F7880648C938DE1868382E01C
:10045000818383E5828310929038109291386BCF1C
:1004600082B185FB882780F991E0892780936A38DB
:100470000895E0910638F09107383196FB70F460EA
:10048000E0930638F0930738809165388B5A809353
:100490006538E491809165388E0F0895882349F07E
:1004A000813069F480E28093220488E080933504EF
:1004B000089580E28093210480932604089580E2C9
:1004C00080932104809325040895811182E0E6CF72
:1004D00081E00895CF93C82F8091693881110AC0B7
:1004E00091E0C11101C090E081E0C33308F480E0E5
:1004F000890FD4DFC1110DC010923A0A10923B0A45
:100500001092380A1092390A1092200A1092210A89
:100510000EC0E091683884E0E89FF0011124EA58A9
:10052000F7450190F081E02D8FEF8C0F0995C09376
:100530006738C0936638C53010F485E005C0CB300D
:1005400010F483E001C081E0CF91EACE90E0FC019D
:10055000E35BFD4FE4914E2F50E0FC01E954FE4F68
:10056000E4912E2F30E0FC01EE0FFF1FE557FF4F07
:100570008591949140933A0A50933B0A2093380A0C
:100580003093390A8093360A9093370A80916738FE
:10059000811104C01092200A1092210A089590E05F
:1005A000FC01E35BFD4FE4912E2F30E0FC01E954A8
:1005B000FE4FE491F0E080913A0A90913B0A892B3A
:1005C00019F42F3F310551F080913A0A90913B0A7E
:1005D0008F3F910541F42115310529F420933A0A02
:1005E00030933B0A1DC080913A0A90913B0A8217D2
:1005F000930730F480913A0A90913B0A01960CC01F
:1006000080913A0A90913B0A2817390748F4809163
:100610003A0A90913B0A019780933A0A90933B0AD9
:100620008091380A9091390A8E179F0730F4809193
:10063000380A9091390A01960CC08091380A90913D
:10064000390AE817F90748F48091380A9091390A75
:1006500001978093380A9093390A80913A0A9091D1
:100660003B0A2817390741F42091380A3091390A9A
:1006700081E0E217F30709F080E00895CF93DF935C
:10068000CDB7DEB72697CDBFDEBF90910C38209155
:100690008238309183382A553A4009F492E0843008
:1006A00019F4609318381FC06623E9F0823019F4FA
:1006B00027E9261B622F26E0E0E6F8EADE01119624
:1006C00001900D922A95E1F79E012F5F3F4F280F71
:1006D000311D280F311DF90132970190F081E02D75
:1006E000E90FF11D60832696CDBFDEBFDF91CF916C
:1006F0000895BF92CF92DF92EF92FF920F931F93D4
:10070000CF93DF93EC0140910C38909117389923E7
:1007100011F0E2E001C0E42FF0E0E45FF74C228149
:1007200020930938858180930838E92FF0E0E45F51
:10073000F74C3185622F70E0442349F0313039F4B1
:100740009B01280F311DC9019595879538C0C617A3
:10075000D707A4F1682F70E06C177D0784F1411171
:1007600002C08C2F2CC0821B032F10E001501109F6
:10077000E82EF12CC701B8010E94C51360935F38C1
:100780006695E62FF0E0822FC12CD12CB12CB31648
:10079000B1F0C601B8010E94B113822F860FCE0CB2
:1007A000DF1CAE01481B510957FF03C0519541950D
:1007B0005109E417F5071CF4B394E9CF822FDF91B8
:1007C000CF911F910F91FF90EF90DF90CF90BF904E
:1007D0000895ECE0F8E3868580930A388389808B5E
:1007E00080936838089580915C38882351F0909107
:1007F000673890935E3880935B3810925938109226
:100800005A380895CF93C091673889E18C0F8739A2
:1008100008F080E05FDE82E0F6DD8C2FCF915ACECB
:10082000CF93C091673880E055DE83E0ECDD8C2FFC
:10083000CF9150CE81E00895611160932C380895D6
:10084000662389F0813061F48091843890912E384C
:10085000891B681B60932E3882E080930B3803C09D
:10086000635E60932D3880912D38873418F086E4CC
:1008700080932D380895609330380895E82FF0E084
:10088000E45FF74C64A308957FEF780F40911D3823
:1008900050911E38662359F021E030E002C0220F4B
:1008A000331F7A95E2F7CA01822B932B0AC081E0AD
:1008B00090E002C0880F991F7A95E2F78095842313
:1008C000952380931D3890931E3808958093603847
:1008D00090916738981718F4282F291B02C0292FE8
:1008E000281B30915338311106C030912138332301
:1008F00069F0223058F08093543884E08093523865
:1009000081E080935338909355380895E3CDCF9389
:10091000DF938CE098E38093633890936438F89485
:10092000C0E0D0E0E0916338F0916438EC0FFD1F37
:1009300060812196CE010E941114C832D10591F731
:1009400065EA80E090E00E9411147894DF91CF91E5
:100950000895CF9310929238809110069091653847
:10096000890F8093653880918738882309F44CC1BA
:10097000109287389091903880916938882349F097
:10098000809100068E7F809300061092933810921B
:100990009038911166C080910B38882329F02091FE
:1009A0008C3830918D381AC0209169388091883800
:1009B000909189382223B9F020918C3830918D386C
:1009C00063E0369527956A95E1F7280F391F73E0A4
:1009D000969587957A95E1F7281B390B20938838EF
:1009E0003093893801C09C01C0912C38CC0FC45081
:1009F00054E0369527955A95E1F740E050E060E0E5
:100A000070EC83E090E00E94D813C20FC093863848
:100A100080915038882311F0815007C0C43738F4D2
:100A200060E070E084E090DC85E080935038809155
:100A300069388111E0C08091A0008F788061809337
:100A4000A0008EE18093060682E08093010683E495
:100A50008093020681E080939038109291386BDC8D
:100A6000CAC0913009F0C7C080910B38882341F08B
:100A700080918E3890918F3880938A3890938B38FC
:100A80002091201180912111A0918A38B0918B384A
:100A900030E48302A019B109112430E00E94FA1356
:100AA000DC01CB01905EAF4FBF4F892F9A2FAB2F48
:100AB000BB2720912E38FC0136E0F695E7953A9554
:100AC000E1F7022E000C330BA901435151404E0FA8
:100AD0005F1F4093843850938538BC0145E076957C
:100AE00067954A95E1F780910B3881112AC0809172
:100AF0003F38E82FF0E0EE0FFF1FE05CF74C40813D
:100B00005181DB01A41BB50BAD01608371838F5F45
:100B1000877080933F3880912D3890E08D5E9E4F96
:100B2000821B930B880F991F9B01281B390BC9014E
:100B30009D01220F331F220F331F820F931F23E0CB
:100B40000EC0E0E4F8E36193719388E3E035F807C1
:100B5000D1F7CDCF009709F00196215029F0181652
:100B60001906C4F70197F9CF18161906E4F457FDD2
:100B700039C020913E3812160CF1880F991FBC0124
:100B80006350710977FF02C06F5F7F4F759567955E
:100B90001616170614F061E070E088E1861B80935A
:100BA0003E3885E026C08C3FAFEF9A07DCF457FF54
:100BB00019C020913E3827FF05C02450281B2093E0
:100BC0003E3818C024EE281B20933E3820918638EA
:100BD000263780F06CEF7FEF681B790B7595679572
:100BE00086E007C080918638853720F060E070E0AD
:100BF00087E0AADB1DDC80910B38882329F08091E7
:100C00000B38815080930B38CF910895CF93DF93A9
:100C100090916838981759F0C82FD091673880E0C4
:100C200059DCC09368388D2FDF91CF9153CCDF9181
:100C3000CF910895813019F410921A3808958230B6
:100C400019F460931B380895833019F460931938B0
:100C50000895843019F460930D380895853011F4A7
:100C600060932138089590918638943710F480E08D
:100C700011C0943828F466956170635086230AC0C9
:100C8000982F9F70933030F06F70E62FF0E0EA59A4
:100C9000F745808103CC883039F410925C3810928B
:100CA000593810925A3845C0813B81F480915C38A4
:100CB0008150833008F03FC083E080935C3880939C
:100CC0005B381092593810925A3835C0853BB1F4D0
:100CD000CB016EE370E00E94B113892B51F5809136
:100CE0005C388A3F30F58B5F80935C3880935B384B
:100CF0001092593810925A3885DD1BC08130D9F4D2
:100D00008091593890915A38019688382EE0920790
:100D100028F48093593890935A380BC01092593860
:100D200010925A3880915C38882319F08150809352
:100D30005C3880E0089581E00895FF920F931F933F
:100D4000CF93DF938C01EB01F42E80918238909148
:100D50008338892B31F0E0918238F091833889E033
:100D600009950093823810938338012B39F0E09174
:100D70008238F0918338BE018F2D099581E08093F0
:100D80006238DF91CF911F910F91FF900895CF931B
:100D9000DF93E0917138EE2359F0E150E093713820
:100DA000F0E0EE0FFF1FEE58F74CC081D18102C07A
:100DB000C0E0D0E0E0917138EE2341F0F0E0EE0FBA
:100DC000FF1FE059F74C8081918102C080E090E0E4
:100DD0004AE060E070E0B1DFCE01DF91CF9108958D
:100DE000883029F4109251381092383815C081306B
:100DF00001F590913838911107C06032710570F19A
:100E000080933838F6DA2AC0913089F46B3B71054B
:100E100028F082E08093383880E01FC061157105AA
:100E2000E9F06270862F880F880F8E5E16C0AFDFE4
:100E300015C0813811F0813E89F491E090933838E3
:100E4000813E21F480915138865F03C080915138F2
:100E50008F5F80935138CDDA8BE43CDB80E00895DE
:100E60009C0190917138983088F4E92FF0E0EE0FF2
:100E7000FF1FEE58F74C208331839F5F90937138AA
:100E800048E0C9015ADF8091713808958FEF0895C5
:100E90000F931F93CF93DF93EC018B0178DFB801A1
:100EA000CE01DF91CF911F910F91DACF813C29F4D0
:100EB00060E070E08DE99BE006C0823C39F460E0C0
:100EC00070E08CE79AE0E4DF80E0089581E0089527
:100ED000843011F580918238909183382DE0863EE0
:100EE000920729F469E170E081ED97E013C0815D1C
:100EF000974061F490916738923040F0892F869541
:100F000096959695890FE2DC80E0089560E070E0A8
:100F10008DE99BE0BDDFF8CF81E00895813C29F4A5
:100F200060E070E08DE99BE006C0823C31F460E057
:100F300070E086E597E0ACDF16C0813B49F4CB0159
:100F40006EE370E00E94B113892B69F45BDC0BC087
:100F5000813E59F4CB016EE370E00E94B1136F5FE4
:100F600060932B38D4DC80E0089581E00895813CC3
:100F700029F460E070E08DE99BE006C0823C31F42A
:100F800060E070E08EE897E083DF07C0873B39F4CC
:100F900060E070E086E69AE063DF80E0089581E03B
:100FA0000895BF92CF92DF92EF92FF920F931F931B
:100FB000CF93DF93182FEB0180911C388093683812
:100FC000D0900938F090083880910C38882319F0B7
:100FD000B0905F3802C0BB24B394C0900D388091AC
:100FE00017388111C0901838CC2051F031E0C31669
:100FF00021F080910A388F1518F0F6E9EF2E01C024
:10100000EF2C00915C38BE01812F45DE20915C38C9
:10101000222339F001110CC08091673880935E382B
:1010200007C0002329F060E070E08DE99BE036C046
:10103000812F8D7F8830D9F4109258381A3019F4E6
:10104000C0910A38D0E08D2D90E08C179D0738F4C0
:101050008F2D90E0C817D90710F4C0930A38CE013D
:1010600048DB34DC81E08093053800E0ADC1113C01
:10107000D1F2123C59F4809167388E1510F48E2D00
:1010800002C080910A3822DCAEDBEFCF143C41F481
:1010900080E020DA60E070E080EE9AE0F9DEE5CFF3
:1010A0008FE4810F823008F061C080910C38882372
:1010B00041F0CE0168E170E00E94B113892B31F05C
:1010C000D4CF6091143870E0CE01F6CF0091533840
:1010D0000111CBCF80916738209761F4123B11F456
:1010E0008FEF05C08F15E0F7D81648F181E08093A7
:1010F000053825C02091143830E066E371E0269F62
:10110000A001279F500D369F500D11244C175D07ED
:1011100010F48F1528F76CE672E0269FA001279F38
:10112000500D369F500D11244C175D0740F4D81612
:1011300030F068DB60E070E080EE9AE0A9DEC091FC
:101140006738209105383B2D2303C00111248C0FF3
:10115000911DCFDA80930A38C81719F0F81201C030
:101160005FDB80910A38B2DB3EDB2EC18FE1810F5D
:10117000823020F480910538819575CF113009F0C7
:1011800084C0A99711F410930538222371F1C091FE
:101190005E38C29F90011124E0915B38F0E0C901F4
:1011A000BF010E94C513462FC9018C1B9109BF01C5
:1011B0000E94C513242F261B8091593890915A38CC
:1011C0006EE370E00E94B113269FC001279F900D2F
:1011D00011246CE370E00E94B113461B642F09F4E4
:1011E00061E06093663860936038C0916638209102
:1011F00067388C2F90E0821B910960913B38709189
:101200003C386F5F7F4F60933B3870933C3800975A
:1012100009F42BCF97FF05C0233830F040E450E0AD
:1012200005C040E052E002C040E051E056954795CD
:1012300097FD0196959587950097C1F74617570733
:1012400008F013CFC21710F4CFEF03C02C1710F41F
:10125000C1E0C20FE091683884E0E89FF0011124FA
:10126000EA58F7450280F381E02D8FEF8C0F099546
:10127000882331F0D09166388C2F2CD9D0936638E2
:1012800010923B3810923C38F0CE1530A1F480918A
:1012900067388D3308F4E9CE90E08C1B9D0B8C33BE
:1012A000910534F0873991056CF186E990E02AC008
:1012B0008CE390E027C01630B9F4909167388091A4
:1012C0006038981708F0D1CEC90FD11D90E08C1767
:1012D0009D0734F0CC33D10524F4CCE3D0E001C039
:1012E000EC01C0936638C1CE173079F4909166381E
:1012F00080916738891710F48F5F04C0981708F041
:10130000B4CE815080936638B0CE133C19F0163CB1
:10131000D9F40AC080911D3881FB992790F981701A
:10132000890F823009F44FC081E090910C389111FF
:1013300080E080930C38EBDA73DA8091673890E0C4
:10134000D8D980930A389FCE0091173801113BC03D
:10135000133B49F4CD2B09F088CECC2011F086E95F
:10136000E82E8E2D04C0133E21F480910A38AEDAA7
:101370002BC0153C61F48091673880930A3880E077
:10138000A9D860E070E08FE89FE082DD1DC0173BC8
:1013900029F460E070E086E59AE013C01A3C59F445
:1013A0008091673880931A388091683880931F380D
:1013B000AEDA28DA09C01A3B31F460E070E08EE55D
:1013C0009AE04EDD01C001E0802FDF91CF911F91A7
:1013D0000F91FF90EF90DF90CF90BF9008950F9303
:1013E0001F93CF938B01C42F883091F4809168387C
:1013F00080933A381092393880E06CD880916A38FE
:1014000081114FC0809139388F5F8093393833C054
:10141000982F907F903B21F5809139384817E8F05C
:101420008150823040F490915D38992321F0909161
:1014300068388913EBDBC8016DE570E00E94B113D9
:10144000069749F4809139388F5F80933938C817EF
:1014500040F188E303C082E101C080E03BD821C0B5
:10146000903E79F4809139388823A1F0481790F0A4
:1014700080913A38CBDB60E070E080EF96E0F0DC02
:1014800010C08A3049F46091513880913938F9019F
:1014900009953DDA7CDC05C0893019F480913A3831
:1014A000B5DB80E0CF911F910F9108952EE333E0DB
:1014B00043E095CF2EE333E044E091CF2AE136E0DC
:1014C00045E08DCF2CE134E041E089CF20E234E0EB
:1014D00042E085CF2BE334E041E081CF2EE334E0DE
:1014E00043E07DCF91E090935D3824E434E042E026
:1014F00076DF10925D380895CF93C0911738C111EF
:1015000023C0813C29F460E070E08DE99BE006C0D7
:10151000823C31F460E070E087EB97E0B9DC15C005
:10152000833C51F48091203890E001968170992796
:1015300080932038ECD909C0873B31F460E070E03B
:1015400082E69AE08DDC01C0C1E08C2FCF91089536
:10155000CF93833C29F59091683860911D38709144
:101560001E38892F40E0282F30E02F5F3F4F217039
:101570003327822FFB0102C0F695E7952A95E2F703
:10158000E0FF0AC09817C1F041DB80916838809372
:101590001C38BDD9C0E011C04111F4CF41E0E3CF08
:1015A000C0911738C11108C0893B31F460E070E088
:1015B00082E79AE055DC01C0C1E08C2FCF910895FD
:1015C0000F931F93CF93DF93C82F8B0180798039BE
:1015D000B9F420910E3890910F388C2F8F70813094
:1015E00021F4822F921748F407C080911A38811194
:1015F00004C0822F291708F4892F0E946A0214C0A0
:10160000803821F480E00E946A0205C0C83019F4D5
:10161000109261386AC0C13039F40931110508F4FB
:1016200070C0C09369386DC0C330F9F480916138DF
:101630008F3F19F08F5F8093613880911A3888232B
:1016400069F040911B3822EC31E0429FC001439F7A
:10165000900D11240817190708F0BBD880912F3876
:10166000602F86958695FFDA4CC0C33C31F4CAD80A
:1016700060E070E08DE99BE014C0C43C21F460910F
:101680000A3870E00CC0C43B31F4CAD81092C63896
:1016900061E070E004C0C53C31F466E970E081EDC2
:1016A00097E0F6DB2EC0C33B79F4C8016EE370E02F
:1016B0000E94B113892BC9F460E070E083ECDF91E4
:1016C000CF911F910F9144CFC73C79F490912F385F
:1016D000892F869586958F5F8370880F880F93700A
:1016E000890F80932F3813D90CC0D0911738D1119E
:1016F0000AC0CA3B41F460E070E08AE69AE0B0DBE1
:1017000003C0D0E001C0D1E08D2FDF91CF911F91B8
:101710000F91089590912138992369F0809354385E
:1017200088E08093523881E0809353388091673805
:101730008093553808950C946A02CF93DF93EB01A0
:101740008830A1F480E0E6DF80915338C82B1092F6
:10175000613880911C388093683810925C38CD2BAA
:1017600009F05DC081E08093693859C0813059F437
:101770006931710508F453C0C0915338C1114FC08D
:1017800080936938E1C0833061F5809161388F3F83
:1017900019F08F5F8093613880911A38882369F03F
:1017A00040911B3822EC31E0429FC001439F900DD5
:1017B0001124C817D90708F00CD880912F386C2F46
:1017C000837051DA80913038882349F142EC51E03E
:1017D000849F9001859F300D11242C173D07F8F44C
:1017E00053C0813B91F481E090E00E94790392DF45
:1017F00080911938811113C080910C38811102C079
:10180000689768F061E070E02AC0813ED9F38138C2
:1018100041F480910A3890E00E9479037BDFC0E0B8
:1018200093C0813C21F460910A3870E018C0823B7B
:1018300081F41092613880910D3890911738911190
:1018400080911838811103C086E990E0E5CF86E9E0
:10185000E5CF823E59F0823C29F466E970E081EDE3
:1018600097E00CC0833921F41092533880E0D6CF32
:10187000833C31F460E070E08CE79AE009DBCFCF85
:10188000843C39F40E94020460E070E080EE9AE04B
:10189000F5CF8D3B49F4F89491E088ED84BF9093A7
:1018A00000017894A895FFCF8F3C29F460E070E0A8
:1018B0008AE194E0E3CF8A3B89F4CD2B19F5C091FE
:1018C0001738CC2329F00E9402041092173818C050
:1018D00060E070E08AE59AE0C3DA36C0833B29F421
:1018E00060E070E086EE9DE0C9CF873C59F49091AE
:1018F0002F3881E0890F9C7F8370892B80932F384C
:1019000006D88DCFC0911738C1111DC08A3C41F453
:101910000E94020481E0809317380E94870414C05B
:10192000853C39F40E94020460E070E08FE89FE09B
:1019300008C0863C41F40E94020460E070E087ED3C
:101940009FE0A6DA01C0C1E08C2FDF91CF9108950E
:101950000F931F93CF9310926C388091C43890915D
:10196000C5389C012F5F3F4F88279078822B932B9F
:101970008093C4389093C538C0916A380E94300271
:10198000C81731F11092693880936A389091C6383F
:10199000882359F0892F80699F709F3009F08F5FED
:1019A0008093C63880E090E00DC0892F8F7E95FD32
:1019B00002C0806801C0806C8093C6388091C438B2
:1019C0009091C5380E94F5011092C4381092C53824
:1019D0000091C4381091C538809169388823B1F0DE
:1019E000B80183E00E94A4010E94BE0101341105E8
:1019F00028F00F701127012B09F047C010923D38D5
:101A000081E0809393380E94180232C0C091C6389A
:101A10008C2F807F803B19F460E070E001C0B8013A
:101A200081E00E94A401C4FF13C0C5FF02C0C80129
:101A30000CC008311105E0F01092C4381092C5387E
:101A4000C062C093C63880E090E00E94F50110C0EB
:101A5000CC2371F0C5FD0AC00231110548F0C06405
:101A6000C093C63880E090E00E94F5010E94F90121
:101A7000C0913D38C11105C00E949B0181E0809357
:101A80008738CF5FCF71C0933D38CF911F910F91B1
:101A900008958091923881110E94A90480916C3838
:101AA000811156CF0895EF92FF920F931F93CF931A
:101AB000DF93EC0102E418E080E1E82E82E0F82EEA
:101AC0002097D9F080916238811119C080916738D0
:101AD000853028F485E00E949001C70104C081E0B0
:101AE0000E949001C8010197F1F781E00E949001E6
:101AF000D0DF0E94BE012197E3CF81E001C080E0EA
:101B0000DF91CF911F910F91FF90EF9008950F9368
:101B10001F93CF93DF93C82F882311F006EA02C0EA
:101B20000AE0C1E0D091683810E0809120386ED88A
:101B300089E10E946A02D0936838C801B4DF8091BD
:101B4000203864D880E00E946A02D09368388AEF17
:101B500090E0A9DFC15049F78D2F58D88AE992E06B
:101B6000DF91CF911F910F919ECFCF93DF9364E6CA
:101B7000ECD5282F892F6AE0E8D5EC01222341F02B
:101B8000822FC5DF8C2FC3DF8D2FDF91CF91BFCF89
:101B9000C111F8CFF9CFCF93DF93D82FC3E0809155
:101BA0000A380E946A0288EC90E07DDFDD2319F09C
:101BB00080E991E078DF80E00E946A0288EC90E0A2
:101BC00072DFC15061F7DF91CF910895FF920F93BB
:101BD0001F93CF93DF93D82F8B01C091563881E0AC
:101BE00080935838C33009F0EBC0F0905C388D2FEB
:101BF00052D8FF2051F080915C38811106C060E01E
:101C000070E08DE99BE044D9DBC0D83021F481E05D
:101C100080930338D7C0D23C19F410925C38E4C0EA
:101C2000D13BC1F490910238012B49F4963610F063
:101C30008FEF03C0923018F481E0809303388091D5
:101C40000338890F11F481E04CC1873608F449C18B
:101C500086E647C1D13E31F4809103388195809367
:101C6000033813C1D23B61F481E080930338809143
:101C70000238823008F411C18150809302380DC1BE
:101C8000D13009F0B5C00932110511F4D0930338F1
:101C900090913738892F880F97FD809529E0829F92
:101CA000C001112430913638232F220F37FD2095A3
:101CB00080910138289F90011124232F290F9091A2
:101CC0003538892F880F97FD809590910038899F2E
:101CD000C0011124822F890F6091023870E0680FD3
:101CE000711D80915C388130B9F4809159389091A0
:101CF0005A3825E0969587952A95E1F724E730E054
:101D0000A901481B590B469FC001479F900D569F44
:101D1000900D1124B90125D5862F0E946A0200FD7D
:101D200008C00E943902817090913738890F8093E2
:101D300037389091363880913438890F809336380F
:101D40000E94390265E201D580913538980F909351
:101D500035380E9439028F7331F40E9439026DE0E8
:101D6000F4D490933438C0910138CC2339F00E94D8
:101D700039028F7319F4C150C09301380E9439029F
:101D8000811108C00E9439026EE0DFD490930138BF
:101D900010923638C0910038C33038F00E943902B2
:101DA0008F7119F4C150C09300380E9439028F77A7
:101DB00009F0A3C00E9439028770809300389DC04B
:101DC000D83041F4809122388093563881E0809356
:101DD000043889C0D13C31F460E070E08DE99BE0CB
:101DE00057D881C0D23C31F48C2F90E0019617C0B7
:101DF000D13C91F3D33C71F4809168388F5F81704E
:101E00000E940606EC2FF0E0E45FF74C8091683802
:101E1000878B56C0D43C59F48C2F90E0049665E033
:101E200070E0B3D4809322388093563849C0D13BB8
:101E300051F5C23090F400FD56C0EC2FF0E0E45FA5
:101E4000F74C848D90910438891B883020F08F3FA7
:101E500099F58EEF31C088E02FC0C43009F043C03F
:101E600090912A3880910438890F823010F482E0F2
:101E700003C0893708F088E780932A3880912A3890
:101E80000E946A0230C0D13E31F4809104388195BD
:101E90008093043815C0D23B89F481E080930438E4
:101EA000C23018F500FD1FC0EC2FF0E0E45FF74CE6
:101EB000848D8F3FC1F08F5F848F15C0D23E19F49F
:101EC0000E94870410C0D53C41F460E070E08FE8C8
:101ED0009FE00E94480780E0D3CFD13071F081E0CD
:101EE00018C08093023880E014C0C430E1F78091BC
:101EF0002A38833018F28150BFCF0932110519F406
:101F000081E08093043880916538080F009365382C
:101F1000EACFDF91CF911F910F91FF9008950F931A
:101F20001F93CF93DF93D82F8B01883031F48091AA
:101F30005838882311F088E049DE8D2F8079803968
:101F400061F481E080935738C0915838C1110CC0BA
:101F500080910A380E946A0224C0803839F41092B5
:101F6000573880E00E946A02C0E01BC0D130C1F443
:101F7000C0915738CC2359F0809158388823A1F369
:101F8000B80181E0DF91CF911F910F911FCE80E0CA
:101F90000E944E020733114038F3D093693801C0D4
:101FA000C1E08C2FDF91CF911F910F910895FF9287
:101FB0000F931F93CF93DF93D82F8B01F0900A38A4
:101FC0008079803951F5ED2FEF70E43020F01092D8
:101FD0005738C0E036C091E090935738F0E0E45FA6
:101FE000F74C84A12FEF280F263948F480930A3844
:101FF0001092583880911C38809368380CC09093A8
:1020000058388739D0F090E08759910965E070E041
:10201000BCD380935638C0E00BC0803841F4109296
:10202000573880E00E946A0281E080936238C1E004
:1020300080915738882329F001C0C0E0B8018D2F66
:102040006EDFF0920A38D83021F4B80188E0B8DAAF
:1020500028C0D13039F480915738811120C0B8019F
:1020600081E004C0D33041F4B80183E0DF91CF9127
:102070001F910F91FF90A4CAD63C49F40E9402041C
:1020800060E070E08DE99BE00E94480708C0D73B04
:1020900041F460E070E08EE69AE00E94300780E054
:1020A00001C08C2FDF91CF911F910F91FF90089568
:1020B0001F920F920FB60F9211242F933F938F937D
:1020C0009F93AF93BF93EF93FF9381E080930B06B1
:1020D00080919138882331F1E091903880911006F9
:1020E0009091110624E0880F991F2A95E1F7F0E0FE
:1020F000EE0FFF1FDF01A457B74C8D939C93E85759
:10210000F74C208131812817390710F42F5F3F4F9A
:102110008217930710F4215031092083318381E025
:102120008093923881E080939138FF91EF91BF9135
:10213000AF919F918F913F912F910F900FBE0F9074
:102140001F9018951F920F920FB60F9211248F9324
:1021500081E08093530180936C388F910F900FBE74
:102160000F901F9018951F920F920FB60F92112487
:102170008F931D9A81E080936B388F910F900FBEE3
:102180000F901F901895F89480914000877F80935E
:10219000400088EDA89584BF90910001907F9093B6
:1021A000000121E030E084BF2093610083E284B924
:1021B00088E080931004809311048093120480932C
:1021C00013048093140499E09093150480931604EB
:1021D00080931704809332048093330480933404F3
:1021E000809350048093510480935204809353044D
:1021F00087E38093010A91E09093000A2FEF30E08B
:102200002093360A3093370A8091120481608093BC
:10221000120490935201809151018111FCCF81E40D
:10222000809350010E941802789481E00E9403027A
:1022300060E070E088E697E00E9430071092623814
:102240000E9402040E943002811114C08CE098E3C5
:102250008093633890936438F89480E090E0D9D20A
:10226000853A09F044C00091633810916438C1E0A8
:10227000D0E034C0C0E08C2F0E946A0283E190E07D
:1022800012DC8C2F86950E946A0283E190E00BDCC1
:102290000E9430028823B9F0CF5FC03461F76091AB
:1022A000843880912E38681B81E00E9420040E94AF
:1022B0008704C6E98C2F0E946A0284E090E0F3DB79
:1022C000C150C1F7C3CFCC2309F4C0CF8C2F0E94DB
:1022D0006A028DE090E0E7DBC150F5CFCE0199D2E4
:1022E000F80181938F012196C932D105B9F778940D
:1022F00080911A3881110E94E90360E070E088EA59
:102300009AE00E94300761E070E08DE99BE00E9456
:102310003007552453942224239447E0342ECC24B0
:10232000C394D12C65E0462E7CEF672E73E0772EA8
:10233000E8EE8E2EE3E09E2EFDE9AF2EFBE0BF2EF1
:102340000E94BE0180916F3890917038009751F0D3
:1023500060916D3870916E380E94480710926F3806
:102360001092703880916938882309F466C080E043
:102370000E946A0250925201809151018111FCCF5A
:10238000F9E5F0935001809100068E7F809300065E
:102390000E9430028111FCCF0E94F9018091120449
:1023A0008160809312041092923810926C381092CF
:1023B0006B3880916938882369F18091933888233C
:1023C00029F080915000897F826004C08091500084
:1023D000897F846080935000809150008160809359
:1023E00050008895809150008E7F8093500080919E
:1023F0006B3881111092693880919238882321F0CE
:10240000209287380E94A90480916C38882389F231
:102410009FDACFCF22E020930B3880911204887F7F
:10242000809312040E94180250925201809151012F
:102430008111FCCF31E4309350012BDB10926238D4
:102440008091823890918338E4E08A319E0719F5B3
:10245000CCE7D0E0FE0184918053803110F457DB4B
:1024600011C010E0812F81708295880F807E0E94BC
:102470006A0280E190E017DB1F5F193199F78AE962
:1024800092E011DB8CE291E00EDB2196F0E0CA389D
:10249000DF0701F7D7C02DE0863E920799F03FE0B5
:1024A0008F38930729F0EFE0873D9E0709F0B2C00F
:1024B00020915838213009F0ADC02091573822239F
:1024C00009F4A8C0C0915638EC2FF0E0E45FF74C57
:1024D000878980936838C230F1F020F0C43009F465
:1024E0007CC02ECFD48D86E90E946A02C11109C03A
:1024F000DA3220F4C3010197F1F707C081E090E0E0
:1025000003C08D2F869590E0CEDA80E00E946A02AB
:102510008D2F90E007C10E9439028F73E82EF12CB5
:102520000E943902632D11D1E60102C0CC0FDD1FDC
:102530009A95E2F70E943902642D07D1960102C0F4
:10254000220F331F9A95E2F7C20FD31F0E94390260
:1025500090E0BE011AD1C80FD91FC739D10514F0B8
:10256000C6E9D0E08C2F0E946A02C7019CDA8E0176
:1025700033E0159507953A95E1F7011101C001E0A7
:1025800010E0C70190DAC01BD10BD7FF02C0C0E03A
:10259000D0E08C2F0E946A020E943902837039F4C5
:1025A000C70181DACE01959587950E946A02C230F3
:1025B000D1053CF70E9439026DE0C7D0E60102C0A8
:1025C000CC0FDD1F9A95E2F70E94390290E0BE0120
:1025D000C8D0C80FD91F80E0A2C0C0912A38CC0F44
:1025E000C73908F0C6E9D4E08C2F0E946A0285E062
:1025F00090E059DA80912A380E946A0281E490E0E2
:1026000052DAD15089F780ED92E04DDA80E00E94F5
:102610006A0296CE3AE08C379307E9F488EE93E0AD
:1026200042DA80918638869586959FDA9091863831
:102630009370892F880F9695890F97DA80911738B4
:10264000882381F0A0926F38B092703810926D3864
:1026500010926E3875CEE7E0873B9E0731F480918B
:10266000843883DA88EE93E05DC0F7E08E389F0708
:10267000C1F480916A38811163CE80910A380E943A
:102680006A0284E690E00FDA80E00E946A022091FC
:102690002B38289DC001299D900D11248456910945
:1026A00041C08655974049F480E075DA81E073DADD
:1026B00080E071DA80ED97E035C080912138882381
:1026C00099F180915338882379F12091673890915E
:1026D0005438291306C0822F0E946A021092533880
:1026E0002FCE60915238291760F4892F821B2DD08C
:1026F000811101C081E0820F0E946A028AE090E0AD
:1027000011C03EE1639FA001112460915538691BFF
:1027100070E0CA013AD0EB0121968FEF820F0E9440
:102720006A02CE01C0D90CCE80915000897F80937F
:102730005000809150008160809350008895809176
:1027400050008E7F80935000FBCD991B79E004C030
:10275000991F961708F0961B881F7A95C9F78095E0
:102760000895AA1BBB1B51E107C0AA1FBB1FA617D8
:10277000B70710F0A61BB70B881F991F5A95A9F72A
:1027800080959095BC01CD01089597FB072E16F416
:10279000009406D077FD08D0E4DF07FC05D03EF4B6
:1027A000909581959F4F0895709561957F4F0895FD
:1027B000A1E21A2EAA1BBB1BFD010DC0AA1FBB1F45
:1027C000EE1FFF1FA217B307E407F50720F0A21BB7
:1027D000B30BE40BF50B661F771F881F991F1A9424
:1027E00069F760957095809590959B01AC01BD014E
:1027F000CF010895A29FB001B39FC001A39F700DA8
:10280000811D1124911DB29F700D811D1124911DF8
:10281000089503D0808199270895FC01E050FC4E73
:102820000895262FFADF0080021611F004D00197D8
:1028300001970895262FAF93BF93E0E0F0E1328136
:1028400031FDFDCFDC01A050BC4E2C933DE934BFDF
:1028500023E020830196BF91AF910895F894FFCFB4
:102860000E38113814380001020100000000000089
:0E287000010000000000A602CF02650268020F
:10287E00080E180101010004820132020001010A52
:10288E000A82828201070701000000000001000099
:10289E000101030000000000294332020732000D3F
:0428AE0000781E98F8
:00000001FF
