:10000000DBC00000F6C00000F4C00000F2C0000039
:100010000C948F0FEEC00000ECC000000C947E0F1B
:10002000E8C00000E6C00000E4C00000E2C000003C
:10003000E0C00000DEC00000DCC00000DAC000004C
:10004000D8C00000D6C00000D4C00000D2C000005C
:100050000C94340FCEC00000CCC00000CAC0000019
:10006000C8C00000C6C00000C4C00000C2C000007C
:10007000C0C00000BEC00000BCC00000313633303C
:100080002E302E6362666331613100000000000093
:10009000000000000000000000000000000002025C
:1000A0000202020202020202020202020200000036
:1000B0000000000000000000000000000000000040
:1000C0000000000000000000000000000000000030
:1000D0000000000000000000000000000000000020
:1000E0000000000000000000000000000000000010
:1000F00000000000000000000000000000000002FE
:1001000002020202020202020202020202020202CF
:1001100002020202020202020202020202020202BF
:10012000021919212929323A424B535C6C75859684
:10013000A7C0D1EA3A4047505A636E798695A3B476
:10014000C6DAF1010101010101010102020202030B
:100150000303030404040505060607070808090A43
:100160000B0B0C0D0E0F101213141617191A1C1E60
:1001700020222427292C2F3235383B3F43474B4F31
:1001800054595E646970767C838B929AA3ACB5BF38
:10019000C9D4DFEAF6393C3F4245494C5054585DDA
:1001A00061666B70757B81878D939AA1A9B0B8C188
:1001B000C9D2DCE5EFFAFF0011241FBECFEFCDBF9F
:1001C000DFE3DEBF18E3A0E0B8E3ECE3F6E202C051
:1001D00005900D92A433B107D9F728E3A4E3B8E35F
:1001E00001C01D92A53CB207E1F70E949F0F0C943D
:1001F0000D1306CFF89498ED94BF80936100809121
:10020000630080FDFCCF78940895E0E0F6E08285FD
:10021000816082878085816080870895E2E9F8E3C4
:1002200020E030E09081992339F02F5F3F4F3396E3
:1002300020313105B9F70BC0F901EE0FFF1F2E0F6A
:100240003F1FF901EE56F74C808361837283089556
:100250000F931F93CF93DF93D0919238DD2351F109
:100260000091933810919438C0916F38C150C7FDF8
:100270000DC0EC2FEE0FFF0BE059F74C0190F08111
:10028000E02DB8018D2F09958111F0CFE2E9F8E357
:10029000838180838481958181839283339688E3EF
:1002A000EF3BF807A9F71092BF381092C0381092B0
:1002B000C138D2CFDF91CF911F910F910895BC012A
:1002C0008091C438ABCF1092C4381092C2381092CB
:1002D000C33881E08093603808950F931F93CF93C4
:1002E000C82F0CEC18E0CC2349F085E083DFC8016F
:1002F0000197F1F781E07EDFC150F5CFCF911F91DB
:100300000F910895E0E0F6E083E8808383818062C6
:100310008383A0EAB0E08C918F7880648C938DE128
:10032000868382E0818383E5828310928E381092E7
:100330008F386BCF86B18295817091E08927809349
:1003400068380895E0910638F09107383196FB70CF
:10035000F460E0930638F0930738809163388B5A45
:1003600080936338E491809163388E0F08958823D9
:1003700049F0813069F480E28093220488E0809320
:100380003504089580E28093210480932604089523
:1003900080E280932104809325040895811182E0F6
:1003A000E6CF81E00895CF93C82F809167388111FF
:1003B0000AC091E0C11101C090E081E0C33208F4AD
:1003C00080E0890FD4DFC11112C01092A106809184
:1003D000A000887F8093A00080912404877F809371
:1003E0002404809104048F77809304040EC0E0916C
:1003F000663884E0E89FF0011124EC5CF945019037
:10040000F081E02D8FEF8C0F0995C0936538C09374
:100410006438CF3F11F085E001C081E0CF91EACE92
:1004200090910404906890930404282F30E0F9011F
:10043000EF5DFE4F9491F901E557FF4F2491823211
:1004400020F080912404886003C080912404877F79
:10045000809324049093A106E091A000E87FE22B12
:10046000E093A000089590E0FC01EF5DFE4F249121
:10047000FC01E557FF4F84914091A00090E0477048
:1004800050E084179507C1F48091A106821720F4EB
:100490008091A1068F5F07C08091A106281728F4DC
:1004A0008091A10681508093A1069091A10681E0E0
:1004B000291719F080E0089581E00895CF93DF9324
:1004C000CDB7DEB72697CDBFDEBF90910C38209117
:1004D0008038309181382E57394009F492E08430C9
:1004E00019F4609318381FC06623E9F0823019F4BC
:1004F00027E9261B622F26E0EEE1F6EADE011196DF
:1005000001900D922A95E1F79E012F5F3F4F280F32
:10051000311D280F311DF90132970190F081E02D36
:10052000E90FF11D60832696CDBFDEBFDF91CF912D
:100530000895BF92CF92DF92EF92FF920F931F9395
:10054000CF93DF93EC0140910C38909117389923A9
:1005500011F0E2E001C0E42FF0E0E45FF74C22810B
:1005600020930938858180930838E92FF0E0E45F13
:10057000F74C3185622F70E0442349F0313039F473
:100580009B01280F311DC9019595879538C0C61765
:10059000D707A4F1682F70E06C177D0784F1411133
:1005A00002C08C2F2CC0821B032F10E001501109B8
:1005B000E82EF12CC701B8010E94A41260935D38A7
:1005C0006695E62FF0E0822FC12CD12CB12CB3160A
:1005D000B1F0C601B8010E949012822F860FCE0C96
:1005E000DF1CAE01481B510957FF03C051954195CF
:1005F0005109E417F5071CF4B394E9CF822FDF917A
:10060000CF911F910F91FF90EF90DF90CF90BF900F
:100610000895ECE0F8E3868580930A388389808B1F
:1006200080936638089580915B38882351F09091CB
:10063000653890935C3880935A38109258381092ED
:1006400059380895CF93C091653889E18C0F873967
:1006500008F080E0A8DE82E040DE8C2FCF91A3CEB0
:10066000CF93C091653880E09EDE83E036DE8C2F2C
:10067000CF9199CE81E00895611160932B38089550
:10068000662389F0813061F48091823890912D3811
:10069000891B681B60932D3882E080930B3803C060
:1006A000635E60932C3880912C38873418F086E490
:1006B00080932C38089560932F380895E82FF0E048
:1006C000E45FF74C63A308957FEF780F40911D38E6
:1006D00050911E38662359F021E030E002C0220F0D
:1006E000331F7A95E2F7CA01822B932B0AC081E06F
:1006F00090E002C0880F991F7A95E2F780958423D5
:10070000952380931D3890931E38089580935E380A
:1007100090916538981718F4282F291B02C0292FAB
:10072000281B30915238311106C0309120383323C4
:1007300069F0223058F08093533884E08093513828
:1007400081E0809352389093543808952CCECF9303
:10075000DF938CE098E38093613890936238F8944B
:10076000C0E0D0E0E0916138F0916238EC0FFD1FFD
:1007700060812196CE010E94F012C732D10591F717
:1007800065EA80E090E00E94F0127894DF91CF91CA
:100790000895CF931092903880911006909163380D
:1007A000890F8093633880918538882309F44CC180
:1007B0001092853890918E3880916738882349F05F
:1007C000809100068E7F80930006109291381092DF
:1007D0008E38911166C080910B38882329F02091C2
:1007E0008A3830918B381AC02091673880918638CA
:1007F000909187382223B9F020918A3830918B3834
:1008000063E0369527956A95E1F7280F391F73E065
:10081000969587957A95E1F7281B390B20938638B2
:100820003093873801C09C01C0912B38C750CC0F42
:1008300054E0369527955A95E1F740E050E060E0A6
:1008400070EC83E090E00E94B712C20FC09384382E
:1008500080914F38882311F0815007C0C43738F495
:1008600060E070E084E0DADC85E080934F388091CE
:1008700067388111E0C08091A0008F7880618093FB
:10088000A0008EE18093060682E08093010683E457
:100890008093020681E080938E3810928F38B5DC09
:1008A000CAC0913009F0C7C080910B38882341F04D
:1008B00080918C3890918D388093883890938938C6
:1008C0002091201180912111A0918838B091893810
:1008D00030E48302A019B109112430E00E94D9123A
:1008E000DC01CB01905EAF4FBF4F892F9A2FAB2F0A
:1008F000BB2720912D38FC0136E0F695E7953A9517
:10090000E1F7022E000C330BA901435151404E0F69
:100910005F1F4093823850938338BC0145E0769541
:1009200067954A95E1F780910B3881112AC0809133
:100930003E38E82FF0E0EE0FFF1FE15CF74C4081FE
:100940005181DB01A41BB50BAD01608371838F5F07
:10095000877080933E3880912C3890E08D5E9E4F5A
:10096000821B930B880F991F9B01281B390BC90110
:100970009D01220F331F220F331F820F931F23E08D
:100980000EC0EFE3F8E36193719388E3EF34F80767
:10099000D1F7CDCF009709F00196215029F0181614
:1009A0001906C4F70197F9CF18161906E4F457FD94
:1009B00039C020913D3812160CF1880F991FBC01E7
:1009C0006350710977FF02C06F5F7F4F7595679520
:1009D0001616170614F061E070E088E1861B80931C
:1009E0003D3885E026C08C3FAFEF9A07DCF457FF17
:1009F00019C020913D3827FF05C02450281B2093A3
:100A00003D3818C024EE281B20933D3820918438AF
:100A1000263780F06CEF7FEF681B790B7595679533
:100A200086E007C080918438853720F060E070E070
:100A300087E0F4DB67DC80910B38882329F0809114
:100A40000B38815080930B38CF910895CF93DF936B
:100A500090916638981759F0C82FD091653880E08A
:100A6000A2DCC09366388D2FDF91CF919CCCDF91B3
:100A7000CF910895813019F410921A380895823078
:100A800019F460931B380895833019F46093193872
:100A90000895843019F460930D380895853011F469
:100AA00060932038089590918438943710F480E052
:100AB00011C0943828F466956170635086230AC08B
:100AC000982F9F70933030F06F70E62FF0E0EC5D60
:100AD000F94580814CCCCF93C0911738C1114FC0DC
:100AE000883039F410925B38109258381092593887
:100AF00047C0813B81F480915B388150833008F09E
:100B00003EC083E080935B3880935A381092583807
:100B10001092593834C0853BB1F4CB016EE370E0DC
:100B20000E949012892B61F580915B388A3F40F5D5
:100B30008B5F80935B3880935A38109258381092AC
:100B4000593880DD1DC08130D1F4809158389091A2
:100B50005938019688382EE0920728F48093583847
:100B6000909359380DC0109258381092593880918E
:100B70005B38882329F0815080935B3801C0C1E045
:100B80008C2FCF910895FF920F931F93CF93DF93F4
:100B90008C01EB01F42E8091803890918138892B63
:100BA00031F0E0918038F091813889E00995009327
:100BB000803810938138012B39F0E0918038F09122
:100BC0008138BE018F2D099581E080936038DF91D7
:100BD000CF911F910F91FF900895CF93DF93E091F4
:100BE0006F38EE2359F0E150E0936F38F0E0EE0FEC
:100BF000FF1FE059F74CC081D18102C0C0E0D0E0B6
:100C0000E0916F38EE2341F0F0E0EE0FFF1FE25964
:100C1000F74C8081918102C080E090E04AE060E082
:100C200070E0B1DFCE01DF91CF910895883029F4D3
:100C3000109250381092383815C0813001F59091DB
:100C40003838911107C06032710570F180933838DF
:100C50003ADB2AC0913089F46B3B710528F082E0C1
:100C60008093383880E01FC061157105E9F062702B
:100C7000862F880F880F8E5E16C0AFDF15C08138B3
:100C800011F0813E89F491E090933838813E21F44F
:100C900080915038865F03C0809150388F5F809379
:100CA000503811DB8BE47FDB80E008959C0190914C
:100CB0006F38983088F4E92FF0E0EE0FFF1FE0590D
:100CC000F74C208331839F5F90936F3848E0C901D0
:100CD0005ADF80916F3808958FEF08950F931F9317
:100CE000CF93DF93EC018B0178DFB801CE01DF9168
:100CF000CF911F910F91DACF813C29F460E070E031
:100D00008FE89AE006C0823C39F460E070E08DED37
:100D100096E0E4DF80E0089581E00895843011F5E5
:100D200080918038909181382CE0823C920729F4A0
:100D300069E170E087E197E013C08751974061F463
:100D400090916538923040F0892F869596959695CA
:100D5000890FDCDC80E0089560E070E08FE89AE0C5
:100D6000BDDFF8CF81E00895813C29F460E070E0B8
:100D70008FE89AE006C0823C31F460E070E08CE7D6
:100D800096E0ACDF16C0813B49F4CB016EE370E026
:100D90000E949012892B69F455DC0BC0813E59F4F6
:100DA000CB016EE370E00E9490126F5F60932A386F
:100DB000CEDC80E0089581E00895CF93C09117388C
:100DC000C11117C0813C29F460E070E08FE89AE01F
:100DD00006C0823C31F460E070E08DEF96E07EDF8B
:100DE00009C0873B31F460E070E086E899E05EDF9F
:100DF00001C0C1E08C2FCF910895813C29F460E0BF
:100E000070E08FE89AE006C0823C31F460E070E068
:100E100084EB96E063DF07C0873B39F460E070E065
:100E20008AE899E043DF80E0089581E00895BF9269
:100E3000CF92DF92EF92FF920F931F93CF93DF93A6
:100E4000182FEB0180911C3880936638D0900938B8
:100E5000F090083880910C38882319F0B0905D38F4
:100E600002C0BB24B394C0900D3880911738811113
:100E7000C0901838CC2051F031E0C31621F0809199
:100E80000A388F1518F0F6E9EF2E01C0EF2C00910B
:100E90005B38BE01812F1FDE20915B38222339F0A1
:100EA00001110CC08091653880935C3807C0002325
:100EB00029F060E070E08FE89AE036C0812F8D7FE6
:100EC0008830D9F4109257381A3019F4C0910A3882
:100ED000D0E08D2D90E08C179D0738F48F2D90E099
:100EE000C817D90710F4C0930A38CE0122DB0EDCF4
:100EF00081E08093053800E0ADC1113CD1F2123C95
:100F000059F4809165388E1510F48E2D02C08091B1
:100F10000A38FCDB88DBEFCF143C41F480E043DA95
:100F200060E070E082ED99E0D9DEE5CF8FE4810FDB
:100F3000823008F05FC080910C38882341F0CE01E8
:100F400068E170E00E949012892B31F0D4CF60915B
:100F5000143870E0CE01F6CF009152380111CBCF9A
:100F600080916538209761F4123B11F48FEF05C032
:100F70008F15E0F7D81648F181E08093053825C039
:100F80002091143830E066E371E0269FA001279F8E
:100F9000500D369F500D11244C175D0710F48F151E
:100FA00028F76CE672E0269FA001279F500D369F20
:100FB000500D11244C175D0740F4D81630F042DB79
:100FC00060E070E082ED99E089DEC09165382091A3
:100FD00005383B2D2303C00111248C0F911DA9DA84
:100FE00080930A38C81719F0F81201C039DB8091D4
:100FF0000A38F1C08FE1810F823020F480910538EA
:10100000819577CF113009F084C0A99711F410931E
:101010000538222371F1C0915C38C29F90011124E0
:10102000E0915A38F0E0C901BF010E94A412462F96
:10103000C9018C1B9109BF010E94A412242F261BF9
:1010400080915838909159386EE370E00E94901268
:10105000269FC001279F900D11246CE370E00E9431
:101060009012461B642F09F461E06093643860932A
:101070005E38C0916438209165388C2F90E0821BD7
:10108000910960913A3870913B386F5F7F4F609360
:101090003A3870933B38009709F42DCF97FF05C07D
:1010A0002C3730F040E450E005C040E052E002C090
:1010B00040E051E05695479597FD019695958795A7
:1010C0000097C1F74617570708F015CFC21710F45D
:1010D000CFEF03C02C1710F4C1E0C20FE0916638C7
:1010E00084E0E89FF0011124EC5CF9450280F38173
:1010F000E02D8FEF8C0F0995882331F0D091643863
:101100008C2F51D9D093643810923A3810923B38D2
:10111000F2CE1530A1F480916538833308F4EBCE1C
:1011200090E08C1B9D0B8233910534F0873991053B
:101130006CF186E990E02AC082E390E027C0163087
:10114000B9F49091653880915E38981708F0D3CE45
:10115000C90FD11D90E08C179D0734F0C233D10523
:1011600024F4C2E3D0E001C0EC01C0936438C3CEE4
:10117000173079F49091643880916538891710F4AC
:101180008F5F04C0981708F0B6CE81508093643802
:10119000B2CE0091173801115CC0133C19F0163C17
:1011A000E9F40AC080911D3881FB992790F981707C
:1011B000890F823009F44DC081E090910C38911173
:1011C00080E080930C38C3DA4BDA8091653890E088
:1011D000B0D980930A389ADA26DA3CC0133B49F436
:1011E000CD2B09F088CECC2011F086E9E82E8E2D8B
:1011F00004C0133E21F480910A3888DA2BC0153CD4
:1012000061F48091653880930A3880E0CCD860E042
:1012100070E08BE69EE062DD1DC0173B29F460E0C4
:1012200070E08AE799E013C01A3C59F48091653860
:1012300080931A388091663880931F3888DA02DAF2
:1012400009C01A3B31F460E070E082E899E02EDDDD
:1012500001C001E0802FDF91CF911F910F91FF908E
:10126000EF90DF90CF90BF900895883071F4109286
:10127000393880E098D880916838811139C08091E0
:1012800039388F5F8093393823C0982F907F903BF7
:10129000B9F420913938421780F0CB016DE570E048
:1012A0000E949012069739F42F5F20933938421725
:1012B000F8F088E303C082E101C080E074D818C070
:1012C000903E61F480913938882389F0481778F08E
:1012D00060E070E086E196E0E9DC0AC08A3041F423
:1012E0006091503880913938F901099530DA75DC10
:1012F00080E008952EE532E043E0B7CF2EE532E0FE
:1013000044E0B3CF2AE335E045E0AFCF2CE333E050
:1013100041E0ABCF20E433E042E0A7CF2BE533E060
:1013200041E0A3CF2EE533E043E09FCF24E633E056
:1013300042E09BCFCF93833C29F590916638609132
:101340001D3870911E38892F40E0282F30E02F5F24
:101350003F4F21703327822FFB0102C0F695E7959E
:101360002A95E2F7E0FF0AC09817C1F06FDB809181
:10137000663880931C38EBD9C0E011C04111F4CF1E
:1013800041E0E3CFC0911738C11108C0893B31F467
:1013900060E070E086E999E089DC01C0C1E08C2F53
:1013A000CF9108950F931F93CF93DF93C82F8B0195
:1013B00080798039B9F420910E3890910F388C2FB4
:1013C0008F70813021F4822F921748F407C08091EA
:1013D0001A38811104C0822F291708F4892F0E941E
:1013E000D30114C0803821F480E00E94D30105C0ED
:1013F000C83019F410925F3859C0C13039F409313E
:10140000110508F470C0C09367386DC0C330F9F49B
:1014100080915F388F3F19F08F5F80935F388091A4
:101420001A38882369F040911B3822EC31E0429F42
:10143000C001439F900D11240817190708F0E9D83F
:1014400080912E38602F869586952DDB4CC0C33C4D
:1014500031F4F8D860E070E08FE89AE014C0C43C42
:1014600021F460910A3870E00CC0C43B31F4F8D824
:101470001092C43861E070E004C0C53C31F466E904
:1014800070E087E197E02ADC2EC0C33B79F4C80105
:101490006EE370E00E949012892B41F460E070E0EE
:1014A00083ECDF91CF911F910F9144CFD0911738EA
:1014B000D1111BC0C73C79F490912E38892F8695A5
:1014C00086958F5F8370880F880F9370890F809344
:1014D0002E383DD90BC0CA3B41F460E070E08EE885
:1014E00099E0E4DB03C0D0E001C0D1E08D2FDF91B3
:1014F000CF911F910F91089590912038992369F011
:101500008093533888E08093513881E0809352383B
:10151000809165388093543808950C94D3010F93CB
:101520001F93CF938B018830A1F480E0E5DF809199
:101530005238082B10925F3880911C38809366389F
:1015400010925B38012B09F05EC081E08093673810
:101550005AC0813059F46931710508F454C0C09102
:101560005238C11150C080936738D4C0833061F5C0
:1015700080915F388F3F19F08F5F80935F38809143
:101580001A38882369F040911B3822EC31E0429FE1
:10159000C001439F900D11240817190708F039D88E
:1015A00080912E38602F83707EDA80912F388823C7
:1015B00051F142EC51E0849F9001859F300D112440
:1015C0002017310700F554C0813B99F481E090E089
:1015D0000E94990291DF80911938811114C0809185
:1015E0000C38811103C00831110568F061E070E02A
:1015F0002AC0813ED9F3813841F480910A3890E0C5
:101600000E94990279DFC0E085C0813C21F460919D
:101610000A3870E018C0823B81F410925F388091E4
:101620000D3890911738911180911838811103C0AD
:1016300086E990E0E5CF86E9E5CF823E59F0823C2D
:1016400029F466E970E087E197E00CC0833921F462
:101650001092523880E0D6CF833C31F460E070E0E5
:101660008DED96E03BDBCFCF843C39F40E94220322
:1016700060E070E082ED99E0F5CF8F3C29F460E006
:1016800070E08AE393E0EECFC09117388A3B81F493
:10169000672B71F4CC2331F00E942203109217388B
:1016A00056D8B1CF60E070E08EE799E0FFDA32C043
:1016B000C1112FC0833B29F460E070E082EC9CE014
:1016C00026C0873C51F490912E3881E0890F9C7F91
:1016D0008370892B80932E3807C08A3C39F40E948E
:1016E000220381E08093173832D814C0853C39F446
:1016F0000E94220360E070E08BE69EE008C0863C1A
:1017000041F40E94220360E070E083EB9EE0E6DAA1
:1017100001C0C1E08C2FCF911F910F9108950F93BD
:101720001F93CF9310926A388091C2389091C3383A
:101730009C012F5F3F4F88279078822B932B8093BB
:10174000C2389093C338C09168380E949A01C81774
:1017500031F110926738809368389091C4388823AB
:1017600059F0892F80699F709F3009F08F5F8093B7
:10177000C43880E090E00DC0892F8F7E95FD02C0B7
:10178000806801C0806C8093C4388091C238909189
:10179000C3380E945F011092C2381092C338009182
:1017A000C2381091C338809167388823B1F0B801EE
:1017B00083E00E940E010E9428010134110528F0E7
:1017C0000F701127012B09F047C010923C3881E0BF
:1017D000809391380E94820132C0C091C4388C2F0E
:1017E000807F803B19F460E070E001C0B80181E0C7
:1017F0000E940E01C4FF13C0C5FF02C0C8010CC087
:1018000008311105E0F01092C2381092C338C0625E
:10181000C093C43880E090E00E945F0110C0CC23E8
:1018200071F0C5FD0AC00231110548F0C064C093D3
:10183000C43880E090E00E945F010E946301C09183
:101840003C38C11105C00E94050181E080938538B4
:10185000CF5FCF71C0933C38CF911F910F91089506
:101860008091903881110E94C90380916A3881115A
:1018700056CF0895EF92FF920F931F93CF93DF936C
:10188000EC0102E418E080E1E82E82E0F82E2097D7
:10189000D9F080916038811119C0809165388F3FEF
:1018A00029F085E00E94FA00C70104C081E00E948F
:1018B000FA00C8010197F1F781E00E94FA00D0DF39
:1018C0000E9428012197E3CF81E001C080E0DF91F1
:1018D000CF911F910F91FF90EF900895CF93C82F54
:1018E000882391F089E10E94D30186EA90E0C2DF6B
:1018F00080E00E94D3018AEF90E0BCDFC15091F7F5
:101900008AE992E0CF91B6CF89E10E94D3018AE0C3
:1019100090E0B0DF80E00E94D3018AEF90E0AADF80
:10192000EFCFCF93DF9364E6EFD5282F892F6AE0BE
:10193000EBD5EC01222341F0822FD0DF8C2FCEDFBC
:101940008D2FDF91CF91CACFC111F8CFF9CFCF93AF
:10195000DF93D82FC3E080910A380E94D30188EC2E
:1019600090E088DFDD2319F080E991E083DF80E0FB
:101970000E94D30188EC90E07DDFC15061F7DF91D8
:10198000CF910895FF920F931F93CF93DF93D82F9A
:101990008B01C091553881E080935738C33009F0EE
:1019A000ECC0F0905B388D2F96D8FF2051F08091DD
:1019B0005B38811106C060E070E08FE89AE08ED954
:1019C000DCC0D83021F481E080930338D8C0D23C09
:1019D00019F410925B38E5C0D13BC1F49091023804
:1019E000012B49F49E3610F08FEF03C0923018F4AB
:1019F00081E08093033880910338890F11F481E0EE
:101A00004CC18F3608F449C18EE647C1D13E31F44E
:101A10008091033881958093033814C1D23B61F4DF
:101A200081E08093033880910238823008F412C13B
:101A30008150809302380EC1D13009F0B6C009320E
:101A4000110511F4D093033890913738892F880FFE
:101A500097FD809527E0829FC00111243091363890
:101A6000232F220F37FD209580910138289F900168
:101A70001124232F290F90913538892F880F97FD36
:101A8000809590910038899FC0011124822F890F81
:101A90006091023870E0680F711D80915B38813071
:101AA000B9F4809158389091593825E096958795EA
:101AB0002A95E1F724E730E0A901481B590B469F1E
:101AC000C001479F900D569F900D1124B90128D554
:101AD000862F0E94D30100FD08C00E94A2018170E0
:101AE00090913738890F80933738909136388091AC
:101AF0003438890F809336380E94A20165E204D5FC
:101B000080913538980F909335380E94A2018F73D9
:101B100031F40E94A2016DE0F7D490933438C09163
:101B20000138CC2339F00E94A2018F7319F4C150FF
:101B3000C09301380E94A201811108C00E94A20135
:101B40006BE0E2D49093013810923638C09100389F
:101B5000C33038F00E94A2018F7119F4C150C093B4
:101B600000380E94A2018F7709F0A3C00E94A20151
:101B700066E0CAD4909300389CC0D83041F480917C
:101B800021388093553881E08093043888C0D13C57
:101B900031F460E070E08FE89AE0A0D880C0D23CD9
:101BA00031F48C2F90E0019617C0D13C91F3D33CD7
:101BB00071F4809166388F5F81700E942605EC2F4A
:101BC000F0E0E45FF74C80916638868B56C0D43CD9
:101BD00059F48C2F90E0049665E070E0B5D48093C2
:101BE00021388093553849C0D13B51F5C23090F42B
:101BF00000FD55C0EC2FF0E0E45FF74C838D909131
:101C00000438891B883020F08F3F99F58EEF31C062
:101C100088E02FC0C43009F042C0909129388091EB
:101C20000438890F823010F482E003C0893708F04D
:101C300088E780932938809129380E94D3012FC0EA
:101C4000D13E31F48091043881958093043815C0D9
:101C5000D23B89F481E080930438C23010F500FD56
:101C60001EC0EC2FF0E0E45FF74C838D8F3FB9F09E
:101C70008F5F838F14C0D23E19F40E94A7030FC058
:101C8000D53C39F460E070E08BE69EE027D880E038
:101C9000D4CFD13071F081E018C08093023880E059
:101CA00014C0C430E1F780912938833020F281508C
:101CB000C0CF0932110519F481E080930438809176
:101CC0006338080F00936338EACFDF91CF911F91FB
:101CD0000F91FF9008950F931F93CF93DF93D82F09
:101CE0008B01883031F480915738882311F088E0D7
:101CF00049DE8D2F8079803961F481E080935638F8
:101D0000C0915738C1110CC080910A380E94D3018C
:101D100024C0803839F41092563880E00E94D301F4
:101D2000C0E01BC0D130C1F4C0915638CC2359F06B
:101D3000809157388823A1F3B80181E0DF91CF91DA
:101D40001F910F911FCE80E00E94B7010733114011
:101D500038F3D093673801C0C1E08C2FDF91CF9169
:101D60001F910F910895FF920F931F93CF93DF93CD
:101D7000D82F8B01F0900A388079803951F5ED2FFA
:101D8000EF70E43020F010925638C0E036C091E099
:101D900090935638F0E0E45FF74C83A12FEF280FC3
:101DA000263948F480930A381092573880911C38AD
:101DB000809366380CC0909357388739D0F090E004
:101DC0008759910965E070E0BFD380935538C0E032
:101DD0000BC0803841F41092563880E00E94D30145
:101DE00081E080936038C1E080915638882329F0E3
:101DF00001C0C0E0B8018D2F6EDFF0920A38D830F4
:101E000021F4B80188E0CEDA28C0D13039F48091CD
:101E10005638811120C0B80181E004C0D33041F4AC
:101E2000B80183E0DF91CF911F910F91FF90BACA63
:101E3000D63C49F40E94220360E070E08FE89AE00B
:101E40000E946E0608C0D73B41F460E070E082E972
:101E500099E00E94560680E001C08C2FDF91CF915F
:101E60001F910F91FF9008951F920F920FB60F923E
:101E700011242F933F938F939F93AF93BF93EF932F
:101E8000FF9381E080930B0680918F38882331F196
:101E9000E0918E38809110069091110624E0880F11
:101EA000991F2A95E1F7F0E0EE0FFF1FDF01A6571B
:101EB000B74C8D939C93EA57F74C208131812817BA
:101EC000390710F42F5F3F4F8217930710F421500A
:101ED00031092083318381E08093903881E08093C1
:101EE0008F38FF91EF91BF91AF919F918F913F916B
:101EF0002F910F900FBE0F901F9018951F920F9269
:101F00000FB60F9211248F9381E080935301809339
:101F10006A388F910F900FBE0F901F9018951F92E7
:101F20000F920FB60F9211248F933C9A81E0809309
:101F300069388F910F900FBE0F901F901895F894ED
:101F400080914000877F8093400088EDA89584BFF2
:101F500090910001907F9093000121E030E084BFD8
:101F60002093610080EC80B988E084B980931004EC
:101F700080931104809312048093130480931404BB
:101F8000809315048093300480933104809332044D
:101F900099E090933404809350048093510480938B
:101FA0005204809353048091A000887F8093A00006
:101FB0008091A10081608093A10081E48093A006BC
:101FC0001092A1068091320481608093320481E0F6
:101FD00080935201809151018111FCCF81E4809363
:101FE00050010E948201789481E00E946D0160E0BE
:101FF00070E08EE896E00E945606109260380E94CB
:1020000022030E949A01811114C08CE098E380930E
:10201000613890936238F89480E090E0D9D2853AA4
:1020200009F044C00091613810916238C1E0D0E0FD
:1020300034C0C0E08C2F0E94D30183E190E01ADC11
:102040008C2F86950E94D30183E190E013DC0E94DF
:102050009A018823B9F0CF5FC03461F7609182386C
:1020600080912D38681B81E00E9440030E94A703E5
:10207000C6E98C2F0E94D30184E090E0FBDBC150C5
:10208000C1F7C3CFCC2309F4C0CF8C2F0E94D3015A
:102090008DE090E0EFDBC150F5CFCE0199D2F80191
:1020A00081938F012196C832D105B9F77894809138
:1020B0001A3881110E94090360E070E08AE999E012
:1020C0000E94560661E070E08FE89AE00E94560692
:1020D000552453942224239447E0342ECC24C394D3
:1020E000D12C65E0462E7CEF672E73E0772EE8EE6C
:1020F0008E2EE3E09E2EFFE8AF2EFAE0BF2E0E9468
:10210000280180916D3890916E38009751F0609160
:102110006B3870916C380E946E0610926D38109278
:102120006E3880916738882309F466C080E00E9489
:10213000D30150925201809151018111FCCFF9E5F8
:10214000F0935001809100068E7F809300060E94DC
:102150009A018111FCCF0E94630180913204816059
:10216000809332041092903810926A381092693835
:1021700080916738882369F180919138882329F00C
:1021800080915000897F826004C080915000897FD7
:102190008460809350008091500081608093500053
:1021A0008895809150008E7F80935000809169388F
:1021B00081111092673880919038882321F0209205
:1021C00085380E94C90380916A38882389F2A7DA8A
:1021D000CFCF22E020930B3880913204887F809308
:1021E00032040E948201509252018091510181116A
:1021F000FCCF31E43093500133DB10926038809192
:10220000803890918138E3E08A339E0719F5CCE756
:10221000D0E0FE0184918053803110F45FDB11C067
:1022200010E0812F81708295880F807E0E94D301FB
:1022300080E190E01FDB1F5F193199F78AE992E096
:1022400019DB8CE291E016DB2196F0E0CA38DF075B
:1022500001F7D7C02CE0823C920799F03EE08B3624
:10226000930729F0EEE0833B9E0709F0B2C020916E
:102270005738213009F0ADC020915638222309F497
:10228000A8C0C0915538EC2FF0E0E45FF74C868988
:1022900080936638C230F1F020F0C43009F47CC07D
:1022A0002ECFD38D86E90E94D301C11109C0DA3245
:1022B00020F4C3010197F1F707C081E090E003C06B
:1022C0008D2F869590E0D6DA80E00E94D3018D2F85
:1022D00090E007C10E94A2018F73E82EF12C0E94AA
:1022E000A201632D11D1E60102C0CC0FDD1F9A952A
:1022F000E2F70E94A201642D07D1960102C0220FCD
:10230000331F9A95E2F7C20FD31F0E94A20190E0FB
:10231000BE011AD1C80FD91FC739D10514F0C6E9BB
:10232000D0E08C2F0E94D301C701A4DA8E0133E0E4
:10233000159507953A95E1F7011101C001E010E00C
:10234000C70198DAC01BD10BD7FF02C0C0E0D0E0B4
:102350008C2F0E94D3010E94A201837039F4C7011F
:1023600089DACE01959587950E94D301C230D105B7
:102370003CF70E94A2016DE0C7D0E60102C0CC0F7D
:10238000DD1F9A95E2F70E94A20190E0BE01C8D03D
:10239000C80FD91F80E0A2C0C0912938CC0FC7391F
:1023A00008F0C6E9D4E08C2F0E94D30185E090E0CC
:1023B00061DA809129380E94D30181E490E05ADAF1
:1023C000D15089F780ED92E055DA80E00E94D30188
:1023D00096CE36E08D3D9307E9F488EE93E04ADA35
:1023E00080918438869586959CDA90918438937094
:1023F000892F880F9695890F94DA80911738882352
:1024000081F0A0926D38B0926E3810926B381092B5
:102410006C3875CEE6E08D3F9E0731F480918238AE
:1024200080DA88EE93E05DC0F6E0843B9F07C1F45C
:1024300080916838811163CE80910A380E94D3015F
:1024400084E690E017DA80E00E94D30120912A38D8
:10245000289DC001299D900D11248456910941C0E9
:102460008C57964049F480E072DA81E070DA80E0BF
:102470006EDA80ED97E035C080912038882399F19D
:1024800080915238882379F12091653890915338A2
:10249000291306C0822F0E94D301109252382FCEEA
:1024A00060915138291760F4892F821B2DD081113A
:1024B00001C081E0820F0E94D3018AE090E011C048
:1024C0003EE1639FA001112460915438691B70E0C4
:1024D000CA013AD0EB0121968FEF820F0E94D301FF
:1024E000CE01C8D90CCE80915000897F80935000D6
:1024F00080915000816080935000889580915000B9
:102500008E7F80935000FBCD991B79E004C0991F0A
:10251000961708F0961B881F7A95C9F7809508953D
:10252000AA1BBB1B51E107C0AA1FBB1FA617B707F9
:1025300010F0A61BB70B881F991F5A95A9F7809515
:102540009095BC01CD01089597FB072E16F40094D9
:1025500006D077FD08D0E4DF07FC05D03EF4909567
:1025600081959F4F0895709561957F4F0895A1E2E1
:102570001A2EAA1BBB1BFD010DC0AA1FBB1FEE1FFD
:10258000FF1FA217B307E407F50720F0A21BB30B48
:10259000E40BF50B661F771F881F991F1A9469F7C4
:1025A00060957095809590959B01AC01BD01CF0120
:1025B0000895A29FB001B39FC001A39F700D811D1C
:1025C0001124911DB29F700D811D1124911D08953C
:1025D00003D0808199270895FC01E050FC4E0895B6
:1025E000262FFADF0080021611F004D00197019720
:1025F0000895262FAF93BF93E0E0F0E1328131FDE3
:10260000FDCFDC01A050BC4E2C933DE934BF23E04C
:0E26100020830196BF91AF910895F894FFCFFB
:10261E000E381138143800010201000000000000CD
:0E262E0001000000000010023302CE01D101B5
:10263C00060B180101010004780122020001010AB5
:10264C001478785A01070501000000000001000011
:10265C0001030000000000294332020732000D0084
:04266C00781E98003C
:00000001FF
