:10000000D9C00000F4C000000C94AA10F0C0000099
:10001000EEC000000C949B10EAC00000E8C0000095
:10002000E6C00000E4C00000E2C00000E0C0000044
:10003000DEC00000DCC000000C945D10D8C00000E1
:10004000D6C00000D4C00000D2C00000D0C0000064
:10005000CEC00000CCC00000CAC00000C8C0000074
:10006000C6C00000C4C00000C2C00000C0C0000084
:10007000303235312E302E636266633161310000DB
:100080000105041410111501000100020002000313
:100090000003000400040005000600060007000835
:1000A0000009000A000B000C000D000E000F0010EC
:1000B000001100120014001500170018001A001B90
:1000C000001D001F00200022002400260028002B15
:1000D000002D002F0031003400360039003C003E76
:1000E000004100440047004A004D005100540057B1
:1000F000005B005F00620066006A006E00720076BE
:10010000007A007F00830088008D00910096009B9C
:1001100000A000A600AB00B000B600BC00C100C744
:1001200000CD00D300DA00E000E700ED00F400FBB2
:100130000002010901100118011F0127012F0136DA
:10014000013F0147014F0158016001690172017BC4
:100150000184018D019701A001AA01B401BE01C96A
:1001600001D301DD01E801F301FE010902150220BE
:10017000022C023802440250025C026902750282BB
:10018000028F029C02AA02B702C502D302E102EF6B
:1001900002FE020D031B032A033A034903590368B5
:1001A00003780388039903A903BA03CB03DC03EDA7
:1001B00003FF030011241FBECFEFD4E0DEBFCDBF8D
:1001C00011E0A0E0B1E0ECE7F7E202C005900D928B
:1001D000A638B107D9F722E0A6E8B1E001C01D9228
:1001E000AD31B207E1F70E94B9100C94BC1308CFEF
:1001F000482F9B01EAEEF1E080E090E0508155232A
:1002000031F00196339680319105C1F70AC063E061
:1002100070E00E945E13FC01E651FE4F4083328382
:10022000218308950F931F93CF93DF93D091EA0119
:10023000DD2351F10091EB011091EC01C091C70158
:10024000C150C7FD0DC0EC2FEE0FFF0BE853FE4F62
:100250000190F081E02DB8018D2F09958111F0CF2B
:10026000EAEEF1E0838180838481958192838183AA
:10027000339682E0E731F807A9F71092170210923F
:10028000190210921802D2CFDF91CF911F910F91D6
:100290000895BC0180911C02ABCF10921C021092F9
:1002A0001B0210921A0281E08093B701089528E1A1
:1002B0003FE1815020F0F9013197F1F7FACF08952D
:1002C00086E884B9E1E6F0E080818260808388E09E
:1002D00082B91092E6011092E7018FEE83B908957A
:1002E000E0910601F09107013196FB70F460F09304
:1002F0000701E09306018091BA018B5A8093BA01FD
:10030000E4918091BA018E0F08950F931F93CF93BC
:10031000DF9300D01F92CDB7DEB720913701309127
:1003200038014091390129833A834B83FE0131968C
:1003300040E050E090E061E070E0B1919A01220F5E
:10034000331F8C0102C0159507952A95E2F7980195
:10035000237061F02130D1F4A0B39B0101C0220FC2
:10036000BA95EAF7322F30953A2318C0A0B39B0113
:1003700001C0220FBA95EAF720953A2F322330BBFD
:1003800032B3322332BB31B323230EC0A0B39B015F
:1003900001C0220FBA95EAF73A2F322B30BB32B3A5
:1003A000322B32BB31B3232B21BB4F5F5F4F433026
:1003B000510519F60F900F900F90DF91CF911F917B
:1003C0000F910895811182E0A0CF81118AE09DCF25
:1003D000811188E09ACF811188E297CF811180E264
:1003E00094CF811182E291CF81118AE28ECF81E098
:1003F0000895689AE82FF0E0EE0FFF1FE957FF4FCE
:100400008591949190936D0080936C000895E82FEE
:10041000F0E0EE0FFF1FE957FF4F259134918091D7
:100420006C0090916D008217930730F480916C00FE
:1004300090916D0001960CC080916C0090916D00C0
:100440002817390748F480916C0090916D0001974E
:1004500090936D0080936C0040916C0050916D0002
:1004600081E02417350709F080E00895CF93DF93EA
:1004700000D000D000D0CDB7DEB790910C01209114
:10048000D8013091D90125513A4009F492E08430E5
:1004900019F46093180121C06623F9F0823019F431
:1004A00027E9261B622F26E0EAE3F1E0DE01119640
:1004B00001900D922A95E1F7E82FF0E03197EE0FC9
:1004C000FF1F21E030E02C0F3D1FE20FF31F0190D2
:1004D000F081E02DE90FF11D608326960FB6F894A8
:1004E000DEBF0FBECDBFDF91CF910895813011F4F3
:1004F000609336010895BF92CF92DF92EF92FF9200
:100500000F931F93CF93DF93EC0140910C019091D7
:100510001701992311F0E2E001C0E42FF0E0E45F5D
:10052000FE4F228120930901858180930801E92FE4
:10053000F0E0E45FFE4F3185622F70E0442349F024
:10054000313039F49B01280F311DC90195958795EC
:1005500038C0C617D707A4F1682F70E06C177D0765
:1005600084F1411102C08C2F2CC0821B032F10E09C
:1005700001501109E82EF12CC701B8010E948F1318
:100580006093B3016695E62FF0E0822FC12CD12C49
:10059000B12CB316B1F0C601B8010E947B13822FB3
:1005A000860FCE0CDF1CAE01481B510957FF03C05C
:1005B000519541955109E417F5071CF4B394E9CF1F
:1005C000822FDF91CF911F910F91FF90EF90DF90DD
:1005D000CF90BF900895ECE0F1E0868580930A010A
:1005E0008389808B8093BE0108958091B001882318
:1005F00051F09091BD019093B2018093AF011092A0
:10060000AE011092AD0108952091DC0180E0E82F49
:10061000F0E0ED5AFE4F9081291710F08E5FF7CF72
:100620003197E081F0E0E158FF4F849108950F93F6
:100630001F93CF939091DC019150933710F480E099
:100640008DC0C82FE82FEF708091B601811124C0B2
:10065000C295CF708091310190E043E0880F991FDF
:100660004A95E1F768177907C0F42091B501422F48
:1006700050E0481759078CF4222379F091E08091DB
:10068000BC018F3008F490E081E0C23009F080E0D6
:10069000C92FC82BCF5F36C0C2E0E73088F1E73002
:1006A000A9F400918B0110E00F5F1F4F19DE65E088
:1006B0000E946F139801290F311DC90166E070E097
:1006C0000E948F1380938B01FC012DC0E830D1F480
:1006D0008091BF01882311F08FE001C083E090E09A
:1006E00068237923672B51F480918B0190E0019668
:1006F00066E070E00E948F1380938B01E0918B0184
:10070000F0E011C08091BF01882319F07DDFE82F50
:100710000DC0CB019695879563E070E00E947B1336
:10072000FC01EE0FFF1FE058FF4FE491C33071F45E
:1007300080918A0190E0019663E170E00E947B1352
:1007400080938A01DC01A05CBE4FCC91CC2321F0C8
:10075000C13019F0EE0F01C0E0E08E2FCF911F9154
:100760000F91D3CDCF93C82F8091BD01811109C0C6
:10077000CC2339F080913601C81718F4F3DF82E0FA
:1007800096DD8091BF018091BF0181110BC0CC2308
:1007900031F03ADFC63008F0880FB7DD0BC080E0DB
:1007A000B4DD02C0C11106C010926D0010926C0041
:1007B00068980FC0E091BE01F0E0EE0FFF1FEE0F52
:1007C000FF1FEB59FE4F0190F081E02D8FEF8C0F52
:1007D00009958091BD01C8138093BC01C093BD01F0
:1007E000C093BB01CF910895CF93C091BD0182E327
:1007F0008C0F873908F080E0B5DF83E058DD8C2F5F
:10080000CF91B0CFCF93C091BD0180E0ABDF83E04B
:100810004EDD8C2FCF91A6CF81E00895823019F460
:10082000609331010895611160932C01089566234E
:1008300089F0813061F48091DA0190912E01891B59
:10084000681B60932E0182E080930B0103C0635EFE
:1008500060932D0180912D01873418F086E48093F8
:100860002D010895609332010895E82FF0E0E45FD0
:10087000FE4F66A308957FEF780F40911D015091C0
:100880001E01662359F021E030E002C0220F331F21
:100890007A95E2F7CA01822B932B0AC081E090E09F
:1008A00002C0880F991F7A95E2F7809584239523DB
:1008B00090931E0180931D0108958093B40190913F
:1008C000BD01981718F4282F291B02C0292F281BB7
:1008D0003091A701311106C030912101332369F015
:1008E000223058F08093A80184E08093A60181E033
:1008F0008093A7019093A901089534CFCF93DF93FC
:100900008CE091E09093B9018093B801F894C0E035
:10091000D0E0E091B801F091B901EC0FFD1F6081CA
:100920002196CE010E94AA13CB32D10591F765EA38
:1009300080E090E00E94AA137894DF91CF9108950F
:100940001092E80180B191B12091BA01829586950B
:1009500086958370990F990F890F820F8093BA0142
:100960008091DD01882309F41AC11092DD01809184
:10097000E6019091BF01992329F01F981092E90197
:100980001092E601811151C080910B01882329F05A
:100990008091E2019091E3011AC08091BF01209102
:1009A000DE013091DF018823B9F08091E20190915E
:1009B000E30143E0969587954A95E1F7820F931FEF
:1009C00053E0369527955A95E1F7821B930B909348
:1009D000DF018093DE0101C0C90120912C01275065
:1009E000220F60E671E00E947B13260F2093DC014A
:1009F0008091A401882311F0815007C0243738F476
:100A000060E070E084E0F4DB85E08093A4018091F5
:100A1000BF018111BBC08EE884B981E08093E601FB
:100A20001092E7018FEE83B9B1C0813009F0AEC0FA
:100A300080910B01882341F08091E4019091E501C0
:100A40009093E1018093E0018091E0019091E101B8
:100A500060912E019C01A6E036952795AA95E1F7B5
:100A6000062E000C770B260F371F2E503140309387
:100A7000DB012093DA01B5E096958795BA95E1F709
:100A800020910B01211128C020919301E22FF0E069
:100A9000EE0FFF1FEC56FE4F40815181DC01A41B7D
:100AA000B50BAD01918380832F5F27702093930155
:100AB0009D01220F331F220F331F820F931F20919E
:100AC0002D0130E0261B370B225F3E4F220F331FD4
:100AD000821B930B23E00EC0E4E9F1E08193919334
:100AE000B1E0E43AFB07D1F7CFCF009709F00196C8
:100AF000215029F018161906C4F70197F9CF1816D6
:100B00001906E4F457FD39C02091920112160CF138
:100B1000880F991FBC016350710977FDBC01759561
:100B20006795759567951616170614F061E070E0E5
:100B300080E2861B8093920185E026C08C3F2FEFD8
:100B40009207DCF457FF19C02091920127FF05C0DE
:100B50002450281B2093920118C02CED281B2093B1
:100B600092012091DC01263780F06CEF7FEF681B4B
:100B7000790B7595679586E007C08091DC01853714
:100B800020F060E070E087E033DB9ADB80910B01BE
:100B9000882329F080910B01815080930B010895E7
:100BA000813019F410921A010895823019F460937B
:100BB0001B010895833019F460931901089584305E
:100BC00019F460930D010895853011F460932101AB
:100BD0000895CF93DF939091BE01981759F0C82FD5
:100BE000D091BD0180E0BEDDC093BE018D2FDF91AD
:100BF000CF91B8CDDF91CF910895883039F410921C
:100C0000B0011092AE011092AD0145C0813B81F45C
:100C10008091B0018150833008F03FC083E0809321
:100C2000B0018093AF011092AE011092AD0135C0BA
:100C3000853BB1F4CB016EE370E00E947B13892BFE
:100C400051F58091B0018A3F30F58B5F8093B00100
:100C50008093AF011092AE011092AD01C5DD1BC0B3
:100C60008130D9F48091AD019091AE010196883820
:100C70002EE0920728F49093AE018093AD010BC053
:100C80001092AE011092AD018091B001882319F04D
:100C900081508093B00180E0089581E00895FF9233
:100CA0000F931F93CF93DF938C01EB01F42E809170
:100CB000D8019091D901892B31F0E091D801F091C0
:100CC000D90189E009951093D9010093D801012B2E
:100CD00039F0E091D801F091D901BE018F2D09952D
:100CE00081E08093B701DF91CF911F910F91FF9029
:100CF0000895CF93DF93E091C701EE2359F0E150BF
:100D0000E093C701F0E0EE0FFF1FE853FE4FC081F4
:100D1000D18102C0C0E0D0E0E091C701EE2341F0F4
:100D2000F0E0EE0FFF1FEA53FE4F8081918102C079
:100D300080E090E04AE060E070E0B1DFCE01DF915A
:100D4000CF910895883029F41092A50110928C015A
:100D500015C0813001F590918C01911107C060326E
:100D6000710570F180938C0198DA2AC0913089F472
:100D70006B3B710528F082E080938C0180E01FC0FE
:100D800061157105E9F06270862F880F880F8E5EFD
:100D900016C0AFDF15C0813811F0813E89F491E0B3
:100DA00090938C01813E21F48091A501865F03C060
:100DB0008091A5018F5F8093A5016FDA8BE4D2DC6F
:100DC00080E008959C019091C701983088F4E92F44
:100DD000F0E0EE0FFF1FE853FE4F318320839F5F4B
:100DE0009093C70148E0C9015ADF8091C701089577
:100DF0008FEF08950F931F93CF93DF93EC018B0137
:100E000078DFB801CE01DF91CF911F910F91DACF3A
:100E1000813C29F460E070E083E89BE006C0823CFE
:100E200039F460E070E08BE39AE0E4DF80E008955D
:100E300081E00895843011F58091D8019091D90115
:100E40002DE0803F920729F469E170E083E897E0A4
:100E500013C08358974061F49091BD01923040F0E7
:100E6000892F869596959695890F27DD80E00895C0
:100E700060E070E083E89BE0BDDFF8CF81E008959B
:100E8000813C29F460E070E083E89BE006C0823C8E
:100E900031F460E070E088E097E0ACDF16C0813BA1
:100EA00049F4CB016EE370E00E947B13892B69F457
:100EB0009BDC0BC0813E59F4CB016EE370E00E94D5
:100EC0007B136F5F60932B0119DD80E0089581E053
:100ED0000895813C29F460E070E083E89BE006C05F
:100EE000823C31F460E070E080E497E083DF07C08B
:100EF000873B39F460E070E085E29AE063DF80E0F0
:100F0000089581E00895BF92CF92DF92EF92FF9211
:100F10000F931F93CF93DF93182FEB0180911C0148
:100F20008093BE01D0900901F090080180910C01DE
:100F3000882319F0B090B30102C0BB24B394C090D1
:100F40000D01809117018111C0901801CC2051F042
:100F500081E0C81621F080910A018F1518F0F6E99A
:100F6000EF2E01C0EF2C0091B001BE01812F45DEB4
:100F70008091B001882339F001110CC09091BD011E
:100F80009093B20107C0002329F060E070E083E88D
:100F90009BE036C0912F9D7F9830D9F41092AC0120
:100FA0001A3019F4C0910A01D0E08D2D90E08C1711
:100FB0009D0738F48F2D90E0C817D90710F4C0931F
:100FC0000A01CE0198DA79DC81E08093050100E026
:100FD000B6C1113CD1F2123C59F48091BD018E157D
:100FE00010F48E2D02C080910A0167DCFEDAEFCF8B
:100FF000143C41F480E0B6DB60E070E08EE99AE0FA
:10100000F9DEE5CF9FE4910F923008F05CC080914B
:101010000C01882341F0CE0168E170E00E947B134F
:10102000892B31F0D4CF6091140170E0CE01F6CF5E
:101030000091A7010111CBCF2091BD01209761F450
:10104000123B11F48FEF05C02F15E0F7D21608F10F
:1010500081E0809305011DC0E0911401F0E0CF0113
:1010600066E371E00E945E138C179D0710F42F1544
:1010700048F7CF016CE672E00E945E138C179D0763
:1010800040F4D21630F0B0DB60E070E08EE99AE018
:10109000B1DEC091BD01809105016B2D70E0082E7D
:1010A000000C990B0E945E138C0F911D24DA809323
:1010B0000A01C81719F0F81201C0A4DB80910A01D7
:1010C000FCDB93DA3CC19FE1910F923020F48091D8
:1010D000050181957ACF113009F086C0A99711F4E6
:1010E00010930501882379F10091B20110E090E09E
:1010F000B8010E945E13EC01E091AF01F0E0BF0186
:101100000E948F13262FCE01801B910BBF010E94DE
:101110008F13322F361B8091AD019091AE016EE39B
:1011200070E00E947B13832F90E00E945E136CE3BB
:1011300070E00E947B13261B622F09F461E060932C
:10114000BB016093B401C091BB012091BD018C2F04
:1011500090E0821B910960918F01709190016F5F07
:101160007F4F7093900160938F01009709F42FCF08
:1011700097FF05C0233830F040E450E005C040E060
:1011800052E002C040E051E05695479597FD019628
:10119000959587950097C1F74617570708F017CF21
:1011A000C21710F4CFEF03C02C1710F4C1E0C20F28
:1011B000E091BE01F0E0EE0FFF1FEE0FFF1FEB59B5
:1011C000FE4F0280F381E02D8FEF8C0F099588236D
:1011D00031F0D091BB018C2FC5DAD093BB011092B6
:1011E000900110928F01F3CE1530A1F48091BD01D2
:1011F000833308F4ECCE90E08C1B9D0B8233910579
:1012000034F08739910564F186E990E029C082E3E2
:1012100090E026C01630B1F49091BD018091B401E8
:10122000981708F0D4CEC90FD11D90E08C179D07F8
:1012300034F0C233D10524F4C2E3D0E001C0EC01A4
:101240008C2F0EC0173079F49091BB018091BD01B5
:10125000891710F48F5F04C0981708F0B8CE81503A
:101260008093BB01B4CE133C19F0163C41F517C076
:1012700060911D0170911E0180E090E020E0AB01C3
:10128000082E02C0569547950A94E2F74170240F44
:1012900001968830910599F7223008F04FC081E01F
:1012A00090910C01911180E080930C0127DBAADA68
:1012B0008091BD0190E01FD980930A0196CE0091E4
:1012C000170101113BC0133B49F4CD2B09F07FCE30
:1012D000CC2011F086E9E82E8E2D04C0133E21F4B7
:1012E00080910A01EADA2BC0153C61F48091BD01BE
:1012F00080930A0180E036DA60E070E084E99FE0E4
:1013000079DD1DC0173B29F460E070E081E19AE0CF
:1013100013C01A3C59F48091BD0180931A01809149
:10132000BE0180931F01EADA5FDA09C01A3B31F48B
:1013300060E070E089E19AE045DD01C001E0802FC6
:10134000DF91CF911F910F91FF90EF90DF90CF90A1
:10135000BF9008950F931F93CF938B01C42F8830B4
:1013600091F48091BE0180938E0110928D0180E0F6
:10137000F9D98091C00181114FC080918D018F5F9B
:1013800080938D0133C0982F907F903B21F5809101
:101390008D014817E8F08150883040F49091B101F8
:1013A000992321F09091BE01891313DCC8016DE5EA
:1013B00070E00E947B13069749F480918D018F5F46
:1013C00080938D01C81740F188E303C082E101C01A
:1013D00080E0C8D921C0903E79F480918D018823A6
:1013E000A1F0481790F080918E01F3DB60E070E08F
:1013F00082EA96E0E7DC10C08A3049F46091A501EA
:1014000080918D01F901099579DA73DC05C0893085
:1014100019F480918E01DDDB80E0CF911F910F9157
:10142000089526E332E043E095CF26E332E044E03E
:1014300091CF20ED35E045E08DCF26E732E041E069
:1014400089CF2EE034E042E085CF27E134E042E06E
:1014500081CF22E334E041E07DCF25E334E043E077
:1014600079CF91E09093B1012BE334E048E072DF53
:101470001092B1010895CF93C0911701C11123C0FB
:10148000813C29F460E070E083E89BE006C0823C88
:1014900031F460E070E089E697E0ACDC15C0833C95
:1014A00051F48091200190E00196877099278093F4
:1014B000200124DA09C0873B31F460E070E081E26A
:1014C0009AE080DC01C0C1E08C2FCF910895CF93CA
:1014D000833C21F54091BE0160911D0170911E0178
:1014E000842F98E0282F30E02F5F3F4F277033275D
:1014F000822FFB0102C0F695E7952A95E2F7E0FFFF
:101500000AC04817B9F065DB8091BE0180931C01C9
:10151000F5D9C0E010C0915029F7F3CFC091170161
:10152000C11108C0893B31F460E070E081E39AE0CA
:1015300049DC01C0C1E08C2FCF9108950F931F9318
:10154000CF93DF93C82F8B01873BC9F480E00AD982
:1015500081E08093B601C8018F739927892B09F028
:101560009FC090913001892F8F708F5F292F207F2E
:101570006BE00E946F13922B9093300191C08079A1
:101580008039B1F420910E0190910F018C2F8F7052
:10159000813021F4822F921748F407C080911A01FC
:1015A000811104C0822F291708F4892FDBD80EC0BF
:1015B000803811F480E0D6D8C83041F41092B501DB
:1015C00060E070E08091300132D876C0C13039F4EB
:1015D0000931110508F47CC0C093BF0161C0C3305C
:1015E000D1F48091B5018F3F19F08F5F8093B501E1
:1015F00080911A01882309F453C080911B0190E067
:1016000062EC71E00E945E130817190708F448C0E5
:101610000E94EB0245C0C33C31F4E6D860E070E0C4
:1016200083E89BE014C0C43C21F460910A0170E09F
:101630000CC0C43B31F4E6D810921C0261E070E0AB
:1016400004C0C53C31F466E970E083E897E0D2DB82
:101650003FC0C33B79F4C8016EE370E00E947B1386
:10166000892B51F560E070E083ECDF91CF911F9101
:101670000F912DCFC73CD1F490913001892F8295E5
:101680008F708F5F83708295807F9F70892B80938E
:10169000300160E070E00E94170330D9A5D818C06F
:1016A000B801809130010E94170312C0C73E21F497
:1016B0001092B60123D90CC0D0911701D1110AC0E4
:1016C000CA3B41F460E070E089E29AE07BDB03C052
:1016D000D0E001C0D1E08D2FDF91CF911F910F910C
:1016E000089590912101992369F08093A80188E0E1
:1016F0008093A60181E08093A7018091BD01809332
:10170000A90108952FC80F931F93CF938B018830A1
:10171000A1F480E0E6DF8091A701082B1092B501CB
:1017200080911C018093BE011092B001012B09F041
:1017300059C081E08093BF0155C0813059F46931AF
:10174000710508F44FC0C091A701C1114BC080932F
:10175000BF0113C1833039F58091B5018F3F19F076
:101760008F5F8093B50180911A01882359F0809191
:101770001B0190E062EC71E0A1D70817190710F087
:101780000E94EB02B80180912F010E941703809103
:101790003201882339F190E062EC71E08FD7801735
:1017A000910700F554C0813B99F481E090E00E94DC
:1017B0007B0297DF80911901811114C080910C0187
:1017C000811103C00831110568F061E070E02AC0A2
:1017D000813ED9F3813841F480910A0190E00E9462
:1017E0007B027FDFC0E0C9C0813C21F460910A0127
:1017F00070E018C0823B81F41092B50180910D0118
:1018000090911701911180911801811103C086E90F
:1018100090E0E5CF86E9E5CF823E59F0823C29F49D
:1018200066E970E083E897E00CC0833921F41092F8
:10183000A70180E0D6CF833C31F460E070E08BE319
:101840009AE0D8DACFCF843C39F40E94F40360E008
:1018500070E08EE99AE0F5CF8D3B41F4F89488ED85
:101860008FBD88E880BF7894A895FFCF8F3C29F47E
:1018700060E070E08CE094E0E4CF8A3B89F4672B71
:1018800009F04FC0C0911701CC2329F00E94F40346
:101890001092170143C060E070E085E19AE06AC0F1
:1018A000833B29F460E070E080EF9DE0CACF873C85
:1018B000A9F490912F01892F82958F708F5F83708B
:1018C0008295807F9F70892B80932F0160E070E06C
:1018D0000E94170313D80E94F40384CF873BD1F4EE
:1018E00081E08093B601CB018F739927892B61F436
:1018F00090912F01892F8F708F5F292F207F6BE0B0
:10190000EED6922B90932F01B80180912F010E9467
:10191000170368CF873E29F41092B6010E947E0417
:1019200061CFC0911701C11127C08A3C41F40E94C8
:10193000F40381E0809317010E947E041EC0853C61
:1019400039F40E94F40360E070E084E99FE008C08D
:10195000863C41F40E94F40360E070E08CED9FE06F
:1019600049DA0BC0893B41F4012B31F460E070E0AF
:101970008DE19AE027DA01C0C1E08C2FCF911F9151
:101980000F9108950F931F93CF931092C2018091EE
:101990001A0290911B029C012F5F3F4F882790787D
:1019A000822B932B90931B0280931A029091C0017B
:1019B0002FB1822F8095881F8827881F8093C001B0
:1019C000981729F11092BF018093C00190911C02D9
:1019D000892F27FD0AC080699F709F3009F08F5FB3
:1019E00080931C0280E090E00CC08F7E95FD02C0C9
:1019F000806801C0806C80931C0280911A029091D3
:101A00001B020E94490110921B0210921A020091BF
:101A10001A0210911B028091BF018823B1F0B80116
:101A200083E00E94F8000E9412010134110528F0A1
:101A30000F701127012B09F049C01092910181E02C
:101A40008093E9010E94600132C0C0911C028C2F7A
:101A5000807F803B19F460E070E001C0B80181E054
:101A60000E94F800C4FF13C0C5FF02C0C8010CC02B
:101A700008311105E0F010921B0210921A02C062A8
:101A8000C0931C0280E090E00E94490110C0CC236A
:101A900071F0C5FD0AC00231110548F0C064C09361
:101AA0001C0280E090E00E9449010E944D0180915B
:101AB0009101811105C08FEE83B981E08093DD0132
:101AC000809191018F5F8F7180939101CF911F91D0
:101AD0000F9108958091E80181110E94A0048091E6
:101AE000C20181114FCF08950F931F93CF93DF93BE
:101AF000EC0100E317E0209761F08091B701219796
:101B0000811109C0C8010197F1F7E4DF0E941201B9
:101B1000F2CF81E001C080E0DF91CF911F910F9162
:101B200008950F931F93CF93DF93C82F882311F04D
:101B300006EA02C00CE0C1E0D091BE0110E0809145
:101B4000200147D882E30E94B203D093BE01C801AE
:101B5000CBDF809120013DD880E00E94B203D0937A
:101B6000BE018AEF90E0C0DFC15049F78D2F31D818
:101B70008AE992E0DF91CF911F910F91B5CFCF937A
:101B8000DF9364E6ACD5282F892F6AE0A8D5EC0155
:101B9000222341F0822FC5DF8C2FC3DF8D2FDF91F1
:101BA000CF91BFCFC111F8CFF9CFCF93DF93D82F0B
:101BB000C3E080910A010E94B20388EC90E094DFB8
:101BC000DD2319F080E991E08FDF80E00E94B2030D
:101BD00088EC90E089DFC15061F7DF91CF910895E3
:101BE000FF920F931F93CF93DF93D82F8B01C09158
:101BF000AA0181E08093AC01C33009F0E6C0F09007
:101C0000B0018D2F0E94FD05FF2051F08091B001A1
:101C1000811106C060E070E083E89BE0EBD8D5C09E
:101C2000D83021F481E080930301D1C0D23C19F473
:101C30001092B001DEC0D13BC1F490910201012BA2
:101C400049F4973610F08FEF03C0923018F481E01A
:101C50008093030180910301890F11F481E046C153
:101C6000883608F443C187E641C1D13E31F4809102
:101C700003018195809303010DC1D23B61F481E0A2
:101C80008093030180910201823008F40BC18150DE
:101C90008093020107C1D13009F0AFC009321105AC
:101CA00011F4D093030190918901892F880F97FD3A
:101CB000809590E069E070E001D5292F809188013E
:101CC000682F660F87FD60958091010170E090E0BC
:101CD000F5D4290F80918701682F660F87FD6095E5
:101CE0008091000170E090E0E9D4920F60910201D0
:101CF00070E0690F711D8091B001813091F4809185
:101D0000AD019091AE0125E0969587952A95E1F772
:101D100024E730E0A901481B590BCA01CFD4B9010F
:101D2000EAD4862F0E94B20300FD08C00E94700111
:101D3000817090918901890F809389019091880128
:101D400080918601890F809388010E94700165E26D
:101D5000C6D480918701980F909387010E947001EB
:101D60008F7331F40E9470016DE0B9D490938601B5
:101D7000C0910101CC2339F00E9470018F7319F4D6
:101D8000C150C09301010E947001811108C00E94DE
:101D900070016EE0A4D49093010110928801C0916B
:101DA0000001C33038F00E9470018F7119F4C150E6
:101DB000C09300010E9470018F7709F0A3C00E94B8
:101DC00070018770809300019DC0D83041F48091EC
:101DD00022018093AA0181E08093040189C0D13C53
:101DE00031F460E070E083E89BE004D881C0D23C2D
:101DF00031F48C2F90E0019617C0D13C91F3D33C85
:101E000071F48091BE018F5F87700E94E905EC2F0D
:101E1000F0E0E45FFE4F8091BE01878B56C0D43C5A
:101E200059F48C2F90E0049665E070E078D48093AC
:101E300022018093AA0149C0D13B51F5C23090F4F0
:101E400000FD56C0EC2FF0E0E45FFE4F848D9091D2
:101E50000401891B883020F08F3F99F58EEF31C047
:101E600088E02FC0C43009F043C090912A018091CE
:101E70000401890F823010F482E003C0893708F032
:101E800088E780932A0180912A010E94B20330C022
:101E9000D13E31F48091040181958093040115C0F5
:101EA000D23B89F481E080930401C23018F500FD33
:101EB0001FC0EC2FF0E0E45FFE4F848D8F3FC1F038
:101EC0008F5F848F15C0D23E19F40E947E0410C02B
:101ED000D53C41F460E070E084E99FE00E94FA069E
:101EE00080E0D3CFD13071F081E018C0809302013F
:101EF00080E014C0C430E1F780912A01833018F2E9
:101F00008150BFCF0932110519F481E0809304019B
:101F10008091BA01080F0093BA01EACFDF91CF9107
:101F20001F910F91FF9008950F931F93CF93DF930D
:101F3000D82F8B01883031F48091AC01882311F0C7
:101F400088E04EDE8D2F8079803961F481E08093C6
:101F5000AB01C091AC01C1110CC080910A010E947B
:101F6000B20324C0803839F41092AB0180E00E94A3
:101F7000B203C0E01BC0D130C1F4C091AB01CC238F
:101F800059F08091AC018823A1F3B80181E0DF9181
:101F9000CF911F910F9124CE80E00E9485010733DD
:101FA000114038F3D093BF0101C0C1E08C2FDF9105
:101FB000CF911F910F910895FF920F931F93CF938D
:101FC000DF93D82F8B01F0900A018079803951F589
:101FD000ED2FEF70E43020F01092AB01C0E036C07E
:101FE00091E09093AB01F0E0E45FFE4F86A12FEF0C
:101FF000280F263948F480930A011092AC01809191
:102000001C018093BE010CC09093AC018739D0F0C5
:1020100090E08759910965E070E081D38093AA012F
:10202000C0E00BC0803841F41092AB0180E00E9408
:10203000B20381E08093B701C1E08091AB018823B6
:1020400029F001C0C0E0B8018D2F6EDFF0920A01C7
:10205000D83021F4B80188E071DA28C0D13039F4E1
:102060008091AB01811120C0B80181E004C0D33060
:1020700041F4B80183E0DF91CF911F910F91FF9060
:102080005DCAD63C49F40E94F40360E070E083E846
:102090009BE00E94FA0608C0D73B41F460E070E084
:1020A0008DE29AE00E94E20680E001C08C2FDF9171
:1020B000CF911F910F91FF9008951F920F920FB62D
:1020C0000F9211242F933F938F939F93AF93BF93BE
:1020D000EF93FF938091E7018823E9F0E091E60117
:1020E00020B131B1F0E0EE0FFF1FDF01AE51BE4F66
:1020F0002D933C93E252FE4F80819181821793078A
:1021000008F401962817390708F401979183808312
:1021100081E08093E80181E08093E701FF91EF91F6
:10212000BF91AF919F918F913F912F910F900FBED3
:102130000F901F9018951F920F920FB60F921124B7
:102140008F9381E08093C2018F910F900FBE0F900B
:102150001F9018951F920F920FB60F9211248F9314
:1021600081E08093C1018F910F900FBE0F901F905F
:102170001895F89485B7877F85BF88ED90E00FB6F6
:10218000F894A8958FBD90B7977F90BF0FBE89E058
:102190008CB988E380BB83E88093720081E08093F0
:1021A000710080E882BB87BD8CB788608CBFA89522
:1021B00080E480BF0E946001789481E00E94570112
:1021C00060E070E08AE197E00E94E2061092B701B9
:1021D0000E94F4039FB1892F8095881F8827881F4C
:1021E0008093C00197FF14C08CE091E09093B901F7
:1021F0008093B801F89480E090E0A4D2853A09F089
:1022000046C00091B8011091B901C1E0D0E036C0DC
:10221000C0E08C2F0E94B20383E190E065DC8C2F3C
:1022200086950E94B20383E190E05EDC9FB1892F26
:102230008095881F8827881F8093C00197FD13C051
:10224000CF5FC03431F765E181E00E9417040E943E
:102250007E04C6E98C2F0E94B20384E090E044DC47
:10226000C150C1F7C1CFCC2309F4BECF8C2F0E943F
:10227000B2038DE090E038DCC150F5CFCE0162D2E0
:10228000F80181938F012196CC32D105B9F778946A
:1022900080911A0181110E94EB0260E070E087E6F4
:1022A0009AE00E94E20661E070E083E89BE00E9411
:1022B000E20643E4442E52E0552E60E4962E882434
:1022C000839477E0772ECC24C394D12CF5E06F2E45
:1022D000A3E8AA2EABE0BA2E0E9412018091C5019C
:1022E0009091C601009751F06091C3017091C401B3
:1022F0000E94FA061092C6011092C5018091BF019A
:10230000882309F44EC080E00E94B203A89540BE25
:102310001F989FB1892F8095881F8827881F8093D9
:10232000C00197FFF6CF0E944D018CB788608CBF2B
:102330001092E8011092C2011092C1018091BF0178
:10234000882331F18091E901882321F086B78F79C4
:10235000806203C086B78F79806486BF86B780614C
:1023600086BF889586B78F7E86BF8091C101811117
:102370001092BF018091E801882321F08092DD0155
:102380000E94A0048091C2018823C1F2FBDAD6CF5B
:1023900050920B018CB7877F8CBF0E946001A8957B
:1023A00090BE98DB1092B7018091D8019091D9012D
:1023B000F7E083389F0751F4C091BD010E940403E8
:1023C000C63008F0880F0E94850132C124E08C30AD
:1023D000920719F5C0E7D0E0FE0184918053803167
:1023E00010F49FDB11C010E0812F81708295880F5F
:1023F000807E0E94B20380E190E076DB1F5F19319E
:1024000099F78AE992E070DB8CE291E06DDB21962E
:10241000F0E0CE37DF0701F7D1C02DE0803F920713
:1024200099F03FE08439930729F0EFE08C3D9E0757
:1024300009F0ACC02091AC01213009F0A7C0209177
:10244000AB01222309F4A2C0C091AA01EC2FF0E055
:10245000E45FFE4F87898093BE01C230C1F020F057
:10246000C43009F476C038CFD48D86E90E94B20317
:10247000C11103C082E090E003C08D2F869590E0EB
:1024800033DB80E00E94B2038D2F90E00AC10E94EE
:1024900070018F73E82EF12C0E947001672D1FD1FF
:1024A000E60102C0CC0FDD1F9A95E2F70E94700191
:1024B000662D15D1960102C0220F331F9A95E2F7BF
:1024C000C20FD31F0E94700190E0BE0128D1C80F37
:1024D000D91FC739D10514F0C6E9D0E08C2F0E946E
:1024E000B203C70101DB8E0133E0159507953A95DC
:1024F000E1F7011101C001E010E0C701F5DAC01BEE
:10250000D10BD7FF02C0C0E0D0E08C2F0E94B203F5
:102510000E947001837039F4C701E6DACE01959507
:1025200087950E94B203C230D1053CF70E9470012A
:102530006DE0D5D0E60102C0CC0FDD1F9A95E2F721
:102540000E94700190E0BE01D6D0C80FD91F80E074
:10255000A5C0C0912A01CC0FC73908F0C6E9D4E064
:102560008C2F0E94B20385E090E0BEDA80912A01B0
:102570000E94B20381E490E0B7DAD15089F780ED90
:1025800092E0B2DA80E00E94B203A6CE3AE08B334A
:102590009307E9F488EE93E0A7DA8091DC01869551
:1025A0008695EDDA9091DC019370892F880F9695CE
:1025B000890FE5DA80911701882381F0B092C60176
:1025C000A092C5011092C4011092C30185CEE7E02C
:1025D00089369E0731F48091DA01D1DA88EE93E0F2
:1025E00060C0F7E080349F07B9F48091C001811189
:1025F00073CE80910A010E94B20384E690E074DAFF
:1026000080E00E94B20380912B0190E068EE73E0BD
:1026100055D08456910945C08850974049F480E0D0
:10262000C4DA81E0C2DA80E0C0DA80ED97E039C038
:10263000809121018823B9F18091A701882399F124
:102640002091BD013091A80123130AC0822F0E945E
:10265000B2031092A7018091A9018093BC013CCEE6
:102660006091A601231760F4832F821B38D081115B
:1026700001C081E0820F0E94B2038AE090E011C0A5
:10268000862F90E06EE170E019D06091A901631B84
:1026900070E045D0EB0121968FEF820F0E94B203CC
:1026A000CE0122DA19CE86B78F7986BF86B78061D0
:1026B00086BF889586B78F7E86BF0ECE00245527AD
:1026C00004C0080E591F880F991F009729F07695AE
:1026D0006795B8F37105B9F7802D952F0895991B6B
:1026E00079E004C0991F961708F0961B881F7A9509
:1026F000C9F780950895AA1BBB1B51E107C0AA1F0B
:10270000BB1FA617B70710F0A61BB70B881F991F92
:102710005A95A9F780959095BC01CD01089597FB36
:10272000072E16F4009406D077FD08D0E4DF07FCEE
:1027300005D03EF4909581959F4F089570956195D1
:102740007F4F0895E199FECF1FBA8EBBE09A99277B
:102750008DB30895262FE199FECF1FBA8EBBE09A64
:1027600081500DB2021639F01CBA2DBB0FB6F89489
:0C277000E29AE19A0FBE0895F894FFCFA2
:10277C00080E180101010004820132020001010A55
:10278C000A8282820107050100000000000100009E
:10279C000001030000000000294332020737001833
:1027AC00390400781E980A0504030E011101140166
:1027BC000201000000000000000100000000000009
:1027CC000000010000740184028C0394049C05A495
:1027DC0006B007FF07F9010702E201F701E501F76F
:1027EC0001E801F701EB01F701EE01F701F101F747
:0627FC0001F401F70100E9
:00000001FF
